{
  "contractName": "AddressStorage",
  "abi": [
    {
      "constant": true,
      "inputs": [
        {
          "internalType": "bytes32",
          "name": "_key",
          "type": "bytes32"
        }
      ],
      "name": "getAddress",
      "outputs": [
        {
          "internalType": "address",
          "name": "",
          "type": "address"
        }
      ],
      "payable": false,
      "stateMutability": "view",
      "type": "function"
    }
  ],
  "bytecode": "0x6080604052348015600f57600080fd5b5060b38061001e6000396000f3fe6080604052348015600f57600080fd5b506004361060285760003560e01c806321f8a72114602d575b600080fd5b604760048036036020811015604157600080fd5b50356063565b604080516001600160a01b039092168252519081900360200190f35b6000908152602081905260409020546001600160a01b03169056fea265627a7a7231582080203e82ef308eb2552d1b2c9b8718a2becf3e2fe8e8c45d0c6fd8bc3c36ff9b64736f6c634300050e0032",
  "source": "pragma solidity ^0.5.0;\n\ncontract AddressStorage {\n    mapping(bytes32 => address) private addresses;\n\n    function getAddress(bytes32 _key) public view returns (address) {\n        return addresses[_key];\n    }\n\n    function _setAddress(bytes32 _key, address _value) internal {\n        addresses[_key] = _value;\n    }\n\n}\n",
  "sourcePath": "/src/contracts/configuration/AddressStorage.sol",
  "compiler": {
    "name": "solc",
    "version": "0.5.14+commit.01f1aaa4.Emscripten.clang"
  },
  "schemaVersion": "3.0.11",
  "updatedAt": "2020-01-09T12:41:06.634Z",
  "devdoc": {
    "methods": {}
  },
  "userdoc": {
    "methods": {}
  }
}