{
  "contractName": "AToken",
  "abi": [
    {
      "constant": true,
      "inputs": [],
      "name": "name",
      "outputs": [
        {
          "name": "",
          "type": "string"
        }
      ],
      "payable": false,
      "stateMutability": "view",
      "type": "function"
    },
    {
      "constant": false,
      "inputs": [
        {
          "name": "spender",
          "type": "address"
        },
        {
          "name": "value",
          "type": "uint256"
        }
      ],
      "name": "approve",
      "outputs": [
        {
          "name": "",
          "type": "bool"
        }
      ],
      "payable": false,
      "stateMutability": "nonpayable",
      "type": "function"
    },
    {
      "constant": true,
      "inputs": [],
      "name": "totalSupply",
      "outputs": [
        {
          "name": "",
          "type": "uint256"
        }
      ],
      "payable": false,
      "stateMutability": "view",
      "type": "function"
    },
    {
      "constant": false,
      "inputs": [
        {
          "name": "sender",
          "type": "address"
        },
        {
          "name": "recipient",
          "type": "address"
        },
        {
          "name": "amount",
          "type": "uint256"
        }
      ],
      "name": "transferFrom",
      "outputs": [
        {
          "name": "",
          "type": "bool"
        }
      ],
      "payable": false,
      "stateMutability": "nonpayable",
      "type": "function"
    },
    {
      "constant": true,
      "inputs": [],
      "name": "decimals",
      "outputs": [
        {
          "name": "",
          "type": "uint8"
        }
      ],
      "payable": false,
      "stateMutability": "view",
      "type": "function"
    },
    {
      "constant": false,
      "inputs": [
        {
          "name": "spender",
          "type": "address"
        },
        {
          "name": "addedValue",
          "type": "uint256"
        }
      ],
      "name": "increaseAllowance",
      "outputs": [
        {
          "name": "",
          "type": "bool"
        }
      ],
      "payable": false,
      "stateMutability": "nonpayable",
      "type": "function"
    },
    {
      "constant": true,
      "inputs": [],
      "name": "initialExchangeRate",
      "outputs": [
        {
          "name": "",
          "type": "uint256"
        }
      ],
      "payable": false,
      "stateMutability": "view",
      "type": "function"
    },
    {
      "constant": true,
      "inputs": [
        {
          "name": "account",
          "type": "address"
        }
      ],
      "name": "balanceOf",
      "outputs": [
        {
          "name": "",
          "type": "uint256"
        }
      ],
      "payable": false,
      "stateMutability": "view",
      "type": "function"
    },
    {
      "constant": true,
      "inputs": [],
      "name": "underlyingAssetAddress",
      "outputs": [
        {
          "name": "",
          "type": "address"
        }
      ],
      "payable": false,
      "stateMutability": "view",
      "type": "function"
    },
    {
      "constant": true,
      "inputs": [],
      "name": "symbol",
      "outputs": [
        {
          "name": "",
          "type": "string"
        }
      ],
      "payable": false,
      "stateMutability": "view",
      "type": "function"
    },
    {
      "constant": true,
      "inputs": [],
      "name": "underlyingAssetDecimals",
      "outputs": [
        {
          "name": "",
          "type": "uint256"
        }
      ],
      "payable": false,
      "stateMutability": "view",
      "type": "function"
    },
    {
      "constant": false,
      "inputs": [
        {
          "name": "spender",
          "type": "address"
        },
        {
          "name": "subtractedValue",
          "type": "uint256"
        }
      ],
      "name": "decreaseAllowance",
      "outputs": [
        {
          "name": "",
          "type": "bool"
        }
      ],
      "payable": false,
      "stateMutability": "nonpayable",
      "type": "function"
    },
    {
      "constant": false,
      "inputs": [
        {
          "name": "recipient",
          "type": "address"
        },
        {
          "name": "amount",
          "type": "uint256"
        }
      ],
      "name": "transfer",
      "outputs": [
        {
          "name": "",
          "type": "bool"
        }
      ],
      "payable": false,
      "stateMutability": "nonpayable",
      "type": "function"
    },
    {
      "constant": true,
      "inputs": [
        {
          "name": "owner",
          "type": "address"
        },
        {
          "name": "spender",
          "type": "address"
        }
      ],
      "name": "allowance",
      "outputs": [
        {
          "name": "",
          "type": "uint256"
        }
      ],
      "payable": false,
      "stateMutability": "view",
      "type": "function"
    },
    {
      "inputs": [
        {
          "name": "_addressesProvider",
          "type": "address"
        },
        {
          "name": "_underlyingAsset",
          "type": "address"
        },
        {
          "name": "_underlyingAssetDecimals",
          "type": "uint256"
        },
        {
          "name": "_name",
          "type": "string"
        },
        {
          "name": "_symbol",
          "type": "string"
        },
        {
          "name": "_decimals",
          "type": "uint8"
        },
        {
          "name": "_initialExchangeRate",
          "type": "uint256"
        }
      ],
      "payable": false,
      "stateMutability": "nonpayable",
      "type": "constructor"
    },
    {
      "anonymous": false,
      "inputs": [
        {
          "indexed": true,
          "name": "_from",
          "type": "address"
        },
        {
          "indexed": false,
          "name": "_value",
          "type": "uint256"
        },
        {
          "indexed": false,
          "name": "_underlyingValue",
          "type": "uint256"
        },
        {
          "indexed": false,
          "name": "_fromBalance",
          "type": "uint256"
        }
      ],
      "name": "Redeem",
      "type": "event"
    },
    {
      "anonymous": false,
      "inputs": [
        {
          "indexed": true,
          "name": "_from",
          "type": "address"
        },
        {
          "indexed": false,
          "name": "_value",
          "type": "uint256"
        },
        {
          "indexed": false,
          "name": "_underlyingValue",
          "type": "uint256"
        },
        {
          "indexed": false,
          "name": "_fromBalance",
          "type": "uint256"
        }
      ],
      "name": "MintOnDeposit",
      "type": "event"
    },
    {
      "anonymous": false,
      "inputs": [
        {
          "indexed": true,
          "name": "_from",
          "type": "address"
        },
        {
          "indexed": false,
          "name": "_value",
          "type": "uint256"
        },
        {
          "indexed": false,
          "name": "_underlyingValue",
          "type": "uint256"
        },
        {
          "indexed": false,
          "name": "_fromBalance",
          "type": "uint256"
        }
      ],
      "name": "BurnOnLiquidation",
      "type": "event"
    },
    {
      "anonymous": false,
      "inputs": [
        {
          "indexed": true,
          "name": "_from",
          "type": "address"
        },
        {
          "indexed": true,
          "name": "_to",
          "type": "address"
        },
        {
          "indexed": false,
          "name": "_value",
          "type": "uint256"
        },
        {
          "indexed": false,
          "name": "_underlyingValue",
          "type": "uint256"
        },
        {
          "indexed": false,
          "name": "_fromBalance",
          "type": "uint256"
        },
        {
          "indexed": false,
          "name": "_toBalance",
          "type": "uint256"
        }
      ],
      "name": "TransferOnLiquidation",
      "type": "event"
    },
    {
      "anonymous": false,
      "inputs": [
        {
          "indexed": true,
          "name": "_from",
          "type": "address"
        },
        {
          "indexed": true,
          "name": "_to",
          "type": "address"
        },
        {
          "indexed": false,
          "name": "_value",
          "type": "uint256"
        },
        {
          "indexed": false,
          "name": "_underlyingValue",
          "type": "uint256"
        },
        {
          "indexed": false,
          "name": "_fromBalance",
          "type": "uint256"
        },
        {
          "indexed": false,
          "name": "_toBalance",
          "type": "uint256"
        }
      ],
      "name": "BalanceTransfer",
      "type": "event"
    },
    {
      "anonymous": false,
      "inputs": [
        {
          "indexed": true,
          "name": "from",
          "type": "address"
        },
        {
          "indexed": true,
          "name": "to",
          "type": "address"
        },
        {
          "indexed": false,
          "name": "value",
          "type": "uint256"
        }
      ],
      "name": "Transfer",
      "type": "event"
    },
    {
      "anonymous": false,
      "inputs": [
        {
          "indexed": true,
          "name": "owner",
          "type": "address"
        },
        {
          "indexed": true,
          "name": "spender",
          "type": "address"
        },
        {
          "indexed": false,
          "name": "value",
          "type": "uint256"
        }
      ],
      "name": "Approval",
      "type": "event"
    },
    {
      "constant": false,
      "inputs": [
        {
          "name": "_amount",
          "type": "uint256"
        }
      ],
      "name": "redeem",
      "outputs": [],
      "payable": false,
      "stateMutability": "nonpayable",
      "type": "function"
    },
    {
      "constant": false,
      "inputs": [
        {
          "name": "_account",
          "type": "address"
        },
        {
          "name": "_underlyingAmount",
          "type": "uint256"
        }
      ],
      "name": "mintOnDeposit",
      "outputs": [],
      "payable": false,
      "stateMutability": "nonpayable",
      "type": "function"
    },
    {
      "constant": false,
      "inputs": [
        {
          "name": "account",
          "type": "address"
        },
        {
          "name": "value",
          "type": "uint256"
        }
      ],
      "name": "burnOnLiquidation",
      "outputs": [],
      "payable": false,
      "stateMutability": "nonpayable",
      "type": "function"
    },
    {
      "constant": false,
      "inputs": [
        {
          "name": "from",
          "type": "address"
        },
        {
          "name": "to",
          "type": "address"
        },
        {
          "name": "value",
          "type": "uint256"
        }
      ],
      "name": "transferOnLiquidation",
      "outputs": [],
      "payable": false,
      "stateMutability": "nonpayable",
      "type": "function"
    },
    {
      "constant": true,
      "inputs": [],
      "name": "getExchangeRate",
      "outputs": [
        {
          "name": "",
          "type": "uint256"
        }
      ],
      "payable": false,
      "stateMutability": "view",
      "type": "function"
    },
    {
      "constant": true,
      "inputs": [
        {
          "name": "_user",
          "type": "address"
        }
      ],
      "name": "balanceOfUnderlying",
      "outputs": [
        {
          "name": "",
          "type": "uint256"
        }
      ],
      "payable": false,
      "stateMutability": "view",
      "type": "function"
    },
    {
      "constant": true,
      "inputs": [
        {
          "name": "_amount",
          "type": "uint256"
        }
      ],
      "name": "aTokenAmountToUnderlyingAmount",
      "outputs": [
        {
          "name": "",
          "type": "uint256"
        }
      ],
      "payable": false,
      "stateMutability": "view",
      "type": "function"
    },
    {
      "constant": true,
      "inputs": [
        {
          "name": "_from",
          "type": "address"
        },
        {
          "name": "_amount",
          "type": "uint256"
        }
      ],
      "name": "isTransferAllowed",
      "outputs": [
        {
          "name": "",
          "type": "bool"
        }
      ],
      "payable": false,
      "stateMutability": "view",
      "type": "function"
    },
    {
      "constant": true,
      "inputs": [
        {
          "name": "_amount",
          "type": "uint256"
        }
      ],
      "name": "underlyingAmountToATokenAmount",
      "outputs": [
        {
          "name": "",
          "type": "uint256"
        }
      ],
      "payable": false,
      "stateMutability": "view",
      "type": "function"
    }
  ],
  "bytecode": "0x60806040523480156200001157600080fd5b5060405162001a2638038062001a26833981018060405260e08110156200003757600080fd5b81516020830151604084015160608501805193959294919391830192916401000000008111156200006757600080fd5b820160208101848111156200007b57600080fd5b81516401000000008111828201871017156200009657600080fd5b50509291906020018051640100000000811115620000b357600080fd5b82016020810184811115620000c757600080fd5b8151640100000000811182820187101715620000e257600080fd5b505060208083015160409093015186519295509293508591859185916200011091600391908601906200022f565b508151620001269060049060208501906200022f565b506005805460ff191660ff929092169190911790555050600880546001600160a01b0319166001600160a01b038981169190911791829055604080517fed6ff7600000000000000000000000000000000000000000000000000000000081529051929091169163ed6ff76091600480820192602092909190829003018186803b158015620001b357600080fd5b505afa158015620001c8573d6000803e3d6000fd5b505050506040513d6020811015620001df57600080fd5b5051600980546001600160a01b0319166001600160a01b0392831617905560079190915560058054610100600160a81b031916610100979092169690960217909455505060065550620002d49050565b828054600181600116156101000203166002900490600052602060002090601f016020900481019282601f106200027257805160ff1916838001178555620002a2565b82800160010185558215620002a2579182015b82811115620002a257825182559160200191906001019062000285565b50620002b0929150620002b4565b5090565b620002d191905b80821115620002b05760008155600101620002bb565b90565b61174280620002e46000396000f3fe608060405234801561001057600080fd5b506004361061014d5760003560e01c806370a08231116100c3578063a9059cbb1161007c578063a9059cbb14610400578063b32d46101461042c578063db006a7514610449578063dd62ed3e14610466578063e6aa216c14610494578063f866c3191461049c5761014d565b806370a082311461034e57806389d1a0fc1461037457806394362e8b1461039857806395d89b41146103c45780639a32c207146103cc578063a457c2d7146103d45761014d565b8063313ce56711610115578063313ce5671461027c578063395093511461029a5780633af9e669146102c65780633edb7cb8146102ec5780635eae177c1461031a5780636d019f35146103465761014d565b806306fdde0314610152578063095ea7b3146101cf5780630ece1a5f1461020f57806318160ddd1461023e57806323b872dd14610246575b600080fd5b61015a6104d2565b6040805160208082528351818301528351919283929083019185019080838360005b8381101561019457818101518382015260200161017c565b50505050905090810190601f1680156101c15780820380516001836020036101000a031916815260200191505b509250505060405180910390f35b6101fb600480360360408110156101e557600080fd5b506001600160a01b038135169060200135610568565b604080519115158252519081900360200190f35b61022c6004803603602081101561022557600080fd5b503561057f565b60408051918252519081900360200190f35b61022c6105f6565b6101fb6004803603606081101561025c57600080fd5b506001600160a01b038135811691602081013590911690604001356105fc565b610284610653565b6040805160ff9092168252519081900360200190f35b6101fb600480360360408110156102b057600080fd5b506001600160a01b03813516906020013561065c565b61022c600480360360208110156102dc57600080fd5b50356001600160a01b0316610698565b6103186004803603604081101561030257600080fd5b506001600160a01b0381351690602001356106ab565b005b6101fb6004803603604081101561033057600080fd5b506001600160a01b0381351690602001356107d7565b61022c6108fd565b61022c6004803603602081101561036457600080fd5b50356001600160a01b0316610903565b61037c61091e565b604080516001600160a01b039092168252519081900360200190f35b610318600480360360408110156103ae57600080fd5b506001600160a01b038135169060200135610932565b61015a610a64565b61022c610ac5565b6101fb600480360360408110156103ea57600080fd5b506001600160a01b038135169060200135610acb565b6101fb6004803603604081101561041657600080fd5b506001600160a01b038135169060200135610b07565b61022c6004803603602081101561044257600080fd5b5035610b14565b6103186004803603602081101561045f57600080fd5b5035610b47565b61022c6004803603604081101561047c57600080fd5b506001600160a01b0381358116916020013516610d0a565b61022c610d35565b610318600480360360608110156104b257600080fd5b506001600160a01b03813581169160208101359091169060400135610dd7565b60038054604080516020601f600260001961010060018816150201909516949094049384018190048102820181019092528281526060939092909183018282801561055e5780601f106105335761010080835404028352916020019161055e565b820191906000526020600020905b81548152906001019060200180831161054157829003601f168201915b5050505050905090565b6000610575338484610f20565b5060015b92915050565b60008161058e575060006105f1565b6000610598610653565b60ff16600a0a90506105ed6105e8826105dc600654600a0a6105d06105bb610d35565b6105c48a611012565b9063ffffffff61102816565b9063ffffffff61106016565b9063ffffffff6110c316565b611130565b9150505b919050565b60025490565b6000610609848484611146565b6001600160a01b038416600090815260016020908152604080832033808552925290912054610649918691610644908663ffffffff61122e16565b610f20565b5060019392505050565b60055460ff1690565b3360008181526001602090815260408083206001600160a01b03871684529091528120549091610575918590610644908663ffffffff61128e16565b60006105796106a683610903565b61057f565b600860009054906101000a90046001600160a01b03166001600160a01b0316630261bf8b6040518163ffffffff1660e01b815260040160206040518083038186803b1580156106f957600080fd5b505afa15801561070d573d6000803e3d6000fd5b505050506040513d602081101561072357600080fd5b50516001600160a01b0316331461076e57604051600160e51b62461bcd0281526004018080602001828103825260368152602001806116776036913960400191505060405180910390fd5b61077882826112eb565b816001600160a01b03167f90e5d3d68ec162d9c7de393037a3ede04dd44f68e051bf2ace4a73c299dbc4db826107ad8461057f565b6107b686610903565b60408051938452602084019290925282820152519081900360600190a25050565b600080600860009054906101000a90046001600160a01b03166001600160a01b0316632f58b80d6040518163ffffffff1660e01b815260040160206040518083038186803b15801561082857600080fd5b505afa15801561083c573d6000803e3d6000fd5b505050506040513d602081101561085257600080fd5b5051905060006108618461057f565b60055460408051600160e01b6376e9d6150281526101009092046001600160a01b03908116600484015288811660248401526044830184905290519293508416916376e9d61591606480820192602092909190829003018186803b1580156108c857600080fd5b505afa1580156108dc573d6000803e3d6000fd5b505050506040513d60208110156108f257600080fd5b505195945050505050565b60075481565b6001600160a01b031660009081526020819052604090205490565b60055461010090046001600160a01b031681565b600860009054906101000a90046001600160a01b03166001600160a01b0316630261bf8b6040518163ffffffff1660e01b815260040160206040518083038186803b15801561098057600080fd5b505afa158015610994573d6000803e3d6000fd5b505050506040513d60208110156109aa57600080fd5b50516001600160a01b031633146109f557604051600160e51b62461bcd0281526004018080602001828103825260368152602001806116776036913960400191505060405180910390fd5b6000610a0082610b14565b9050610a0c83826113c7565b826001600160a01b03167fbe7799898ca2d813ff902b487c1b434ab45b47edd8f38b77ad5e99aae8341b7a8284610a4287610903565b60408051938452602084019290925282820152519081900360600190a2505050565b60048054604080516020601f600260001961010060018816150201909516949094049384018190048102820181019092528281526060939092909183018282801561055e5780601f106105335761010080835404028352916020019161055e565b60065481565b3360008181526001602090815260408083206001600160a01b03871684529091528120549091610575918590610644908663ffffffff61122e16565b6000610575338484611146565b600081610b23575060006105f1565b6105796105e8600654600a0a6105dc610b3a610d35565b869063ffffffff61106016565b3381610b5382826107d7565b610ba75760408051600160e51b62461bcd02815260206004820152601b60248201527f5472616e736665722063616e6e6f7420626520616c6c6f7765642e0000000000604482015290519081900360640190fd5b6000610bb28461057f565b9050610bbe33856114ba565b60085460408051600160e01b630261bf8b02815290516000926001600160a01b031691630261bf8b916004808301926020929190829003018186803b158015610c0657600080fd5b505afa158015610c1a573d6000803e3d6000fd5b505050506040513d6020811015610c3057600080fd5b505160055460408051600160e01b63935642cf0281526101009092046001600160a01b03908116600484015233602484015260448301869052905192935083169163935642cf9160648082019260009290919082900301818387803b158015610c9857600080fd5b505af1158015610cac573d6000803e3d6000fd5b50505050336001600160a01b03167fbd5034ffbd47e4e72a94baa2cdb74c6fad73cb3bcdc13036b72ec8306f5a76468684610ce633610903565b60408051938452602084019290925282820152519081900360600190a25050505050565b6001600160a01b03918216600090815260016020908152604080832093909416825291909152205490565b60095460055460408051600160e01b63d15e00530281526001600160a01b036101009093048316600482015290516000938493169163d15e0053916024808301926020929190829003018186803b158015610d8f57600080fd5b505afa158015610da3573d6000803e3d6000fd5b505050506040513d6020811015610db957600080fd5b5051600754909150610dd1908263ffffffff61102816565b91505090565b600860009054906101000a90046001600160a01b03166001600160a01b0316630261bf8b6040518163ffffffff1660e01b815260040160206040518083038186803b158015610e2557600080fd5b505afa158015610e39573d6000803e3d6000fd5b505050506040513d6020811015610e4f57600080fd5b50516001600160a01b03163314610e9a57604051600160e51b62461bcd0281526004018080602001828103825260368152602001806116776036913960400191505060405180910390fd5b610ea58383836114c8565b816001600160a01b0316836001600160a01b03167f2c335084544f8f7476a1c2e460962cd7e50d03d52a940d3d09e6f25894c75df383610ee48561057f565b610eed88610903565b610ef688610903565b604080519485526020850193909352838301919091526060830152519081900360800190a3505050565b6001600160a01b038316610f6857604051600160e51b62461bcd0281526004018080602001828103825260248152602001806116f36024913960400191505060405180910390fd5b6001600160a01b038216610fb057604051600160e51b62461bcd0281526004018080602001828103825260228152602001806116346022913960400191505060405180910390fd5b6001600160a01b03808416600081815260016020908152604080832094871680845294825291829020859055815185815291517f8c5be1e5ebec7d5bd14f71427d1e84f3dd0314c0f7b2291e5b200ac8c7c3b9259281900390910190a3505050565b600061057982633b9aca0063ffffffff61106016565b600060028204611058836105dc61104b876b033b2e3c9fd0803ce8000000611060565b849063ffffffff61128e16565b949350505050565b60008261106f57506000610579565b8282028284828161107c57fe5b04146110bc57604051600160e51b62461bcd0281526004018080602001828103825260218152602001806116566021913960400191505060405180910390fd5b9392505050565b600080821161111c5760408051600160e51b62461bcd02815260206004820152601a60248201527f536166654d6174683a206469766973696f6e206279207a65726f000000000000604482015290519081900360640190fd5b600082848161112757fe5b04949350505050565b600061057982633b9aca0063ffffffff6110c316565b828161115282826107d7565b6111a65760408051600160e51b62461bcd02815260206004820152601b60248201527f5472616e736665722063616e6e6f7420626520616c6c6f7765642e0000000000604482015290519081900360640190fd5b6111b18585856114c8565b836001600160a01b0316856001600160a01b03167fbf553f39591e51c9524a30865d4a5590424976ba75d2046a6c7ce15d6321b624856111f08761057f565b6111f98a610903565b6112028a610903565b604080519485526020850193909352838301919091526060830152519081900360800190a35050505050565b6000828211156112885760408051600160e51b62461bcd02815260206004820152601e60248201527f536166654d6174683a207375627472616374696f6e206f766572666c6f770000604482015290519081900360640190fd5b50900390565b6000828201838110156110bc5760408051600160e51b62461bcd02815260206004820152601b60248201527f536166654d6174683a206164646974696f6e206f766572666c6f770000000000604482015290519081900360640190fd5b6001600160a01b03821661133357604051600160e51b62461bcd0281526004018080602001828103825260218152602001806116ad6021913960400191505060405180910390fd5b600254611346908263ffffffff61122e16565b6002556001600160a01b038216600090815260208190526040902054611372908263ffffffff61122e16565b6001600160a01b038316600081815260208181526040808320949094558351858152935191937fddf252ad1be2c89b69c2b068fc378daa952ba7f163c4a11628f55a4df523b3ef929081900390910190a35050565b6001600160a01b0382166114255760408051600160e51b62461bcd02815260206004820152601f60248201527f45524332303a206d696e7420746f20746865207a65726f206164647265737300604482015290519081900360640190fd5b600254611438908263ffffffff61128e16565b6002556001600160a01b038216600090815260208190526040902054611464908263ffffffff61128e16565b6001600160a01b0383166000818152602081815260408083209490945583518581529351929391927fddf252ad1be2c89b69c2b068fc378daa952ba7f163c4a11628f55a4df523b3ef9281900390910190a35050565b6114c482826112eb565b5050565b6001600160a01b03831661151057604051600160e51b62461bcd0281526004018080602001828103825260258152602001806116ce6025913960400191505060405180910390fd5b6001600160a01b03821661155857604051600160e51b62461bcd0281526004018080602001828103825260238152602001806116116023913960400191505060405180910390fd5b6001600160a01b038316600090815260208190526040902054611581908263ffffffff61122e16565b6001600160a01b0380851660009081526020819052604080822093909355908416815220546115b6908263ffffffff61128e16565b6001600160a01b038084166000818152602081815260409182902094909455805185815290519193928716927fddf252ad1be2c89b69c2b068fc378daa952ba7f163c4a11628f55a4df523b3ef92918290030190a350505056fe45524332303a207472616e7366657220746f20746865207a65726f206164647265737345524332303a20617070726f766520746f20746865207a65726f2061646472657373536166654d6174683a206d756c7469706c69636174696f6e206f766572666c6f775468652063616c6c6572206f6620746869732066756e6374696f6e2063616e206f6e6c792062652061206c656e64696e6720706f6f6c45524332303a206275726e2066726f6d20746865207a65726f206164647265737345524332303a207472616e736665722066726f6d20746865207a65726f206164647265737345524332303a20617070726f76652066726f6d20746865207a65726f2061646472657373a165627a7a723058207fef76f69ace3bc4f45e545c159fe5492be679329803c4168d6856a74ad29b560029",
  "source": "pragma solidity ^0.5.0;\n\nimport \"openzeppelin-solidity/contracts/math/SafeMath.sol\";\nimport \"openzeppelin-solidity/contracts/token/ERC20/ERC20.sol\";\nimport \"openzeppelin-solidity/contracts/token/ERC20/ERC20Detailed.sol\";\n\nimport \"../configuration/LendingPoolAddressesProvider.sol\";\nimport \"../lendingpool/LendingPool.sol\";\nimport \"../lendingpool/LendingPoolDataProvider.sol\";\nimport \"../lendingpool/LendingPoolCore.sol\";\nimport \"../libraries/WadRayMath.sol\";\n\n/**\n * @title Aave ERC20 AToken\n *\n * @dev Implementation of the interest bearing token for the DLP protocol.\n */\ncontract AToken is ERC20, ERC20Detailed {\n    using WadRayMath for uint256;\n\n    event Redeem(\n        address indexed _from,\n        uint256 _value,\n        uint256 _underlyingValue,\n        uint256 _fromBalance\n    );\n\n    event MintOnDeposit(address indexed _from, uint256 _value, uint256 _underlyingValue, uint256 _fromBalance);\n    event BurnOnLiquidation(address indexed _from, uint256 _value, uint256 _underlyingValue, uint256 _fromBalance);\n    event TransferOnLiquidation(\n        address indexed _from,\n        address indexed _to,\n        uint256 _value,\n        uint256 _underlyingValue,\n        uint256 _fromBalance,\n        uint256 _toBalance\n    );\n\n\n    event BalanceTransfer(\n        address indexed _from,\n        address indexed _to,\n        uint256 _value,\n        uint256 _underlyingValue,\n        uint256 _fromBalance,\n        uint256 _toBalance\n    );\n\n    address public underlyingAssetAddress;\n    uint256 public underlyingAssetDecimals;\n    uint256 public initialExchangeRate;\n\n    LendingPoolAddressesProvider private addressesProvider;\n    LendingPoolCore private core;\n\n    modifier onlyLendingPool {\n        require(\n            msg.sender == addressesProvider.getLendingPool(),\n            \"The caller of this function can only be a lending pool\"\n        );\n        _;\n    }\n\n    modifier whenTranferAllowed(address _from, uint256 _amount) {\n        require(isTransferAllowed(_from, _amount), \"Transfer cannot be allowed.\");\n        _;\n    }\n\n    constructor(\n        LendingPoolAddressesProvider _addressesProvider,\n        address _underlyingAsset,\n        uint256 _underlyingAssetDecimals,\n        string memory _name,\n        string memory _symbol,\n        uint8 _decimals,\n        uint256 _initialExchangeRate\n    ) public ERC20Detailed(_name, _symbol, _decimals) {\n        addressesProvider = _addressesProvider;\n        core = LendingPoolCore(addressesProvider.getLendingPoolCore());\n        initialExchangeRate = _initialExchangeRate;\n        underlyingAssetAddress = _underlyingAsset;\n        underlyingAssetDecimals = _underlyingAssetDecimals;\n    }\n\n    /**\n     * @notice ERC20 implementation internal function backing transfer() and transferFrom()\n     * @dev validates the transfer before allowing it. NOTE: This is not standard ERC20 behavior\n     */\n    function _transfer(address from, address to, uint256 amount) internal whenTranferAllowed(from, amount) {\n        super._transfer(from, to, amount);\n        emit BalanceTransfer(from, to, amount, aTokenAmountToUnderlyingAmount(amount), balanceOf(from), balanceOf(to));\n    }\n\n    /**\n     * @notice redeems aToken for the undelying asset.\n     */\n    function redeem(uint256 _amount) external whenTranferAllowed(msg.sender, _amount) {\n        // calculate underlying to redeem\n        uint256 underlyingAmountToRedeem = aTokenAmountToUnderlyingAmount(_amount);\n\n        // burns tokens equivalent to the amount requested\n        burnOnRedeemInternal(msg.sender, _amount);\n\n        // executes redeem of the underlying asset\n        LendingPool pool = LendingPool(addressesProvider.getLendingPool());\n        pool.redeemUnderlying(underlyingAssetAddress, msg.sender, underlyingAmountToRedeem);\n        emit Redeem(msg.sender, _amount, underlyingAmountToRedeem, balanceOf(msg.sender));\n    }\n\n    /**\n     * @notice mints token in the event of users depositing the underlying asset into the lending pool\n     * @dev only lending pools can call this function\n     */\n    function mintOnDeposit(address _account, uint256 _underlyingAmount) external onlyLendingPool {\n        uint256 aTokensToMint = underlyingAmountToATokenAmount(_underlyingAmount);\n\n        _mint(_account, aTokensToMint);\n        emit MintOnDeposit(_account, aTokensToMint, _underlyingAmount, balanceOf(_account));\n    }\n\n    /**\n     * @dev burns token in the event of a borrow being liquidated, in case the liquidators reclaims the underlying asset\n     * @dev only lending pools can call this function\n     */\n    function burnOnLiquidation(address account, uint256 value) external onlyLendingPool {\n        _burn(account, value);\n        emit BurnOnLiquidation(account, value, aTokenAmountToUnderlyingAmount(value), balanceOf(account));\n    }\n\n    /**\n     * @dev transfers tokens in the event of a borrow being liquidated, in case the liquidators reclaims the aToken\n     * @dev only lending pools can call this function\n     */\n    function transferOnLiquidation(address from, address to, uint256 value) external onlyLendingPool {\n        super._transfer(from, to, value);\n        emit TransferOnLiquidation(from, to, value, aTokenAmountToUnderlyingAmount(value), balanceOf(from), balanceOf(to));\n    }\n\n    /**\n     * @dev returns the exchange rate of the aToken to the underlying asset\n     */\n    function getExchangeRate() public view returns (uint256) {\n        uint256 currentNormalizedCumulatedInterest = core.getReserveNormalizedIncome(underlyingAssetAddress);\n\n        return initialExchangeRate.rayDiv(currentNormalizedCumulatedInterest);\n    }\n\n    function balanceOfUnderlying(address _user) public view returns (uint256) {\n        return aTokenAmountToUnderlyingAmount(balanceOf(_user));\n    }\n\n    function aTokenAmountToUnderlyingAmount(uint256 _amount) public view returns (uint256) {\n        if (_amount == 0) {\n            // Optmization\n            return 0;\n        }\n\n        uint256 overlyingDecimals = 10 ** uint256(decimals());\n\n        return _amount\n            .wadToRay()\n            .rayDiv(getExchangeRate())\n            .mul(10 ** underlyingAssetDecimals)\n            .div(overlyingDecimals)\n            .rayToWad();\n    }\n\n    /**\n     * @notice Used to validate transfers before actually executing them.\n     **/\n    function isTransferAllowed(address _from, uint256 _amount) public view returns (bool) {\n        LendingPoolDataProvider dataProvider = LendingPoolDataProvider(addressesProvider.getLendingPoolDataProvider());\n        uint256 amountUnderlying = aTokenAmountToUnderlyingAmount(_amount);\n        return dataProvider.balanceDecreaseAllowed(underlyingAssetAddress, _from, amountUnderlying);\n    }\n\n    function underlyingAmountToATokenAmount(uint256 _amount) public view returns (uint256) {\n        if (_amount == 0) {\n            // Optmization\n            return 0;\n        }\n\n        return _amount.mul(getExchangeRate()).div(10 ** underlyingAssetDecimals).rayToWad();\n    }\n\n    /**\n     * @dev burns token in the event of users redeeming the underlying asset from the lending pool\n     * @dev only lending pools can call this function\n     */\n    function burnOnRedeemInternal(address account, uint256 value) internal {\n        _burn(account, value);\n    }\n}\n",
  "sourcePath": "/src/contracts/tokenization/AToken.sol",
  "compiler": {
    "name": "solc",
    "version": "0.5.6+commit.b259423e.Emscripten.clang"
  },
  "schemaVersion": "3.0.15",
  "updatedAt": "2019-11-02T17:58:20.636Z",
  "devdoc": {
    "details": "Implementation of the interest bearing token for the DLP protocol.",
    "methods": {
      "allowance(address,address)": {
        "details": "See `IERC20.allowance`."
      },
      "approve(address,uint256)": {
        "details": "See `IERC20.approve`.     * Requirements:     * - `spender` cannot be the zero address."
      },
      "balanceOf(address)": {
        "details": "See `IERC20.balanceOf`."
      },
      "burnOnLiquidation(address,uint256)": {
        "details": "burns token in the event of a borrow being liquidated, in case the liquidators reclaims the underlying assetonly lending pools can call this function"
      },
      "decimals()": {
        "details": "Returns the number of decimals used to get its user representation. For example, if `decimals` equals `2`, a balance of `505` tokens should be displayed to a user as `5,05` (`505 / 10 ** 2`).     * Tokens usually opt for a value of 18, imitating the relationship between Ether and Wei.     * > Note that this information is only used for _display_ purposes: it in no way affects any of the arithmetic of the contract, including `IERC20.balanceOf` and `IERC20.transfer`."
      },
      "decreaseAllowance(address,uint256)": {
        "details": "Atomically decreases the allowance granted to `spender` by the caller.     * This is an alternative to `approve` that can be used as a mitigation for problems described in `IERC20.approve`.     * Emits an `Approval` event indicating the updated allowance.     * Requirements:     * - `spender` cannot be the zero address. - `spender` must have allowance for the caller of at least `subtractedValue`."
      },
      "getExchangeRate()": {
        "details": "returns the exchange rate of the aToken to the underlying asset"
      },
      "increaseAllowance(address,uint256)": {
        "details": "Atomically increases the allowance granted to `spender` by the caller.     * This is an alternative to `approve` that can be used as a mitigation for problems described in `IERC20.approve`.     * Emits an `Approval` event indicating the updated allowance.     * Requirements:     * - `spender` cannot be the zero address."
      },
      "mintOnDeposit(address,uint256)": {
        "details": "only lending pools can call this function"
      },
      "name()": {
        "details": "Returns the name of the token."
      },
      "symbol()": {
        "details": "Returns the symbol of the token, usually a shorter version of the name."
      },
      "totalSupply()": {
        "details": "See `IERC20.totalSupply`."
      },
      "transfer(address,uint256)": {
        "details": "See `IERC20.transfer`.     * Requirements:     * - `recipient` cannot be the zero address. - the caller must have a balance of at least `amount`."
      },
      "transferFrom(address,address,uint256)": {
        "details": "See `IERC20.transferFrom`.     * Emits an `Approval` event indicating the updated allowance. This is not required by the EIP. See the note at the beginning of `ERC20`;     * Requirements: - `sender` and `recipient` cannot be the zero address. - `sender` must have a balance of at least `value`. - the caller must have allowance for `sender`'s tokens of at least `amount`."
      },
      "transferOnLiquidation(address,address,uint256)": {
        "details": "transfers tokens in the event of a borrow being liquidated, in case the liquidators reclaims the aTokenonly lending pools can call this function"
      }
    },
    "title": "Aave ERC20 AToken"
  },
  "userdoc": {
    "methods": {
      "isTransferAllowed(address,uint256)": {
        "notice": "Used to validate transfers before actually executing them.*"
      },
      "mintOnDeposit(address,uint256)": {
        "notice": "mints token in the event of users depositing the underlying asset into the lending pool"
      },
      "redeem(uint256)": {
        "notice": "redeems aToken for the undelying asset."
      }
    }
  }
}