{
  "contractName": "BaseAdminUpgradeabilityProxy",
  "abi": [
    {
      "anonymous": false,
      "inputs": [
        {
          "indexed": false,
          "internalType": "address",
          "name": "previousAdmin",
          "type": "address"
        },
        {
          "indexed": false,
          "internalType": "address",
          "name": "newAdmin",
          "type": "address"
        }
      ],
      "name": "AdminChanged",
      "type": "event"
    },
    {
      "anonymous": false,
      "inputs": [
        {
          "indexed": true,
          "internalType": "address",
          "name": "implementation",
          "type": "address"
        }
      ],
      "name": "Upgraded",
      "type": "event"
    },
    {
      "payable": true,
      "stateMutability": "payable",
      "type": "fallback"
    },
    {
      "constant": false,
      "inputs": [],
      "name": "admin",
      "outputs": [
        {
          "internalType": "address",
          "name": "",
          "type": "address"
        }
      ],
      "payable": false,
      "stateMutability": "nonpayable",
      "type": "function"
    },
    {
      "constant": false,
      "inputs": [],
      "name": "implementation",
      "outputs": [
        {
          "internalType": "address",
          "name": "",
          "type": "address"
        }
      ],
      "payable": false,
      "stateMutability": "nonpayable",
      "type": "function"
    },
    {
      "constant": false,
      "inputs": [
        {
          "internalType": "address",
          "name": "newAdmin",
          "type": "address"
        }
      ],
      "name": "changeAdmin",
      "outputs": [],
      "payable": false,
      "stateMutability": "nonpayable",
      "type": "function"
    },
    {
      "constant": false,
      "inputs": [
        {
          "internalType": "address",
          "name": "newImplementation",
          "type": "address"
        }
      ],
      "name": "upgradeTo",
      "outputs": [],
      "payable": false,
      "stateMutability": "nonpayable",
      "type": "function"
    },
    {
      "constant": false,
      "inputs": [
        {
          "internalType": "address",
          "name": "newImplementation",
          "type": "address"
        },
        {
          "internalType": "bytes",
          "name": "data",
          "type": "bytes"
        }
      ],
      "name": "upgradeToAndCall",
      "outputs": [],
      "payable": true,
      "stateMutability": "payable",
      "type": "function"
    }
  ],
  "bytecode": "0x608060405234801561001057600080fd5b5061061b806100206000396000f3fe60806040526004361061004a5760003560e01c80633659cfe6146100545780634f1ef286146100875780635c60da1b146101075780638f28397014610138578063f851a4401461016b575b610052610180565b005b34801561006057600080fd5b506100526004803603602081101561007757600080fd5b50356001600160a01b031661019a565b6100526004803603604081101561009d57600080fd5b6001600160a01b0382351691908101906040810160208201356401000000008111156100c857600080fd5b8201836020820111156100da57600080fd5b803590602001918460018302840111640100000000831117156100fc57600080fd5b5090925090506101d4565b34801561011357600080fd5b5061011c610281565b604080516001600160a01b039092168252519081900360200190f35b34801561014457600080fd5b506100526004803603602081101561015b57600080fd5b50356001600160a01b03166102be565b34801561017757600080fd5b5061011c610378565b6101886103a3565b610198610193610403565b610428565b565b6101a261044c565b6001600160a01b0316336001600160a01b031614156101c9576101c481610471565b6101d1565b6101d1610180565b50565b6101dc61044c565b6001600160a01b0316336001600160a01b03161415610274576101fe83610471565b6000836001600160a01b031683836040518083838082843760405192019450600093509091505080830381855af49150503d806000811461025b576040519150601f19603f3d011682016040523d82523d6000602084013e610260565b606091505b505090508061026e57600080fd5b5061027c565b61027c610180565b505050565b600061028b61044c565b6001600160a01b0316336001600160a01b031614156102b3576102ac610403565b90506102bb565b6102bb610180565b90565b6102c661044c565b6001600160a01b0316336001600160a01b031614156101c9576001600160a01b0381166103245760405162461bcd60e51b81526004018080602001828103825260368152602001806105766036913960400191505060405180910390fd5b7f7e644d79422f17c01e4894b5f4f588d331ebfa28653d42ae832dc59e38c9798f61034d61044c565b604080516001600160a01b03928316815291841660208301528051918290030190a16101c4816104b1565b600061038261044c565b6001600160a01b0316336001600160a01b031614156102b3576102ac61044c565b6103ab61044c565b6001600160a01b0316336001600160a01b031614156103fb5760405162461bcd60e51b81526004018080602001828103825260328152602001806105446032913960400191505060405180910390fd5b610198610198565b7f360894a13ba1a3210667c828492db98dca3e2076cc3735a920a3ca505d382bbc5490565b3660008037600080366000845af43d6000803e808015610447573d6000f35b3d6000fd5b7fb53127684a568b3173ae13b9f8a6016e243e63b6e8ee1178d6a717850b5d61035490565b61047a816104d5565b6040516001600160a01b038216907fbc7cd75a20ee27fd9adebab32041f755214dbc6bffa90cc0225b39da2e5c2d3b90600090a250565b7fb53127684a568b3173ae13b9f8a6016e243e63b6e8ee1178d6a717850b5d610355565b6104de8161053d565b6105195760405162461bcd60e51b815260040180806020018281038252603b8152602001806105ac603b913960400191505060405180910390fd5b7f360894a13ba1a3210667c828492db98dca3e2076cc3735a920a3ca505d382bbc55565b3b15159056fe43616e6e6f742063616c6c2066616c6c6261636b2066756e6374696f6e2066726f6d207468652070726f78792061646d696e43616e6e6f74206368616e6765207468652061646d696e206f6620612070726f787920746f20746865207a65726f206164647265737343616e6e6f742073657420612070726f787920696d706c656d656e746174696f6e20746f2061206e6f6e2d636f6e74726163742061646472657373a265627a7a7231582028320adc5984753f7b1be17f24e459faf8524aa4cc946857732239a1eb0f314c64736f6c634300050e0032",
  "source": "pragma solidity ^0.5.0;\n\nimport \"./UpgradeabilityProxy.sol\";\n\n/**\n * @title BaseAdminUpgradeabilityProxy\n * @dev This contract combines an upgradeability proxy with an authorization\n * mechanism for administrative tasks.\n * All external functions in this contract must be guarded by the\n * `ifAdmin` modifier. See ethereum/solidity#3864 for a Solidity\n * feature proposal that would enable this to be done automatically.\n */\ncontract BaseAdminUpgradeabilityProxy is BaseUpgradeabilityProxy {\n    /**\n   * @dev Emitted when the administration has been transferred.\n   * @param previousAdmin Address of the previous admin.\n   * @param newAdmin Address of the new admin.\n   */\n    event AdminChanged(address previousAdmin, address newAdmin);\n\n    /**\n   * @dev Storage slot with the admin of the contract.\n   * This is the keccak-256 hash of \"eip1967.proxy.admin\" subtracted by 1, and is\n   * validated in the constructor.\n   */\n\n    bytes32 internal constant ADMIN_SLOT = 0xb53127684a568b3173ae13b9f8a6016e243e63b6e8ee1178d6a717850b5d6103;\n\n    /**\n   * @dev Modifier to check whether the `msg.sender` is the admin.\n   * If it is, it will run the function. Otherwise, it will delegate the call\n   * to the implementation.\n   */\n    modifier ifAdmin() {\n        if (msg.sender == _admin()) {\n            _;\n        } else {\n            _fallback();\n        }\n    }\n\n    /**\n   * @return The address of the proxy admin.\n   */\n    function admin() external ifAdmin returns (address) {\n        return _admin();\n    }\n\n    /**\n   * @return The address of the implementation.\n   */\n    function implementation() external ifAdmin returns (address) {\n        return _implementation();\n    }\n\n    /**\n   * @dev Changes the admin of the proxy.\n   * Only the current admin can call this function.\n   * @param newAdmin Address to transfer proxy administration to.\n   */\n    function changeAdmin(address newAdmin) external ifAdmin {\n        require(newAdmin != address(0), \"Cannot change the admin of a proxy to the zero address\");\n        emit AdminChanged(_admin(), newAdmin);\n        _setAdmin(newAdmin);\n    }\n\n    /**\n   * @dev Upgrade the backing implementation of the proxy.\n   * Only the admin can call this function.\n   * @param newImplementation Address of the new implementation.\n   */\n    function upgradeTo(address newImplementation) external ifAdmin {\n        _upgradeTo(newImplementation);\n    }\n\n    /**\n   * @dev Upgrade the backing implementation of the proxy and call a function\n   * on the new implementation.\n   * This is useful to initialize the proxied contract.\n   * @param newImplementation Address of the new implementation.\n   * @param data Data to send as msg.data in the low level call.\n   * It should include the signature and the parameters of the function to be called, as described in\n   * https://solidity.readthedocs.io/en/v0.4.24/abi-spec.html#function-selector-and-argument-encoding.\n   */\n    function upgradeToAndCall(address newImplementation, bytes calldata data) external payable ifAdmin {\n        _upgradeTo(newImplementation);\n        (bool success, ) = newImplementation.delegatecall(data);\n        require(success);\n    }\n\n    /**\n   * @return The admin slot.\n   */\n    function _admin() internal view returns (address adm) {\n        bytes32 slot = ADMIN_SLOT;\n        //solium-disable-next-line\n        assembly {\n            adm := sload(slot)\n        }\n    }\n\n    /**\n   * @dev Sets the address of the proxy admin.\n   * @param newAdmin Address of the new proxy admin.\n   */\n    function _setAdmin(address newAdmin) internal {\n        bytes32 slot = ADMIN_SLOT;\n        //solium-disable-next-line\n        assembly {\n            sstore(slot, newAdmin)\n        }\n    }\n\n    /**\n   * @dev Only fall back when the sender is not the admin.\n   */\n    function _willFallback() internal {\n        require(msg.sender != _admin(), \"Cannot call fallback function from the proxy admin\");\n        super._willFallback();\n    }\n}\n",
  "sourcePath": "/src/contracts/libraries/openzeppelin-upgradeability/BaseAdminUpgradeabilityProxy.sol",
  "compiler": {
    "name": "solc",
    "version": "0.5.14+commit.01f1aaa4.Emscripten.clang"
  },
  "schemaVersion": "3.0.11",
  "updatedAt": "2020-01-09T12:41:06.743Z",
  "devdoc": {
    "details": "This contract combines an upgradeability proxy with an authorization mechanism for administrative tasks. All external functions in this contract must be guarded by the `ifAdmin` modifier. See ethereum/solidity#3864 for a Solidity feature proposal that would enable this to be done automatically.",
    "methods": {
      "admin()": {
        "return": "The address of the proxy admin."
      },
      "changeAdmin(address)": {
        "details": "Changes the admin of the proxy. Only the current admin can call this function.",
        "params": {
          "newAdmin": "Address to transfer proxy administration to."
        }
      },
      "implementation()": {
        "return": "The address of the implementation."
      },
      "upgradeTo(address)": {
        "details": "Upgrade the backing implementation of the proxy. Only the admin can call this function.",
        "params": {
          "newImplementation": "Address of the new implementation."
        }
      },
      "upgradeToAndCall(address,bytes)": {
        "details": "Upgrade the backing implementation of the proxy and call a function on the new implementation. This is useful to initialize the proxied contract.",
        "params": {
          "data": "Data to send as msg.data in the low level call. It should include the signature and the parameters of the function to be called, as described in https://solidity.readthedocs.io/en/v0.4.24/abi-spec.html#function-selector-and-argument-encoding.",
          "newImplementation": "Address of the new implementation."
        }
      }
    },
    "title": "BaseAdminUpgradeabilityProxy"
  },
  "userdoc": {
    "methods": {}
  }
}