{
  "contractName": "DefaultReserveInterestRateStrategy",
  "abi": [
    {
      "inputs": [
        {
          "name": "_reserve",
          "type": "address"
        },
        {
          "name": "_provider",
          "type": "address"
        },
        {
          "name": "_baseVariableBorrowRate",
          "type": "uint256"
        },
        {
          "name": "_variableBorrowRateScaling",
          "type": "uint256"
        },
        {
          "name": "_fixedBorrowRateScaling",
          "type": "uint256"
        },
        {
          "name": "_borrowToLiquidityRateDelta",
          "type": "uint256"
        }
      ],
      "payable": false,
      "stateMutability": "nonpayable",
      "type": "constructor"
    },
    {
      "constant": true,
      "inputs": [],
      "name": "getBaseVariableBorrowRate",
      "outputs": [
        {
          "name": "",
          "type": "uint256"
        }
      ],
      "payable": false,
      "stateMutability": "view",
      "type": "function"
    },
    {
      "constant": true,
      "inputs": [],
      "name": "getVariableBorrowRateScaling",
      "outputs": [
        {
          "name": "",
          "type": "uint256"
        }
      ],
      "payable": false,
      "stateMutability": "view",
      "type": "function"
    },
    {
      "constant": true,
      "inputs": [],
      "name": "getFixedBorrowRateScaling",
      "outputs": [
        {
          "name": "",
          "type": "uint256"
        }
      ],
      "payable": false,
      "stateMutability": "view",
      "type": "function"
    },
    {
      "constant": true,
      "inputs": [],
      "name": "getBorrowToLiquidityRateDelta",
      "outputs": [
        {
          "name": "",
          "type": "uint256"
        }
      ],
      "payable": false,
      "stateMutability": "view",
      "type": "function"
    },
    {
      "constant": true,
      "inputs": [
        {
          "name": "_reserve",
          "type": "address"
        },
        {
          "name": "_utilizationRate",
          "type": "uint256"
        },
        {
          "name": "_totalBorrowsFixed",
          "type": "uint256"
        },
        {
          "name": "_totalBorrowsVariable",
          "type": "uint256"
        },
        {
          "name": "_averageFixedBorrowRate",
          "type": "uint256"
        }
      ],
      "name": "calculateInterestRates",
      "outputs": [
        {
          "name": "currentLiquidityRate",
          "type": "uint256"
        },
        {
          "name": "currentFixedBorrowRate",
          "type": "uint256"
        },
        {
          "name": "currentVariableBorrowRate",
          "type": "uint256"
        }
      ],
      "payable": false,
      "stateMutability": "view",
      "type": "function"
    }
  ],
  "bytecode": "0x608060405234801561001057600080fd5b5060405160c0806106db833981018060405260c081101561003057600080fd5b5080516020808301516040808501516060860151608087015160a09097015183517fed6ff760000000000000000000000000000000000000000000000000000000008152935196979496929591949390926001600160a01b0388169263ed6ff7609260048082019391829003018186803b1580156100ad57600080fd5b505afa1580156100c1573d6000803e3d6000fd5b505050506040513d60208110156100d757600080fd5b5051600080546001600160a01b0319166001600160a01b03928316179055604080517f3618abba000000000000000000000000000000000000000000000000000000008152905191871691633618abba91600480820192602092909190829003018186803b15801561014857600080fd5b505afa15801561015c573d6000803e3d6000fd5b505050506040513d602081101561017257600080fd5b5051600180546001600160a01b03199081166001600160a01b03938416179091556002959095556003939093556004919091556005556006805490921693169290921790915550610513806101c86000396000f3fe608060405234801561001057600080fd5b50600436106100575760003560e01c806334762ca51461005c57806345e8e1431461007657806357e37af01461007e578063a26a88d3146100da578063d7b0c197146100e2575b600080fd5b6100646100ea565b60408051918252519081900360200190f35b6100646100f0565b6100bc600480360360a081101561009457600080fd5b506001600160a01b0381351690602081013590604081013590606081013590608001356100f6565b60408051938452602084019290925282820152519081900360600190f35b61006461021f565b610064610225565b60025490565b60045490565b60015460408051600160e01b63bb85c0bb0281526001600160a01b03888116600483015291516000938493849391169163bb85c0bb91602480820192602092909190829003018186803b15801561014c57600080fd5b505afa158015610160573d6000803e3d6000fd5b505050506040513d602081101561017657600080fd5b505191506acecb8f27f4200f3a0000008711156101cd576101ca6101bd6101ae896acecb8f27f4200f3a00000063ffffffff61022b16565b6004549063ffffffff61029016565b839063ffffffff6102db16565b91505b6101f46002546101e86003548a61029090919063ffffffff16565b9063ffffffff6102db16565b90506102128761020688888589610338565b9063ffffffff61029016565b9250955095509592505050565b60035490565b60055490565b6000828211156102855760408051600160e51b62461bcd02815260206004820152601e60248201527f536166654d6174683a207375627472616374696f6e206f766572666c6f770000604482015290519081900360640190fd5b508082035b92915050565b60006102d46b033b2e3c9fd0803ce80000006102c86102b5868663ffffffff6103b716565b6b019d971e4fe8401e74000000906102db565b9063ffffffff61041316565b9392505050565b6000828201838110156102d45760408051600160e51b62461bcd02815260206004820152601b60248201527f536166654d6174683a206164646974696f6e206f766572666c6f770000000000604482015290519081900360640190fd5b60008061034b868663ffffffff6102db16565b90508061035c5760009150506103af565b600061036b8561020688610480565b9050600061037c856102068a610480565b905060006103a861038c85610480565b61039c858563ffffffff6102db16565b9063ffffffff61049616565b9450505050505b949350505050565b6000826103c65750600061028a565b828202828482816103d357fe5b04146102d457604051600160e51b62461bcd0281526004018080602001828103825260218152602001806104c76021913960400191505060405180910390fd5b600080821161046c5760408051600160e51b62461bcd02815260206004820152601a60248201527f536166654d6174683a206469766973696f6e206279207a65726f000000000000604482015290519081900360640190fd5b600082848161047757fe5b04949350505050565b600061028a82633b9aca0063ffffffff6103b716565b6000600282046103af836102c86104b9876b033b2e3c9fd0803ce80000006103b7565b849063ffffffff6102db1656fe536166654d6174683a206d756c7469706c69636174696f6e206f766572666c6f77a165627a7a723058205000bda8c9bfd3241498f599e7fb8c55f1d74dccc1f8cb6a617ab3697962e9210029",
  "source": "pragma solidity ^0.5.0;\n\nimport \"../interfaces/IReserveInterestRateStrategy.sol\";\nimport \"../libraries/WadRayMath.sol\";\nimport \"../configuration/LendingPoolAddressesProvider.sol\";\nimport \"./LendingPoolCore.sol\";\nimport \"../interfaces/ILendingRateOracle.sol\";\n\n\nimport \"openzeppelin-solidity/contracts/math/SafeMath.sol\";\n\n\n\n/**\n@title DefaultReserveInterestRateStrategy contract\n@notice implements the calculation of the interest rates based on the reserve parameters.\n*/\n\ncontract DefaultReserveInterestRateStrategy is IReserveInterestRateStrategy {\n\n    using WadRayMath for uint256;\n    using SafeMath for uint256;\n\n    uint256 constant FIXED_RATE_INCREASE_THRESHOLD = (1e27)/4; // 0.25 ray, 25% of the utilization rate\n\n    LendingPoolCore core;\n    ILendingRateOracle lendingRateOracle;\n\n    uint256 baseVariableBorrowRate;\n    uint256 variableBorrowRateScaling;\n    uint256 fixedBorrowRateScaling;\n    uint256 borrowToLiquidityRateDelta;\n    address reserve;\n\n    constructor(\n        address _reserve,\n        LendingPoolAddressesProvider _provider,\n        uint256 _baseVariableBorrowRate,\n        uint256 _variableBorrowRateScaling,\n        uint256 _fixedBorrowRateScaling,\n        uint256 _borrowToLiquidityRateDelta) public {\n\n        core = LendingPoolCore(_provider.getLendingPoolCore());\n        lendingRateOracle = ILendingRateOracle(_provider.getLendingRateOracle());\n        baseVariableBorrowRate = _baseVariableBorrowRate;\n        variableBorrowRateScaling = _variableBorrowRateScaling;\n        fixedBorrowRateScaling = _fixedBorrowRateScaling;\n        borrowToLiquidityRateDelta = _borrowToLiquidityRateDelta;\n        reserve = _reserve;\n    }\n\n    /**\n    @dev accessors\n     */\n\n    function getBaseVariableBorrowRate() external view returns(uint256) {\n        return baseVariableBorrowRate;\n    }\n\n    function getVariableBorrowRateScaling() external view returns(uint256) {\n        return variableBorrowRateScaling;\n    }\n\n    function getFixedBorrowRateScaling() external view returns(uint256) {\n        return fixedBorrowRateScaling;\n    }\n\n    function getBorrowToLiquidityRateDelta() external view returns(uint256) {\n        return borrowToLiquidityRateDelta;\n    }\n\n\n\n    /**\n    @dev returns the interest rates, in rays\n     */\n    function calculateInterestRates(\n        address _reserve,\n        uint256 _utilizationRate,\n        uint256 _totalBorrowsFixed,\n        uint256 _totalBorrowsVariable,\n        uint256 _averageFixedBorrowRate\n        ) external view returns (uint256 currentLiquidityRate, uint256 currentFixedBorrowRate, uint256 currentVariableBorrowRate) {\n\n        currentFixedBorrowRate = lendingRateOracle.getMarketBorrowRate(_reserve);\n\n        if(_utilizationRate > FIXED_RATE_INCREASE_THRESHOLD){\n            currentFixedBorrowRate = currentFixedBorrowRate.add(fixedBorrowRateScaling.rayMul(_utilizationRate.sub(FIXED_RATE_INCREASE_THRESHOLD)));\n        }\n\n        currentVariableBorrowRate = _utilizationRate.rayMul(variableBorrowRateScaling).add(\n             baseVariableBorrowRate\n        );\n\n        currentLiquidityRate = getOverallBorrowRateInternal(\n            _totalBorrowsFixed,\n            _totalBorrowsVariable,\n            currentVariableBorrowRate,\n            _averageFixedBorrowRate).rayMul(_utilizationRate);\n\n    }\n\n    /**\n    @dev the weighted average between the fixed interest part and the variable interest part\n     */\n    function getOverallBorrowRateInternal(\n        uint256 _totalBorrowsFixed,\n        uint256 _totalBorrowsVariable,\n        uint256 _currentVariableBorrowRate,\n        uint256 _currentAverageFixedBorrowRate) internal pure returns (uint256) {\n\n        uint256 totalBorrows = _totalBorrowsFixed.add(_totalBorrowsVariable);\n\n        if (totalBorrows == 0) return 0;\n\n        uint256 weightedVariableRate = _totalBorrowsVariable.wadToRay().rayMul(\n            _currentVariableBorrowRate\n        );\n\n        uint256 weightedFixedRate = _totalBorrowsFixed.wadToRay().rayMul(_currentAverageFixedBorrowRate);\n\n        uint256 overallBorrowRate = weightedVariableRate.add(weightedFixedRate).rayDiv(totalBorrows.wadToRay());\n\n        return overallBorrowRate;\n    }\n}\n",
  "sourcePath": "/src/contracts/lendingpool/DefaultReserveInterestRateStrategy.sol",
  "compiler": {
    "name": "solc",
    "version": "0.5.6+commit.b259423e.Emscripten.clang"
  },
  "schemaVersion": "3.0.15",
  "updatedAt": "2019-11-02T17:58:16.792Z",
  "devdoc": {
    "methods": {
      "calculateInterestRates(address,uint256,uint256,uint256,uint256)": {
        "details": "returns the interest rates, in rays"
      },
      "getBaseVariableBorrowRate()": {
        "details": "accessors"
      }
    },
    "title": "DefaultReserveInterestRateStrategy contract"
  },
  "userdoc": {
    "methods": {},
    "notice": "implements the calculation of the interest rates based on the reserve parameters."
  }
}