{
  "contractName": "FeeProvider",
  "abi": [
    {
      "constant": false,
      "inputs": [],
      "name": "renounceOwnership",
      "outputs": [],
      "payable": false,
      "stateMutability": "nonpayable",
      "type": "function"
    },
    {
      "constant": true,
      "inputs": [],
      "name": "owner",
      "outputs": [
        {
          "name": "",
          "type": "address"
        }
      ],
      "payable": false,
      "stateMutability": "view",
      "type": "function"
    },
    {
      "constant": true,
      "inputs": [],
      "name": "isOwner",
      "outputs": [
        {
          "name": "",
          "type": "bool"
        }
      ],
      "payable": false,
      "stateMutability": "view",
      "type": "function"
    },
    {
      "constant": false,
      "inputs": [
        {
          "name": "newOwner",
          "type": "address"
        }
      ],
      "name": "transferOwnership",
      "outputs": [],
      "payable": false,
      "stateMutability": "nonpayable",
      "type": "function"
    },
    {
      "inputs": [
        {
          "name": "_feesCollectionAddress",
          "type": "address"
        }
      ],
      "payable": false,
      "stateMutability": "nonpayable",
      "type": "constructor"
    },
    {
      "anonymous": false,
      "inputs": [
        {
          "indexed": true,
          "name": "previousOwner",
          "type": "address"
        },
        {
          "indexed": true,
          "name": "newOwner",
          "type": "address"
        }
      ],
      "name": "OwnershipTransferred",
      "type": "event"
    },
    {
      "constant": true,
      "inputs": [
        {
          "name": "_user",
          "type": "address"
        },
        {
          "name": "_amount",
          "type": "uint256"
        }
      ],
      "name": "calculateLoanOriginationFee",
      "outputs": [
        {
          "name": "",
          "type": "uint256"
        }
      ],
      "payable": false,
      "stateMutability": "view",
      "type": "function"
    },
    {
      "constant": false,
      "inputs": [
        {
          "name": "_percentage",
          "type": "uint256"
        }
      ],
      "name": "setLoanOriginationFeePercentage",
      "outputs": [],
      "payable": false,
      "stateMutability": "nonpayable",
      "type": "function"
    },
    {
      "constant": true,
      "inputs": [],
      "name": "getLoanOriginationFeePercentage",
      "outputs": [
        {
          "name": "",
          "type": "uint256"
        }
      ],
      "payable": false,
      "stateMutability": "view",
      "type": "function"
    },
    {
      "constant": false,
      "inputs": [
        {
          "name": "_feesCollectionAddress",
          "type": "address"
        }
      ],
      "name": "setFeesCollectionAddress",
      "outputs": [],
      "payable": false,
      "stateMutability": "nonpayable",
      "type": "function"
    },
    {
      "constant": true,
      "inputs": [],
      "name": "getFeesCollectionAddress",
      "outputs": [
        {
          "name": "",
          "type": "address"
        }
      ],
      "payable": false,
      "stateMutability": "view",
      "type": "function"
    }
  ],
  "bytecode": "0x608060405234801561001057600080fd5b506040516020806106e08339810180604052602081101561003057600080fd5b5051600080546001600160a01b03191633178082556040516001600160a01b039190911691907f8be0079c531659141344cd1fd0a4f28419497f9722a3daafe3b4186f6b6457e0908290a3600280546001600160a01b0319166001600160a01b03929092169190911790556608e1bc9bf0400060015561062b806100b56000396000f3fe608060405234801561001057600080fd5b50600436106100935760003560e01c8063c211f9a411610066578063c211f9a4146100ea578063c26a533914610104578063e151813614610121578063e563a7d014610147578063f2fde38b1461017357610093565b8063715018a6146100985780638da5cb5b146100a25780638f32d59b146100c6578063bc615668146100e2575b600080fd5b6100a0610199565b005b6100aa61022d565b604080516001600160a01b039092168252519081900360200190f35b6100ce61023c565b604080519115158252519081900360200190f35b6100aa61024d565b6100f261025c565b60408051918252519081900360200190f35b6100a06004803603602081101561011a57600080fd5b5035610262565b6100a06004803603602081101561013757600080fd5b50356001600160a01b03166102b1565b6100f26004803603604081101561015d57600080fd5b506001600160a01b03813516906020013561031d565b6100a06004803603602081101561018957600080fd5b50356001600160a01b031661033d565b6101a161023c565b6101e35760408051600160e51b62461bcd02815260206004820181905260248201526000805160206105e0833981519152604482015290519081900360640190fd5b600080546040516001600160a01b03909116907f8be0079c531659141344cd1fd0a4f28419497f9722a3daafe3b4186f6b6457e0908390a3600080546001600160a01b0319169055565b6000546001600160a01b031690565b6000546001600160a01b0316331490565b6002546001600160a01b031690565b60015490565b61026a61023c565b6102ac5760408051600160e51b62461bcd02815260206004820181905260248201526000805160206105e0833981519152604482015290519081900360640190fd5b600155565b6102b961023c565b6102fb5760408051600160e51b62461bcd02815260206004820181905260248201526000805160206105e0833981519152604482015290519081900360640190fd5b600280546001600160a01b0319166001600160a01b0392909216919091179055565b60006103346001548361039390919063ffffffff16565b90505b92915050565b61034561023c565b6103875760408051600160e51b62461bcd02815260206004820181905260248201526000805160206105e0833981519152604482015290519081900360640190fd5b610390816103cf565b50565b6000610334670de0b6b3a76400006103c36103b4868663ffffffff61047216565b6706f05b59d3b20000906104ce565b9063ffffffff61052b16565b6001600160a01b03811661041757604051600160e51b62461bcd0281526004018080602001828103825260268152602001806105996026913960400191505060405180910390fd5b600080546040516001600160a01b03808516939216917f8be0079c531659141344cd1fd0a4f28419497f9722a3daafe3b4186f6b6457e091a3600080546001600160a01b0319166001600160a01b0392909216919091179055565b60008261048157506000610337565b8282028284828161048e57fe5b041461033457604051600160e51b62461bcd0281526004018080602001828103825260218152602001806105bf6021913960400191505060405180910390fd5b6000828201838110156103345760408051600160e51b62461bcd02815260206004820152601b60248201527f536166654d6174683a206164646974696f6e206f766572666c6f770000000000604482015290519081900360640190fd5b60008082116105845760408051600160e51b62461bcd02815260206004820152601a60248201527f536166654d6174683a206469766973696f6e206279207a65726f000000000000604482015290519081900360640190fd5b600082848161058f57fe5b0494935050505056fe4f776e61626c653a206e6577206f776e657220697320746865207a65726f2061646472657373536166654d6174683a206d756c7469706c69636174696f6e206f766572666c6f774f776e61626c653a2063616c6c6572206973206e6f7420746865206f776e6572a165627a7a72305820d678dfcf8f9b5291bc8defb52e99823baa506aae8bc997a837aa0f1b4e4053a00029",
  "source": "pragma solidity ^0.5.0;\n\nimport \"openzeppelin-solidity/contracts/ownership/Ownable.sol\";\nimport \"../interfaces/IFeeProvider.sol\";\nimport \"../libraries/WadRayMath.sol\";\n\n// TODO: move Ownable to governance based ACR\ncontract FeeProvider is IFeeProvider, Ownable {\n    using WadRayMath for uint256;\n\n    uint256 originationFeePercentage;\n    address feesCollectionAddress;\n\n    constructor(address _feesCollectionAddress) public {\n        feesCollectionAddress = _feesCollectionAddress;\n\n        /**\n        @notice origination fee is set as default as 25 basis points of the loan amount (0.0025%)\n        */\n        originationFeePercentage = 0.0025 * 1e18;\n    }\n\n    /**\n    @dev _user can be used in the future to apply discount to the origination fee based on the\n    _user account (eg. stake AAVE tokens in the lending pool, or deposit > 1M USD etc.)\n     */\n    function calculateLoanOriginationFee(address _user, uint256 _amount) external view returns (uint256) {\n        return _amount.wadMul(originationFeePercentage);\n    }\n\n    function setLoanOriginationFeePercentage(uint256 _percentage) external onlyOwner {\n        originationFeePercentage = _percentage;\n    }\n\n    function getLoanOriginationFeePercentage() external view returns (uint256) {\n        return originationFeePercentage;\n    }\n\n    function setFeesCollectionAddress(address _feesCollectionAddress) external onlyOwner {\n        feesCollectionAddress = _feesCollectionAddress;\n    }\n\n    function getFeesCollectionAddress() external view returns (address) {\n        return feesCollectionAddress;\n    }\n\n}\n",
  "sourcePath": "/src/contracts/fees/FeeProvider.sol",
  "compiler": {
    "name": "solc",
    "version": "0.5.6+commit.b259423e.Emscripten.clang"
  },
  "schemaVersion": "3.0.15",
  "updatedAt": "2019-11-02T17:58:20.630Z",
  "devdoc": {
    "methods": {
      "calculateLoanOriginationFee(address,uint256)": {
        "details": "_user can be used in the future to apply discount to the origination fee based on the _user account (eg. stake AAVE tokens in the lending pool, or deposit > 1M USD etc.)"
      },
      "isOwner()": {
        "details": "Returns true if the caller is the current owner."
      },
      "owner()": {
        "details": "Returns the address of the current owner."
      },
      "renounceOwnership()": {
        "details": "Leaves the contract without owner. It will not be possible to call `onlyOwner` functions anymore. Can only be called by the current owner.     * > Note: Renouncing ownership will leave the contract without an owner, thereby removing any functionality that is only available to the owner."
      },
      "transferOwnership(address)": {
        "details": "Transfers ownership of the contract to a new account (`newOwner`). Can only be called by the current owner."
      }
    }
  },
  "userdoc": {
    "methods": {}
  }
}