{
  "contractName": "FeeProvider",
  "abi": [
    {
      "constant": true,
      "inputs": [],
      "name": "FEE_PROVIDER_REVISION",
      "outputs": [
        {
          "internalType": "uint256",
          "name": "",
          "type": "uint256"
        }
      ],
      "payable": false,
      "stateMutability": "view",
      "type": "function"
    },
    {
      "constant": true,
      "inputs": [],
      "name": "originationFeePercentage",
      "outputs": [
        {
          "internalType": "uint256",
          "name": "",
          "type": "uint256"
        }
      ],
      "payable": false,
      "stateMutability": "view",
      "type": "function"
    },
    {
      "constant": false,
      "inputs": [
        {
          "internalType": "address",
          "name": "_addressesProvider",
          "type": "address"
        }
      ],
      "name": "initialize",
      "outputs": [],
      "payable": false,
      "stateMutability": "nonpayable",
      "type": "function"
    },
    {
      "constant": true,
      "inputs": [
        {
          "internalType": "address",
          "name": "_user",
          "type": "address"
        },
        {
          "internalType": "uint256",
          "name": "_amount",
          "type": "uint256"
        }
      ],
      "name": "calculateLoanOriginationFee",
      "outputs": [
        {
          "internalType": "uint256",
          "name": "",
          "type": "uint256"
        }
      ],
      "payable": false,
      "stateMutability": "view",
      "type": "function"
    },
    {
      "constant": true,
      "inputs": [],
      "name": "getLoanOriginationFeePercentage",
      "outputs": [
        {
          "internalType": "uint256",
          "name": "",
          "type": "uint256"
        }
      ],
      "payable": false,
      "stateMutability": "view",
      "type": "function"
    }
  ],
  "bytecode": "0x60806040526000805534801561001457600080fd5b5061039b806100246000396000f3fe608060405234801561001057600080fd5b50600436106100575760003560e01c80639403ed3a1461005c578063b0d73d4e14610076578063c211f9a41461007e578063c4d66de814610086578063e563a7d0146100ae575b600080fd5b6100646100da565b60408051918252519081900360200190f35b6100646100e0565b6100646100e5565b6100ac6004803603602081101561009c57600080fd5b50356001600160a01b03166100eb565b005b610064600480360360408110156100c457600080fd5b506001600160a01b038135169060200135610193565b60345481565b600181565b60345490565b60006100f56101b3565b60015490915060ff168061010c575061010c6101b8565b80610118575060005481115b6101535760405162461bcd60e51b815260040180806020018281038252602e815260200180610339602e913960400191505060405180910390fd5b60015460ff16158015610172576001805460ff19168117905560008290555b6608e1bc9bf04000603455801561018e576001805460ff191690555b505050565b60006101aa603454836101be90919063ffffffff16565b90505b92915050565b600190565b303b1590565b60006101aa670de0b6b3a76400006101ee6101df868663ffffffff6101fa16565b6706f05b59d3b2000090610253565b9063ffffffff6102ad16565b600082610209575060006101ad565b8282028284828161021657fe5b04146101aa5760405162461bcd60e51b81526004018080602001828103825260218152602001806103186021913960400191505060405180910390fd5b6000828201838110156101aa576040805162461bcd60e51b815260206004820152601b60248201527f536166654d6174683a206164646974696f6e206f766572666c6f770000000000604482015290519081900360640190fd5b6000808211610303576040805162461bcd60e51b815260206004820152601a60248201527f536166654d6174683a206469766973696f6e206279207a65726f000000000000604482015290519081900360640190fd5b600082848161030e57fe5b0494935050505056fe536166654d6174683a206d756c7469706c69636174696f6e206f766572666c6f77436f6e747261637420696e7374616e63652068617320616c7265616479206265656e20696e697469616c697a6564a265627a7a7231582081831de249b62b6bf9b866c219c291266edede6f14c02c9c6787bcd3c14aeb6364736f6c634300050e0032",
  "source": "pragma solidity ^0.5.0;\n\nimport \"../libraries/openzeppelin-upgradeability/VersionedInitializable.sol\";\nimport \"../interfaces/IFeeProvider.sol\";\nimport \"../libraries/WadRayMath.sol\";\n\n\n/**\n* @title FeeProvider contract\n* @notice Implements calculation for the fees applied by the protocol\n* @author Aave\n**/\ncontract FeeProvider is IFeeProvider, VersionedInitializable {\n    using WadRayMath for uint256;\n\n    // percentage of the fee to be calculated on the loan amount\n    uint256 public originationFeePercentage;\n\n\n    uint256 constant public FEE_PROVIDER_REVISION = 0x1;\n\n    function getRevision() internal pure returns(uint256) {\n        return FEE_PROVIDER_REVISION;\n    }\n    /**\n    * @dev initializes the FeeProvider after it's added to the proxy\n    * @param _addressesProvider the address of the LendingPoolAddressesProvider\n    */\n    function initialize(address _addressesProvider) public initializer {\n        /// @notice origination fee is set as default as 25 basis points of the loan amount (0.0025%)\n        originationFeePercentage = 0.0025 * 1e18;\n    }\n\n    /**\n    * @dev calculates the origination fee for every loan executed on the platform.\n    * @param _user can be used in the future to apply discount to the origination fee based on the\n    * _user account (eg. stake AAVE tokens in the lending pool, or deposit > 1M USD etc.)\n    * @param _amount the amount of the loan\n    **/\n    function calculateLoanOriginationFee(address _user, uint256 _amount) external view returns (uint256) {\n        return _amount.wadMul(originationFeePercentage);\n    }\n\n    /**\n    * @dev returns the origination fee percentage\n    **/\n    function getLoanOriginationFeePercentage() external view returns (uint256) {\n        return originationFeePercentage;\n    }\n\n}\n",
  "sourcePath": "/src/contracts/fees/FeeProvider.sol",
  "compiler": {
    "name": "solc",
    "version": "0.5.14+commit.01f1aaa4.Emscripten.clang"
  },
  "schemaVersion": "3.0.11",
  "updatedAt": "2020-01-09T12:41:06.641Z",
  "devdoc": {
    "author": "Aave*",
    "methods": {
      "calculateLoanOriginationFee(address,uint256)": {
        "details": "calculates the origination fee for every loan executed on the platform.",
        "params": {
          "_amount": "the amount of the loan*",
          "_user": "can be used in the future to apply discount to the origination fee based on the _user account (eg. stake AAVE tokens in the lending pool, or deposit > 1M USD etc.)"
        }
      },
      "getLoanOriginationFeePercentage()": {
        "details": "returns the origination fee percentage*"
      },
      "initialize(address)": {
        "details": "initializes the FeeProvider after it's added to the proxy",
        "params": {
          "_addressesProvider": "the address of the LendingPoolAddressesProvider"
        }
      }
    },
    "title": "FeeProvider contract"
  },
  "userdoc": {
    "methods": {},
    "notice": "Implements calculation for the fees applied by the protocol"
  }
}