{
  "contractName": "KyberBurner",
  "abi": [
    {
      "inputs": [
        {
          "internalType": "bool",
          "name": "_isBurnAvailable",
          "type": "bool"
        },
        {
          "internalType": "address",
          "name": "_tokenToBurn",
          "type": "address"
        },
        {
          "internalType": "address",
          "name": "_kyberProxy",
          "type": "address"
        }
      ],
      "payable": false,
      "stateMutability": "nonpayable",
      "type": "constructor"
    },
    {
      "anonymous": false,
      "inputs": [
        {
          "indexed": false,
          "internalType": "uint256",
          "name": "amount",
          "type": "uint256"
        }
      ],
      "name": "Burn",
      "type": "event"
    },
    {
      "anonymous": false,
      "inputs": [
        {
          "indexed": false,
          "internalType": "address",
          "name": "tokenToBurn",
          "type": "address"
        },
        {
          "indexed": false,
          "internalType": "bool",
          "name": "isBurnAvailable",
          "type": "bool"
        },
        {
          "indexed": false,
          "internalType": "address",
          "name": "kyberProxy",
          "type": "address"
        }
      ],
      "name": "Setup",
      "type": "event"
    },
    {
      "anonymous": false,
      "inputs": [
        {
          "indexed": true,
          "internalType": "address",
          "name": "from",
          "type": "address"
        },
        {
          "indexed": false,
          "internalType": "uint256",
          "name": "fromAmount",
          "type": "uint256"
        },
        {
          "indexed": false,
          "internalType": "uint256",
          "name": "toAmount",
          "type": "uint256"
        }
      ],
      "name": "Trade",
      "type": "event"
    },
    {
      "payable": true,
      "stateMutability": "payable",
      "type": "fallback"
    },
    {
      "constant": true,
      "inputs": [],
      "name": "KYBER_ETH_MOCK_ADDRESS",
      "outputs": [
        {
          "internalType": "address",
          "name": "",
          "type": "address"
        }
      ],
      "payable": false,
      "stateMutability": "view",
      "type": "function"
    },
    {
      "constant": true,
      "inputs": [],
      "name": "MAX_UINT",
      "outputs": [
        {
          "internalType": "uint256",
          "name": "",
          "type": "uint256"
        }
      ],
      "payable": false,
      "stateMutability": "view",
      "type": "function"
    },
    {
      "constant": true,
      "inputs": [],
      "name": "MIN_CONVERSION_RATE",
      "outputs": [
        {
          "internalType": "uint256",
          "name": "",
          "type": "uint256"
        }
      ],
      "payable": false,
      "stateMutability": "view",
      "type": "function"
    },
    {
      "constant": true,
      "inputs": [],
      "name": "isBurnAvailable",
      "outputs": [
        {
          "internalType": "bool",
          "name": "",
          "type": "bool"
        }
      ],
      "payable": false,
      "stateMutability": "view",
      "type": "function"
    },
    {
      "constant": true,
      "inputs": [],
      "name": "kyberProxy",
      "outputs": [
        {
          "internalType": "contract IKyberNetworkProxyInterface",
          "name": "",
          "type": "address"
        }
      ],
      "payable": false,
      "stateMutability": "view",
      "type": "function"
    },
    {
      "constant": true,
      "inputs": [],
      "name": "tokenToBurn",
      "outputs": [
        {
          "internalType": "address",
          "name": "",
          "type": "address"
        }
      ],
      "payable": false,
      "stateMutability": "view",
      "type": "function"
    },
    {
      "constant": false,
      "inputs": [
        {
          "internalType": "address",
          "name": "_from",
          "type": "address"
        },
        {
          "internalType": "uint256",
          "name": "_amount",
          "type": "uint256"
        }
      ],
      "name": "tradeAndBurn",
      "outputs": [],
      "payable": true,
      "stateMutability": "payable",
      "type": "function"
    }
  ],
  "bytecode": "0x608060405234801561001057600080fd5b506040516107ab3803806107ab8339818101604052606081101561003357600080fd5b508051602080830151604093840151600180546001600160a01b038085166001600160a01b0319881515600160a01b810260ff60a01b199095169490941781168217909455600080549286169290941682179093558751928352948201528086019390935293519293909290917f1bc128e002d1802925a768585bba1421817cc210fbb4e6648d917d4ce3716eed919081900360600190a15050506106ce806100dd6000396000f3fe6080604052600436106100705760003560e01c80638c0c9a251161004e5780638c0c9a25146100f357806399bdb78a14610108578063e5b5019a14610134578063f0eeed811461014957610070565b806340d58a4a146100725780634896e994146100995780634f1b86eb146100c2575b005b34801561007e57600080fd5b5061008761015e565b60408051918252519081900360200190f35b3480156100a557600080fd5b506100ae610163565b604080519115158252519081900360200190f35b3480156100ce57600080fd5b506100d7610173565b604080516001600160a01b039092168252519081900360200190f35b3480156100ff57600080fd5b506100d7610182565b6100706004803603604081101561011e57600080fd5b506001600160a01b03813516906020013561019a565b34801561014057600080fd5b50610087610364565b34801561015557600080fd5b506100d761036a565b600181565b600154600160a01b900460ff1681565b6001546001600160a01b031681565b73eeeeeeeeeeeeeeeeeeeeeeeeeeeeeeeeeeeeeeee81565b600081116101ef576040805162461bcd60e51b815260206004820152601960248201527f496e76616c6964203020616d6f756e7420746f20747261646500000000000000604482015290519081900360640190fd5b816001600160a01b0316610201610379565b6001600160a01b0316141561026a5780471015610265576040805162461bcd60e51b815260206004820152601e60248201527f4e6f7420656e6f75676874204554482066756e647320746f2074726164650000604482015290519081900360640190fd5b610332565b604080516370a0823160e01b8152306004820152905182916001600160a01b038516916370a0823191602480820192602092909190829003018186803b1580156102b357600080fd5b505afa1580156102c7573d6000803e3d6000fd5b505050506040513d60208110156102dd57600080fd5b50511015610332576040805162461bcd60e51b815260206004820181905260248201527f4e6f7420656e6f7567687420746f6b656e2066756e647320746f207472616465604482015290519081900360640190fd5b60015481906001600160a01b03848116911614610356576103538383610391565b90505b61035f81610512565b505050565b60001981565b6000546001600160a01b031681565b73eeeeeeeeeeeeeeeeeeeeeeeeeeeeeeeeeeeeeeee90565b60008061039c610379565b6001600160a01b0316846001600160a01b0316146103ba57836103d0565b73eeeeeeeeeeeeeeeeeeeeeeeeeeeeeeeeeeeeeeee5b905060006103dc610379565b6001600160a01b0316856001600160a01b0316146103fb5760006103fd565b835b6000805460018054604080516329589f6160e01b81526001600160a01b038981166004830152602482018c90529283166044820152306064820152600019608482015260a481019390935260c4830185905261010060e4840152610104830185905251949550929392909116916329589f6191859161014480830192602092919082900301818588803b15801561049357600080fd5b505af11580156104a7573d6000803e3d6000fd5b50505050506040513d60208110156104be57600080fd5b5051604080518781526020810183905281519293506001600160a01b038616927fc6c64663abd604372f6cce5d7fa31596ffb4de182467cd1fc81bd8adb88c2c2e929181900390910190a295945050505050565b600154600160a01b900460ff161561058e5760015460408051630852cd8d60e31b81526004810184905290516001600160a01b03909216916342966c689160248082019260009290919082900301818387803b15801561057157600080fd5b505af1158015610585573d6000803e3d6000fd5b50505050610663565b6001546040805163a9059cbb60e01b81526000600482018190526024820185905291516001600160a01b039093169263a9059cbb92604480840193602093929083900390910190829087803b1580156105e657600080fd5b505af11580156105fa573d6000803e3d6000fd5b505050506040513d602081101561061057600080fd5b5051610663576040805162461bcd60e51b815260206004820181905260248201527f5265766572746564207472616e7366657220746f203078302061646472657373604482015290519081900360640190fd5b6040805182815290517fb90306ad06b2a6ff86ddc9327db583062895ef6540e62dc50add009db5b356eb9181900360200190a15056fea265627a7a72315820cd41479dffecbcc5336df3d3ad0cc4122c796735afb635ea6613cfd2ebd5198b64736f6c634300050e0032",
  "source": "pragma solidity ^0.5.0;\n\nimport \"openzeppelin-solidity/contracts/token/ERC20/IERC20.sol\";\nimport \"openzeppelin-solidity/contracts/token/ERC20/SafeERC20.sol\";\nimport \"openzeppelin-solidity/contracts/token/ERC20/ERC20Burnable.sol\";\n\nimport \"../interfaces/IKyberNetworkProxyInterface.sol\";\nimport \"../libraries/EthAddressLib.sol\";\n\n/// @title KyberBurner\n/// @author Aave\n/// @notice Allows to trade any token to the token indicated on construction and burn this last one.\n///  - On construction it can be indicated if the burn needs to be done using the ERC20 .burn()\n///    function, or sending the tokens to the 0x0 address.\n///  - No ownership of the contract is needed, as it will be redeployed in the case of logic changes\ncontract KyberBurner {\n    using SafeERC20 for IERC20;\n\n    uint256 public constant MAX_UINT = 2**256 - 1;\n\n    /// @notice A value of 1 will execute the trade according to market price in the time of the transaction confirmation\n    uint256 public constant MIN_CONVERSION_RATE = 1;\n\n    address public constant KYBER_ETH_MOCK_ADDRESS = address(0x00eeeeeeeeeeeeeeeeeeeeeeeeeeeeeeeeeeeeeeee);\n\n    IKyberNetworkProxyInterface public kyberProxy;\n\n    address public tokenToBurn;\n\n    /// @notice Used to distinguish it the ERC20 .burn() function can be used to burn or if a transfer to 0x0 is needed\n    bool public isBurnAvailable;\n\n    event Setup(address tokenToBurn, bool isBurnAvailable, address kyberProxy);\n    event Trade(address indexed from, uint256 fromAmount, uint256 toAmount);\n    event Burn(uint256 amount);\n\n    constructor(\n        bool _isBurnAvailable,\n        address _tokenToBurn,\n        address _kyberProxy\n    ) public {\n        isBurnAvailable = _isBurnAvailable;\n        tokenToBurn = _tokenToBurn;\n        kyberProxy = IKyberNetworkProxyInterface(_kyberProxy);\n        emit Setup(_tokenToBurn, _isBurnAvailable, _kyberProxy);\n    }\n\n    /// @notice Function to trade from the _from token or ETH, to the tokenToBurn token\n    ///  - Callable without ACR, as the trade-and-burn logic is fixed\n    /// @param _from The token to trade from\n    /// @param _amount The amount to trade\n    function tradeAndBurn(address _from, uint256 _amount) external payable {\n        require(_amount > 0, \"Invalid 0 amount to trade\");\n        if (EthAddressLib.ethAddress() == _from) {\n            require(address(this).balance >= _amount, \"Not enought ETH funds to trade\");\n        } else {\n            require(IERC20(_from).balanceOf(address(this)) >= _amount, \"Not enought token funds to trade\");\n        }\n\n        uint256 _amountToBurn = _amount;\n\n        // If the token to burn is already tokenToBurn, we don't trade, burning directly\n        if (_from != tokenToBurn) {\n            _amountToBurn = internalTrade(_from, _amount);\n        }\n\n        internalBurn(_amountToBurn);\n    }\n\n    /// @notice Internal trade function\n    /// @param _from The token to trade from\n    /// @param _amount The amount to trade\n    function internalTrade(address _from, uint256 _amount) internal returns(uint256) {\n        address _kyberFromRef = (_from == EthAddressLib.ethAddress())\n            ? KYBER_ETH_MOCK_ADDRESS\n            : _from;\n        uint256 _value = (_from == EthAddressLib.ethAddress())\n            ? _amount\n            : 0;\n\n        uint256 _amountReceived = kyberProxy.tradeWithHint.value(_value)(\n            // _from token (or ETH mock address)\n            IERC20(_kyberFromRef),\n            // amount of the _from token to trade\n            _amount,\n            // _to token (or ETH mock address)\n            IERC20(tokenToBurn),\n            // address which will receive the _to token amount traded\n            address(this),\n            // max amount to receive, no limit, using the max uint\n            MAX_UINT,\n            // conversion rate, use 1 for market price\n            MIN_CONVERSION_RATE,\n            // Related with a referral program, not needed\n            0x0000000000000000000000000000000000000000,\n            // Related with filtering of reserves by permisionless or not. Not needed\n            \"\"\n        );\n        emit Trade(_kyberFromRef, _amount, _amountReceived);\n        return _amountReceived;\n    }\n\n    /// @notice Internal function to burn _amount of tokenToBurn\n    /// @param _amount The amount to burn\n    function internalBurn(uint256 _amount) internal {\n        if (isBurnAvailable) {\n            ERC20Burnable(tokenToBurn).burn(_amount);\n        } else {\n            require(IERC20(tokenToBurn).transfer(0x0000000000000000000000000000000000000000, _amount), \"Reverted transfer to 0x0 address\");\n        }\n        emit Burn(_amount);\n    }\n\n    /// @notice In order to receive ETH transfers\n    function() external payable {}\n\n}",
  "sourcePath": "/src/contracts/fees/KyberBurner.sol",
  "compiler": {
    "name": "solc",
    "version": "0.5.14+commit.01f1aaa4.Emscripten.clang"
  },
  "schemaVersion": "3.0.11",
  "updatedAt": "2020-01-09T12:41:06.641Z",
  "devdoc": {
    "author": "Aave",
    "methods": {
      "tradeAndBurn(address,uint256)": {
        "params": {
          "_amount": "The amount to trade",
          "_from": "The token to trade from"
        }
      }
    },
    "title": "KyberBurner"
  },
  "userdoc": {
    "methods": {
      "tradeAndBurn(address,uint256)": {
        "notice": "Function to trade from the _from token or ETH, to the tokenToBurn token  - Callable without ACR, as the trade-and-burn logic is fixed"
      }
    },
    "notice": "Allows to trade any token to the token indicated on construction and burn this last one.  - On construction it can be indicated if the burn needs to be done using the ERC20 .burn()    function, or sending the tokens to the 0x0 address.  - No ownership of the contract is needed, as it will be redeployed in the case of logic changes"
  }
}