{
  "contractName": "LendingRateOracle",
  "abi": [
    {
      "constant": true,
      "inputs": [
        {
          "name": "_asset",
          "type": "address"
        }
      ],
      "name": "getMarketBorrowRate",
      "outputs": [
        {
          "name": "",
          "type": "uint256"
        }
      ],
      "payable": false,
      "stateMutability": "view",
      "type": "function"
    },
    {
      "constant": false,
      "inputs": [
        {
          "name": "_asset",
          "type": "address"
        },
        {
          "name": "_rate",
          "type": "uint256"
        }
      ],
      "name": "setMarketBorrowRate",
      "outputs": [],
      "payable": false,
      "stateMutability": "nonpayable",
      "type": "function"
    },
    {
      "constant": true,
      "inputs": [
        {
          "name": "_asset",
          "type": "address"
        }
      ],
      "name": "getMarketLiquidityRate",
      "outputs": [
        {
          "name": "",
          "type": "uint256"
        }
      ],
      "payable": false,
      "stateMutability": "view",
      "type": "function"
    },
    {
      "constant": false,
      "inputs": [
        {
          "name": "_asset",
          "type": "address"
        },
        {
          "name": "_rate",
          "type": "uint256"
        }
      ],
      "name": "setMarketLiquidityRate",
      "outputs": [],
      "payable": false,
      "stateMutability": "nonpayable",
      "type": "function"
    }
  ],
  "bytecode": "0x608060405234801561001057600080fd5b506101a3806100206000396000f3fe608060405234801561001057600080fd5b506004361061004c5760003560e01c806372eb293d146100515780639f86a0ee1461007f578063bb85c0bb146100ab578063fbe5ba1e146100e3575b600080fd5b61007d6004803603604081101561006757600080fd5b506001600160a01b038135169060200135610109565b005b61007d6004803603604081101561009557600080fd5b506001600160a01b038135169060200135610125565b6100d1600480360360208110156100c157600080fd5b50356001600160a01b0316610141565b60408051918252519081900360200190f35b6100d1600480360360208110156100f957600080fd5b50356001600160a01b031661015c565b6001600160a01b03909116600090815260208190526040902055565b6001600160a01b03909116600090815260016020526040902055565b6001600160a01b031660009081526020819052604090205490565b6001600160a01b03166000908152600160205260409020549056fea165627a7a72305820576b4b27804bc1b6fe10278738727361d1ce6f18cb6da7734be45e641d253c690029",
  "source": "pragma solidity ^0.5.0;\n\nimport \"../../interfaces/ILendingRateOracle.sol\";\n\n\ncontract LendingRateOracle is ILendingRateOracle {\n\n    mapping(address => uint) borrowRates;\n    mapping(address => uint) liquidityRates;\n\n\n    function getMarketBorrowRate(address _asset) external view returns(uint) {\n        return borrowRates[_asset];\n    }\n\n    function setMarketBorrowRate(address _asset, uint _rate) external {\n        borrowRates[_asset] = _rate;\n    }\n\n    function getMarketLiquidityRate(address _asset) external view returns(uint) {\n        return liquidityRates[_asset];\n    }\n\n    function setMarketLiquidityRate(address _asset, uint _rate) external {\n        liquidityRates[_asset] = _rate;\n    }\n}",
  "sourcePath": "/src/contracts/mocks/Oracle/LendingRateOracle.sol",
  "compiler": {
    "name": "solc",
    "version": "0.5.6+commit.b259423e.Emscripten.clang"
  },
  "schemaVersion": "3.0.15",
  "updatedAt": "2019-11-02T17:58:20.602Z",
  "devdoc": {
    "methods": {}
  },
  "userdoc": {
    "methods": {}
  }
}