{
  "contractName": "LendingPoolDataProvider",
  "abi": [
    {
      "constant": false,
      "inputs": [],
      "name": "renounceOwnership",
      "outputs": [],
      "payable": false,
      "stateMutability": "nonpayable",
      "type": "function"
    },
    {
      "constant": true,
      "inputs": [],
      "name": "owner",
      "outputs": [
        {
          "name": "",
          "type": "address"
        }
      ],
      "payable": false,
      "stateMutability": "view",
      "type": "function"
    },
    {
      "constant": true,
      "inputs": [],
      "name": "isOwner",
      "outputs": [
        {
          "name": "",
          "type": "bool"
        }
      ],
      "payable": false,
      "stateMutability": "view",
      "type": "function"
    },
    {
      "constant": true,
      "inputs": [],
      "name": "addressesProvider",
      "outputs": [
        {
          "name": "",
          "type": "address"
        }
      ],
      "payable": false,
      "stateMutability": "view",
      "type": "function"
    },
    {
      "constant": false,
      "inputs": [
        {
          "name": "newOwner",
          "type": "address"
        }
      ],
      "name": "transferOwnership",
      "outputs": [],
      "payable": false,
      "stateMutability": "nonpayable",
      "type": "function"
    },
    {
      "inputs": [
        {
          "name": "_addressesProvider",
          "type": "address"
        }
      ],
      "payable": false,
      "stateMutability": "nonpayable",
      "type": "constructor"
    },
    {
      "anonymous": false,
      "inputs": [
        {
          "indexed": true,
          "name": "previousOwner",
          "type": "address"
        },
        {
          "indexed": true,
          "name": "newOwner",
          "type": "address"
        }
      ],
      "name": "OwnershipTransferred",
      "type": "event"
    },
    {
      "constant": true,
      "inputs": [
        {
          "name": "_user",
          "type": "address"
        }
      ],
      "name": "calculateUserGlobalData",
      "outputs": [
        {
          "name": "totalLiquidityBalanceETH",
          "type": "uint256"
        },
        {
          "name": "totalCollateralBalanceETH",
          "type": "uint256"
        },
        {
          "name": "totalBorrowBalanceETH",
          "type": "uint256"
        },
        {
          "name": "currentLtv",
          "type": "uint256"
        },
        {
          "name": "currentLiquidationThreshold",
          "type": "uint256"
        },
        {
          "name": "healthFactor",
          "type": "uint256"
        }
      ],
      "payable": false,
      "stateMutability": "view",
      "type": "function"
    },
    {
      "constant": true,
      "inputs": [
        {
          "name": "_reserve",
          "type": "address"
        },
        {
          "name": "_user",
          "type": "address"
        }
      ],
      "name": "getUserUnderlyingAssetBalance",
      "outputs": [
        {
          "name": "",
          "type": "uint256"
        }
      ],
      "payable": false,
      "stateMutability": "view",
      "type": "function"
    },
    {
      "constant": true,
      "inputs": [
        {
          "name": "_reserve",
          "type": "address"
        },
        {
          "name": "_user",
          "type": "address"
        },
        {
          "name": "_amount",
          "type": "uint256"
        }
      ],
      "name": "balanceDecreaseAllowed",
      "outputs": [
        {
          "name": "",
          "type": "bool"
        }
      ],
      "payable": false,
      "stateMutability": "view",
      "type": "function"
    },
    {
      "constant": true,
      "inputs": [],
      "name": "getHealthFactorLiquidationThreshold",
      "outputs": [
        {
          "name": "",
          "type": "uint256"
        }
      ],
      "payable": false,
      "stateMutability": "pure",
      "type": "function"
    },
    {
      "constant": true,
      "inputs": [
        {
          "name": "_reserve",
          "type": "address"
        }
      ],
      "name": "getReserveConfigurationData",
      "outputs": [
        {
          "name": "ltv",
          "type": "uint256"
        },
        {
          "name": "liquidationThreshold",
          "type": "uint256"
        },
        {
          "name": "liquidationDiscount",
          "type": "uint256"
        },
        {
          "name": "rateStrategyAddress",
          "type": "address"
        },
        {
          "name": "usageAsCollateralEnabled",
          "type": "bool"
        },
        {
          "name": "borrowingEnabled",
          "type": "bool"
        },
        {
          "name": "fixedBorrowRateEnabled",
          "type": "bool"
        },
        {
          "name": "isActive",
          "type": "bool"
        }
      ],
      "payable": false,
      "stateMutability": "view",
      "type": "function"
    },
    {
      "constant": true,
      "inputs": [
        {
          "name": "_reserve",
          "type": "address"
        }
      ],
      "name": "getReserveData",
      "outputs": [
        {
          "name": "totalLiquidity",
          "type": "uint256"
        },
        {
          "name": "availableLiquidity",
          "type": "uint256"
        },
        {
          "name": "totalBorrowsFixed",
          "type": "uint256"
        },
        {
          "name": "totalBorrowsVariable",
          "type": "uint256"
        },
        {
          "name": "liquidityRate",
          "type": "uint256"
        },
        {
          "name": "variableBorrowRate",
          "type": "uint256"
        },
        {
          "name": "fixedBorrowRate",
          "type": "uint256"
        },
        {
          "name": "averageFixedBorrowRate",
          "type": "uint256"
        },
        {
          "name": "utilizationRate",
          "type": "uint256"
        },
        {
          "name": "liquidityIndex",
          "type": "uint256"
        },
        {
          "name": "variableBorrowIndex",
          "type": "uint256"
        },
        {
          "name": "aTokenAddress",
          "type": "address"
        },
        {
          "name": "lastUpdateTimestamp",
          "type": "uint40"
        }
      ],
      "payable": false,
      "stateMutability": "view",
      "type": "function"
    },
    {
      "constant": true,
      "inputs": [
        {
          "name": "_user",
          "type": "address"
        }
      ],
      "name": "getUserAccountData",
      "outputs": [
        {
          "name": "totalLiquidityETH",
          "type": "uint256"
        },
        {
          "name": "totalCollateralETH",
          "type": "uint256"
        },
        {
          "name": "totalBorrowsETH",
          "type": "uint256"
        },
        {
          "name": "availableBorrowsETH",
          "type": "uint256"
        },
        {
          "name": "currentLiquidationThreshold",
          "type": "uint256"
        },
        {
          "name": "ltv",
          "type": "uint256"
        },
        {
          "name": "healthFactor",
          "type": "uint256"
        }
      ],
      "payable": false,
      "stateMutability": "view",
      "type": "function"
    },
    {
      "constant": true,
      "inputs": [
        {
          "name": "_reserve",
          "type": "address"
        },
        {
          "name": "_user",
          "type": "address"
        }
      ],
      "name": "getUserReserveData",
      "outputs": [
        {
          "name": "currentATokenBalance",
          "type": "uint256"
        },
        {
          "name": "currentUnderlyingBalance",
          "type": "uint256"
        },
        {
          "name": "currentBorrowBalance",
          "type": "uint256"
        },
        {
          "name": "principalBorrowBalance",
          "type": "uint256"
        },
        {
          "name": "borrowRateMode",
          "type": "uint256"
        },
        {
          "name": "borrowRate",
          "type": "uint256"
        },
        {
          "name": "liquidityRate",
          "type": "uint256"
        },
        {
          "name": "originationFee",
          "type": "uint256"
        },
        {
          "name": "variableBorrowIndex",
          "type": "uint256"
        },
        {
          "name": "lastUpdateTimestamp",
          "type": "uint256"
        },
        {
          "name": "usageAsCollateralEnabled",
          "type": "bool"
        }
      ],
      "payable": false,
      "stateMutability": "view",
      "type": "function"
    },
    {
      "constant": true,
      "inputs": [
        {
          "name": "_reserve",
          "type": "address"
        }
      ],
      "name": "getCoreActualReserveBalance",
      "outputs": [
        {
          "name": "",
          "type": "uint256"
        }
      ],
      "payable": false,
      "stateMutability": "view",
      "type": "function"
    }
  ],
  "bytecode": "0x608060405234801561001057600080fd5b5060405160208062002c418339810180604052602081101561003157600080fd5b5051600080546001600160a01b03191633178082556040516001600160a01b039190911691907f8be0079c531659141344cd1fd0a4f28419497f9722a3daafe3b4186f6b6457e0908290a3600280546001600160a01b0319166001600160a01b038316908117909155604080517fed6ff760000000000000000000000000000000000000000000000000000000008152905163ed6ff76091600480820192602092909190829003018186803b1580156100e957600080fd5b505afa1580156100fd573d6000803e3d6000fd5b505050506040513d602081101561011357600080fd5b5051600180546001600160a01b0319166001600160a01b0390921691909117905550612afc80620001456000396000f3fe608060405234801561001057600080fd5b50600436106100ea5760003560e01c806376e9d6151161008c578063b7b2e0b111610066578063b7b2e0b1146103a6578063bf92857c146103cc578063c72c4d101461042a578063f2fde38b14610432576100ea565b806376e9d615146103305780638da5cb5b1461037a5780638f32d59b1461039e576100ea565b806335ea6a75116100c857806335ea6a751461020e5780633e150141146102a95780633e44bee81461031e578063715018a614610326576100ea565b806318a4dbca146100ef57806328dd2d011461012f5780632c6d0e9b146101b5575b600080fd5b61011d6004803603604081101561010557600080fd5b506001600160a01b0381358116916020013516610458565b60408051918252519081900360200190f35b61015d6004803603604081101561014557600080fd5b506001600160a01b038135811691602001351661055c565b604080519b8c5260208c019a909a528a8a019890985260608a0196909652608089019490945260a088019290925260c087015260e0860152610100850152610120840152151561014083015251908190036101600190f35b6101db600480360360208110156101cb57600080fd5b50356001600160a01b0316610e57565b604080519687526020870195909552858501939093526060850191909152608084015260a0830152519081900360c00190f35b6102346004803603602081101561022457600080fd5b50356001600160a01b0316611441565b604080519d8e5260208e019c909c528c8c019a909a5260608c019890985260808b019690965260a08a019490945260c089019290925260e08801526101008701526101208601526101408501526001600160a01b031661016084015264ffffffffff1661018083015251908190036101a00190f35b6102cf600480360360208110156102bf57600080fd5b50356001600160a01b0316611ce8565b604080519889526020890197909752878701959095526001600160a01b0390931660608701529015156080860152151560a0850152151560c0840152151560e083015251908190036101000190f35b61011d611f89565b61032e611f95565b005b6103666004803603606081101561034657600080fd5b506001600160a01b0381358116916020810135909116906040013561203b565b604080519115158252519081900360200190f35b61038261235a565b604080516001600160a01b039092168252519081900360200190f35b610366612369565b61011d600480360360208110156103bc57600080fd5b50356001600160a01b031661237a565b6103f2600480360360208110156103e257600080fd5b50356001600160a01b0316612524565b604080519788526020880196909652868601949094526060860192909252608085015260a084015260c0830152519081900360e00190f35b610382612560565b61032e6004803603602081101561044857600080fd5b50356001600160a01b031661256f565b60015460408051600160e11b631a59df770281526001600160a01b0385811660048301529151600093849316916334b3beee916024808301926020929190829003018186803b1580156104aa57600080fd5b505afa1580156104be573d6000803e3d6000fd5b505050506040513d60208110156104d457600080fd5b505160408051600160e01b633af9e6690281526001600160a01b038681166004830152915192935090831691633af9e66991602480820192602092909190829003018186803b15801561052657600080fd5b505afa15801561053a573d6000803e3d6000fd5b505050506040513d602081101561055057600080fd5b50519150505b92915050565b6000806000806000806000806000806000600160009054906101000a90046001600160a01b03166001600160a01b03166334b3beee8e6040518263ffffffff1660e01b815260040180826001600160a01b03166001600160a01b0316815260200191505060206040518083038186803b1580156105d857600080fd5b505afa1580156105ec573d6000803e3d6000fd5b505050506040513d602081101561060257600080fd5b505160408051600160e01b6370a082310281526001600160a01b038f81166004830152915191909216916370a08231916024808301926020929190829003018186803b15801561065157600080fd5b505afa158015610665573d6000803e3d6000fd5b505050506040513d602081101561067b57600080fd5b81019080805190602001909291905050509a50600160009054906101000a90046001600160a01b03166001600160a01b03166334b3beee8e6040518263ffffffff1660e01b815260040180826001600160a01b03166001600160a01b0316815260200191505060206040518083038186803b1580156106f957600080fd5b505afa15801561070d573d6000803e3d6000fd5b505050506040513d602081101561072357600080fd5b505160408051600160e01b633af9e6690281526001600160a01b038f8116600483015291519190921691633af9e669916024808301926020929190829003018186803b15801561077257600080fd5b505afa158015610786573d6000803e3d6000fd5b505050506040513d602081101561079c57600080fd5b810190808051906020019092919050505099506000600160009054906101000a90046001600160a01b03166001600160a01b0316631ca19f198f8f6040518363ffffffff1660e01b815260040180836001600160a01b03166001600160a01b03168152602001826001600160a01b03166001600160a01b031681526020019250505060206040518083038186803b15801561083657600080fd5b505afa15801561084a573d6000803e3d6000fd5b505050506040513d602081101561086057600080fd5b81019080805190602001909291905050509050600160009054906101000a90046001600160a01b03166001600160a01b0316639fb8afcd8f8f6040518363ffffffff1660e01b815260040180836001600160a01b03166001600160a01b03168152602001826001600160a01b03166001600160a01b031681526020019250505060606040518083038186803b1580156108f857600080fd5b505afa15801561090c573d6000803e3d6000fd5b505050506040513d606081101561092257600080fd5b5080516020909101519a50985080600181111561093b57fe5b9750600081600181111561094b57fe5b146109ec57600160009054906101000a90046001600160a01b03166001600160a01b031663906c0a418f6040518263ffffffff1660e01b815260040180826001600160a01b03166001600160a01b0316815260200191505060206040518083038186803b1580156109bb57600080fd5b505afa1580156109cf573d6000803e3d6000fd5b505050506040513d60208110156109e557600080fd5b5051610a9e565b600160009054906101000a90046001600160a01b03166001600160a01b03166344e636b78f8f6040518363ffffffff1660e01b815260040180836001600160a01b03166001600160a01b03168152602001826001600160a01b03166001600160a01b031681526020019250505060206040518083038186803b158015610a7157600080fd5b505afa158015610a85573d6000803e3d6000fd5b505050506040513d6020811015610a9b57600080fd5b50515b9650600160009054906101000a90046001600160a01b03166001600160a01b031663c540148e8f6040518263ffffffff1660e01b815260040180826001600160a01b03166001600160a01b0316815260200191505060206040518083038186803b158015610b0b57600080fd5b505afa158015610b1f573d6000803e3d6000fd5b505050506040513d6020811015610b3557600080fd5b81019080805190602001909291905050509550600160009054906101000a90046001600160a01b03166001600160a01b031663feab31ac8f8f6040518363ffffffff1660e01b815260040180836001600160a01b03166001600160a01b03168152602001826001600160a01b03166001600160a01b031681526020019250505060206040518083038186803b158015610bcd57600080fd5b505afa158015610be1573d6000803e3d6000fd5b505050506040513d6020811015610bf757600080fd5b81019080805190602001909291905050509450600160009054906101000a90046001600160a01b03166001600160a01b031663f6ea8d768f8f6040518363ffffffff1660e01b815260040180836001600160a01b03166001600160a01b03168152602001826001600160a01b03166001600160a01b031681526020019250505060206040518083038186803b158015610c8f57600080fd5b505afa158015610ca3573d6000803e3d6000fd5b505050506040513d6020811015610cb957600080fd5b81019080805190602001909291905050509350600160009054906101000a90046001600160a01b03166001600160a01b03166366d103f38f8f6040518363ffffffff1660e01b815260040180836001600160a01b03166001600160a01b03168152602001826001600160a01b03166001600160a01b031681526020019250505060206040518083038186803b158015610d5157600080fd5b505afa158015610d65573d6000803e3d6000fd5b505050506040513d6020811015610d7b57600080fd5b81019080805190602001909291905050509250600160009054906101000a90046001600160a01b03166001600160a01b0316639e3c4f3b8f8f6040518363ffffffff1660e01b815260040180836001600160a01b03166001600160a01b03168152602001826001600160a01b03166001600160a01b031681526020019250505060206040518083038186803b158015610e1357600080fd5b505afa158015610e27573d6000803e3d6000fd5b505050506040513d6020811015610e3d57600080fd5b50519b9e9a9d50989b509699959894975092955090939092565b6000806000806000806000600260009054906101000a90046001600160a01b03166001600160a01b031663fca513a86040518163ffffffff1660e01b815260040160206040518083038186803b158015610eb057600080fd5b505afa158015610ec4573d6000803e3d6000fd5b505050506040513d6020811015610eda57600080fd5b50519050610ee66129ed565b60015460408051600160e21b630240bc6b02815290516060926001600160a01b031691630902f1ac916004808301926000929190829003018186803b158015610f2e57600080fd5b505afa158015610f42573d6000803e3d6000fd5b505050506040513d6000823e601f3d908101601f191682016040526020811015610f6b57600080fd5b810190808051640100000000811115610f8357600080fd5b82016020810184811115610f9657600080fd5b8151856020820283011164010000000082111715610fb357600080fd5b50909450600093505050505b81518110156113e55760015482516001600160a01b0390911690639fb8afcd90849084908110610feb57fe5b60200260200101518d6040518363ffffffff1660e01b815260040180836001600160a01b03166001600160a01b03168152602001826001600160a01b03166001600160a01b031681526020019250505060606040518083038186803b15801561105357600080fd5b505afa158015611067573d6000803e3d6000fd5b505050506040513d606081101561107d57600080fd5b5060200151606084015281516110a79083908390811061109957fe5b60200260200101518c610458565b604084018190521580156110bd57506060830151155b156110c7576113dd565b60015482516001600160a01b0390911690635fc526ff908490849081106110ea57fe5b60200260200101516040518263ffffffff1660e01b815260040180826001600160a01b03166001600160a01b0316815260200191505060c06040518083038186803b15801561113857600080fd5b505afa15801561114c573d6000803e3d6000fd5b505050506040513d60c081101561116257600080fd5b5080516020808301516040840151606090940151151560e088015260c087019390935260a086019290925260808501819052600a0a9084015281516001600160a01b0385169063b3596f07908490849081106111ba57fe5b60200260200101516040518263ffffffff1660e01b815260040180826001600160a01b03166001600160a01b0316815260200191505060206040518083038186803b15801561120857600080fd5b505afa15801561121c573d6000803e3d6000fd5b505050506040513d602081101561123257600080fd5b505183526040830151156113b55760006112718460200151611265866040015187600001516125d790919063ffffffff16565b9063ffffffff61263316565b90506112838b8263ffffffff6126a016565b9a508360e001518015611349575060015483516001600160a01b0390911690639e3c4f3b908590859081106112b457fe5b60200260200101518e6040518363ffffffff1660e01b815260040180836001600160a01b03166001600160a01b03168152602001826001600160a01b03166001600160a01b031681526020019250505060206040518083038186803b15801561131c57600080fd5b505afa158015611330573d6000803e3d6000fd5b505050506040513d602081101561134657600080fd5b50515b156113b35761135e8a8263ffffffff6126a016565b995061138761137a8560a00151836125d790919063ffffffff16565b899063ffffffff6126a016565b97506113b06113a38560c00151836125d790919063ffffffff16565b889063ffffffff6126a016565b96505b505b6060830151156113dd57606083015183516113da9161137a919063ffffffff6126fd16565b97505b600101610fbf565b50600088116113f5576000611405565b611405868963ffffffff61263316565b955060008811611416576000611426565b611426858963ffffffff61263316565b945061143388888761272d565b935050505091939550919395565b6000806000806000806000806000806000806000600160009054906101000a90046001600160a01b03166001600160a01b031663c33cfd908f6040518263ffffffff1660e01b815260040180826001600160a01b03166001600160a01b0316815260200191505060206040518083038186803b1580156114c057600080fd5b505afa1580156114d4573d6000803e3d6000fd5b505050506040513d60208110156114ea57600080fd5b81019080805190602001909291905050509c50600160009054906101000a90046001600160a01b03166001600160a01b031663e24030198f6040518263ffffffff1660e01b815260040180826001600160a01b03166001600160a01b0316815260200191505060206040518083038186803b15801561156857600080fd5b505afa15801561157c573d6000803e3d6000fd5b505050506040513d602081101561159257600080fd5b81019080805190602001909291905050509b50600160009054906101000a90046001600160a01b03166001600160a01b031663308f9d558f6040518263ffffffff1660e01b815260040180826001600160a01b03166001600160a01b0316815260200191505060206040518083038186803b15801561161057600080fd5b505afa158015611624573d6000803e3d6000fd5b505050506040513d602081101561163a57600080fd5b81019080805190602001909291905050509a50600160009054906101000a90046001600160a01b03166001600160a01b03166398bd47378f6040518263ffffffff1660e01b815260040180826001600160a01b03166001600160a01b0316815260200191505060206040518083038186803b1580156116b857600080fd5b505afa1580156116cc573d6000803e3d6000fd5b505050506040513d60208110156116e257600080fd5b81019080805190602001909291905050509950600160009054906101000a90046001600160a01b03166001600160a01b031663c540148e8f6040518263ffffffff1660e01b815260040180826001600160a01b03166001600160a01b0316815260200191505060206040518083038186803b15801561176057600080fd5b505afa158015611774573d6000803e3d6000fd5b505050506040513d602081101561178a57600080fd5b81019080805190602001909291905050509850600160009054906101000a90046001600160a01b03166001600160a01b031663906c0a418f6040518263ffffffff1660e01b815260040180826001600160a01b03166001600160a01b0316815260200191505060206040518083038186803b15801561180857600080fd5b505afa15801561181c573d6000803e3d6000fd5b505050506040513d602081101561183257600080fd5b81019080805190602001909291905050509750600160009054906101000a90046001600160a01b03166001600160a01b0316639e7d3b968f6040518263ffffffff1660e01b815260040180826001600160a01b03166001600160a01b0316815260200191505060206040518083038186803b1580156118b057600080fd5b505afa1580156118c4573d6000803e3d6000fd5b505050506040513d60208110156118da57600080fd5b81019080805190602001909291905050509650600160009054906101000a90046001600160a01b03166001600160a01b0316637269e8538f6040518263ffffffff1660e01b815260040180826001600160a01b03166001600160a01b0316815260200191505060206040518083038186803b15801561195857600080fd5b505afa15801561196c573d6000803e3d6000fd5b505050506040513d602081101561198257600080fd5b81019080805190602001909291905050509550600160009054906101000a90046001600160a01b03166001600160a01b031663bfacad848f6040518263ffffffff1660e01b815260040180826001600160a01b03166001600160a01b0316815260200191505060206040518083038186803b158015611a0057600080fd5b505afa158015611a14573d6000803e3d6000fd5b505050506040513d6020811015611a2a57600080fd5b81019080805190602001909291905050509450600160009054906101000a90046001600160a01b03166001600160a01b031663bd7fd79a8f6040518263ffffffff1660e01b815260040180826001600160a01b03166001600160a01b0316815260200191505060206040518083038186803b158015611aa857600080fd5b505afa158015611abc573d6000803e3d6000fd5b505050506040513d6020811015611ad257600080fd5b81019080805190602001909291905050509350600160009054906101000a90046001600160a01b03166001600160a01b031663b701d0938f6040518263ffffffff1660e01b815260040180826001600160a01b03166001600160a01b0316815260200191505060206040518083038186803b158015611b5057600080fd5b505afa158015611b64573d6000803e3d6000fd5b505050506040513d6020811015611b7a57600080fd5b81019080805190602001909291905050509250600160009054906101000a90046001600160a01b03166001600160a01b03166334b3beee8f6040518263ffffffff1660e01b815260040180826001600160a01b03166001600160a01b0316815260200191505060206040518083038186803b158015611bf857600080fd5b505afa158015611c0c573d6000803e3d6000fd5b505050506040513d6020811015611c2257600080fd5b81019080805190602001909291905050509150600160009054906101000a90046001600160a01b03166001600160a01b0316634f1446098f6040518263ffffffff1660e01b815260040180826001600160a01b03166001600160a01b0316815260200191505060206040518083038186803b158015611ca057600080fd5b505afa158015611cb4573d6000803e3d6000fd5b505050506040513d6020811015611cca57600080fd5b50519c9e9b9d50999b989a9799509597949693959294919390929190565b600080600080600080600080600160009054906101000a90046001600160a01b03166001600160a01b0316635fc526ff8a6040518263ffffffff1660e01b815260040180826001600160a01b03166001600160a01b0316815260200191505060c06040518083038186803b158015611d5f57600080fd5b505afa158015611d73573d6000803e3d6000fd5b505050506040513d60c0811015611d8957600080fd5b81019080805190602001909291908051906020019092919080519060200190929190805190602001909291908051906020019092919080519060200190929190505050909192939450809750819650829850839b50849c505050505050600160009054906101000a90046001600160a01b03166001600160a01b03166305075d6e8a6040518263ffffffff1660e01b815260040180826001600160a01b03166001600160a01b0316815260200191505060206040518083038186803b158015611e5157600080fd5b505afa158015611e65573d6000803e3d6000fd5b505050506040513d6020811015611e7b57600080fd5b505160015460408051600160e31b6316ef632b0281526001600160a01b038d81166004830152915193945091169163b77b195891602480820192602092909190829003018186803b158015611ecf57600080fd5b505afa158015611ee3573d6000803e3d6000fd5b505050506040513d6020811015611ef957600080fd5b505160015460408051600160e11b633570a20b0281526001600160a01b038d811660048301529151939950911691636ae1441691602480820192602092909190829003018186803b158015611f4d57600080fd5b505afa158015611f61573d6000803e3d6000fd5b505050506040513d6020811015611f7757600080fd5b50519799969850949695929491935091565b670de0b6b3a764000090565b611f9d612369565b611ff15760408051600160e51b62461bcd02815260206004820181905260248201527f4f776e61626c653a2063616c6c6572206973206e6f7420746865206f776e6572604482015290519081900360640190fd5b600080546040516001600160a01b03909116907f8be0079c531659141344cd1fd0a4f28419497f9722a3daafe3b4186f6b6457e0908390a3600080546001600160a01b0319169055565b6000612045612a34565b60015460408051600160e01b635fc526ff0281526001600160a01b03888116600483015291519190921691635fc526ff9160248083019260c0929190829003018186803b15801561209557600080fd5b505afa1580156120a9573d6000803e3d6000fd5b505050506040513d60c08110156120bf57600080fd5b5080516040820151606090920151158015610120850152608084019290925282528061216c575060015460408051600160e01b639e3c4f3b0281526001600160a01b038881166004830152878116602483015291519190921691639e3c4f3b916044808301926020929190829003018186803b15801561213e57600080fd5b505afa158015612152573d6000803e3d6000fd5b505050506040513d602081101561216857600080fd5b5051155b1561217b576001915050612353565b61218484610e57565b50606086015250604084018190526020840191909152151590506121ac576001915050612353565b60025460408051600160e31b631f94a27502815290516000926001600160a01b03169163fca513a8916004808301926020929190829003018186803b1580156121f457600080fd5b505afa158015612208573d6000803e3d6000fd5b505050506040513d602081101561221e57600080fd5b5051825160408051600160e01b63b3596f070281526001600160a01b038a8116600483015291519394506122bb93600a9390930a926112659289929087169163b3596f0791602480820192602092909190829003018186803b15801561228357600080fd5b505afa158015612297573d6000803e3d6000fd5b505050506040513d60208110156122ad57600080fd5b50519063ffffffff6125d716565b60a0830181905260208301516122d69163ffffffff61276a16565b60c08301819052608083015160a08401516123249291611265916122ff9163ffffffff6125d716565b606086015160208701516123189163ffffffff6125d716565b9063ffffffff61276a16565b60e0830181905260c0830151604084015160009261234392919061272d565b670de0b6b3a76400001093505050505b9392505050565b6000546001600160a01b031690565b6000546001600160a01b0316331490565b600080600260009054906101000a90046001600160a01b03166001600160a01b031663b5722bb56040518163ffffffff1660e01b815260040160206040518083038186803b1580156123cb57600080fd5b505afa1580156123df573d6000803e3d6000fd5b505050506040513d60208110156123f557600080fd5b505160408051600160e01b6317bfdd5702815290516001600160a01b03909216916317bfdd5791600480820192602092909190829003018186803b15801561243c57600080fd5b505afa158015612450573d6000803e3d6000fd5b505050506040513d602081101561246657600080fd5b50516001549091506001600160a01b03908116906000908581169084161461250f57846001600160a01b03166370a08231836040518263ffffffff1660e01b815260040180826001600160a01b03166001600160a01b0316815260200191505060206040518083038186803b1580156124de57600080fd5b505afa1580156124f2573d6000803e3d6000fd5b505050506040513d602081101561250857600080fd5b505161251b565b816001600160a01b0316315b95945050505050565b600080600080600080600061253888610e57565b949b50929950909750909450925090506125538686846127ca565b9350919395979092949650565b6002546001600160a01b031681565b612577612369565b6125cb5760408051600160e51b62461bcd02815260206004820181905260248201527f4f776e61626c653a2063616c6c6572206973206e6f7420746865206f776e6572604482015290519081900360640190fd5b6125d48161291e565b50565b6000826125e657506000610556565b828202828482816125f357fe5b041461235357604051600160e51b62461bcd028152600401808060200182810382526021815260200180612ab06021913960400191505060405180910390fd5b600080821161268c5760408051600160e51b62461bcd02815260206004820152601a60248201527f536166654d6174683a206469766973696f6e206279207a65726f000000000000604482015290519081900360640190fd5b600082848161269757fe5b04949350505050565b6000828201838110156123535760408051600160e51b62461bcd02815260206004820152601b60248201527f536166654d6174683a206164646974696f6e206f766572666c6f770000000000604482015290519081900360640190fd5b6000612353670de0b6b3a764000061126561271e868663ffffffff6125d716565b6706f05b59d3b20000906126a0565b60008261273d5750600019612353565b612762836127566064611265888763ffffffff6125d716565b9063ffffffff6129c116565b949350505050565b6000828211156127c45760408051600160e51b62461bcd02815260206004820152601e60248201527f536166654d6174683a207375627472616374696f6e206f766572666c6f770000604482015290519081900360640190fd5b50900390565b6000806127e26064611265878663ffffffff6125d716565b9050838110156127f6576000915050612353565b612806818563ffffffff61276a16565b90506000600260009054906101000a90046001600160a01b03166001600160a01b031663fbeefc3c6040518163ffffffff1660e01b815260040160206040518083038186803b15801561285857600080fd5b505afa15801561286c573d6000803e3d6000fd5b505050506040513d602081101561288257600080fd5b505160408051600160e41b630e563a7d0281523360048201526024810185905290516001600160a01b039092169163e563a7d091604480820192602092909190829003018186803b1580156128d657600080fd5b505afa1580156128ea573d6000803e3d6000fd5b505050506040513d602081101561290057600080fd5b50519050612914828263ffffffff61276a16565b9695505050505050565b6001600160a01b03811661296657604051600160e51b62461bcd028152600401808060200182810382526026815260200180612a8a6026913960400191505060405180910390fd5b600080546040516001600160a01b03808516939216917f8be0079c531659141344cd1fd0a4f28419497f9722a3daafe3b4186f6b6457e091a3600080546001600160a01b0319166001600160a01b0392909216919091179055565b600060028204612762836112656129e087670de0b6b3a76400006125d7565b849063ffffffff6126a016565b604051806101000160405280600081526020016000815260200160008152602001600081526020016000815260200160008152602001600081526020016000151581525090565b604051806101400160405280600081526020016000815260200160008152602001600081526020016000815260200160008152602001600081526020016000815260200160008152602001600015158152509056fe4f776e61626c653a206e6577206f776e657220697320746865207a65726f2061646472657373536166654d6174683a206d756c7469706c69636174696f6e206f766572666c6f77a165627a7a723058200165c07576e27c97cd95229036e48b5fbd7dc7412780b3b4bf01016b059130b90029",
  "source": "pragma solidity ^0.5.0;\n\nimport \"openzeppelin-solidity/contracts/ownership/Ownable.sol\";\nimport \"openzeppelin-solidity/contracts/math/SafeMath.sol\";\n\nimport \"../libraries/CoreLibrary.sol\";\nimport \"../configuration/LendingPoolAddressesProvider.sol\";\nimport \"../configuration/NetworkMetadataProvider.sol\";\nimport \"../libraries/WadRayMath.sol\";\nimport \"../interfaces/IFeeProvider.sol\";\nimport \"../tokenization/AToken.sol\";\n\nimport \"./LendingPoolCore.sol\";\n\n\n\n/*************************************************************************************\n@title LendingPoolDataProvider contract\n@author Aave\n@notice Implements functions to fetch data from the core, and aggregate them in order to allow computation\non the compounded balances and the account balances in ETH\n *************************************************************************************/\n\ncontract LendingPoolDataProvider is Ownable {\n    using SafeMath for uint256;\n    using WadRayMath for uint256;\n\n    LendingPoolCore core;\n    LendingPoolAddressesProvider public addressesProvider;\n\n    /**\n    @dev specifies the health factor threshold at which the user position is liquidated.\n    1 by default, if the health factor drops below 1, the loan gets liquidated.\n     */\n    uint256 constant HEALTH_FACTOR_LIQUIDATION_THRESHOLD = 1e18;\n\n\n    constructor(LendingPoolAddressesProvider _addressesProvider) public {\n        addressesProvider = _addressesProvider;\n        core = LendingPoolCore(_addressesProvider.getLendingPoolCore());\n    }\n\n    /**\n    @dev struct to hold calculateUserGlobalData() local computations\n     */\n    struct UserGlobalDataLocalVars {\n        uint256 reserveUnitPrice;\n        uint256 tokenUnit;\n        uint256 compoundedLiquidityBalance;\n        uint256 compoundedBorrowBalance;\n        uint256 reserveDecimals;\n        uint256 baseLtv;\n        uint256 liquidationThreshold;\n        bool usageAsCollateralEnabled;\n    }\n\n    /**\n    @notice calculates the user data across the reserves.\n    this includes the total liquidity/collateral/borrow balances in ETH,\n    the average Loan To Value, the average Liquidation Ratio, and the Health factor.\n     */\n    function calculateUserGlobalData(address _user)\n        public\n        view\n        returns (\n            uint256 totalLiquidityBalanceETH,\n            uint256 totalCollateralBalanceETH,\n            uint256 totalBorrowBalanceETH,\n            uint256 currentLtv,\n            uint256 currentLiquidationThreshold,\n            uint256 healthFactor\n            )\n    {\n        IPriceOracle oracle = IPriceOracle(addressesProvider.getPriceOracle());\n        UserGlobalDataLocalVars memory vars;\n\n        address[] memory reserves = core.getReserves();\n\n        for (uint256 i = 0; i < reserves.length; i++) {\n\n            (,vars.compoundedBorrowBalance,) = core.getUserBorrowBalances(reserves[i], _user);\n            vars.compoundedLiquidityBalance = getUserUnderlyingAssetBalance(reserves[i], _user);\n\n            if(vars.compoundedLiquidityBalance == 0 && vars.compoundedBorrowBalance == 0){\n                continue;\n            }\n\n            //fetch reserve data\n            (vars.reserveDecimals,\n            vars.baseLtv,\n            vars.liquidationThreshold,\n            vars.usageAsCollateralEnabled,\n            ,) = core.getReserveConfiguration(reserves[i]);\n            vars.tokenUnit = 10 ** vars.reserveDecimals;\n            vars.reserveUnitPrice = oracle.getAssetPrice(reserves[i]);\n\n            //liquidity and collateral balance\n            if (vars.compoundedLiquidityBalance > 0) {\n\n\n                uint256 liquidityBalanceETH = vars.reserveUnitPrice.mul(vars.compoundedLiquidityBalance).div(\n                    vars.tokenUnit\n                );\n                totalLiquidityBalanceETH = totalLiquidityBalanceETH.add(liquidityBalanceETH);\n\n                if (vars.usageAsCollateralEnabled && core.isUserUseReserveAsCollateralEnabled(reserves[i], _user)) {\n                    totalCollateralBalanceETH = totalCollateralBalanceETH.add(liquidityBalanceETH);\n                    currentLtv = currentLtv.add(liquidityBalanceETH.mul(vars.baseLtv));\n                    currentLiquidationThreshold = currentLiquidationThreshold\n                        .add(liquidityBalanceETH.mul(vars.liquidationThreshold));\n                }\n            }\n\n            if (vars.compoundedBorrowBalance > 0) {\n                totalBorrowBalanceETH = totalBorrowBalanceETH.add(vars.reserveUnitPrice.wadMul(vars.compoundedBorrowBalance));\n            }\n        }\n\n        currentLtv = totalCollateralBalanceETH > 0 ? currentLtv.div(totalCollateralBalanceETH) : 0;\n        currentLiquidationThreshold = totalCollateralBalanceETH > 0 ? currentLiquidationThreshold.div(totalCollateralBalanceETH) : 0;\n\n        healthFactor = calculateHealthFactorFromBalancesInternal(\n            totalCollateralBalanceETH,\n            totalBorrowBalanceETH,\n            currentLiquidationThreshold\n            );\n\n    }\n\n\n    /**\n    @notice gets the underlying asset balance of a user based on the corresponding aToken balance.\n     */\n\n    function getUserUnderlyingAssetBalance(address _reserve, address _user) public view returns (uint256) {\n\n        AToken aToken = AToken(core.getReserveATokenAddress(_reserve));\n\n        return aToken.balanceOfUnderlying(_user);\n\n    }\n    /**\n    @notice check if a specific balance decrease is allowed (i.e. doesn't bring the user borrow position health factor under 1)\n    Used by the transferInternal() method of the aToken contract to check if a transfer of tokens is allowed.\n     */\n\n    struct balanceDecreaseAllowedLocalVars {\n        uint256 decimals;\n        uint256 collateralBalanceETH;\n        uint256 borrowBalanceETH;\n        uint256 currentLiquidationThreshold;\n        uint256 reserveLiquidationThreshold;\n        uint256 amountToDecreaseETH;\n        uint256 collateralBalancefterDecrease;\n        uint256 liquidationThresholdAfterDecrease;\n        uint256 healthFactorAfterDecrease;\n        bool reserveUsageAsCollateralEnabled;\n    }\n\n    function balanceDecreaseAllowed(address _reserve, address _user, uint _amount) external view returns (bool) {\n\n        balanceDecreaseAllowedLocalVars memory vars;\n\n        (vars.decimals,\n        ,\n        vars.reserveLiquidationThreshold,\n        vars.reserveUsageAsCollateralEnabled,\n        ,) = core.getReserveConfiguration(_reserve);\n\n        if(!vars.reserveUsageAsCollateralEnabled || !core.isUserUseReserveAsCollateralEnabled(_reserve, _user)){\n            return true; //if reserve is not used as collateral, no reasons to block the transfer\n        }\n\n        (,\n        vars.collateralBalanceETH,\n        vars.borrowBalanceETH,\n        ,\n        vars.currentLiquidationThreshold,\n        ) = calculateUserGlobalData(_user);\n\n        if(vars.borrowBalanceETH == 0){\n            return true; //no borrows - no reasons to block the transfer\n        }\n\n        IPriceOracle oracle = IPriceOracle(addressesProvider.getPriceOracle());\n\n        vars.amountToDecreaseETH = oracle\n            .getAssetPrice(_reserve)\n            .mul(_amount)\n            .div(10 ** vars.decimals);\n\n        vars.collateralBalancefterDecrease = vars.collateralBalanceETH.sub(vars.amountToDecreaseETH);\n\n        vars.liquidationThresholdAfterDecrease = vars.collateralBalanceETH\n            .mul(vars.currentLiquidationThreshold)\n            .sub(vars.amountToDecreaseETH.mul(vars.reserveLiquidationThreshold))\n            .div(vars.collateralBalancefterDecrease);\n\n\n        uint256 healthFactorAfterDecrease = calculateHealthFactorFromBalancesInternal(\n            vars.collateralBalancefterDecrease,\n            vars.borrowBalanceETH,\n            vars.liquidationThresholdAfterDecrease);\n\n        return healthFactorAfterDecrease > HEALTH_FACTOR_LIQUIDATION_THRESHOLD;\n\n    }\n\n     /**\n    @notice calculates the equivalent amount in ETH that an user can borrow, depeding on the available collateral and the\n    average Loan To Value.\n     */\n\n    function calculateAvailableBorrowsETHInternal(uint256 collateralBalanceETH, uint256 borrowBalanceETH, uint256 ltv)\n        internal\n        view\n        returns (uint256) {\n\n        uint availableBorrowsETH = collateralBalanceETH.mul(ltv).div(100); //ltv is in percentage\n\n        if(availableBorrowsETH < borrowBalanceETH){\n            return 0;\n        }\n\n        availableBorrowsETH = availableBorrowsETH.sub(borrowBalanceETH);\n        //calculate fee\n        uint256 borrowFee = IFeeProvider(addressesProvider.getFeeProvider()).calculateLoanOriginationFee(\n            msg.sender,\n            availableBorrowsETH\n        );\n        return availableBorrowsETH.sub(borrowFee);\n    }\n\n   /**\n    @notice calculates the health factor from the corresponding balances\n     */\n    function calculateHealthFactorFromBalancesInternal(\n        uint256 collateralBalanceETH,\n        uint256 borrowBalanceETH,\n        uint256 liquidationThreshold\n        )\n        internal\n        pure\n        returns (uint256)\n    {\n        if (borrowBalanceETH == 0) return uint256(-1);\n\n        return (collateralBalanceETH.mul(liquidationThreshold).div(100)).wadDiv(borrowBalanceETH);\n    }\n\n\n    function getHealthFactorLiquidationThreshold() public pure returns(uint) {\n        return HEALTH_FACTOR_LIQUIDATION_THRESHOLD;\n    }\n\n\n    function getReserveConfigurationData(address _reserve)\n        external\n        view\n        returns (\n            uint256 ltv,\n            uint256 liquidationThreshold,\n            uint256 liquidationDiscount,\n            address rateStrategyAddress,\n            bool usageAsCollateralEnabled,\n            bool borrowingEnabled,\n            bool fixedBorrowRateEnabled,\n            bool isActive)\n    {\n        (,\n        ltv,\n        liquidationThreshold,\n        usageAsCollateralEnabled,\n        fixedBorrowRateEnabled,\n        borrowingEnabled) = core.getReserveConfiguration(_reserve);\n        isActive = core.getReserveIsActive(_reserve);\n        liquidationDiscount = core.getReserveLiquidationDiscount(_reserve);\n\n        rateStrategyAddress = core.getReserveInterestRateStrategyAddress(_reserve);\n    }\n\n    function getReserveData(address _reserve)\n        external\n        view\n        returns (\n            uint256 totalLiquidity,\n            uint256 availableLiquidity,\n            uint256 totalBorrowsFixed,\n            uint256 totalBorrowsVariable,\n            uint256 liquidityRate,\n            uint256 variableBorrowRate,\n            uint256 fixedBorrowRate,\n            uint256 averageFixedBorrowRate,\n            uint256 utilizationRate,\n            uint256 liquidityIndex,\n            uint256 variableBorrowIndex,\n            address aTokenAddress,\n            uint40 lastUpdateTimestamp\n            )\n    {\n        totalLiquidity = core.getReserveTotalLiquidity(_reserve);\n        availableLiquidity = core.getReserveAvailableLiquidity(_reserve);\n        totalBorrowsFixed = core.getReserveTotalBorrowsFixed(_reserve);\n        totalBorrowsVariable = core.getReserveTotalBorrowsVariable(_reserve);\n        liquidityRate = core.getReserveCurrentLiquidityRate(_reserve);\n        variableBorrowRate = core.getReserveCurrentVariableBorrowRate(_reserve);\n        fixedBorrowRate = core.getReserveCurrentFixedBorrowRate(_reserve);\n        averageFixedBorrowRate = core.getReserveCurrentAverageFixedBorrowRate(_reserve);\n        utilizationRate = core.getReserveUtilizationRate(_reserve);\n        liquidityIndex = core.getReserveLiquidityCumulativeIndex(_reserve);\n        variableBorrowIndex = core.getReserveVariableBorrowsCumulativeIndex(_reserve);\n        aTokenAddress = core.getReserveATokenAddress(_reserve);\n        lastUpdateTimestamp = core.getReserveLastUpdate(_reserve);\n    }\n\n    function getUserAccountData(address _user)\n        external\n        view\n        returns (\n            uint256 totalLiquidityETH,\n            uint256 totalCollateralETH,\n            uint256 totalBorrowsETH,\n            uint256 availableBorrowsETH,\n            uint256 currentLiquidationThreshold,\n            uint256 ltv,\n            uint256 healthFactor\n        )\n    {\n        (totalLiquidityETH,\n        totalCollateralETH,\n        totalBorrowsETH,\n        ltv,\n        currentLiquidationThreshold,\n        healthFactor) = calculateUserGlobalData(_user);\n\n        availableBorrowsETH = calculateAvailableBorrowsETHInternal(totalCollateralETH, totalBorrowsETH, ltv);\n    }\n\n    function getUserReserveData(address _reserve, address _user)\n        external\n        view\n        returns (\n            uint256 currentATokenBalance,\n            uint256 currentUnderlyingBalance,\n            uint256 currentBorrowBalance,\n            uint256 principalBorrowBalance,\n            uint256 borrowRateMode,\n            uint256 borrowRate,\n            uint256 liquidityRate,\n            uint256 originationFee,\n            uint256 variableBorrowIndex,\n            uint256 lastUpdateTimestamp,\n            bool usageAsCollateralEnabled\n        )\n    {\n        currentATokenBalance = AToken(core.getReserveATokenAddress(_reserve)).balanceOf(_user);\n        currentUnderlyingBalance = AToken(core.getReserveATokenAddress(_reserve)).balanceOfUnderlying(_user);\n        CoreLibrary.InterestRateMode mode = core.getUserCurrentBorrowRateMode(_reserve, _user);\n        (principalBorrowBalance,\n        currentBorrowBalance,) = core.getUserBorrowBalances(_reserve, _user);\n        borrowRateMode = uint256(mode);\n        borrowRate = mode == CoreLibrary.InterestRateMode.FIXED\n            ? core.getUserCurrentFixedBorrowRate(_reserve, _user)\n            : core.getReserveCurrentVariableBorrowRate(_reserve);\n        liquidityRate = core.getReserveCurrentLiquidityRate(_reserve);\n        originationFee = core.getUserOriginationFee(_reserve, _user);\n        variableBorrowIndex = core.getUserVariableBorrowCumulativeIndex(_reserve, _user);\n        lastUpdateTimestamp = core.getUserLastUpdate(_reserve, _user);\n        usageAsCollateralEnabled = core.isUserUseReserveAsCollateralEnabled(_reserve, _user);\n    }\n\n    /**\n    @dev provides the actual balance of a reserve, by checking the core balance of the underlying ERC20/Ether\n     */\n\n    function getCoreActualReserveBalance(address _reserve) external view returns(uint256){\n\n        address ethereumAddress = NetworkMetadataProvider(addressesProvider.getNetworkMetadataProvider()).getEthereumAddress();\n        address coreAddress = address(core);\n\n        uint balance = _reserve == ethereumAddress ? coreAddress.balance : IERC20(_reserve).balanceOf(coreAddress);\n\n        return balance;\n    }\n}\n",
  "sourcePath": "/src/contracts/lendingpool/LendingPoolDataProvider.sol",
  "compiler": {
    "name": "solc",
    "version": "0.5.6+commit.b259423e.Emscripten.clang"
  },
  "schemaVersion": "3.0.15",
  "updatedAt": "2019-11-02T17:58:20.620Z",
  "devdoc": {
    "author": "Aave",
    "methods": {
      "getCoreActualReserveBalance(address)": {
        "details": "provides the actual balance of a reserve, by checking the core balance of the underlying ERC20/Ether"
      },
      "isOwner()": {
        "details": "Returns true if the caller is the current owner."
      },
      "owner()": {
        "details": "Returns the address of the current owner."
      },
      "renounceOwnership()": {
        "details": "Leaves the contract without owner. It will not be possible to call `onlyOwner` functions anymore. Can only be called by the current owner.     * > Note: Renouncing ownership will leave the contract without an owner, thereby removing any functionality that is only available to the owner."
      },
      "transferOwnership(address)": {
        "details": "Transfers ownership of the contract to a new account (`newOwner`). Can only be called by the current owner."
      }
    },
    "title": "LendingPoolDataProvider contract"
  },
  "userdoc": {
    "methods": {
      "calculateUserGlobalData(address)": {
        "notice": "calculates the user data across the reserves. this includes the total liquidity/collateral/borrow balances in ETH, the average Loan To Value, the average Liquidation Ratio, and the Health factor."
      },
      "getUserUnderlyingAssetBalance(address,address)": {
        "notice": "gets the underlying asset balance of a user based on the corresponding aToken balance."
      }
    },
    "notice": "***********************************************************************************Implements functions to fetch data from the core, and aggregate them in order to allow computation on the compounded balances and the account balances in ETH************************************************************************************"
  }
}