{
  "contractName": "LendingPool",
  "abi": [
    {
      "constant": true,
      "inputs": [],
      "name": "addressesProvider",
      "outputs": [
        {
          "name": "",
          "type": "address"
        }
      ],
      "payable": false,
      "stateMutability": "view",
      "type": "function"
    },
    {
      "inputs": [
        {
          "name": "_addressesProvider",
          "type": "address"
        }
      ],
      "payable": false,
      "stateMutability": "nonpayable",
      "type": "constructor"
    },
    {
      "anonymous": false,
      "inputs": [
        {
          "indexed": true,
          "name": "_reserve",
          "type": "address"
        },
        {
          "indexed": true,
          "name": "_user",
          "type": "address"
        },
        {
          "indexed": false,
          "name": "_amount",
          "type": "uint256"
        },
        {
          "indexed": true,
          "name": "_referral",
          "type": "uint16"
        },
        {
          "indexed": false,
          "name": "timestamp",
          "type": "uint256"
        }
      ],
      "name": "Deposit",
      "type": "event"
    },
    {
      "anonymous": false,
      "inputs": [
        {
          "indexed": true,
          "name": "_reserve",
          "type": "address"
        },
        {
          "indexed": true,
          "name": "_user",
          "type": "address"
        },
        {
          "indexed": false,
          "name": "_amount",
          "type": "uint256"
        },
        {
          "indexed": false,
          "name": "timestamp",
          "type": "uint256"
        }
      ],
      "name": "RedeemUnderlying",
      "type": "event"
    },
    {
      "anonymous": false,
      "inputs": [
        {
          "indexed": true,
          "name": "_reserve",
          "type": "address"
        },
        {
          "indexed": true,
          "name": "_user",
          "type": "address"
        },
        {
          "indexed": false,
          "name": "_amount",
          "type": "uint256"
        },
        {
          "indexed": true,
          "name": "_referral",
          "type": "uint16"
        },
        {
          "indexed": false,
          "name": "timestamp",
          "type": "uint256"
        }
      ],
      "name": "Borrow",
      "type": "event"
    },
    {
      "anonymous": false,
      "inputs": [
        {
          "indexed": true,
          "name": "_reserve",
          "type": "address"
        },
        {
          "indexed": true,
          "name": "_user",
          "type": "address"
        },
        {
          "indexed": false,
          "name": "_amount",
          "type": "uint256"
        },
        {
          "indexed": false,
          "name": "timestamp",
          "type": "uint256"
        }
      ],
      "name": "Repay",
      "type": "event"
    },
    {
      "anonymous": false,
      "inputs": [
        {
          "indexed": true,
          "name": "_collateral",
          "type": "address"
        },
        {
          "indexed": true,
          "name": "_user",
          "type": "address"
        },
        {
          "indexed": false,
          "name": "_amount",
          "type": "uint256"
        },
        {
          "indexed": true,
          "name": "_reserve",
          "type": "address"
        },
        {
          "indexed": false,
          "name": "timestamp",
          "type": "uint256"
        }
      ],
      "name": "LiquidationCall",
      "type": "event"
    },
    {
      "anonymous": false,
      "inputs": [
        {
          "indexed": true,
          "name": "_reserve",
          "type": "address"
        },
        {
          "indexed": true,
          "name": "_user",
          "type": "address"
        },
        {
          "indexed": false,
          "name": "timestamp",
          "type": "uint256"
        }
      ],
      "name": "Swap",
      "type": "event"
    },
    {
      "anonymous": false,
      "inputs": [
        {
          "indexed": true,
          "name": "_target",
          "type": "address"
        },
        {
          "indexed": true,
          "name": "_reserve",
          "type": "address"
        },
        {
          "indexed": false,
          "name": "_amount",
          "type": "uint256"
        },
        {
          "indexed": false,
          "name": "_fee",
          "type": "uint256"
        },
        {
          "indexed": false,
          "name": "timestamp",
          "type": "uint256"
        }
      ],
      "name": "FlashLoan",
      "type": "event"
    },
    {
      "anonymous": false,
      "inputs": [
        {
          "indexed": true,
          "name": "_reserve",
          "type": "address"
        },
        {
          "indexed": true,
          "name": "_user",
          "type": "address"
        }
      ],
      "name": "ReserveUsedAsCollateralEnabled",
      "type": "event"
    },
    {
      "anonymous": false,
      "inputs": [
        {
          "indexed": true,
          "name": "_reserve",
          "type": "address"
        },
        {
          "indexed": true,
          "name": "_user",
          "type": "address"
        }
      ],
      "name": "ReserveUsedAsCollateralDisabled",
      "type": "event"
    },
    {
      "constant": false,
      "inputs": [
        {
          "name": "_reserve",
          "type": "address"
        },
        {
          "name": "_amount",
          "type": "uint256"
        },
        {
          "name": "_referralCode",
          "type": "uint16"
        }
      ],
      "name": "deposit",
      "outputs": [],
      "payable": true,
      "stateMutability": "payable",
      "type": "function"
    },
    {
      "constant": false,
      "inputs": [
        {
          "name": "_reserve",
          "type": "address"
        },
        {
          "name": "_user",
          "type": "address"
        },
        {
          "name": "_amount",
          "type": "uint256"
        }
      ],
      "name": "redeemUnderlying",
      "outputs": [],
      "payable": false,
      "stateMutability": "nonpayable",
      "type": "function"
    },
    {
      "constant": false,
      "inputs": [
        {
          "name": "_reserve",
          "type": "address"
        },
        {
          "name": "_amount",
          "type": "uint256"
        },
        {
          "name": "_interestRateMode",
          "type": "uint256"
        },
        {
          "name": "_referralCode",
          "type": "uint16"
        }
      ],
      "name": "borrow",
      "outputs": [],
      "payable": false,
      "stateMutability": "nonpayable",
      "type": "function"
    },
    {
      "constant": false,
      "inputs": [
        {
          "name": "_reserve",
          "type": "address"
        },
        {
          "name": "_amount",
          "type": "uint256"
        },
        {
          "name": "_onBehalfOf",
          "type": "address"
        }
      ],
      "name": "repay",
      "outputs": [],
      "payable": true,
      "stateMutability": "payable",
      "type": "function"
    },
    {
      "constant": false,
      "inputs": [
        {
          "name": "_reserve",
          "type": "address"
        }
      ],
      "name": "swapBorrowRateMode",
      "outputs": [],
      "payable": false,
      "stateMutability": "nonpayable",
      "type": "function"
    },
    {
      "constant": false,
      "inputs": [
        {
          "name": "_reserve",
          "type": "address"
        },
        {
          "name": "_user",
          "type": "address"
        }
      ],
      "name": "rebalanceFixedBorrowRate",
      "outputs": [],
      "payable": false,
      "stateMutability": "nonpayable",
      "type": "function"
    },
    {
      "constant": false,
      "inputs": [
        {
          "name": "_reserve",
          "type": "address"
        },
        {
          "name": "_useAsCollateral",
          "type": "bool"
        }
      ],
      "name": "setUserUseReserveAsCollateral",
      "outputs": [],
      "payable": false,
      "stateMutability": "nonpayable",
      "type": "function"
    },
    {
      "constant": false,
      "inputs": [
        {
          "name": "_collateral",
          "type": "address"
        },
        {
          "name": "_reserve",
          "type": "address"
        },
        {
          "name": "_user",
          "type": "address"
        },
        {
          "name": "_purchaseAmount",
          "type": "uint256"
        },
        {
          "name": "_receiveAToken",
          "type": "bool"
        }
      ],
      "name": "liquidationCall",
      "outputs": [],
      "payable": true,
      "stateMutability": "payable",
      "type": "function"
    },
    {
      "constant": false,
      "inputs": [
        {
          "name": "_receiver",
          "type": "address"
        },
        {
          "name": "_reserve",
          "type": "address"
        },
        {
          "name": "_amount",
          "type": "uint256"
        }
      ],
      "name": "flashLoan",
      "outputs": [],
      "payable": false,
      "stateMutability": "nonpayable",
      "type": "function"
    },
    {
      "constant": true,
      "inputs": [
        {
          "name": "_reserve",
          "type": "address"
        }
      ],
      "name": "getReserveConfigurationData",
      "outputs": [
        {
          "name": "ltv",
          "type": "uint256"
        },
        {
          "name": "liquidationThreshold",
          "type": "uint256"
        },
        {
          "name": "liquidationDiscount",
          "type": "uint256"
        },
        {
          "name": "interestRateStrategyAddress",
          "type": "address"
        },
        {
          "name": "usageAsCollateralEnabled",
          "type": "bool"
        },
        {
          "name": "borrowingEnabled",
          "type": "bool"
        },
        {
          "name": "fixedBorrowRateEnabled",
          "type": "bool"
        },
        {
          "name": "isActive",
          "type": "bool"
        }
      ],
      "payable": false,
      "stateMutability": "view",
      "type": "function"
    },
    {
      "constant": true,
      "inputs": [
        {
          "name": "_reserve",
          "type": "address"
        }
      ],
      "name": "getReserveData",
      "outputs": [
        {
          "name": "totalLiquidity",
          "type": "uint256"
        },
        {
          "name": "availableLiquidity",
          "type": "uint256"
        },
        {
          "name": "totalBorrowsFixed",
          "type": "uint256"
        },
        {
          "name": "totalBorrowsVariable",
          "type": "uint256"
        },
        {
          "name": "liquidityRate",
          "type": "uint256"
        },
        {
          "name": "variableBorrowRate",
          "type": "uint256"
        },
        {
          "name": "fixedBorrowRate",
          "type": "uint256"
        },
        {
          "name": "averageFixedBorrowRate",
          "type": "uint256"
        },
        {
          "name": "utilizationRate",
          "type": "uint256"
        },
        {
          "name": "liquidityIndex",
          "type": "uint256"
        },
        {
          "name": "variableBorrowIndex",
          "type": "uint256"
        },
        {
          "name": "aTokenAddress",
          "type": "address"
        },
        {
          "name": "lastUpdateTimestamp",
          "type": "uint40"
        }
      ],
      "payable": false,
      "stateMutability": "view",
      "type": "function"
    },
    {
      "constant": true,
      "inputs": [
        {
          "name": "_user",
          "type": "address"
        }
      ],
      "name": "getUserAccountData",
      "outputs": [
        {
          "name": "totalLiquidityETH",
          "type": "uint256"
        },
        {
          "name": "totalCollateralETH",
          "type": "uint256"
        },
        {
          "name": "totalBorrowsETH",
          "type": "uint256"
        },
        {
          "name": "availableBorrowsETH",
          "type": "uint256"
        },
        {
          "name": "currentLiquidationThreshold",
          "type": "uint256"
        },
        {
          "name": "ltv",
          "type": "uint256"
        },
        {
          "name": "healthFactor",
          "type": "uint256"
        }
      ],
      "payable": false,
      "stateMutability": "view",
      "type": "function"
    },
    {
      "constant": true,
      "inputs": [
        {
          "name": "_reserve",
          "type": "address"
        },
        {
          "name": "_user",
          "type": "address"
        }
      ],
      "name": "getUserReserveData",
      "outputs": [
        {
          "name": "currentATokenBalance",
          "type": "uint256"
        },
        {
          "name": "currentUnderlyingBalance",
          "type": "uint256"
        },
        {
          "name": "currentBorrowBalance",
          "type": "uint256"
        },
        {
          "name": "principalBorrowBalance",
          "type": "uint256"
        },
        {
          "name": "borrowRateMode",
          "type": "uint256"
        },
        {
          "name": "borrowRate",
          "type": "uint256"
        },
        {
          "name": "liquidityRate",
          "type": "uint256"
        },
        {
          "name": "originationFee",
          "type": "uint256"
        },
        {
          "name": "variableBorrowIndex",
          "type": "uint256"
        },
        {
          "name": "lastUpdateTimestamp",
          "type": "uint256"
        },
        {
          "name": "usageAsCollateralEnabled",
          "type": "bool"
        }
      ],
      "payable": false,
      "stateMutability": "view",
      "type": "function"
    },
    {
      "constant": true,
      "inputs": [],
      "name": "getReserves",
      "outputs": [
        {
          "name": "",
          "type": "address[]"
        }
      ],
      "payable": false,
      "stateMutability": "view",
      "type": "function"
    }
  ],
  "bytecode": "0x60806040523480156200001157600080fd5b5060405160208062006138833981018060405260208110156200003357600080fd5b50516001600081905580546001600160a01b0319166001600160a01b038084169190911791829055604080517fed6ff7600000000000000000000000000000000000000000000000000000000081529051929091169163ed6ff76091600480820192602092909190829003018186803b158015620000b057600080fd5b505afa158015620000c5573d6000803e3d6000fd5b505050506040513d6020811015620000dc57600080fd5b5051600280546001600160a01b0319166001600160a01b03928316179055600154604080517f2f58b80d00000000000000000000000000000000000000000000000000000000815290519190921691632f58b80d916004808301926020929190829003018186803b1580156200015157600080fd5b505afa15801562000166573d6000803e3d6000fd5b505050506040513d60208110156200017d57600080fd5b5051600380546001600160a01b0319166001600160a01b03928316179055600154604080517f04061d8e000000000000000000000000000000000000000000000000000000008152905191909216916304061d8e916004808301926020929190829003018186803b158015620001f257600080fd5b505afa15801562000207573d6000803e3d6000fd5b505050506040513d60208110156200021e57600080fd5b5051600480546001600160a01b0319166001600160a01b0390921691909117905550615ee880620002506000396000f3fe6080604052600436106100e75760003560e01c80635ceae9c41161008a578063bf92857c11610059578063bf92857c146104b9578063c72c4d1014610524578063c858f5f914610555578063d2d0e0661461059e576100e7565b80635ceae9c4146103c257806366f8cd93146103f8578063935642cf146104335780639d9638a114610476576100e7565b806335ea6a75116100c657806335ea6a751461022a5780633e150141146102d257806348ca1300146103545780635a3b74b914610387576100e7565b8062a718a9146100ec5780630902f1ac1461013257806328dd2d0114610197575b600080fd5b610130600480360360a081101561010257600080fd5b506001600160a01b0381358116916020810135821691604082013516906060810135906080013515156105d4565b005b34801561013e57600080fd5b506101476109f0565b60408051602080825283518183015283519192839290830191858101910280838360005b8381101561018357818101518382015260200161016b565b505050509050019250505060405180910390f35b3480156101a357600080fd5b506101d2600480360360408110156101ba57600080fd5b506001600160a01b0381358116916020013516610ac8565b604080519b8c5260208c019a909a528a8a019890985260608a0196909652608089019490945260a088019290925260c087015260e0860152610100850152610120840152151561014083015251908190036101600190f35b34801561023657600080fd5b5061025d6004803603602081101561024d57600080fd5b50356001600160a01b0316610bfd565b604080519d8e5260208e019c909c528c8c019a909a5260608c019890985260808b019690965260a08a019490945260c089019290925260e08801526101008701526101208601526101408501526001600160a01b031661016084015264ffffffffff1661018083015251908190036101a00190f35b3480156102de57600080fd5b50610305600480360360208110156102f557600080fd5b50356001600160a01b0316610d5c565b604080519889526020890197909752878701959095526001600160a01b0390931660608701529015156080860152151560a0850152151560c0840152151560e083015251908190036101000190f35b34801561036057600080fd5b506101306004803603602081101561037757600080fd5b50356001600160a01b0316610e45565b34801561039357600080fd5b50610130600480360360408110156103aa57600080fd5b506001600160a01b03813516906020013515156119ae565b610130600480360360608110156103d857600080fd5b506001600160a01b03813581169160208101359160409091013516611c80565b34801561040457600080fd5b506101306004803603604081101561041b57600080fd5b506001600160a01b0381358116916020013516612b91565b34801561043f57600080fd5b506101306004803603606081101561045657600080fd5b506001600160a01b03813581169160208101359091169060400135613316565b34801561048257600080fd5b506101306004803603606081101561049957600080fd5b506001600160a01b0381358116916020810135909116906040013561376d565b3480156104c557600080fd5b506104ec600480360360208110156104dc57600080fd5b50356001600160a01b0316613f5f565b604080519788526020880196909652868601949094526060860192909252608085015260a084015260c0830152519081900360e00190f35b34801561053057600080fd5b5061053961401f565b604080516001600160a01b039092168252519081900360200190f35b34801561056157600080fd5b506101306004803603608081101561057857600080fd5b5080356001600160a01b0316906020810135906040810135906060013561ffff1661402e565b610130600480360360608110156105b457600080fd5b5080356001600160a01b0316906020810135906040013561ffff166151a3565b6000805460010190819055846105e981615650565b60015460408051600160e11b632c1a75cd02815290516000926001600160a01b031691635834eb9a916004808301926020929190829003018186803b15801561063157600080fd5b505afa158015610645573d6000803e3d6000fd5b505050506040513d602081101561065b57600080fd5b5051604080516001600160a01b038b811660248301528a8116604483015289811660648301526084820189905287151560a4808401919091528351808403909101815260c490920183526020820180516001600160e01b0316600160e01b62a718a90217815292518251949550600094606094928716939282918083835b602083106106f85780518252601f1990920191602091820191016106d9565b6001836020036101000a038019825116818451168082178552505050505050905001915050600060405180830381855af49150503d8060008114610758576040519150601f19603f3d011682016040523d82523d6000602084013e61075d565b606091505b5091509150816107b75760408051600160e51b62461bcd02815260206004820152601760248201527f4c69717569646174696f6e2063616c6c206661696c6564000000000000000000604482015290519081900360640190fd5b600060608280602001905160408110156107d057600080fd5b8151602083018051919392830192916401000000008111156107f157600080fd5b8201602081018481111561080457600080fd5b815164010000000081118282018710171561081e57600080fd5b509496509450508415925061093e915050578060405160200180807f4c69717569646174696f6e206661696c65643a2000000000000000000000000081525060140182805190602001908083835b6020831061088b5780518252601f19909201916020918201910161086c565b51815160209384036101000a60001901801990921691161790526040805192909401828103601f1901835293849052600160e51b62461bcd0284526004840181815282516024860152825192965094508493604401925085019080838360005b838110156109035781810151838201526020016108eb565b50505050905090810190601f1680156109305780820380516001836020036101000a031916815260200191505b509250505060405180910390fd5b8a6001600160a01b03168a6001600160a01b0316866001600160a01b03167f9b814b27a8422f419c399a2f2029752425ba6ebf0d0bdf82eafc1c069a0f42a38c42604051808381526020018281526020019250505060405180910390a450505050505060005481146109e85760408051600160e51b62461bcd02815260206004820152601f60248201526000805160206159d4833981519152604482015290519081900360640190fd5b505050505050565b60025460408051600160e21b630240bc6b02815290516060926001600160a01b031691630902f1ac916004808301926000929190829003018186803b158015610a3857600080fd5b505afa158015610a4c573d6000803e3d6000fd5b505050506040513d6000823e601f3d908101601f191682016040526020811015610a7557600080fd5b810190808051640100000000811115610a8d57600080fd5b82016020810184811115610aa057600080fd5b8151856020820283011164010000000082111715610abd57600080fd5b509094505050505090565b60035460408051600160e01b6328dd2d010281526001600160a01b0385811660048301528481166024830152915160009384938493849384938493849384938493849384939116916328dd2d019160448082019261016092909190829003018186803b158015610b3757600080fd5b505afa158015610b4b573d6000803e3d6000fd5b505050506040513d610160811015610b6257600080fd5b8101908080519060200190929190805190602001909291908051906020019092919080519060200190929190805190602001909291908051906020019092919080519060200190929190805190602001909291908051906020019092919080519060200190929190805190602001909291905050509a509a509a509a509a509a509a509a509a509a509a509295989b509295989b9093969950565b6000806000806000806000806000806000806000600360009054906101000a90046001600160a01b03166001600160a01b03166335ea6a758f6040518263ffffffff1660e01b815260040180826001600160a01b03166001600160a01b031681526020019150506101a06040518083038186803b158015610c7d57600080fd5b505afa158015610c91573d6000803e3d6000fd5b505050506040513d6101a0811015610ca857600080fd5b81019080805190602001909291908051906020019092919080519060200190929190805190602001909291908051906020019092919080519060200190929190805190602001909291908051906020019092919080519060200190929190805190602001909291908051906020019092919080519060200190929190805190602001909291905050509c509c509c509c509c509c509c509c509c509c509c509c509c5091939597999b9d90929496989a9c50565b600080600080600080600080600360009054906101000a90046001600160a01b03166001600160a01b0316633e1501418a6040518263ffffffff1660e01b815260040180826001600160a01b03166001600160a01b031681526020019150506101006040518083038186803b158015610dd457600080fd5b505afa158015610de8573d6000803e3d6000fd5b505050506040513d610100811015610dff57600080fd5b508051602082015160408301516060840151608085015160a086015160c087015160e090970151959e50939c50919a509850965094509092509050919395975091939597565b600080546001019081905581610e5a81615650565b60025460408051600160e01b631ca19f190281526001600160a01b03868116600483015233602483015291516000939290921691631ca19f1991604480820192602092909190829003018186803b158015610eb457600080fd5b505afa158015610ec8573d6000803e3d6000fd5b505050506040513d6020811015610ede57600080fd5b505160025460408051600160e01b639fb8afcd0281526001600160a01b0388811660048301523360248301529151939450600093849384931691639fb8afcd916044808301926060929190829003018186803b158015610f3d57600080fd5b505afa158015610f51573d6000803e3d6000fd5b505050506040513d6060811015610f6757600080fd5b5080516020820151604090920151909450909250905081610fbc57604051600160e51b62461bcd028152600401808060200182810382526037815260200180615be46037913960400191505060405180910390fd5b60025460408051600160e11b63246fe0b70281526001600160a01b038a81166004830152915191909216916348dfc16e91602480830192600092919082900301818387803b15801561100d57600080fd5b505af1158015611021573d6000803e3d6000fd5b505060025460408051600160e01b631b70fba10281526001600160a01b038c811660048301523360248301529151919092169350631b70fba19250604480830192600092919082900301818387803b15801561107c57600080fd5b505af1158015611090573d6000803e3d6000fd5b506000925061109d915050565b8460018111156110a957fe5b14156112935760025460408051600160e01b6344e636b70281526001600160a01b038a81166004830152336024830152915160009392909216916344e636b791604480820192602092909190829003018186803b15801561110957600080fd5b505afa15801561111d573d6000803e3d6000fd5b505050506040513d602081101561113357600080fd5b505160025460408051600160e11b635b70fb810281526001600160a01b038c811660048301526024820189905260448201859052915193945091169163b6e1f7029160648082019260009290919082900301818387803b15801561119657600080fd5b505af11580156111aa573d6000803e3d6000fd5b505060025460408051600160e11b6326bce0e10281526001600160a01b038d81166004830152602482018990529151919092169350634d79c1c29250604480830192600092919082900301818387803b15801561120657600080fd5b505af115801561121a573d6000803e3d6000fd5b505060025460408051600160e01b63f03e79ff0281526001600160a01b038d81166004830152336024830152915191909216935063f03e79ff9250604480830192600092919082900301818387803b15801561127557600080fd5b505af1158015611289573d6000803e3d6000fd5b50505050506116f7565b60025460408051600160e31b630a79e6dd0281526001600160a01b038a81166004830152915191909216916353cf36e8916024808301926020929190829003018186803b1580156112e357600080fd5b505afa1580156112f7573d6000803e3d6000fd5b505050506040513d602081101561130d57600080fd5b505161134d57604051600160e51b62461bcd028152600401808060200182810382526032815260200180615aa66032913960400191505060405180910390fd5b60025460408051600160e01b639e3c4f3b0281526001600160a01b038a8116600483015233602483015291519190921691639e3c4f3b916044808301926020929190829003018186803b1580156113a357600080fd5b505afa1580156113b7573d6000803e3d6000fd5b505050506040513d60208110156113cd57600080fd5b50511580611454575060025460408051600160e11b630c7cddd70281526001600160a01b038a81166004830152915191909216916318f9bbae916024808301926020929190829003018186803b15801561142657600080fd5b505afa15801561143a573d6000803e3d6000fd5b505050506040513d602081101561145057600080fd5b5051155b806114df575060035460408051600160e11b630c526de50281526001600160a01b038a81166004830152336024830152915191909216916318a4dbca916044808301926020929190829003018186803b1580156114b057600080fd5b505afa1580156114c4573d6000803e3d6000fd5b505050506040513d60208110156114da57600080fd5b505182115b61151d57604051600160e51b62461bcd02815260040180806020018281038252604a815260200180615c9a604a913960600191505060405180910390fd5b60025460408051600160e11b634f3e9dcb0281526001600160a01b038a8116600483015291516000939290921691639e7d3b9691602480820192602092909190829003018186803b15801561157157600080fd5b505afa158015611585573d6000803e3d6000fd5b505050506040513d602081101561159b57600080fd5b505160025460408051600160e01b63cc6ae7630281526001600160a01b038c8116600483015260248201899052915193945091169163cc6ae7639160448082019260009290919082900301818387803b1580156115f757600080fd5b505af115801561160b573d6000803e3d6000fd5b505060025460408051600160e11b6325551a3d0281526001600160a01b038d8116600483015260248201899052604482018790529151919092169350634aaa347a9250606480830192600092919082900301818387803b15801561166e57600080fd5b505af1158015611682573d6000803e3d6000fd5b505060025460408051600160e41b630385c91b0281526001600160a01b038d81166004830152336024830152915191909216935063385c91b09250604480830192600092919082900301818387803b1580156116dd57600080fd5b505af11580156116f1573d6000803e3d6000fd5b50505050505b60025460408051600160e41b6308e65a6b0281526001600160a01b038a811660048301526024820185905291519190921691638e65a6b091604480830192600092919082900301818387803b15801561174f57600080fd5b505af1158015611763573d6000803e3d6000fd5b505060025460408051600160e01b6342bbd6530281526001600160a01b038c8116600483015291519190921693506342bbd6539250602480830192600092919082900301818387803b1580156117b857600080fd5b505af11580156117cc573d6000803e3d6000fd5b505060025460408051600160e01b6320840f6b0281526001600160a01b038c811660048301523360248301526044820187905291519190921693506320840f6b9250606480830192600092919082900301818387803b15801561182e57600080fd5b505af1158015611842573d6000803e3d6000fd5b505060025460408051600160e01b632717cbfb0281526001600160a01b038c811660048301529151919092169350632717cbfb9250602480830192600092919082900301818387803b15801561189757600080fd5b505af11580156118ab573d6000803e3d6000fd5b505060025460408051600160e01b63405300df0281526001600160a01b038c81166004830152336024830152915191909216935063405300df9250604480830192600092919082900301818387803b15801561190657600080fd5b505af115801561191a573d6000803e3d6000fd5b50506040805142815290513393506001600160a01b038b1692507fea368a40e9570069bb8e6511d668293ad2e1f03b0d982431fd223de9f3b70ca69181900360200190a3505050505060005481146119aa5760408051600160e51b62461bcd02815260206004820152601f60248201526000805160206159d4833981519152604482015290519081900360640190fd5b5050565b6000805460010180825560035460408051600160e11b630c526de50281526001600160a01b038781166004830152336024830152915193949391909216916318a4dbca916044808301926020929190829003018186803b158015611a1157600080fd5b505afa158015611a25573d6000803e3d6000fd5b505050506040513d6020811015611a3b57600080fd5b5051905080611a7e57604051600160e51b62461bcd02815260040180806020018281038252602a815260200180615d3b602a913960400191505060405180910390fd5b60035460408051600160e01b6376e9d6150281526001600160a01b03878116600483015233602483015260448201859052915191909216916376e9d615916064808301926020929190829003018186803b158015611adb57600080fd5b505afa158015611aef573d6000803e3d6000fd5b505050506040513d6020811015611b0557600080fd5b5051611b4557604051600160e51b62461bcd028152600401808060200182810382526030815260200180615a766030913960400191505060405180910390fd5b60025460408051600160e21b633e9461530281526001600160a01b03878116600483015233602483015286151560448301529151919092169163fa51854c91606480830192600092919082900301818387803b158015611ba457600080fd5b505af1158015611bb8573d6000803e3d6000fd5b505050508215611bfc5760405133906001600160a01b038616907e058a56ea94653cdf4f152d227ace22d4c00ad99e2a43f58cb7d9e3feb295f290600090a3611c33565b60405133906001600160a01b038616907f44c58d81365b66dd4b1a7f36c25aa97b8c71c361ee4937adc1a00000227db5dd90600090a35b506000548114611c7b5760408051600160e51b62461bcd02815260206004820152601f60248201526000805160206159d4833981519152604482015290519081900360640190fd5b505050565b600080546001019081905583611c9581615650565b60025460408051600160e01b639fb8afcd0281526001600160a01b0388811660048301528681166024830152915160009384938493911691639fb8afcd91604480820192606092909190829003018186803b158015611cf357600080fd5b505afa158015611d07573d6000803e3d6000fd5b505050506040513d6060811015611d1d57600080fd5b5080516020808301516040938401516002548551600160e21b633faacc6b0281526001600160a01b038f811660048301528d811660248301529651959950929750909550600094169263feab31ac92604480840193919291829003018186803b158015611d8957600080fd5b505afa158015611d9d573d6000803e3d6000fd5b505050506040513d6020811015611db357600080fd5b5051905082611df657604051600160e51b62461bcd028152600401808060200182810382526029815260200180615d976029913960400191505060405180910390fd5b60001988141580611e0f5750336001600160a01b038816145b611e4d57604051600160e51b62461bcd028152600401808060200182810382526044815260200180615e3e6044913960600191505060405180910390fd5b6000611e5f848363ffffffff61570d16565b90506000198914158015611e7257508089105b15611e7a5750875b81811161208a5760025460408051600160e01b63a0fca8390281526001600160a01b038d811660048301528b81166024830152604482018590529151919092169163a0fca83991606480830192600092919082900301818387803b158015611ee157600080fd5b505af1158015611ef5573d6000803e3d6000fd5b50505050600260009054906101000a90046001600160a01b03166001600160a01b031663c7d14237348c8b85600160009054906101000a90046001600160a01b03166001600160a01b031663fbeefc3c6040518163ffffffff1660e01b815260040160206040518083038186803b158015611f6f57600080fd5b505afa158015611f83573d6000803e3d6000fd5b505050506040513d6020811015611f9957600080fd5b505160408051600160e31b63178c2acd02815290516001600160a01b039092169163bc61566891600480820192602092909190829003018186803b158015611fe057600080fd5b505afa158015611ff4573d6000803e3d6000fd5b505050506040513d602081101561200a57600080fd5b50516040805163ffffffff881660e01b81526001600160a01b039586166004820152938516602485015260448401929092529290921660648201529051608480830192600092919082900301818588803b15801561206757600080fd5b505af115801561207b573d6000803e3d6000fd5b50505050505050505050612b43565b600061209c828463ffffffff61577316565b905060006120b0828663ffffffff61577316565b9050600260009054906101000a90046001600160a01b03166001600160a01b031663a0fca8398d8c876040518463ffffffff1660e01b815260040180846001600160a01b03166001600160a01b03168152602001836001600160a01b03166001600160a01b031681526020018281526020019350505050600060405180830381600087803b15801561214157600080fd5b505af1158015612155573d6000803e3d6000fd5b50505050600260009054906101000a90046001600160a01b03166001600160a01b031663c7d14237348e8d88600160009054906101000a90046001600160a01b03166001600160a01b031663fbeefc3c6040518163ffffffff1660e01b815260040160206040518083038186803b1580156121cf57600080fd5b505afa1580156121e3573d6000803e3d6000fd5b505050506040513d60208110156121f957600080fd5b505160408051600160e31b63178c2acd02815290516001600160a01b039092169163bc61566891600480820192602092909190829003018186803b15801561224057600080fd5b505afa158015612254573d6000803e3d6000fd5b505050506040513d602081101561226a57600080fd5b50516040805163ffffffff881660e01b81526001600160a01b039586166004820152938516602485015260448401929092529290921660648201529051608480830192600092919082900301818588803b1580156122c757600080fd5b505af11580156122db573d6000803e3d6000fd5b5050505050600260009054906101000a90046001600160a01b03166001600160a01b03166348dfc16e8d6040518263ffffffff1660e01b815260040180826001600160a01b03166001600160a01b03168152602001915050600060405180830381600087803b15801561234d57600080fd5b505af1158015612361573d6000803e3d6000fd5b50505050600260009054906101000a90046001600160a01b03166001600160a01b0316631b70fba18d8c6040518363ffffffff1660e01b815260040180836001600160a01b03166001600160a01b03168152602001826001600160a01b03166001600160a01b0316815260200192505050600060405180830381600087803b1580156123ec57600080fd5b505af1158015612400573d6000803e3d6000fd5b50505050600260009054906101000a90046001600160a01b03166001600160a01b0316638e65a6b08d876040518363ffffffff1660e01b815260040180836001600160a01b03166001600160a01b0316815260200182815260200192505050600060405180830381600087803b15801561247957600080fd5b505af115801561248d573d6000803e3d6000fd5b50505050600260009054906101000a90046001600160a01b03166001600160a01b031663a37b19578d8c846040518463ffffffff1660e01b815260040180846001600160a01b03166001600160a01b03168152602001836001600160a01b03166001600160a01b031681526020018281526020019350505050600060405180830381600087803b15801561252057600080fd5b505af1158015612534573d6000803e3d6000fd5b505050506000600260009054906101000a90046001600160a01b03166001600160a01b0316631ca19f198e8d6040518363ffffffff1660e01b815260040180836001600160a01b03166001600160a01b03168152602001826001600160a01b03166001600160a01b031681526020019250505060206040518083038186803b1580156125bf57600080fd5b505afa1580156125d3573d6000803e3d6000fd5b505050506040513d60208110156125e957600080fd5b5051905060008160018111156125fb57fe5b1415612808576000600260009054906101000a90046001600160a01b03166001600160a01b03166344e636b78f8e6040518363ffffffff1660e01b815260040180836001600160a01b03166001600160a01b03168152602001826001600160a01b03166001600160a01b031681526020019250505060206040518083038186803b15801561268857600080fd5b505afa15801561269c573d6000803e3d6000fd5b505050506040513d60208110156126b257600080fd5b81019080805190602001909291905050509050600260009054906101000a90046001600160a01b03166001600160a01b031663b6e1f7028f85846040518463ffffffff1660e01b815260040180846001600160a01b03166001600160a01b031681526020018381526020018281526020019350505050600060405180830381600087803b15801561274257600080fd5b505af1158015612756573d6000803e3d6000fd5b505050508883141561280257600260009054906101000a90046001600160a01b03166001600160a01b031663f03e79ff8f8e6040518363ffffffff1660e01b815260040180836001600160a01b03166001600160a01b03168152602001826001600160a01b03166001600160a01b0316815260200192505050600060405180830381600087803b1580156127e957600080fd5b505af11580156127fd573d6000803e3d6000fd5b505050505b50612896565b600260009054906101000a90046001600160a01b03166001600160a01b031663cc6ae7638e846040518363ffffffff1660e01b815260040180836001600160a01b03166001600160a01b0316815260200182815260200192505050600060405180830381600087803b15801561287d57600080fd5b505af1158015612891573d6000803e3d6000fd5b505050505b600260009054906101000a90046001600160a01b03166001600160a01b03166342bbd6538e6040518263ffffffff1660e01b815260040180826001600160a01b03166001600160a01b03168152602001915050600060405180830381600087803b15801561290357600080fd5b505af1158015612917573d6000803e3d6000fd5b50505050600260009054906101000a90046001600160a01b03166001600160a01b0316632717cbfb8e6040518263ffffffff1660e01b815260040180826001600160a01b03166001600160a01b03168152602001915050600060405180830381600087803b15801561298857600080fd5b505af115801561299c573d6000803e3d6000fd5b50505050600260009054906101000a90046001600160a01b03166001600160a01b031663405300df8e8d6040518363ffffffff1660e01b815260040180836001600160a01b03166001600160a01b03168152602001826001600160a01b03166001600160a01b0316815260200192505050600060405180830381600087803b158015612a2757600080fd5b505af1158015612a3b573d6000803e3d6000fd5b50505050600260009054906101000a90046001600160a01b03166001600160a01b03166328fcf4d3348f8e876040518563ffffffff1660e01b815260040180846001600160a01b03166001600160a01b03168152602001836001600160a01b03166001600160a01b0316815260200182815260200193505050506000604051808303818588803b158015612ace57600080fd5b505af1158015612ae2573d6000803e3d6000fd5b50505050508a6001600160a01b03168d6001600160a01b03167fe4a1ae657f49cb1fb1c7d3a94ae6093565c4c8c0e03de488f79c377c3c3a24e08e42604051808381526020018281526020019250505060405180910390a350505050505050505b506000548114612b8b5760408051600160e51b62461bcd02815260206004820152601f60248201526000805160206159d4833981519152604482015290519081900360640190fd5b50505050565b600080546001018082559060025460408051600160e01b631ca19f190281526001600160a01b038781166004830152868116602483015291519190921691631ca19f19916044808301926020929190829003018186803b158015612bf457600080fd5b505afa158015612c08573d6000803e3d6000fd5b505050506040513d6020811015612c1e57600080fd5b50516001811115612c2b57fe5b14612c6a57604051600160e51b62461bcd028152600401808060200182810382526034815260200180615b2d6034913960400191505060405180910390fd5b60025460408051600160e01b639fb8afcd0281526001600160a01b038681166004830152336024830152915160009384931691639fb8afcd916044808301926060929190829003018186803b158015612cc257600080fd5b505afa158015612cd6573d6000803e3d6000fd5b505050506040513d6060811015612cec57600080fd5b506020810151604090910151909250905081612d3c57604051600160e51b62461bcd02815260040180806020018281038252602e815260200180615a48602e913960400191505060405180910390fd5b60025460408051600160e11b63246fe0b70281526001600160a01b038881166004830152915191909216916348dfc16e91602480830192600092919082900301818387803b158015612d8d57600080fd5b505af1158015612da1573d6000803e3d6000fd5b505060025460408051600160e01b6344e636b70281526001600160a01b038a8116600483015289811660248301529151600095509190921692506344e636b791604480820192602092909190829003018186803b158015612e0157600080fd5b505afa158015612e15573d6000803e3d6000fd5b505050506040513d6020811015612e2b57600080fd5b505160025460408051600160e11b6325551a3d0281526001600160a01b038a8116600483015260248201879052604482018590529151939450911691634aaa347a9160648082019260009290919082900301818387803b158015612e8e57600080fd5b505af1158015612ea2573d6000803e3d6000fd5b505060025460408051600160e01b6320840f6b0281526001600160a01b038b811660048301528a811660248301526044820188905291519190921693506320840f6b9250606480830192600092919082900301818387803b158015612f0657600080fd5b505af1158015612f1a573d6000803e3d6000fd5b505060025460408051600160e41b6308e65a6b0281526001600160a01b038b81166004830152602482018890529151919092169350638e65a6b09250604480830192600092919082900301818387803b158015612f7657600080fd5b505af1158015612f8a573d6000803e3d6000fd5b505060025460408051600160e01b632717cbfb0281526001600160a01b038b811660048301529151919092169350632717cbfb9250602480830192600092919082900301818387803b158015612fdf57600080fd5b505af1158015612ff3573d6000803e3d6000fd5b505060025460408051600160e11b6362a00a470281526001600160a01b038b8116600483015291516000955091909216925063c540148e91602480820192602092909190829003018186803b15801561304b57600080fd5b505afa15801561305f573d6000803e3d6000fd5b505050506040513d602081101561307557600080fd5b505160025460408051600160e11b634f3e9dcb0281526001600160a01b038b8116600483015291519394506000939190921691639e7d3b96916024808301926020929190829003018186803b1580156130cd57600080fd5b505afa1580156130e1573d6000803e3d6000fd5b505050506040513d60208110156130f757600080fd5b50516004805460408051600160e01b6346f4f8d1028152905193945060009361319693613189936001600160a01b0316926346f4f8d19281830192602092829003018186803b15801561314957600080fd5b505afa15801561315d573d6000803e3d6000fd5b505050506040513d602081101561317357600080fd5b505161317d6157d3565b9063ffffffff61570d16565b839063ffffffff6157e316565b9050828410806131a557508084115b156132955760025460408051600160e41b630385c91b0281526001600160a01b038c811660048301523360248301529151919092169163385c91b091604480830192600092919082900301818387803b15801561320157600080fd5b505af1158015613215573d6000803e3d6000fd5b505060025460408051600160e01b63405300df0281526001600160a01b038e811660048301528d81166024830152915191909216935063405300df9250604480830192600092919082900301818387803b15801561327257600080fd5b505af1158015613286573d6000803e3d6000fd5b505050505050505050506132cf565b604051600160e51b62461bcd028152600401808060200182810382526030815260200180615b826030913960400191505060405180910390fd5b6000548114611c7b5760408051600160e51b62461bcd02815260206004820152601f60248201526000805160206159d4833981519152604482015290519081900360640190fd5b600080546001019081905560025460408051600160e11b631a59df770281526001600160a01b0380881660048301529151879392909216916334b3beee91602480820192602092909190829003018186803b15801561337457600080fd5b505afa158015613388573d6000803e3d6000fd5b505050506040513d602081101561339e57600080fd5b50516001600160a01b031633146133e957604051600160e51b62461bcd02815260040180806020018281038252604b815260200180615c4f604b913960600191505060405180910390fd5b846133f381615650565b60025460408051600160e01b63e24030190281526001600160a01b0389811660048301529151600093929092169163e240301991602480820192602092909190829003018186803b15801561344757600080fd5b505afa15801561345b573d6000803e3d6000fd5b505050506040513d602081101561347157600080fd5b50519050848110156134b757604051600160e51b62461bcd028152600401808060200182810382526031815260200180615afc6031913960400191505060405180910390fd5b60025460408051600160e11b63246fe0b70281526001600160a01b038a81166004830152915191909216916348dfc16e91602480830192600092919082900301818387803b15801561350857600080fd5b505af115801561351c573d6000803e3d6000fd5b505060025460408051600160e21b630d4bb6750281526001600160a01b038c81166004830152602482018b9052915191909216935063352ed9d49250604480830192600092919082900301818387803b15801561357857600080fd5b505af115801561358c573d6000803e3d6000fd5b505060025460408051600160e01b6342bbd6530281526001600160a01b038c8116600483015291519190921693506342bbd6539250602480830192600092919082900301818387803b1580156135e157600080fd5b505af11580156135f5573d6000803e3d6000fd5b505060025460408051600160e01b632717cbfb0281526001600160a01b038c811660048301529151919092169350632717cbfb9250602480830192600092919082900301818387803b15801561364a57600080fd5b505af115801561365e573d6000803e3d6000fd5b505060025460408051600160e01b63fa93b2a50281526001600160a01b038c811660048301528b81166024830152604482018b9052915191909216935063fa93b2a59250606480830192600092919082900301818387803b1580156136c257600080fd5b505af11580156136d6573d6000803e3d6000fd5b50506040805188815242602082015281516001600160a01b03808c1695508c1693507f9c4ed599cd8555b9c1e8cd7643240d7d71eb76b792948c49fcb4d411f7b6b3c6929181900390910190a35050506000548114612b8b5760408051600160e51b62461bcd02815260206004820152601f60248201526000805160206159d4833981519152604482015290519081900360640190fd5b60008054600101908190558261378281615650565b613794856001600160a01b0316615825565b6137d257604051600160e51b62461bcd02815260040180806020018281038252602e815260200180615dc0602e913960400191505060405180910390fd5b60025460408051600160e11b632e79732b0281526001600160a01b03878116600483015291519190921691635cf2e656916024808301926020929190829003018186803b15801561382257600080fd5b505afa158015613836573d6000803e3d6000fd5b505050506040513d602081101561384c57600080fd5b505161388c57604051600160e51b62461bcd028152600401808060200182810382526024815260200180615ad86024913960400191505060405180910390fd5b60025460408051600160e01b63e24030190281526001600160a01b0387811660048301529151600093929092169163e240301991602480820192602092909190829003018186803b1580156138e057600080fd5b505afa1580156138f4573d6000803e3d6000fd5b505050506040513d602081101561390a57600080fd5b5051905083811161394f57604051600160e51b62461bcd0281526004018080602001828103825260318152602001806159f46031913960400191505060405180910390fd5b60035460408051600160e01b63b7b2e0b10281526001600160a01b0388811660048301529151600093929092169163b7b2e0b191602480820192602092909190829003018186803b1580156139a357600080fd5b505afa1580156139b7573d6000803e3d6000fd5b505050506040513d60208110156139cd57600080fd5b50519050818114613a285760408051600160e51b62461bcd02815260206004820152601b60248201527f496e76616c6964206c697175696469747920617661696c61626c650000000000604482015290519081900360640190fd5b6000613a3b86606463ffffffff61582b16565b905060008111613a7f57604051600160e51b62461bcd028152600401808060200182810382526032815260200180615d656032913960400191505060405180910390fd5b60025460408051600160e01b63fa93b2a50281526001600160a01b038a81166004830152808c166024830152604482018a905291518b93929092169163fa93b2a59160648082019260009290919082900301818387803b158015613ae257600080fd5b505af1158015613af6573d6000803e3d6000fd5b505060408051600160e21b6322d453e30281526001600160a01b038c81166004830152602482018c9052604482018790529151600094509185169250638b514f8c91606480830192602092919082900301818787803b158015613b5857600080fd5b505af1158015613b6c573d6000803e3d6000fd5b505050506040513d6020811015613b8257600080fd5b50519050613b96888463ffffffff61570d16565b8114613bd657604051600160e51b62461bcd028152600401808060200182810382526026815260200180615dee6026913960400191505060405180910390fd5b60035460408051600160e01b63b7b2e0b10281526001600160a01b038c811660048301529151600093929092169163b7b2e0b191602480820192602092909190829003018186803b158015613c2a57600080fd5b505afa158015613c3e573d6000803e3d6000fd5b505050506040513d6020811015613c5457600080fd5b50519050613c68858563ffffffff61570d16565b8114613ca857604051600160e51b62461bcd028152600401808060200182810382526032815260200180615bb26032913960400191505060405180910390fd5b60025460408051600160e11b63246fe0b70281526001600160a01b038d81166004830152915191909216916348dfc16e91602480830192600092919082900301818387803b158015613cf957600080fd5b505af1158015613d0d573d6000803e3d6000fd5b505060025460408051600160e01b631a95129f0281526001600160a01b038f81166004830152602482018a90529151919092169350631a95129f9250604480830192600092919082900301818387803b158015613d6957600080fd5b505af1158015613d7d573d6000803e3d6000fd5b505060025460408051600160e41b6308e65a6b0281526001600160a01b038f81166004830152602482018a90529151919092169350638e65a6b09250604480830192600092919082900301818387803b158015613dd957600080fd5b505af1158015613ded573d6000803e3d6000fd5b505060025460408051600160e01b6342bbd6530281526001600160a01b038f8116600483015291519190921693506342bbd6539250602480830192600092919082900301818387803b158015613e4257600080fd5b505af1158015613e56573d6000803e3d6000fd5b505060025460408051600160e01b632717cbfb0281526001600160a01b038f811660048301529151919092169350632717cbfb9250602480830192600092919082900301818387803b158015613eab57600080fd5b505af1158015613ebf573d6000803e3d6000fd5b5050604080518c815260208101889052428183015290516001600160a01b03808f1694508f1692507fea9aac78e0e48af4897630506e75b1ddba28503b58e70fe7bd92bce4f6efde7c9181900360600190a3505050505050506000548114612b8b5760408051600160e51b62461bcd02815260206004820152601f60248201526000805160206159d4833981519152604482015290519081900360640190fd5b60035460408051600160e21b632fe4a15f0281526001600160a01b038481166004830152915160009384938493849384938493849391169163bf92857c9160248082019260e092909190829003018186803b158015613fbd57600080fd5b505afa158015613fd1573d6000803e3d6000fd5b505050506040513d60e0811015613fe757600080fd5b508051602082015160408301516060840151608085015160a086015160c090960151949e939d50919b50995097509195509350915050565b6001546001600160a01b031681565b60008054600101908190558461404381615650565b61404b615925565b60025460408051600160e11b632e79732b0281526001600160a01b038a8116600483015291519190921691635cf2e656916024808301926020929190829003018186803b15801561409b57600080fd5b505afa1580156140af573d6000803e3d6000fd5b505050506040513d60208110156140c557600080fd5b505161410557604051600160e51b62461bcd028152600401808060200182810382526024815260200180615ad86024913960400191505060405180910390fd5b60025460408051600160e01b63e24030190281526001600160a01b038a811660048301529151919092169163e2403019916024808301926020929190829003018186803b15801561415557600080fd5b505afa158015614169573d6000803e3d6000fd5b505050506040513d602081101561417f57600080fd5b50516101a082018190528611156141ca57604051600160e51b62461bcd028152600401808060200182810382526036815260200180615d056036913960400191505060405180910390fd5b846001101561420d57604051600160e51b62461bcd028152600401808060200182810382526023815260200180615a256023913960400191505060405180910390fd5b84614599576001851480614299575060025460408051600160e31b630a79e6dd0281526001600160a01b038a81166004830152915191909216916353cf36e8916024808301926020929190829003018186803b15801561426c57600080fd5b505afa158015614280573d6000803e3d6000fd5b505050506040513d602081101561429657600080fd5b50515b6142d757604051600160e51b62461bcd028152600401808060200182810382526032815260200180615aa66032913960400191505060405180910390fd5b60025460408051600160e01b639e3c4f3b0281526001600160a01b038a8116600483015233602483015291519190921691639e3c4f3b916044808301926020929190829003018186803b15801561432d57600080fd5b505afa158015614341573d6000803e3d6000fd5b505050506040513d602081101561435757600080fd5b505115806143de575060025460408051600160e11b630c7cddd70281526001600160a01b038a81166004830152915191909216916318f9bbae916024808301926020929190829003018186803b1580156143b057600080fd5b505afa1580156143c4573d6000803e3d6000fd5b505050506040513d60208110156143da57600080fd5b5051155b80614469575060035460408051600160e11b630c526de50281526001600160a01b038a81166004830152336024830152915191909216916318a4dbca916044808301926020929190829003018186803b15801561443a57600080fd5b505afa15801561444e573d6000803e3d6000fd5b505050506040513d602081101561446457600080fd5b505186115b6144a757604051600160e51b62461bcd02815260040180806020018281038252602a815260200180615e14602a913960400191505060405180910390fd5b6000600460009054906101000a90046001600160a01b03166001600160a01b031663dd2d8c796040518163ffffffff1660e01b815260040160206040518083038186803b1580156144f757600080fd5b505afa15801561450b573d6000803e3d6000fd5b505050506040513d602081101561452157600080fd5b50516101a083015190915060009061455290606490614546908563ffffffff61589816565b9063ffffffff61582b16565b90508088111561459657604051600160e51b62461bcd02815260040180806020018281038252603b815260200180615e82603b913960400191505060405180910390fd5b50505b60035460408051600160e01b632c6d0e9b02815233600482015290516001600160a01b0390921691632c6d0e9b9160248082019260c092909190829003018186803b1580156145e757600080fd5b505afa1580156145fb573d6000803e3d6000fd5b505050506040513d60c081101561461157600080fd5b5060208082015160408301516060840151608085015160a0909501516101408701529285019390935290835261012083019190915261010082018190526146a25760408051600160e51b62461bcd02815260206004820152601b60248201527f54686520636f6c6c61746572616c2062616c616e636520697320300000000000604482015290519081900360640190fd5b600360009054906101000a90046001600160a01b03166001600160a01b0316633e44bee86040518163ffffffff1660e01b815260040160206040518083038186803b1580156146f057600080fd5b505afa158015614704573d6000803e3d6000fd5b505050506040513d602081101561471a57600080fd5b50516101408201511161476157604051600160e51b62461bcd02815260040180806020018281038252603f815260200180615995603f913960400191505060405180910390fd5b600160009054906101000a90046001600160a01b03166001600160a01b031663fbeefc3c6040518163ffffffff1660e01b815260040160206040518083038186803b1580156147af57600080fd5b505afa1580156147c3573d6000803e3d6000fd5b505050506040513d60208110156147d957600080fd5b505160408051600160e41b630e563a7d0281523360048201526024810189905290516001600160a01b039092169163e563a7d091604480820192602092909190829003018186803b15801561482d57600080fd5b505afa158015614841573d6000803e3d6000fd5b505050506040513d602081101561485757600080fd5b50516040808301919091526001548151600160e31b631f94a27502815291516000926001600160a01b039092169163fca513a8916004808301926020929190829003018186803b1580156148aa57600080fd5b505afa1580156148be573d6000803e3d6000fd5b505050506040513d60208110156148d457600080fd5b50516040830151909150614981906148f390899063ffffffff61570d16565b826001600160a01b031663b3596f078b6040518263ffffffff1660e01b815260040180826001600160a01b03166001600160a01b0316815260200191505060206040518083038186803b15801561494957600080fd5b505afa15801561495d573d6000803e3d6000fd5b505050506040513d602081101561497357600080fd5b50519063ffffffff6158f416565b6060830181905282516101208401516149b792614546916064916149ab919063ffffffff61570d16565b9063ffffffff61589816565b608083018190526101008301511015614a0457604051600160e51b62461bcd028152600401808060200182810382526034815260200180615c1b6034913960400191505060405180910390fd5b60025460408051600160e11b63246fe0b70281526001600160a01b038b81166004830152915191909216916348dfc16e91602480830192600092919082900301818387803b158015614a5557600080fd5b505af1158015614a69573d6000803e3d6000fd5b505060025460408051600160e01b631b70fba10281526001600160a01b038d811660048301523360248301529151919092169350631b70fba19250604480830192600092919082900301818387803b158015614ac457600080fd5b505af1158015614ad8573d6000803e3d6000fd5b505060025460408051600160e01b639fb8afcd0281526001600160a01b038d811660048301523360248301529151919092169350639fb8afcd92506044808301926060929190829003018186803b158015614b3257600080fd5b505afa158015614b46573d6000803e3d6000fd5b505050506040513d6060811015614b5c57600080fd5b508051602082015160409092015160e0850181905260c085019290925260a0840152614b8e908863ffffffff61570d16565b61016083015260025460408051600160e11b634f3e9dcb0281526001600160a01b038b8116600483015291519190921691639e7d3b96916024808301926020929190829003018186803b158015614be457600080fd5b505afa158015614bf8573d6000803e3d6000fd5b505050506040513d6020811015614c0e57600080fd5b505161018083015260025460a08301516101608401516001600160a01b0390921691633ef563ad918b913391908b6001811115614c4757fe5b8861018001516040518763ffffffff1660e01b815260040180876001600160a01b03166001600160a01b03168152602001866001600160a01b03166001600160a01b03168152602001858152602001848152602001836001811115614ca857fe5b60ff1681526020018281526020019650505050505050600060405180830381600087803b158015614cd857600080fd5b505af1158015614cec573d6000803e3d6000fd5b5060009250614cf9915050565b861415614d745760025460408051600160e41b630385c91b0281526001600160a01b038b811660048301523360248301529151919092169163385c91b091604480830192600092919082900301818387803b158015614d5757600080fd5b505af1158015614d6b573d6000803e3d6000fd5b50505050614de4565b60025460408051600160e01b63f03e79ff0281526001600160a01b038b811660048301523360248301529151919092169163f03e79ff91604480830192600092919082900301818387803b158015614dcb57600080fd5b505af1158015614ddf573d6000803e3d6000fd5b505050505b60025460e083015160408051600160e41b6308e65a6b0281526001600160a01b038c81166004830152602482019390935290519190921691638e65a6b091604480830192600092919082900301818387803b158015614e4257600080fd5b505af1158015614e56573d6000803e3d6000fd5b505060025460408051600160e01b6342bbd6530281526001600160a01b038d8116600483015291519190921693506342bbd6539250602480830192600092919082900301818387803b158015614eab57600080fd5b505af1158015614ebf573d6000803e3d6000fd5b505060025460408051600160e01b632717cbfb0281526001600160a01b038d811660048301529151919092169350632717cbfb9250602480830192600092919082900301818387803b158015614f1457600080fd5b505af1158015614f28573d6000803e3d6000fd5b505060025461016085015160408051600160e01b6320840f6b0281526001600160a01b038e81166004830152336024830152604482019390935290519190921693506320840f6b9250606480830192600092919082900301818387803b158015614f9157600080fd5b505af1158015614fa5573d6000803e3d6000fd5b50506002546040808601518151600160e01b63da2f78790281526001600160a01b038e81166004830152336024830152604482019290925291519216935063da2f7879925060648082019260009290919082900301818387803b15801561500b57600080fd5b505af115801561501f573d6000803e3d6000fd5b505060025460408051600160e01b63405300df0281526001600160a01b038d81166004830152336024830152915191909216935063405300df9250604480830192600092919082900301818387803b15801561507a57600080fd5b505af115801561508e573d6000803e3d6000fd5b505060025460408051600160e01b63fa93b2a50281526001600160a01b038d81166004830152336024830152604482018d9052915191909216935063fa93b2a59250606480830192600092919082900301818387803b1580156150f057600080fd5b505af1158015615104573d6000803e3d6000fd5b5050604080518a8152426020820152815161ffff8a1694503393506001600160a01b038d16927ffeef05588fd69ddcec0c74bf28610594dca9a265074eaa9d5f2f022e13bf0079928290030190a4505050600054811461519c5760408051600160e51b62461bcd02815260206004820152601f60248201526000805160206159d4833981519152604482015290519081900360640190fd5b5050505050565b6000805460010190819055836151b881615650565b60025460408051600160e11b63246fe0b70281526001600160a01b038881166004830152915191909216916348dfc16e91602480830192600092919082900301818387803b15801561520957600080fd5b505af115801561521d573d6000803e3d6000fd5b505060025460408051600160e41b6308e65a6b0281526001600160a01b038a81166004830152602482018a90529151919092169350638e65a6b09250604480830192600092919082900301818387803b15801561527957600080fd5b505af115801561528d573d6000803e3d6000fd5b505060025460408051600160e01b6342bbd6530281526001600160a01b038a8116600483015291519190921693506342bbd6539250602480830192600092919082900301818387803b1580156152e257600080fd5b505af11580156152f6573d6000803e3d6000fd5b505060025460408051600160e01b632717cbfb0281526001600160a01b038a811660048301529151919092169350632717cbfb9250602480830192600092919082900301818387803b15801561534b57600080fd5b505af115801561535f573d6000803e3d6000fd5b505060025460408051600160e11b631a59df770281526001600160a01b038a811660048301529151600095509190921692506334b3beee91602480820192602092909190829003018186803b1580156153b757600080fd5b505afa1580156153cb573d6000803e3d6000fd5b505050506040513d60208110156153e157600080fd5b505160408051600160e01b6370a0823102815233600482015290519192506001600160a01b038316916370a0823191602480820192602092909190829003018186803b15801561543057600080fd5b505afa158015615444573d6000803e3d6000fd5b505050506040513d602081101561545a57600080fd5b50516154d75760025460408051600160e21b633e9461530281526001600160a01b038981166004830152336024830152600160448301529151919092169163fa51854c91606480830192600092919082900301818387803b1580156154be57600080fd5b505af11580156154d2573d6000803e3d6000fd5b505050505b60408051600160e01b6394362e8b0281523360048201526024810187905290516001600160a01b038316916394362e8b91604480830192600092919082900301818387803b15801561552857600080fd5b505af115801561553c573d6000803e3d6000fd5b505060025460408051600160e01b6328fcf4d30281526001600160a01b038b81166004830152336024830152604482018b905291519190921693506328fcf4d39250349160648082019260009290919082900301818588803b1580156155a157600080fd5b505af11580156155b5573d6000803e3d6000fd5b505060408051898152426020820152815161ffff8a1695503394506001600160a01b038c1693507fc12c57b1c73a2c3a2ea4613e9476abb3d8d146857aab7329e24243fb59710c82929181900390910190a450506000548114612b8b5760408051600160e51b62461bcd02815260206004820152601f60248201526000805160206159d4833981519152604482015290519081900360640190fd5b60025460408051600160e11b630283aeb70281526001600160a01b038481166004830152915191909216916305075d6e916024808301926020929190829003018186803b1580156156a057600080fd5b505afa1580156156b4573d6000803e3d6000fd5b505050506040513d60208110156156ca57600080fd5b505161570a57604051600160e51b62461bcd028152600401808060200182810382526021815260200180615b616021913960400191505060405180910390fd5b50565b60008282018381101561576a5760408051600160e51b62461bcd02815260206004820152601b60248201527f536166654d6174683a206164646974696f6e206f766572666c6f770000000000604482015290519081900360640190fd5b90505b92915050565b6000828211156157cd5760408051600160e51b62461bcd02815260206004820152601e60248201527f536166654d6174683a207375627472616374696f6e206f766572666c6f770000604482015290519081900360640190fd5b50900390565b6b033b2e3c9fd0803ce800000090565b600061576a6b033b2e3c9fd0803ce8000000614546615808868663ffffffff61589816565b60026b033b2e3c9fd0803ce80000005b049063ffffffff61570d16565b3b151590565b60008082116158845760408051600160e51b62461bcd02815260206004820152601a60248201527f536166654d6174683a206469766973696f6e206279207a65726f000000000000604482015290519081900360640190fd5b600082848161588f57fe5b04949350505050565b6000826158a75750600061576d565b828202828482816158b457fe5b041461576a57604051600160e51b62461bcd028152600401808060200182810382526021815260200180615ce46021913960400191505060405180910390fd5b600061576a670de0b6b3a7640000614546615915868663ffffffff61589816565b6002670de0b6b3a7640000615818565b604051806101c001604052806000815260200160008152602001600081526020016000815260200160008152602001600081526020016000815260200160008152602001600081526020016000815260200160008152602001600081526020016000815260200160008152509056fe54686520626f72726f7765722063616e20616c7265616479206265206c69717569646174656420736f2068652063616e6e6f7420626f72726f77206d6f72655265656e7472616e637947756172643a207265656e7472616e742063616c6c005468657265206973206e6f7420656e6f756768206c697175696469747920617661696c61626c6520746f20626f72726f77496e76616c696420696e7465726573742072617465206d6f64652073656c65637465645573657220646f6573206e6f74206861766520616e7920626f72726f7720666f722074686973207265736572766555736572206465706f73697420697320616c7265616479206265696e67207573656420617320636f6c6c61746572616c466978656420626f72726f7773207261746520617265206e6f7420656e61626c6564206f6e2074686973207265736572766552657365727665206973206e6f7420656e61626c656420666f7220626f72726f77696e675468657265206973206e6f7420656e6f756768206c697175696469747920617661696c61626c6520746f2072656465656d546865207573657220626f72726f77206973207661726961626c6520616e642063616e6e6f7420626520726562616c616e636564416374696f6e20726571756972657320616e206163746976652072657365727665496e746572657374207261746520726562616c616e636520636f6e646974696f6e73207768657265206e6f74206d65745468652061637475616c2062616c616e6365206f66207468652070726f746f636f6c20696e20696e636f6e73697374656e745573657220646f6573206e6f742068617665206120626f72726f7720696e2070726f6772657373206f6e207468697320726573657276655468657265206973206e6f7420656e6f75676820636f6c6c61746572616c20746f20636f7665722061206e657720626f72726f775468652063616c6c6572206f6620746869732066756e6374696f6e2063616e206f6e6c79206265207468652061546f6b656e20636f6e7472616374206f66207468697320726573657276655573657220697320747279696e6720746f20626f72726f7720616e20616d6f756e74207468617420697320736d616c6c6572207468616e2077686174206865206465706f73697465642e536166654d6174683a206d756c7469706c69636174696f6e206f766572666c6f775468657265206973206e6f7420656e6f756768206c697175696469747920617661696c61626c6520696e2074686520726573657276655573657220646f6573206e6f74206861766520616e79206c6971756964697479206465706f736974656454686520616d6f756e7420697320746f6f20736d616c6c20746875732069742063616e6e6f7420626520626f72726f776564546865207573657220646f6573206e6f74206861766520616e7920626f72726f772070656e64696e675468652063616c6c6572206f6620746869732066756e6374696f6e206d757374206265206120636f6e7472616374546865206e6f6d696e616c2072657475726e656420616d6f756e7420697320696e76616c69645573657220697320747279696e6720746f20626f72726f7720616e20696e76616c696420616d6f756e74546f207265706179206f6e20626568616c66206f6620616e207573657220616e206578706c6963697420616d6f756e7420746f207265706179206973206e65656465642e5573657220697320747279696e6720746f20626f72726f7720746f6f206d756368206c697175696469747920617420612066697865642072617465a165627a7a7230582085c6daec84883963046efbb0d0d4bb932b5c4e5c0d25868ad2e17e9eb0376e2d0029",
  "source": "pragma solidity ^0.5.0;\n\nimport \"openzeppelin-solidity/contracts/math/SafeMath.sol\";\nimport \"openzeppelin-solidity/contracts/utils/ReentrancyGuard.sol\";\nimport \"openzeppelin-solidity/contracts/utils/Address.sol\";\nimport \"openzeppelin-solidity/contracts/token/ERC20/IERC20.sol\";\n\nimport \"../configuration/LendingPoolAddressesProvider.sol\";\nimport \"../configuration/LendingPoolParametersProvider.sol\";\nimport \"../configuration/NetworkMetadataProvider.sol\";\nimport \"../tokenization/AToken.sol\";\nimport \"../libraries/CoreLibrary.sol\";\nimport \"../libraries/WadRayMath.sol\";\nimport \"../interfaces/IFeeProvider.sol\";\nimport \"../flashloan/interfaces/IFlashLoanReceiver.sol\";\nimport \"./LendingPoolCore.sol\";\nimport \"./LendingPoolDataProvider.sol\";\nimport \"./LendingPoolLiquidationManager.sol\";\n\n\n\n/*************************************************************************************\n@title LendingPool contract\n@author Aave\n@notice Implements the actions of the LendingPool, and exposes accessory methods to access the core information\n *************************************************************************************/\n\n\ncontract LendingPool is ReentrancyGuard {\n    using SafeMath for uint256;\n    using WadRayMath for uint256;\n    using Address for address payable;\n\n    LendingPoolAddressesProvider public addressesProvider;\n    LendingPoolCore core;\n    LendingPoolDataProvider dataProvider;\n    LendingPoolParametersProvider parametersProvider;\n\n    /**\n    @dev events\n    */\n    event Deposit(address indexed _reserve, address indexed _user, uint256 _amount, uint16 indexed _referral, uint256 timestamp);\n    event RedeemUnderlying(\n        address indexed _reserve,\n        address indexed _user,\n        uint256 _amount,\n        uint256 timestamp\n    );\n\n    event Borrow(address indexed _reserve, address indexed _user, uint256 _amount, uint16 indexed _referral, uint256 timestamp);\n    event Repay(address indexed _reserve, address indexed _user, uint256 _amount, uint256 timestamp);\n    event LiquidationCall(address indexed _collateral, address indexed _user, uint256 _amount, address indexed _reserve, uint256 timestamp);\n    event Swap(address indexed _reserve, address indexed _user, uint256 timestamp);\n    event FlashLoan(address indexed _target, address indexed _reserve, uint256 _amount, uint256 _fee, uint256 timestamp);\n    event ReserveUsedAsCollateralEnabled(address indexed _reserve, address indexed _user);\n    event ReserveUsedAsCollateralDisabled(address indexed _reserve, address indexed _user);\n\n\n    /**\n    @dev modifiers\n     */\n\n    modifier onlyOverlyingAToken(address _reserve) {\n        require(\n            msg.sender == core.getReserveATokenAddress(_reserve),\n            \"The caller of this function can only be the aToken contract of this reserve\"\n        );\n        _;\n    }\n\n    modifier onlyActiveReserve(address _reserve) {\n        requireReserveActiveInternal(_reserve);\n        _;\n    }\n\n    uint256 constant UINT_MAX_VALUE = uint256(-1);\n\n    constructor(LendingPoolAddressesProvider _addressesProvider) public {\n\n        addressesProvider = _addressesProvider;\n        core = LendingPoolCore(addressesProvider.getLendingPoolCore());\n        dataProvider = LendingPoolDataProvider(addressesProvider.getLendingPoolDataProvider());\n        parametersProvider = LendingPoolParametersProvider(addressesProvider.getLendingPoolParametersProvider());\n    }\n\n    /**\n    * @notice deposits The underlying asset into the reserve. A corresponding amount of the overlying asset (aTokens)\n    * is minted.\n    */\n    function deposit(\n        address _reserve,\n        uint256 _amount,\n        uint16 _referralCode)\n        external payable nonReentrant onlyActiveReserve(_reserve) {\n\n        //compounding liquidity and borrow interests\n        core.updateReserveCumulativeIndexes(_reserve);\n\n        //updating reserve data\n        core.increaseReserveTotalLiquidity(_reserve, _amount);\n        core.updateReserveInterestRates(_reserve);\n        core.setReserveLastUpdate(_reserve);\n\n        AToken aToken = AToken(core.getReserveATokenAddress(_reserve));\n\n        if(aToken.balanceOf(msg.sender) == 0){\n            //if this is the first deposit of the user, we configure the deposit as enabled to be used as collateral\n            core.setUserUseReserveAsCollateral(_reserve, msg.sender, true);\n        }\n\n        //minting AToken to user 1:1 with the specific exchange rate\n        aToken.mintOnDeposit(msg.sender, _amount);\n\n        //transfer to the core contract\n\n        core.transferToReserve.value(msg.value)(_reserve, msg.sender, _amount);\n\n        //solium-disable-next-line\n        emit Deposit(_reserve, msg.sender, _amount, _referralCode, block.timestamp);\n\n    }\n\n    /**\n    * @notice Allows to redeem a specific amount of underlying asset.\n    * @dev only aToken contracts can call this function\n    */\n    function redeemUnderlying(\n        address _reserve,\n        address payable _user,\n        uint256 _amount)\n        external nonReentrant onlyOverlyingAToken(_reserve) onlyActiveReserve(_reserve) {\n\n        uint256 currentAvailableLiquidity = core.getReserveAvailableLiquidity(_reserve);\n        require(currentAvailableLiquidity >= _amount, \"There is not enough liquidity available to redeem\");\n\n        //compound liquidity and variable borrow interests\n        core.updateReserveCumulativeIndexes(_reserve);\n\n        /**\n        @dev update reserve data\n         */\n\n        core.decreaseReserveTotalLiquidity(_reserve, _amount);\n        core.updateReserveInterestRates(_reserve);\n        core.setReserveLastUpdate(_reserve);\n\n        core.transferToUser(_reserve, _user, _amount);\n\n        //solium-disable-next-line\n        emit RedeemUnderlying(_reserve, _user, _amount, block.timestamp);\n\n    }\n\n    /**\n    * @dev data structures for local computations in the borrow() method.\n    */\n\n    struct BorrowLocalVars {\n        uint256 currentLtv;\n        uint256 currentLiquidationThreshold;\n        uint256 borrowFee;\n        uint256 requestedBorrowAmountETH;\n        uint256 amountOfCollateralNeededETH;\n        uint256 principalBorrowBalance;\n        uint256 compoundedBorrowBalance;\n        uint256 compoundedAmount;\n        uint256 userCollateralBalanceETH;\n        uint256 userBorrowBalanceETH;\n        uint256 healthFactor;\n        uint256 balanceIncrease;\n        uint256 currentReserveFixedRate;\n        uint256 availableLiquidity;\n    }\n\n    /**\n    * @notice executes a borrow on the reserve of the specific amount with the interestRateMode specified.\n    */\n\n    function borrow(\n        address _reserve,\n        uint256 _amount,\n        uint256 _interestRateMode,\n        uint16 _referralCode)\n        external nonReentrant onlyActiveReserve(_reserve) {\n\n        BorrowLocalVars memory vars;\n\n        //check that the reserve is enabled for borrowing\n        require(core.isReserveBorrowingEnabled(_reserve), \"Reserve is not enabled for borrowing\");\n\n        //check that the amount is available in the reserve\n        vars.availableLiquidity = core.getReserveAvailableLiquidity(_reserve);\n\n        require(\n            vars.availableLiquidity >= _amount,\n            \"There is not enough liquidity available in the reserve\"\n        );\n\n        //validate interest rate mode\n        require(uint(CoreLibrary.InterestRateMode.VARIABLE) >= _interestRateMode, \"Invalid interest rate mode selected\");\n\n        /**\n        @dev Following conditions needs to be met if the user is borrowing at a fixed rate:\n            1. Reserve must be enabled for fixed rate borrowing\n            2. Users cannot borrow from the reserve if their collateral is (mostly) the same currency\n               they are borrowing, to prevent abuses.\n            3. Users will be able to borrow only a relatively small, configurable amount of the total\n               liquidity\n         */\n\n        if(_interestRateMode == uint256(CoreLibrary.InterestRateMode.FIXED)) {\n\n        //check if the borrow mode is fixed and if fixed rate borrowing is enabled on this reserve\n            require(\n                _interestRateMode == uint256(CoreLibrary.InterestRateMode.VARIABLE) ||\n                core.getReserveIsFixedBorrowRateEnabled(_reserve),\n                \"Fixed borrows rate are not enabled on this reserve\"\n            );\n\n            require(\n                !core.isUserUseReserveAsCollateralEnabled(_reserve, msg.sender) ||\n                !core.isReserveUsageAsCollateralEnabled(_reserve) ||\n                _amount > dataProvider.getUserUnderlyingAssetBalance(_reserve, msg.sender),\n                \"User is trying to borrow an invalid amount\"\n            );\n\n            /**\n            @dev calculate the max available loan size in fixed rate mode as a percentage of the\n                 available liquidity\n            */\n            uint256 maxLoanPercent = parametersProvider.getMaxFixedRateBorrowSizePercent();\n            uint256 maxLoanSizeFixed = vars.availableLiquidity.mul(maxLoanPercent).div(100);\n\n            require(_amount <= maxLoanSizeFixed, \"User is trying to borrow too much liquidity at a fixed rate\");\n        }\n\n        (,\n        vars.userCollateralBalanceETH,\n        vars.userBorrowBalanceETH,\n        vars.currentLtv,\n        vars.currentLiquidationThreshold,\n        vars.healthFactor) = dataProvider.calculateUserGlobalData(msg.sender);\n\n        require(vars.userCollateralBalanceETH > 0, \"The collateral balance is 0\");\n\n        require(\n            vars.healthFactor > dataProvider.getHealthFactorLiquidationThreshold(),\n            \"The borrower can already be liquidated so he cannot borrow more\"\n        );\n\n\n        //calculating fees\n        vars.borrowFee = IFeeProvider(addressesProvider.getFeeProvider()).calculateLoanOriginationFee(\n            msg.sender,\n            _amount\n        );\n\n        IPriceOracle oracle = IPriceOracle(addressesProvider.getPriceOracle());\n        vars.requestedBorrowAmountETH = oracle.getAssetPrice(_reserve).wadMul(_amount.add(vars.borrowFee)); //price is in ether\n\n        //add the current already borrowed amount to the amount requested to calculate the total collateral needed.\n        vars.amountOfCollateralNeededETH = vars.userBorrowBalanceETH.add(vars.requestedBorrowAmountETH).mul(100).div(\n            vars.currentLtv\n        ); //LTV is calculated in percentage\n\n        require(\n            vars.amountOfCollateralNeededETH <= vars.userCollateralBalanceETH,\n            \"There is not enough collateral to cover a new borrow\"\n        );\n\n        //all conditions passed - borrow is accepted\n\n        //step 1: update liquidity index and variable borrow index to allow proper calculation of the compounded interests\n        core.updateReserveCumulativeIndexes(_reserve);\n        core.updateUserLastVariableBorrowCumulativeIndex(_reserve, msg.sender);\n\n        //step 2: calculating new borrow principal for the user, which is previous principal + compounded interest + new borrow\n        (vars.principalBorrowBalance,\n        vars.compoundedBorrowBalance,\n        vars.compoundedAmount) = core.getUserBorrowBalances(_reserve, msg.sender);\n\n        vars.balanceIncrease = vars.compoundedAmount.add(_amount);\n\n        /**\n            @notice increasing reserve total borrows to account for the new borrow balance of the user\n            @dev NOTE: Depending on the previous borrow mode, the borrows might need to be switched from variable to fixed or viceversa\n        */\n\n        vars.currentReserveFixedRate = core.getReserveCurrentFixedBorrowRate(_reserve);\n\n        core.updateReserveTotalBorrowsByRateMode(\n            _reserve,\n            msg.sender,\n            vars.principalBorrowBalance,\n            vars.balanceIncrease,\n            CoreLibrary.InterestRateMode(_interestRateMode),\n            vars.currentReserveFixedRate\n        );\n\n        //step 4: update user borrow interest rate\n\n        if (_interestRateMode == uint256(CoreLibrary.InterestRateMode.FIXED)) {\n            core.updateUserFixedBorrowRate(_reserve, msg.sender);\n        } else {\n            //variable\n            core.resetUserFixedBorrowRate(_reserve, msg.sender);\n        }\n\n        //step 5: add the compounded amount to the total liquidity of the pool\n        core.increaseReserveTotalLiquidity(_reserve, vars.compoundedAmount);\n\n        core.updateReserveInterestRates(_reserve);\n        core.setReserveLastUpdate(_reserve);\n\n        //step 6: updating remaining user data\n        core.increaseUserPrincipalBorrowBalance(_reserve, msg.sender, vars.balanceIncrease);\n        core.increaseUserOriginationFee(_reserve, msg.sender, vars.borrowFee);\n        core.setUserLastUpdate(_reserve, msg.sender);\n\n        //if we reached this point, we can transfer\n        core.transferToUser(_reserve, msg.sender, _amount);\n\n        //solium-disable-next-line\n        emit Borrow(_reserve, msg.sender, _amount, _referralCode, block.timestamp);\n    }\n\n    /**\n    * @notice repays a borrow on the specific reserve, for the specified amount.\n      @dev the target user is defined by _onBehalfOf. If there is no repayment on behalf of another account,\n      _onBehalfOf must be equal to msg.sender.\n    */\n\n    function repay(\n        address _reserve,\n        uint256 _amount,\n        address payable _onBehalfOf)\n        external\n        payable\n        nonReentrant\n        onlyActiveReserve(_reserve) {\n\n        (uint256 principalBorrowBalance,\n        uint256 compoundedBorrowBalance,\n        uint256 borrowBalanceIncrease) = core.getUserBorrowBalances(_reserve, _onBehalfOf);\n\n        uint256 originationFee = core.getUserOriginationFee(_reserve, _onBehalfOf);\n\n        require(compoundedBorrowBalance > 0, \"The user does not have any borrow pending\");\n\n        require(\n            _amount != UINT_MAX_VALUE || msg.sender == _onBehalfOf,\n            \"To repay on behalf of an user an explicit amount to repay is needed.\"\n        );\n\n        //default to max amount\n        uint256 paybackAmount = compoundedBorrowBalance.add(originationFee);\n\n        if (_amount != UINT_MAX_VALUE && _amount < paybackAmount) {\n            paybackAmount = _amount;\n        }\n\n        //if the amount is smaller than the origination fee, just transfer the amount to the fee destination address\n        if (paybackAmount <= originationFee) {\n            core.decreaseUserOriginationFee(_reserve, _onBehalfOf, paybackAmount);\n            core.transferToFeeCollectionAddress.value(msg.value)(\n                _reserve,\n                _onBehalfOf,\n                paybackAmount,\n                IFeeProvider(addressesProvider.getFeeProvider()).getFeesCollectionAddress()\n            ); //cast the address to payable\n            return;\n        }\n\n        uint256 paybackAmountMinusFees = paybackAmount.sub(originationFee);\n        uint256 actualBalanceDecrease = paybackAmountMinusFees.sub(borrowBalanceIncrease);\n\n        //transfer the fee amount to the fee wallet\n        core.decreaseUserOriginationFee(_reserve, _onBehalfOf, originationFee);\n        core.transferToFeeCollectionAddress.value(msg.value)(\n            _reserve,\n            _onBehalfOf,\n            originationFee,\n            IFeeProvider(addressesProvider.getFeeProvider()).getFeesCollectionAddress()\n        ); //cast the address to payable\n\n        //update the liquidity and borrow index to comulate the interest until this point\n        core.updateReserveCumulativeIndexes(_reserve);\n        core.updateUserLastVariableBorrowCumulativeIndex(_reserve, _onBehalfOf);\n\n        //update the reserve liquidity\n        core.increaseReserveTotalLiquidity(_reserve, borrowBalanceIncrease);\n\n        //update the user principal borrow balance, adding the cumulated interest and then substracting the payaback amount\n        core.decreaseUserPrincipalBorrowBalance(_reserve, _onBehalfOf, actualBalanceDecrease);\n\n        //compound the cumulated interest to the borrow balance and then substracting the payback amount\n        CoreLibrary.InterestRateMode borrowRateMode = core.getUserCurrentBorrowRateMode(_reserve, _onBehalfOf);\n\n        if (borrowRateMode == CoreLibrary.InterestRateMode.FIXED) {\n            uint256 currentFixedRate = core.getUserCurrentFixedBorrowRate(_reserve, _onBehalfOf);\n            core.decreaseReserveTotalBorrowsFixedAndUpdateAverageRate(_reserve, actualBalanceDecrease, currentFixedRate);\n            //if the balance decrease is equal to the previous principal (user is repaying the whole loan)\n            //and the rate mode is fixed, we reset the interest rate mode of the user\n            if(actualBalanceDecrease == principalBorrowBalance) {\n                core.resetUserFixedBorrowRate(_reserve, _onBehalfOf);\n            }\n        } else {\n            core.decreaseReserveTotalBorrowsVariable(_reserve, actualBalanceDecrease);\n        }\n\n        core.updateReserveInterestRates(_reserve);\n\n        core.setReserveLastUpdate(_reserve);\n        core.setUserLastUpdate(_reserve, _onBehalfOf);\n\n        core.transferToReserve.value(msg.value)(_reserve, _onBehalfOf, paybackAmountMinusFees);\n\n        //solium-disable-next-line\n        emit Repay(_reserve, _onBehalfOf, _amount, block.timestamp);\n    }\n\n    /**\n    * @notice allows the user to swap the current borrow rate mode, from fixed to variable and viceversa.\n    */\n\n    function swapBorrowRateMode(address _reserve) external nonReentrant onlyActiveReserve(_reserve) {\n\n        CoreLibrary.InterestRateMode currentRateMode = core.getUserCurrentBorrowRateMode(_reserve, msg.sender);\n        (uint256 principalBorrowBalance,\n        uint256 compoundedBorrowBalance,\n        uint256 balanceIncrease) = core.getUserBorrowBalances(_reserve, msg.sender);\n\n        require(compoundedBorrowBalance > 0, \"User does not have a borrow in progress on this reserve\");\n\n        //compounding reserve indexes\n        core.updateReserveCumulativeIndexes(_reserve);\n        core.updateUserLastVariableBorrowCumulativeIndex(_reserve, msg.sender);\n\n        if(currentRateMode == CoreLibrary.InterestRateMode.FIXED){\n\n            uint256 userFixedRate = core.getUserCurrentFixedBorrowRate(_reserve, msg.sender);\n\n            //switch to variable\n            core.decreaseReserveTotalBorrowsFixedAndUpdateAverageRate(_reserve, principalBorrowBalance, userFixedRate); //decreasing fixed from old principal balance\n            core.increaseReserveTotalBorrowsVariable(_reserve, compoundedBorrowBalance); //increase variable borrows\n            core.resetUserFixedBorrowRate(_reserve, msg.sender);\n        }\n        else {\n            //switch to fixed\n\n            /**\n            @dev before switching we need to ensure that\n                 1. fixed borrow rate is enabled on the reserve\n                 2. user is not trying to abuse the reserve by depositing\n                    more collateral than he is borrowing, artificially lowering\n                    the interest rate, borrowing at variable, and switching to fixed\n             */\n            require(\n                core.getReserveIsFixedBorrowRateEnabled(_reserve),\n                \"Fixed borrows rate are not enabled on this reserve\"\n            );\n\n            require(\n                !core.isUserUseReserveAsCollateralEnabled(_reserve, msg.sender) ||\n                !core.isReserveUsageAsCollateralEnabled(_reserve) ||\n                compoundedBorrowBalance > dataProvider.getUserUnderlyingAssetBalance(_reserve, msg.sender),\n                \"User is trying to borrow an amount that is smaller than what he deposited.\"\n            );\n\n            //all clear - user can switch\n            uint256 currentFixedRate = core.getReserveCurrentFixedBorrowRate(_reserve);\n            core.decreaseReserveTotalBorrowsVariable(_reserve, principalBorrowBalance);\n            core.increaseReserveTotalBorrowsFixedAndUpdateAverageRate(_reserve, compoundedBorrowBalance, currentFixedRate);\n            core.updateUserFixedBorrowRate(_reserve,msg.sender);\n        }\n\n        core.increaseReserveTotalLiquidity(_reserve, balanceIncrease);\n        core.updateReserveInterestRates(_reserve);\n\n\n        //compounding cumulated interest\n        core.increaseUserPrincipalBorrowBalance(_reserve, msg.sender, balanceIncrease);\n        core.setReserveLastUpdate(_reserve);\n        core.setUserLastUpdate(_reserve, msg.sender);\n\n        //solium-disable-next-line\n        emit Swap(_reserve, msg.sender, block.timestamp);\n    }\n\n\n      /**\n    @notice rebalances the fixed interest rate of a user if current liquidity rate > user fixed rate.\n    @dev this is regulated by Aave to ensure that the protocol is not abused, and the user is paying a fair\n         rate. Anyone can call this function though.\n     */\n\n    function rebalanceFixedBorrowRate(address _reserve, address _user) external nonReentrant {\n\n        require(\n            core.getUserCurrentBorrowRateMode(_reserve,_user) == CoreLibrary.InterestRateMode.FIXED,\n            \"The user borrow is variable and cannot be rebalanced\"\n            );\n\n        (,\n        uint256 compoundedBalance,\n        uint256 balanceIncrease) = core.getUserBorrowBalances(_reserve, msg.sender);\n\n        //step 1: user must be borrowing on _reserve at a fixed rate\n        require(\n            compoundedBalance > 0,\n            \"User does not have any borrow for this reserve\");\n\n        //step 2: compound the balances, updating indices\n        core.updateReserveCumulativeIndexes(_reserve);\n\n        uint userCurrentFixedRate = core.getUserCurrentFixedBorrowRate(_reserve,_user);\n        core.increaseReserveTotalBorrowsFixedAndUpdateAverageRate(_reserve, balanceIncrease, userCurrentFixedRate);\n        core.increaseUserPrincipalBorrowBalance(_reserve, _user, balanceIncrease);\n        core.increaseReserveTotalLiquidity(_reserve, balanceIncrease);\n        core.setReserveLastUpdate(_reserve);\n\n        uint256 liquidityRate = core.getReserveCurrentLiquidityRate(_reserve);\n        uint256 reserveCurrentFixedRate = core.getReserveCurrentFixedBorrowRate(_reserve);\n        uint256 rebalanceDownRateThreshold = reserveCurrentFixedRate.rayMul(\n            WadRayMath\n            .ray()\n            .add(\n                parametersProvider.getRebalanceDownRateDelta()\n            ));\n\n        //step 3: we have two possible situations to rebalance:\n\n        //1. user fixed borrow rate is below the current liquidity rate. The loan needs to be rebalanced,\n        //as this situation can be abused (user putting back the borrowed liquidity in the same reserve to earn on it)\n         //2. user fixed rate is above the market avg borrow rate of a certain delta, and utilization rate is low.\n        //In this case, the user is paying an interest that is too high, and needs to be rescaled down.\n        if(userCurrentFixedRate < liquidityRate ||\n        userCurrentFixedRate > rebalanceDownRateThreshold\n        ) {\n            //rebalance fixed rate\n            core.updateUserFixedBorrowRate(_reserve,msg.sender);\n            core.setUserLastUpdate(_reserve, _user);\n            return;\n        }\n\n        revert(\"Interest rate rebalance conditions where not met\");\n    }\n\n    /**\n    * @notice  allows user to enable or disable a specific deposit as collateral\n    */\n\n    function setUserUseReserveAsCollateral(address _reserve, bool _useAsCollateral) external nonReentrant {\n\n        uint256 underlyingBalance = dataProvider.getUserUnderlyingAssetBalance(_reserve,msg.sender);\n\n        require(underlyingBalance > 0, \"User does not have any liquidity deposited\");\n\n        require(\n            dataProvider.balanceDecreaseAllowed(_reserve, msg.sender, underlyingBalance),\n            \"User deposit is already being used as collateral\"\n        );\n\n        core.setUserUseReserveAsCollateral(_reserve, msg.sender, _useAsCollateral);\n\n        if(_useAsCollateral){\n            emit ReserveUsedAsCollateralEnabled(_reserve, msg.sender);\n        }\n        else{\n            emit ReserveUsedAsCollateralDisabled(_reserve, msg.sender);\n        }\n    }\n\n   /**\n    * @notice implements loan liquidation\n    * @dev _receiveAToken allows the liquidators to receive the aTokens, instead of the underlying asset.\n    */\n    function liquidationCall(address _collateral, address _reserve, address _user, uint256 _purchaseAmount, bool _receiveAToken)\n       external\n        payable\n        nonReentrant\n        onlyActiveReserve(_reserve)\n    {\n        address liquidationManager = addressesProvider.getLendingPoolLiquidationManager();\n\n        //solium-disable-next-line\n        (bool success, bytes memory result) = liquidationManager.delegatecall(\n                 abi.encodeWithSignature(\"liquidationCall(address,address,address,uint256,bool)\",\n                 _collateral,\n                 _reserve,\n                 _user,\n                 _purchaseAmount,\n                 _receiveAToken\n            ));\n        require(success, \"Liquidation call failed\");\n\n        (uint256 returnCode, string memory returnMessage) = abi.decode(result, (uint256, string));\n\n        if(returnCode != 0) { //error found\n            revert(string(abi.encodePacked(\"Liquidation failed: \", returnMessage)));\n        }\n        //solium-disable-next-line\n        emit LiquidationCall(liquidationManager, _user, _purchaseAmount, _reserve, block.timestamp);\n    }\n\n    function flashLoan(\n        address payable _receiver,\n        address _reserve,\n        uint _amount)\n        external\n        nonReentrant onlyActiveReserve(_reserve) {\n\n        //check that the address is a contract\n        require(_receiver.isContract(), \"The caller of this function must be a contract\");\n\n        //check that the reserve is enabled for borrowing\n        require(core.isReserveBorrowingEnabled(_reserve),\"Reserve is not enabled for borrowing\");\n\n        //check that the reserve has enough available liquidity\n        uint availableLiquidity = core.getReserveAvailableLiquidity(_reserve);\n        require(availableLiquidity > _amount, \"There is not enough liquidity available to borrow\");\n\n        uint actualBalanceBefore = dataProvider.getCoreActualReserveBalance(_reserve);\n\n        /**\n        @dev note: this is always true as it's ensured by the protocol, checking for added security\n         */\n        require(availableLiquidity == actualBalanceBefore, \"Invalid liquidity available\");\n\n        //calculate amount fee\n        //TODO refactor this to a global variable\n        uint amountFee = _amount.div(100);\n\n        require(amountFee > 0, \"The amount is too small thus it cannot be borrowed\");\n\n        //get the FlashLoanReceiver instance\n        IFlashLoanReceiver receiver = IFlashLoanReceiver(_receiver);\n\n        //transfer funds to the receiver\n        core.transferToUser(_reserve, _receiver, _amount);\n\n        //execute action of the receiver\n        uint256 returnedAmount = receiver.executeOperation(_reserve, _amount, amountFee);\n\n        //check that the nominal returned amount is greater of equal than borrowed amount plus fees\n        require(returnedAmount == _amount.add(amountFee), \"The nominal returned amount is invalid\");\n\n        //check that the actual balance of the core contract includes the returned amount\n        uint256 actualBalanceAfter = dataProvider.getCoreActualReserveBalance(_reserve);\n\n        require(actualBalanceAfter == actualBalanceBefore.add(amountFee), \"The actual balance of the protocol in inconsistent\");\n\n        //amount returned is correct - compounding the cumulated interest\n        core.updateReserveCumulativeIndexes(_reserve);\n\n        //compounding the received fee into the reserve\n        core.cumulateLiquidityToReserveLiquidityIndex(_reserve, amountFee);\n\n        //increase total liquidity by the received fee\n        core.increaseReserveTotalLiquidity(_reserve,amountFee);\n\n        //recalculate interests\n        core.updateReserveInterestRates(_reserve);\n        core.setReserveLastUpdate(_reserve);\n\n        //solium-disable-next-line\n        emit FlashLoan(_receiver, _reserve, _amount, amountFee, block.timestamp);\n\n    }\n\n    /***************\n    @dev accessory methods to fetch data from the core contract\n     */\n\n    function getReserveConfigurationData(address _reserve)\n        external\n        view\n        returns (\n            uint256 ltv,\n            uint256 liquidationThreshold,\n            uint256 liquidationDiscount,\n            address interestRateStrategyAddress,\n            bool usageAsCollateralEnabled,\n            bool borrowingEnabled,\n            bool fixedBorrowRateEnabled,\n            bool isActive)\n    {\n        return dataProvider.getReserveConfigurationData(_reserve);\n    }\n\n\n    function getReserveData(address _reserve)\n        external\n        view\n        returns (\n            uint256 totalLiquidity,\n            uint256 availableLiquidity,\n            uint256 totalBorrowsFixed,\n            uint256 totalBorrowsVariable,\n            uint256 liquidityRate,\n            uint256 variableBorrowRate,\n            uint256 fixedBorrowRate,\n            uint256 averageFixedBorrowRate,\n            uint256 utilizationRate,\n            uint256 liquidityIndex,\n            uint256 variableBorrowIndex,\n            address aTokenAddress,\n            uint40 lastUpdateTimestamp\n        )\n    {\n        return dataProvider.getReserveData(_reserve);\n    }\n\n    function getUserAccountData(address _user)\n        external\n        view\n        returns (\n            uint256 totalLiquidityETH,\n            uint256 totalCollateralETH,\n            uint256 totalBorrowsETH,\n            uint256 availableBorrowsETH,\n            uint256 currentLiquidationThreshold,\n            uint256 ltv,\n            uint256 healthFactor\n        )\n    {\n        return dataProvider.getUserAccountData(_user);\n    }\n\n    function getUserReserveData(address _reserve, address _user)\n        external\n        view\n        returns (\n            uint256 currentATokenBalance,\n            uint256 currentUnderlyingBalance,\n            uint256 currentBorrowBalance,\n            uint256 principalBorrowBalance,\n            uint256 borrowRateMode,\n            uint256 borrowRate,\n            uint256 liquidityRate,\n            uint256 originationFee,\n            uint256 variableBorrowIndex,\n            uint256 lastUpdateTimestamp,\n            bool usageAsCollateralEnabled\n        )\n    {\n        return dataProvider.getUserReserveData(_reserve, _user);\n    }\n\n    function getReserves() external view returns(address[] memory){\n        return core.getReserves();\n    }\n\n    /**\n    @dev internal function to save on code size for the onlyActiveReserve modifier\n     */\n    function requireReserveActiveInternal(address _reserve) internal view {\n        require(\n            core.getReserveIsActive(_reserve),\n            \"Action requires an active reserve\"\n        );\n    }\n}\n",
  "sourcePath": "/src/contracts/lendingpool/LendingPool.sol",
  "compiler": {
    "name": "solc",
    "version": "0.5.6+commit.b259423e.Emscripten.clang"
  },
  "schemaVersion": "3.0.15",
  "updatedAt": "2019-11-02T17:58:20.547Z",
  "devdoc": {
    "author": "Aave",
    "methods": {
      "getReserveConfigurationData(address)": {
        "details": "accessory methods to fetch data from the core contract"
      },
      "liquidationCall(address,address,address,uint256,bool)": {
        "details": "_receiveAToken allows the liquidators to receive the aTokens, instead of the underlying asset."
      },
      "rebalanceFixedBorrowRate(address,address)": {
        "details": "this is regulated by Aave to ensure that the protocol is not abused, and the user is paying a fair rate. Anyone can call this function though."
      },
      "redeemUnderlying(address,address,uint256)": {
        "details": "only aToken contracts can call this function"
      },
      "repay(address,uint256,address)": {
        "details": "the target user is defined by _onBehalfOf. If there is no repayment on behalf of another account, _onBehalfOf must be equal to msg.sender."
      }
    },
    "title": "LendingPool contract"
  },
  "userdoc": {
    "methods": {
      "borrow(address,uint256,uint256,uint16)": {
        "notice": "executes a borrow on the reserve of the specific amount with the interestRateMode specified."
      },
      "deposit(address,uint256,uint16)": {
        "notice": "deposits The underlying asset into the reserve. A corresponding amount of the overlying asset (aTokens) is minted."
      },
      "getReserveConfigurationData(address)": {
        "notice": "*************"
      },
      "liquidationCall(address,address,address,uint256,bool)": {
        "notice": "implements loan liquidation"
      },
      "rebalanceFixedBorrowRate(address,address)": {
        "notice": "rebalances the fixed interest rate of a user if current liquidity rate > user fixed rate."
      },
      "redeemUnderlying(address,address,uint256)": {
        "notice": "Allows to redeem a specific amount of underlying asset."
      },
      "repay(address,uint256,address)": {
        "notice": "repays a borrow on the specific reserve, for the specified amount."
      },
      "setUserUseReserveAsCollateral(address,bool)": {
        "notice": "allows user to enable or disable a specific deposit as collateral"
      },
      "swapBorrowRateMode(address)": {
        "notice": "allows the user to swap the current borrow rate mode, from fixed to variable and viceversa."
      }
    },
    "notice": "***********************************************************************************Implements the actions of the LendingPool, and exposes accessory methods to access the core information************************************************************************************"
  }
}