{
  "contractName": "LendingPoolCore",
  "abi": [
    {
      "constant": true,
      "inputs": [
        {
          "name": "",
          "type": "uint256"
        }
      ],
      "name": "reservesList",
      "outputs": [
        {
          "name": "",
          "type": "address"
        }
      ],
      "payable": false,
      "stateMutability": "view",
      "type": "function"
    },
    {
      "constant": false,
      "inputs": [],
      "name": "renounceOwnership",
      "outputs": [],
      "payable": false,
      "stateMutability": "nonpayable",
      "type": "function"
    },
    {
      "constant": true,
      "inputs": [],
      "name": "owner",
      "outputs": [
        {
          "name": "",
          "type": "address"
        }
      ],
      "payable": false,
      "stateMutability": "view",
      "type": "function"
    },
    {
      "constant": true,
      "inputs": [],
      "name": "isOwner",
      "outputs": [
        {
          "name": "",
          "type": "bool"
        }
      ],
      "payable": false,
      "stateMutability": "view",
      "type": "function"
    },
    {
      "constant": true,
      "inputs": [],
      "name": "addressesProvider",
      "outputs": [
        {
          "name": "",
          "type": "address"
        }
      ],
      "payable": false,
      "stateMutability": "view",
      "type": "function"
    },
    {
      "constant": false,
      "inputs": [
        {
          "name": "newOwner",
          "type": "address"
        }
      ],
      "name": "transferOwnership",
      "outputs": [],
      "payable": false,
      "stateMutability": "nonpayable",
      "type": "function"
    },
    {
      "inputs": [
        {
          "name": "_addressesProvider",
          "type": "address"
        }
      ],
      "payable": false,
      "stateMutability": "nonpayable",
      "type": "constructor"
    },
    {
      "payable": true,
      "stateMutability": "payable",
      "type": "fallback"
    },
    {
      "anonymous": false,
      "inputs": [
        {
          "indexed": true,
          "name": "previousOwner",
          "type": "address"
        },
        {
          "indexed": true,
          "name": "newOwner",
          "type": "address"
        }
      ],
      "name": "OwnershipTransferred",
      "type": "event"
    },
    {
      "constant": false,
      "inputs": [
        {
          "name": "_reserve",
          "type": "address"
        }
      ],
      "name": "updateReserveCumulativeIndexes",
      "outputs": [],
      "payable": false,
      "stateMutability": "nonpayable",
      "type": "function"
    },
    {
      "constant": false,
      "inputs": [
        {
          "name": "_reserve",
          "type": "address"
        },
        {
          "name": "_amount",
          "type": "uint256"
        }
      ],
      "name": "cumulateLiquidityToReserveLiquidityIndex",
      "outputs": [],
      "payable": false,
      "stateMutability": "nonpayable",
      "type": "function"
    },
    {
      "constant": false,
      "inputs": [
        {
          "name": "_reserve",
          "type": "address"
        }
      ],
      "name": "updateReserveInterestRates",
      "outputs": [],
      "payable": false,
      "stateMutability": "nonpayable",
      "type": "function"
    },
    {
      "constant": false,
      "inputs": [
        {
          "name": "_reserve",
          "type": "address"
        },
        {
          "name": "_amount",
          "type": "uint256"
        }
      ],
      "name": "increaseReserveTotalLiquidity",
      "outputs": [],
      "payable": false,
      "stateMutability": "nonpayable",
      "type": "function"
    },
    {
      "constant": false,
      "inputs": [
        {
          "name": "_reserve",
          "type": "address"
        },
        {
          "name": "_amount",
          "type": "uint256"
        }
      ],
      "name": "decreaseReserveTotalLiquidity",
      "outputs": [],
      "payable": false,
      "stateMutability": "nonpayable",
      "type": "function"
    },
    {
      "constant": false,
      "inputs": [
        {
          "name": "_reserve",
          "type": "address"
        },
        {
          "name": "_amount",
          "type": "uint256"
        },
        {
          "name": "_rate",
          "type": "uint256"
        }
      ],
      "name": "increaseReserveTotalBorrowsFixedAndUpdateAverageRate",
      "outputs": [],
      "payable": false,
      "stateMutability": "nonpayable",
      "type": "function"
    },
    {
      "constant": false,
      "inputs": [
        {
          "name": "_reserve",
          "type": "address"
        },
        {
          "name": "_amount",
          "type": "uint256"
        },
        {
          "name": "_rate",
          "type": "uint256"
        }
      ],
      "name": "decreaseReserveTotalBorrowsFixedAndUpdateAverageRate",
      "outputs": [],
      "payable": false,
      "stateMutability": "nonpayable",
      "type": "function"
    },
    {
      "constant": false,
      "inputs": [
        {
          "name": "_reserve",
          "type": "address"
        },
        {
          "name": "_amount",
          "type": "uint256"
        }
      ],
      "name": "increaseReserveTotalBorrowsVariable",
      "outputs": [],
      "payable": false,
      "stateMutability": "nonpayable",
      "type": "function"
    },
    {
      "constant": false,
      "inputs": [
        {
          "name": "_reserve",
          "type": "address"
        },
        {
          "name": "_amount",
          "type": "uint256"
        }
      ],
      "name": "decreaseReserveTotalBorrowsVariable",
      "outputs": [],
      "payable": false,
      "stateMutability": "nonpayable",
      "type": "function"
    },
    {
      "constant": false,
      "inputs": [
        {
          "name": "_reserve",
          "type": "address"
        },
        {
          "name": "_user",
          "type": "address"
        },
        {
          "name": "_principalBalance",
          "type": "uint256"
        },
        {
          "name": "_balanceIncrease",
          "type": "uint256"
        },
        {
          "name": "_newBorrowRateMode",
          "type": "uint8"
        },
        {
          "name": "_fixedRate",
          "type": "uint256"
        }
      ],
      "name": "updateReserveTotalBorrowsByRateMode",
      "outputs": [],
      "payable": false,
      "stateMutability": "nonpayable",
      "type": "function"
    },
    {
      "constant": false,
      "inputs": [
        {
          "name": "_reserve",
          "type": "address"
        }
      ],
      "name": "setReserveLastUpdate",
      "outputs": [],
      "payable": false,
      "stateMutability": "nonpayable",
      "type": "function"
    },
    {
      "constant": false,
      "inputs": [
        {
          "name": "_reserve",
          "type": "address"
        },
        {
          "name": "_user",
          "type": "address"
        }
      ],
      "name": "updateUserLastVariableBorrowCumulativeIndex",
      "outputs": [],
      "payable": false,
      "stateMutability": "nonpayable",
      "type": "function"
    },
    {
      "constant": false,
      "inputs": [
        {
          "name": "_reserve",
          "type": "address"
        },
        {
          "name": "_user",
          "type": "address"
        },
        {
          "name": "_amount",
          "type": "uint256"
        }
      ],
      "name": "increaseUserOriginationFee",
      "outputs": [],
      "payable": false,
      "stateMutability": "nonpayable",
      "type": "function"
    },
    {
      "constant": false,
      "inputs": [
        {
          "name": "_reserve",
          "type": "address"
        },
        {
          "name": "_user",
          "type": "address"
        },
        {
          "name": "_amount",
          "type": "uint256"
        }
      ],
      "name": "decreaseUserOriginationFee",
      "outputs": [],
      "payable": false,
      "stateMutability": "nonpayable",
      "type": "function"
    },
    {
      "constant": false,
      "inputs": [
        {
          "name": "_reserve",
          "type": "address"
        },
        {
          "name": "_user",
          "type": "address"
        },
        {
          "name": "_amount",
          "type": "uint256"
        }
      ],
      "name": "increaseUserPrincipalBorrowBalance",
      "outputs": [],
      "payable": false,
      "stateMutability": "nonpayable",
      "type": "function"
    },
    {
      "constant": false,
      "inputs": [
        {
          "name": "_reserve",
          "type": "address"
        },
        {
          "name": "_user",
          "type": "address"
        },
        {
          "name": "_amount",
          "type": "uint256"
        }
      ],
      "name": "decreaseUserPrincipalBorrowBalance",
      "outputs": [],
      "payable": false,
      "stateMutability": "nonpayable",
      "type": "function"
    },
    {
      "constant": false,
      "inputs": [
        {
          "name": "_reserve",
          "type": "address"
        },
        {
          "name": "_user",
          "type": "address"
        },
        {
          "name": "_useAsCollateral",
          "type": "bool"
        }
      ],
      "name": "setUserUseReserveAsCollateral",
      "outputs": [],
      "payable": false,
      "stateMutability": "nonpayable",
      "type": "function"
    },
    {
      "constant": false,
      "inputs": [
        {
          "name": "_reserve",
          "type": "address"
        },
        {
          "name": "_user",
          "type": "address"
        }
      ],
      "name": "setUserLastUpdate",
      "outputs": [],
      "payable": false,
      "stateMutability": "nonpayable",
      "type": "function"
    },
    {
      "constant": false,
      "inputs": [
        {
          "name": "_reserve",
          "type": "address"
        },
        {
          "name": "_user",
          "type": "address"
        }
      ],
      "name": "updateUserFixedBorrowRate",
      "outputs": [],
      "payable": false,
      "stateMutability": "nonpayable",
      "type": "function"
    },
    {
      "constant": false,
      "inputs": [
        {
          "name": "_reserve",
          "type": "address"
        },
        {
          "name": "_user",
          "type": "address"
        }
      ],
      "name": "resetUserFixedBorrowRate",
      "outputs": [],
      "payable": false,
      "stateMutability": "nonpayable",
      "type": "function"
    },
    {
      "constant": true,
      "inputs": [
        {
          "name": "_reserve",
          "type": "address"
        }
      ],
      "name": "getReserveInterestRateStrategyAddress",
      "outputs": [
        {
          "name": "",
          "type": "address"
        }
      ],
      "payable": false,
      "stateMutability": "view",
      "type": "function"
    },
    {
      "constant": true,
      "inputs": [
        {
          "name": "_reserve",
          "type": "address"
        }
      ],
      "name": "getReserveATokenAddress",
      "outputs": [
        {
          "name": "",
          "type": "address"
        }
      ],
      "payable": false,
      "stateMutability": "view",
      "type": "function"
    },
    {
      "constant": true,
      "inputs": [
        {
          "name": "_reserve",
          "type": "address"
        }
      ],
      "name": "getReserveAvailableLiquidity",
      "outputs": [
        {
          "name": "",
          "type": "uint256"
        }
      ],
      "payable": false,
      "stateMutability": "view",
      "type": "function"
    },
    {
      "constant": true,
      "inputs": [
        {
          "name": "_reserve",
          "type": "address"
        }
      ],
      "name": "getReserveTotalLiquidity",
      "outputs": [
        {
          "name": "",
          "type": "uint256"
        }
      ],
      "payable": false,
      "stateMutability": "view",
      "type": "function"
    },
    {
      "constant": true,
      "inputs": [
        {
          "name": "_reserve",
          "type": "address"
        }
      ],
      "name": "getReserveNormalizedIncome",
      "outputs": [
        {
          "name": "",
          "type": "uint256"
        }
      ],
      "payable": false,
      "stateMutability": "view",
      "type": "function"
    },
    {
      "constant": true,
      "inputs": [
        {
          "name": "_reserve",
          "type": "address"
        }
      ],
      "name": "getReserveTotalBorrows",
      "outputs": [
        {
          "name": "",
          "type": "uint256"
        }
      ],
      "payable": false,
      "stateMutability": "view",
      "type": "function"
    },
    {
      "constant": true,
      "inputs": [
        {
          "name": "_reserve",
          "type": "address"
        }
      ],
      "name": "getReserveTotalBorrowsFixed",
      "outputs": [
        {
          "name": "",
          "type": "uint256"
        }
      ],
      "payable": false,
      "stateMutability": "view",
      "type": "function"
    },
    {
      "constant": true,
      "inputs": [
        {
          "name": "_reserve",
          "type": "address"
        }
      ],
      "name": "getReserveTotalBorrowsVariable",
      "outputs": [
        {
          "name": "",
          "type": "uint256"
        }
      ],
      "payable": false,
      "stateMutability": "view",
      "type": "function"
    },
    {
      "constant": true,
      "inputs": [
        {
          "name": "_reserve",
          "type": "address"
        }
      ],
      "name": "getReserveLiquidationThreshold",
      "outputs": [
        {
          "name": "",
          "type": "uint256"
        }
      ],
      "payable": false,
      "stateMutability": "view",
      "type": "function"
    },
    {
      "constant": true,
      "inputs": [
        {
          "name": "_reserve",
          "type": "address"
        }
      ],
      "name": "getReserveLiquidationDiscount",
      "outputs": [
        {
          "name": "",
          "type": "uint256"
        }
      ],
      "payable": false,
      "stateMutability": "view",
      "type": "function"
    },
    {
      "constant": true,
      "inputs": [
        {
          "name": "_reserve",
          "type": "address"
        }
      ],
      "name": "getReserveCurrentVariableBorrowRate",
      "outputs": [
        {
          "name": "",
          "type": "uint256"
        }
      ],
      "payable": false,
      "stateMutability": "view",
      "type": "function"
    },
    {
      "constant": true,
      "inputs": [
        {
          "name": "_reserve",
          "type": "address"
        }
      ],
      "name": "getReserveCurrentFixedBorrowRate",
      "outputs": [
        {
          "name": "",
          "type": "uint256"
        }
      ],
      "payable": false,
      "stateMutability": "view",
      "type": "function"
    },
    {
      "constant": true,
      "inputs": [
        {
          "name": "_reserve",
          "type": "address"
        }
      ],
      "name": "getReserveCurrentAverageFixedBorrowRate",
      "outputs": [
        {
          "name": "",
          "type": "uint256"
        }
      ],
      "payable": false,
      "stateMutability": "view",
      "type": "function"
    },
    {
      "constant": true,
      "inputs": [
        {
          "name": "_reserve",
          "type": "address"
        }
      ],
      "name": "getReserveCurrentLiquidityRate",
      "outputs": [
        {
          "name": "",
          "type": "uint256"
        }
      ],
      "payable": false,
      "stateMutability": "view",
      "type": "function"
    },
    {
      "constant": true,
      "inputs": [
        {
          "name": "_reserve",
          "type": "address"
        }
      ],
      "name": "getReserveLiquidityCumulativeIndex",
      "outputs": [
        {
          "name": "",
          "type": "uint256"
        }
      ],
      "payable": false,
      "stateMutability": "view",
      "type": "function"
    },
    {
      "constant": true,
      "inputs": [
        {
          "name": "_reserve",
          "type": "address"
        }
      ],
      "name": "getReserveVariableBorrowsCumulativeIndex",
      "outputs": [
        {
          "name": "",
          "type": "uint256"
        }
      ],
      "payable": false,
      "stateMutability": "view",
      "type": "function"
    },
    {
      "constant": true,
      "inputs": [
        {
          "name": "_reserve",
          "type": "address"
        }
      ],
      "name": "getReserveConfiguration",
      "outputs": [
        {
          "name": "decimals",
          "type": "uint256"
        },
        {
          "name": "baseLTVasCollateral",
          "type": "uint256"
        },
        {
          "name": "liquidationThreshold",
          "type": "uint256"
        },
        {
          "name": "usageAsCollateralEnabled",
          "type": "bool"
        },
        {
          "name": "fixedBorrowRateEnabled",
          "type": "bool"
        },
        {
          "name": "borrowingEnabled",
          "type": "bool"
        }
      ],
      "payable": false,
      "stateMutability": "view",
      "type": "function"
    },
    {
      "constant": true,
      "inputs": [
        {
          "name": "_reserve",
          "type": "address"
        }
      ],
      "name": "isReserveBorrowingEnabled",
      "outputs": [
        {
          "name": "",
          "type": "bool"
        }
      ],
      "payable": false,
      "stateMutability": "view",
      "type": "function"
    },
    {
      "constant": true,
      "inputs": [
        {
          "name": "_reserve",
          "type": "address"
        }
      ],
      "name": "isReserveUsageAsCollateralEnabled",
      "outputs": [
        {
          "name": "",
          "type": "bool"
        }
      ],
      "payable": false,
      "stateMutability": "view",
      "type": "function"
    },
    {
      "constant": true,
      "inputs": [
        {
          "name": "_reserve",
          "type": "address"
        }
      ],
      "name": "getReserveIsFixedBorrowRateEnabled",
      "outputs": [
        {
          "name": "",
          "type": "bool"
        }
      ],
      "payable": false,
      "stateMutability": "view",
      "type": "function"
    },
    {
      "constant": true,
      "inputs": [
        {
          "name": "_reserve",
          "type": "address"
        }
      ],
      "name": "getReserveIsActive",
      "outputs": [
        {
          "name": "",
          "type": "bool"
        }
      ],
      "payable": false,
      "stateMutability": "view",
      "type": "function"
    },
    {
      "constant": true,
      "inputs": [
        {
          "name": "_reserve",
          "type": "address"
        }
      ],
      "name": "getReserveLastUpdate",
      "outputs": [
        {
          "name": "timestamp",
          "type": "uint40"
        }
      ],
      "payable": false,
      "stateMutability": "view",
      "type": "function"
    },
    {
      "constant": true,
      "inputs": [
        {
          "name": "_reserve",
          "type": "address"
        },
        {
          "name": "_user",
          "type": "address"
        }
      ],
      "name": "isUserUseReserveAsCollateralEnabled",
      "outputs": [
        {
          "name": "",
          "type": "bool"
        }
      ],
      "payable": false,
      "stateMutability": "view",
      "type": "function"
    },
    {
      "constant": true,
      "inputs": [
        {
          "name": "_reserve",
          "type": "address"
        },
        {
          "name": "_user",
          "type": "address"
        }
      ],
      "name": "getUserOriginationFee",
      "outputs": [
        {
          "name": "",
          "type": "uint256"
        }
      ],
      "payable": false,
      "stateMutability": "view",
      "type": "function"
    },
    {
      "constant": true,
      "inputs": [
        {
          "name": "_reserve",
          "type": "address"
        },
        {
          "name": "_user",
          "type": "address"
        }
      ],
      "name": "getUserCurrentBorrowRateMode",
      "outputs": [
        {
          "name": "",
          "type": "uint8"
        }
      ],
      "payable": false,
      "stateMutability": "view",
      "type": "function"
    },
    {
      "constant": true,
      "inputs": [
        {
          "name": "_reserve",
          "type": "address"
        },
        {
          "name": "_user",
          "type": "address"
        }
      ],
      "name": "getUserCurrentFixedBorrowRate",
      "outputs": [
        {
          "name": "",
          "type": "uint256"
        }
      ],
      "payable": false,
      "stateMutability": "view",
      "type": "function"
    },
    {
      "constant": true,
      "inputs": [
        {
          "name": "_reserve",
          "type": "address"
        },
        {
          "name": "_user",
          "type": "address"
        }
      ],
      "name": "getUserBorrowBalances",
      "outputs": [
        {
          "name": "principalBorrowBalance",
          "type": "uint256"
        },
        {
          "name": "compoundedBorrowBalance",
          "type": "uint256"
        },
        {
          "name": "compoundedAmount",
          "type": "uint256"
        }
      ],
      "payable": false,
      "stateMutability": "view",
      "type": "function"
    },
    {
      "constant": true,
      "inputs": [
        {
          "name": "_reserve",
          "type": "address"
        },
        {
          "name": "_user",
          "type": "address"
        }
      ],
      "name": "getUserVariableBorrowCumulativeIndex",
      "outputs": [
        {
          "name": "",
          "type": "uint256"
        }
      ],
      "payable": false,
      "stateMutability": "view",
      "type": "function"
    },
    {
      "constant": true,
      "inputs": [
        {
          "name": "_reserve",
          "type": "address"
        },
        {
          "name": "_user",
          "type": "address"
        }
      ],
      "name": "getUserLastUpdate",
      "outputs": [
        {
          "name": "timestamp",
          "type": "uint256"
        }
      ],
      "payable": false,
      "stateMutability": "view",
      "type": "function"
    },
    {
      "constant": true,
      "inputs": [
        {
          "name": "_reserve",
          "type": "address"
        }
      ],
      "name": "getReserveUtilizationRate",
      "outputs": [
        {
          "name": "",
          "type": "uint256"
        }
      ],
      "payable": false,
      "stateMutability": "view",
      "type": "function"
    },
    {
      "constant": true,
      "inputs": [],
      "name": "getReserves",
      "outputs": [
        {
          "name": "",
          "type": "address[]"
        }
      ],
      "payable": false,
      "stateMutability": "view",
      "type": "function"
    },
    {
      "constant": false,
      "inputs": [
        {
          "name": "_addressesProvider",
          "type": "address"
        }
      ],
      "name": "setAddressesProvider",
      "outputs": [],
      "payable": false,
      "stateMutability": "nonpayable",
      "type": "function"
    },
    {
      "constant": false,
      "inputs": [],
      "name": "refreshConfiguration",
      "outputs": [],
      "payable": false,
      "stateMutability": "nonpayable",
      "type": "function"
    },
    {
      "constant": false,
      "inputs": [
        {
          "name": "_reserve",
          "type": "address"
        },
        {
          "name": "_aTokenAddress",
          "type": "address"
        },
        {
          "name": "_decimals",
          "type": "uint256"
        },
        {
          "name": "_interestRateStrategyAddress",
          "type": "address"
        }
      ],
      "name": "initReserve",
      "outputs": [],
      "payable": false,
      "stateMutability": "nonpayable",
      "type": "function"
    },
    {
      "constant": false,
      "inputs": [
        {
          "name": "_reserve",
          "type": "address"
        },
        {
          "name": "_rateStrategyAddress",
          "type": "address"
        }
      ],
      "name": "setReserveInterestRateStrategyAddress",
      "outputs": [],
      "payable": false,
      "stateMutability": "nonpayable",
      "type": "function"
    },
    {
      "constant": false,
      "inputs": [
        {
          "name": "_reserve",
          "type": "address"
        },
        {
          "name": "_fixedBorrowRateEnabled",
          "type": "bool"
        }
      ],
      "name": "enableBorrowingOnReserve",
      "outputs": [],
      "payable": false,
      "stateMutability": "nonpayable",
      "type": "function"
    },
    {
      "constant": false,
      "inputs": [
        {
          "name": "_reserve",
          "type": "address"
        }
      ],
      "name": "disableBorrowingOnReserve",
      "outputs": [],
      "payable": false,
      "stateMutability": "nonpayable",
      "type": "function"
    },
    {
      "constant": false,
      "inputs": [
        {
          "name": "_reserve",
          "type": "address"
        },
        {
          "name": "_baseLTVasCollateral",
          "type": "uint256"
        },
        {
          "name": "_liquidationThreshold",
          "type": "uint256"
        }
      ],
      "name": "enableReserveAsCollateral",
      "outputs": [],
      "payable": false,
      "stateMutability": "nonpayable",
      "type": "function"
    },
    {
      "constant": false,
      "inputs": [
        {
          "name": "_reserve",
          "type": "address"
        }
      ],
      "name": "disableReserveAsCollateral",
      "outputs": [],
      "payable": false,
      "stateMutability": "nonpayable",
      "type": "function"
    },
    {
      "constant": false,
      "inputs": [
        {
          "name": "_reserve",
          "type": "address"
        }
      ],
      "name": "enableReserveFixedBorrowRate",
      "outputs": [],
      "payable": false,
      "stateMutability": "nonpayable",
      "type": "function"
    },
    {
      "constant": false,
      "inputs": [
        {
          "name": "_reserve",
          "type": "address"
        }
      ],
      "name": "disableReserveFixedBorrowRate",
      "outputs": [],
      "payable": false,
      "stateMutability": "nonpayable",
      "type": "function"
    },
    {
      "constant": false,
      "inputs": [
        {
          "name": "_reserve",
          "type": "address"
        }
      ],
      "name": "activateReserve",
      "outputs": [],
      "payable": false,
      "stateMutability": "nonpayable",
      "type": "function"
    },
    {
      "constant": false,
      "inputs": [
        {
          "name": "_reserve",
          "type": "address"
        }
      ],
      "name": "deactivateReserve",
      "outputs": [],
      "payable": false,
      "stateMutability": "nonpayable",
      "type": "function"
    },
    {
      "constant": false,
      "inputs": [
        {
          "name": "_reserve",
          "type": "address"
        },
        {
          "name": "_ltv",
          "type": "uint256"
        }
      ],
      "name": "setReserveBaseLTVasCollateral",
      "outputs": [],
      "payable": false,
      "stateMutability": "nonpayable",
      "type": "function"
    },
    {
      "constant": false,
      "inputs": [
        {
          "name": "_reserve",
          "type": "address"
        },
        {
          "name": "_threshold",
          "type": "uint256"
        }
      ],
      "name": "setReserveLiquidationThreshold",
      "outputs": [],
      "payable": false,
      "stateMutability": "nonpayable",
      "type": "function"
    },
    {
      "constant": false,
      "inputs": [
        {
          "name": "_reserve",
          "type": "address"
        },
        {
          "name": "_discount",
          "type": "uint256"
        }
      ],
      "name": "setReserveLiquidationDiscount",
      "outputs": [],
      "payable": false,
      "stateMutability": "nonpayable",
      "type": "function"
    },
    {
      "constant": false,
      "inputs": [
        {
          "name": "_reserve",
          "type": "address"
        },
        {
          "name": "_user",
          "type": "address"
        },
        {
          "name": "_amount",
          "type": "uint256"
        }
      ],
      "name": "transferToUser",
      "outputs": [],
      "payable": false,
      "stateMutability": "nonpayable",
      "type": "function"
    },
    {
      "constant": false,
      "inputs": [
        {
          "name": "_token",
          "type": "address"
        },
        {
          "name": "_user",
          "type": "address"
        },
        {
          "name": "_amount",
          "type": "uint256"
        },
        {
          "name": "destination",
          "type": "address"
        }
      ],
      "name": "transferToFeeCollectionAddress",
      "outputs": [],
      "payable": true,
      "stateMutability": "payable",
      "type": "function"
    },
    {
      "constant": false,
      "inputs": [
        {
          "name": "_reserve",
          "type": "address"
        },
        {
          "name": "_user",
          "type": "address"
        },
        {
          "name": "_amount",
          "type": "uint256"
        }
      ],
      "name": "transferToReserve",
      "outputs": [],
      "payable": true,
      "stateMutability": "payable",
      "type": "function"
    }
  ],
  "bytecode": "0x60806040523480156200001157600080fd5b50604051602080620050da833981018060405260208110156200003357600080fd5b5051600080546001600160a01b03191633178082556040516001600160a01b039190911691907f8be0079c531659141344cd1fd0a4f28419497f9722a3daafe3b4186f6b6457e0908290a3600380546001600160a01b0319166001600160a01b038316179055620000aa620000b1602090811b901c565b506200027a565b600360009054906101000a90046001600160a01b03166001600160a01b031663b5722bb56040518163ffffffff1660e01b815260040160206040518083038186803b1580156200010057600080fd5b505afa15801562000115573d6000803e3d6000fd5b505050506040513d60208110156200012c57600080fd5b5051604080517f17bfdd5700000000000000000000000000000000000000000000000000000000815290516001600160a01b03909216916317bfdd5791600480820192602092909190829003018186803b1580156200018a57600080fd5b505afa1580156200019f573d6000803e3d6000fd5b505050506040513d6020811015620001b657600080fd5b5051600180546001600160a01b0319166001600160a01b03928316179055600354604080517f0261bf8b00000000000000000000000000000000000000000000000000000000815290519190921691630261bf8b916004808301926020929190829003018186803b1580156200022b57600080fd5b505afa15801562000240573d6000803e3d6000fd5b505050506040513d60208110156200025757600080fd5b5051600280546001600160a01b0319166001600160a01b03909216919091179055565b614e50806200028a6000396000f3fe60806040526004361061043c5760003560e01c80638e65a6b011610234578063c540148e1161012e578063e6d18190116100b6578063f2fde38b1161007a578063f2fde38b14611412578063f6ea8d7614611445578063fa51854c14611480578063fa93b2a5146114c5578063feab31ac146115085761043c565b8063e6d1819014611303578063e8ae2f5b14611336578063eede87c114611369578063f03e79ff146113a4578063f054ab46146113df5761043c565b8063d15e0053116100fd578063d15e0053146111ee578063d466016f14611221578063d7e075811461125a578063da2f78791461128d578063e2403019146112d05761043c565b8063c540148e14611131578063c72c4d1014611164578063c7d1423714611179578063cc6ae763146111b55761043c565b8063a37b1957116101bc578063b75d6f3411610180578063b75d6f3414611032578063b77b195814611065578063bd7fd79a14611098578063bfacad84146110cb578063c33cfd90146110fe5761043c565b8063a37b195714610f11578063a8dc0f4514610f54578063b46a4b3414610f87578063b6e1f70214610fc0578063b701d09314610fff5761043c565b806398bd47371161020357806398bd473714610dd45780639e3c4f3b14610e075780639e7d3b9614610e425780639fb8afcd14610e75578063a0fca83914610ece5761043c565b80638e65a6b014610d205780638f32d59b14610d59578063906c0a4114610d6e5780639789b68a14610da15761043c565b8063405300df1161034557806353cf36e8116102cd5780636722997a116102915780636722997a14610c5d5780636ae1441614610c90578063715018a614610cc35780637269e85314610cd85780638da5cb5b14610d0b5761043c565b806353cf36e814610b3d5780635cf2e65614610b705780635fc526ff14610ba35780636468108314610c0d57806366d103f314610c225761043c565b806348dfc16e1161031457806348dfc16e14610a1b5780634aaa347a14610a4e5780634d79c1c214610a8d5780634f14460914610ac65780634fe7a6e514610b135761043c565b8063405300df1461092957806342bbd6531461096457806344e636b71461099757806345330a40146109d25761043c565b806328fcf4d3116103c857806334b3beee1161039757806334b3beee146107db578063352ed9d41461082a578063385c91b0146108635780633e72a4541461089e5780633ef563ad146108d15761043c565b806328fcf4d3146106e857806329a178681461071e578063308f9d551461075d5780633443a14b146107a25761043c565b80631b70fba11161040f5780631b70fba11461059d5780631ca19f19146105d85780631d2118f91461063757806320840f6b146106725780632717cbfb146106b55761043c565b806305075d6e146104855780630902f1ac146104cc57806318f9bbae146105315780631a95129f14610564575b61044533611543565b61048357604051600160e51b62461bcd028152600401808060200182810382526036815260200180614bcf6036913960400191505060405180910390fd5b005b34801561049157600080fd5b506104b8600480360360208110156104a857600080fd5b50356001600160a01b031661154d565b604080519115158252519081900360200190f35b3480156104d857600080fd5b506104e1611575565b60408051602080825283518183015283519192839290830191858101910280838360005b8381101561051d578181015183820152602001610505565b505050509050019250505060405180910390f35b34801561053d57600080fd5b506104b86004803603602081101561055457600080fd5b50356001600160a01b03166115d7565b34801561057057600080fd5b506104836004803603604081101561058757600080fd5b506001600160a01b0381351690602001356115ff565b3480156105a957600080fd5b50610483600480360360408110156105c057600080fd5b506001600160a01b0381358116916020013516611677565b3480156105e457600080fd5b50610613600480360360408110156105fb57600080fd5b506001600160a01b03813581169160200135166116fd565b6040518082600181111561062357fe5b60ff16815260200191505060405180910390f35b34801561064357600080fd5b506104836004803603604081101561065a57600080fd5b506001600160a01b0381358116916020013516611741565b34801561067e57600080fd5b506104836004803603606081101561069557600080fd5b506001600160a01b0381358116916020810135909116906040013561182d565b3480156106c157600080fd5b50610483600480360360208110156106d857600080fd5b50356001600160a01b031661191e565b610483600480360360608110156106fe57600080fd5b506001600160a01b0381358116916020810135909116906040013561198e565b34801561072a57600080fd5b506104836004803603606081101561074157600080fd5b506001600160a01b038135169060208101359060400135611b68565b34801561076957600080fd5b506107906004803603602081101561078057600080fd5b50356001600160a01b0316611cb4565b60408051918252519081900360200190f35b3480156107ae57600080fd5b50610483600480360360408110156107c557600080fd5b506001600160a01b038135169060200135611cd2565b3480156107e757600080fd5b5061080e600480360360208110156107fe57600080fd5b50356001600160a01b0316611dac565b604080516001600160a01b039092168252519081900360200190f35b34801561083657600080fd5b506104836004803603604081101561084d57600080fd5b506001600160a01b038135169060200135611dcd565b34801561086f57600080fd5b506104836004803603604081101561088657600080fd5b506001600160a01b0381358116916020013516611e49565b3480156108aa57600080fd5b50610483600480360360208110156108c157600080fd5b50356001600160a01b0316611ecd565b3480156108dd57600080fd5b50610483600480360360c08110156108f457600080fd5b506001600160a01b03813581169160208101359091169060408101359060608101359060ff6080820135169060a00135611fb2565b34801561093557600080fd5b506104836004803603604081101561094c57600080fd5b506001600160a01b0381358116916020013516612160565b34801561097057600080fd5b506104836004803603602081101561098757600080fd5b50356001600160a01b03166121ee565b3480156109a357600080fd5b50610790600480360360408110156109ba57600080fd5b506001600160a01b0381358116916020013516612329565b3480156109de57600080fd5b50610483600480360360808110156109f557600080fd5b506001600160a01b03813581169160208101358216916040820135916060013516612358565b348015610a2757600080fd5b5061048360048036036020811015610a3e57600080fd5b50356001600160a01b03166124b4565b348015610a5a57600080fd5b5061048360048036036060811015610a7157600080fd5b506001600160a01b038135169060208101359060400135612521565b348015610a9957600080fd5b5061048360048036036040811015610ab057600080fd5b506001600160a01b038135169060200135612629565b348015610ad257600080fd5b50610af960048036036020811015610ae957600080fd5b50356001600160a01b0316612735565b6040805164ffffffffff9092168252519081900360200190f35b348015610b1f57600080fd5b5061080e60048036036020811015610b3657600080fd5b5035612761565b348015610b4957600080fd5b506104b860048036036020811015610b6057600080fd5b50356001600160a01b0316612788565b348015610b7c57600080fd5b506104b860048036036020811015610b9357600080fd5b50356001600160a01b03166127b0565b348015610baf57600080fd5b50610bd660048036036020811015610bc657600080fd5b50356001600160a01b03166127d8565b60408051968752602087019590955285850193909352901515606085015215156080840152151560a0830152519081900360c00190f35b348015610c1957600080fd5b5061048361282c565b348015610c2e57600080fd5b5061079060048036036040811015610c4557600080fd5b506001600160a01b03813581169160200135166128f1565b348015610c6957600080fd5b5061048360048036036020811015610c8057600080fd5b50356001600160a01b0316612927565b348015610c9c57600080fd5b5061080e60048036036020811015610cb357600080fd5b50356001600160a01b0316612a05565b348015610ccf57600080fd5b50610483612a26565b348015610ce457600080fd5b5061079060048036036020811015610cfb57600080fd5b50356001600160a01b0316612acc565b348015610d1757600080fd5b5061080e612aea565b348015610d2c57600080fd5b5061048360048036036040811015610d4357600080fd5b506001600160a01b038135169060200135612af9565b348015610d6557600080fd5b506104b8612c09565b348015610d7a57600080fd5b5061079060048036036020811015610d9157600080fd5b50356001600160a01b0316612c1a565b348015610dad57600080fd5b5061048360048036036020811015610dc457600080fd5b50356001600160a01b0316612cca565b348015610de057600080fd5b5061079060048036036020811015610df757600080fd5b50356001600160a01b0316612db5565b348015610e1357600080fd5b506104b860048036036040811015610e2a57600080fd5b506001600160a01b0381358116916020013516612dd4565b348015610e4e57600080fd5b5061079060048036036020811015610e6557600080fd5b50356001600160a01b0316612e0f565b348015610e8157600080fd5b50610eb060048036036040811015610e9857600080fd5b506001600160a01b0381358116916020013516612f3a565b60408051938452602084019290925282820152519081900360600190f35b348015610eda57600080fd5b5061048360048036036060811015610ef157600080fd5b506001600160a01b03813581169160208101359091169060400135612f95565b348015610f1d57600080fd5b5061048360048036036060811015610f3457600080fd5b506001600160a01b03813581169160208101359091169060400135613026565b348015610f6057600080fd5b5061048360048036036020811015610f7757600080fd5b50356001600160a01b0316613102565b348015610f9357600080fd5b5061048360048036036040811015610faa57600080fd5b506001600160a01b03813516906020013561323e565b348015610fcc57600080fd5b5061048360048036036060811015610fe357600080fd5b506001600160a01b038135169060208101359060400135613318565b34801561100b57600080fd5b506107906004803603602081101561102257600080fd5b50356001600160a01b031661338d565b34801561103e57600080fd5b506104836004803603602081101561105557600080fd5b50356001600160a01b03166133ab565b34801561107157600080fd5b506107906004803603602081101561108857600080fd5b50356001600160a01b03166134ed565b3480156110a457600080fd5b50610790600480360360208110156110bb57600080fd5b50356001600160a01b031661350b565b3480156110d757600080fd5b50610790600480360360208110156110ee57600080fd5b50356001600160a01b0316613529565b34801561110a57600080fd5b506107906004803603602081101561112157600080fd5b50356001600160a01b031661354a565b34801561113d57600080fd5b506107906004803603602081101561115457600080fd5b50356001600160a01b0316613565565b34801561117057600080fd5b5061080e613583565b6104836004803603608081101561118f57600080fd5b506001600160a01b03813581169160208101358216916040820135916060013516613592565b3480156111c157600080fd5b50610483600480360360408110156111d857600080fd5b506001600160a01b03813516906020013561368d565b3480156111fa57600080fd5b506107906004803603602081101561121157600080fd5b50356001600160a01b0316613701565b34801561122d57600080fd5b506104836004803603604081101561124457600080fd5b506001600160a01b038135169060200135613729565b34801561126657600080fd5b506104836004803603602081101561127d57600080fd5b50356001600160a01b0316613803565b34801561129957600080fd5b50610483600480360360608110156112b057600080fd5b506001600160a01b038135811691602081013590911690604001356138e8565b3480156112dc57600080fd5b50610790600480360360208110156112f357600080fd5b50356001600160a01b031661396e565b34801561130f57600080fd5b506107906004803603602081101561132657600080fd5b50356001600160a01b03166139a0565b34801561134257600080fd5b506104836004803603602081101561135957600080fd5b50356001600160a01b03166139c1565b34801561137557600080fd5b506104836004803603604081101561138c57600080fd5b506001600160a01b0381351690602001351515613ae2565b3480156113b057600080fd5b50610483600480360360408110156113c757600080fd5b506001600160a01b0381358116916020013516613c1f565b3480156113eb57600080fd5b506107906004803603602081101561140257600080fd5b50356001600160a01b0316613c99565b34801561141e57600080fd5b506104836004803603602081101561143557600080fd5b50356001600160a01b0316613cb7565b34801561145157600080fd5b506107906004803603604081101561146857600080fd5b506001600160a01b0381358116916020013516613d1c565b34801561148c57600080fd5b50610483600480360360608110156114a357600080fd5b506001600160a01b038135811691602081013590911690604001351515613d4b565b3480156114d157600080fd5b50610483600480360360608110156114e857600080fd5b506001600160a01b03813581169160208101359091169060400135613de2565b34801561151457600080fd5b506107906004803603604081101561152b57600080fd5b506001600160a01b0381358116916020013516613e98565b803b15155b919050565b6001600160a01b03166000908152600460205260409020600e0154600160e01b900460ff1690565b606060068054806020026020016040519081016040528092919081815260200182805480156115cd57602002820191906000526020600020905b81546001600160a01b031681526001909101906020018083116115af575b5050505050905090565b6001600160a01b03166000908152600460205260409020600e0154600160d01b900460ff1690565b6002546001600160a01b0316331461164b57604051600160e51b62461bcd02815260040180806020018281038252602a815260200180614d99602a913960400191505060405180910390fd5b6001600160a01b0382166000908152600460205260409020611673908263ffffffff613ec716565b5050565b6002546001600160a01b031633146116c357604051600160e51b62461bcd02815260040180806020018281038252602a815260200180614d99602a913960400191505060405180910390fd5b6001600160a01b03908116600090815260056020908152604080832094909316825292835281812060049093522060080154600190910155565b6001600160a01b03808216600090815260056020908152604080832093861683529290529081206003810154611734576001611737565b60005b9150505b92915050565b60035460408051600160e01b6385c858b1028152905133926001600160a01b0316916385c858b1916004808301926020929190829003018186803b15801561178857600080fd5b505afa15801561179c573d6000803e3d6000fd5b505050506040513d60208110156117b257600080fd5b50516001600160a01b0316146117fc57604051600160e51b62461bcd028152600401808060200182810382526037815260200180614cb56037913960400191505060405180910390fd5b6001600160a01b039182166000908152600460205260409020600e0180546001600160a01b03191691909216179055565b6002546001600160a01b0316331461187957604051600160e51b62461bcd02815260040180806020018281038252602a815260200180614d99602a913960400191505060405180910390fd5b6001600160a01b0383166000908152600460205260409020600e01548390600160c81b900460ff166118df57604051600160e51b62461bcd028152600401808060200182810382526024815260200180614b766024913960400191505060405180910390fd5b6001600160a01b0380841660009081526005602090815260408083209388168352929052208054611916908463ffffffff613f3116565b905550505050565b6002546001600160a01b0316331461196a57604051600160e51b62461bcd02815260040180806020018281038252602a815260200180614d99602a913960400191505060405180910390fd5b6001600160a01b038116600090815260046020526040902061198b90613f8e565b50565b6002546001600160a01b031633146119da57604051600160e51b62461bcd02815260040180806020018281038252602a815260200180614d99602a913960400191505060405180910390fd5b6001600160a01b0383166000908152600460205260409020600e810154600160d01b900460ff1680611a175750600e810154600160c81b900460ff165b611a5557604051600160e51b62461bcd028152600401808060200182810382526038815260200180614ded6038913960400191505060405180910390fd5b6001546001600160a01b03858116911614611aca573415611aaa57604051600160e51b62461bcd02815260040180806020018281038252605f815260200180614c05605f913960600191505060405180910390fd5b611ac56001600160a01b03851684308563ffffffff613fc216565b611b62565b81341015611b0c57604051600160e51b62461bcd028152600401808060200182810382526035815260200180614b9a6035913960400191505060405180910390fd5b81341115611b62576000611b26348463ffffffff61401f16565b6040519091506001600160a01b0385169082156108fc029083906000818181858888f19350505050158015611b5f573d6000803e3d6000fd5b50505b50505050565b60035460408051600160e01b6385c858b1028152905133926001600160a01b0316916385c858b1916004808301926020929190829003018186803b158015611baf57600080fd5b505afa158015611bc3573d6000803e3d6000fd5b505050506040513d6020811015611bd957600080fd5b50516001600160a01b031614611c2357604051600160e51b62461bcd028152600401808060200182810382526037815260200180614cb56037913960400191505060405180910390fd5b6001600160a01b03831660009081526004602081905260408083208151600160e11b63175868030281529283015260248201859052604482018490525173__CoreLibrary___________________________92632eb0d0069260648082019391829003018186803b158015611c9757600080fd5b505af4158015611cab573d6000803e3d6000fd5b50505050505050565b6001600160a01b031660009081526004602052604090206003015490565b60035460408051600160e01b6385c858b1028152905133926001600160a01b0316916385c858b1916004808301926020929190829003018186803b158015611d1957600080fd5b505afa158015611d2d573d6000803e3d6000fd5b505050506040513d6020811015611d4357600080fd5b50516001600160a01b031614611d8d57604051600160e51b62461bcd028152600401808060200182810382526037815260200180614cb56037913960400191505060405180910390fd5b6001600160a01b039091166000908152600460205260409020600a0155565b6001600160a01b039081166000908152600460205260409020600d01541690565b6002546001600160a01b03163314611e1957604051600160e51b62461bcd02815260040180806020018281038252602a815260200180614d99602a913960400191505060405180910390fd5b6001600160a01b03821660009081526004602052604090208054611e43908363ffffffff61401f16565b90555050565b6002546001600160a01b03163314611e9557604051600160e51b62461bcd02815260040180806020018281038252602a815260200180614d99602a913960400191505060405180910390fd5b6001600160a01b038082166000908152600560209081526040808320938616835292905220611ec383612e0f565b6003909101555050565b60035460408051600160e01b6385c858b1028152905133926001600160a01b0316916385c858b1916004808301926020929190829003018186803b158015611f1457600080fd5b505afa158015611f28573d6000803e3d6000fd5b505050506040513d6020811015611f3e57600080fd5b50516001600160a01b031614611f8857604051600160e51b62461bcd028152600401808060200182810382526037815260200180614cb56037913960400191505060405180910390fd5b6001600160a01b03166000908152600460205260409020600e018054600160e01b60ff0219169055565b6002546001600160a01b03163314611ffe57604051600160e51b62461bcd02815260040180806020018281038252602a815260200180614d99602a913960400191505060405180910390fd5b600061200a87876116fd565b6001600160a01b038816600090815260046020526040812091925082600181111561203157fe5b14156120e8576001600160a01b038088166000908152600560209081526040808320938c168352929052206003810154612074908390899063ffffffff61407f16565b600085600181111561208257fe5b14156120ae576120a961209b888863ffffffff613f3116565b83908663ffffffff6141a916565b6120e2565b60018560018111156120bc57fe5b14156120e2576120e26120d5888863ffffffff613f3116565b839063ffffffff61420916565b50612156565b60008460018111156120f657fe5b14156121325761210c818763ffffffff61422a16565b61212d61211f878763ffffffff613f3116565b82908563ffffffff6141a916565b612156565b600184600181111561214057fe5b141561215657612156818663ffffffff61420916565b5050505050505050565b6002546001600160a01b031633146121ac57604051600160e51b62461bcd02815260040180806020018281038252602a815260200180614d99602a913960400191505060405180910390fd5b6001600160a01b039081166000908152600560209081526040808320949093168252929092529020600401805464ffffffffff19164264ffffffffff16179055565b6002546001600160a01b0316331461223a57604051600160e51b62461bcd02815260040180806020018281038252602a815260200180614d99602a913960400191505060405180910390fd5b6001600160a01b038082166000908152600460205260409020600e8101549091166357e37af08361226a84614285565b8460030154856004015486600701546040518663ffffffff1660e01b815260040180866001600160a01b03166001600160a01b031681526020018581526020018481526020018381526020018281526020019550505050505060606040518083038186803b1580156122db57600080fd5b505afa1580156122ef573d6000803e3d6000fd5b505050506040513d606081101561230557600080fd5b50805160208201516040909201516005840155600683019190915560029091015550565b6001600160a01b0380821660009081526005602090815260408083209386168352929052206003015492915050565b60035460408051600160e01b6385c858b1028152905133926001600160a01b0316916385c858b1916004808301926020929190829003018186803b15801561239f57600080fd5b505afa1580156123b3573d6000803e3d6000fd5b505050506040513d60208110156123c957600080fd5b50516001600160a01b03161461241357604051600160e51b62461bcd028152600401808060200182810382526037815260200180614cb56037913960400191505060405180910390fd5b6001600160a01b0380851660009081526004602081905260408083208151600160e21b6304dda735028152928301528684166024830152604482018690529284166064820152915173__CoreLibrary___________________________926313769cd4926084808301939192829003018186803b15801561249357600080fd5b505af41580156124a7573d6000803e3d6000fd5b50505050611b62846142c9565b6002546001600160a01b0316331461250057604051600160e51b62461bcd02815260040180806020018281038252602a815260200180614d99602a913960400191505060405180910390fd5b6001600160a01b038116600090815260046020526040902061198b9061436d565b6002546001600160a01b0316331461256d57604051600160e51b62461bcd02815260040180806020018281038252602a815260200180614d99602a913960400191505060405180910390fd5b6001600160a01b0383166000908152600460205260409020600e01548390600160c81b900460ff16806125c257506001600160a01b0381166000908152600460205260409020600e0154600160d01b900460ff165b61260057604051600160e51b62461bcd028152600401808060200182810382526044815260200180614d556044913960600191505060405180910390fd5b6001600160a01b0384166000908152600460205260409020611b6290848463ffffffff6141a916565b6002546001600160a01b0316331461267557604051600160e51b62461bcd02815260040180806020018281038252602a815260200180614d99602a913960400191505060405180910390fd5b6001600160a01b0382166000908152600460205260409020600e01548290600160c81b900460ff16806126ca57506001600160a01b0381166000908152600460205260409020600e0154600160d01b900460ff165b61270857604051600160e51b62461bcd028152600401808060200182810382526044815260200180614d556044913960600191505060405180910390fd5b6001600160a01b0383166000908152600460205260409020612730908363ffffffff61420916565b505050565b6001600160a01b03166000908152600460205260409020600e0154600160a01b900464ffffffffff1690565b6006818154811061276e57fe5b6000918252602090912001546001600160a01b0316905081565b6001600160a01b03166000908152600460205260409020600e0154600160d81b900460ff1690565b6001600160a01b03166000908152600460205260409020600e0154600160c81b900460ff1690565b6001600160a01b03166000908152600460205260409020600c8101546009820154600a830154600e90930154919390929160ff600160d01b8204811692600160d81b8304821692600160c81b900490911690565b60035460408051600160e01b6385c858b1028152905133926001600160a01b0316916385c858b1916004808301926020929190829003018186803b15801561287357600080fd5b505afa158015612887573d6000803e3d6000fd5b505050506040513d602081101561289d57600080fd5b50516001600160a01b0316146128e757604051600160e51b62461bcd028152600401808060200182810382526037815260200180614cb56037913960400191505060405180910390fd5b6128ef61440a565b565b6001600160a01b0390811660009081526005602090815260408083209490931682529290925290206004015464ffffffffff1690565b60035460408051600160e01b6385c858b1028152905133926001600160a01b0316916385c858b1916004808301926020929190829003018186803b15801561296e57600080fd5b505afa158015612982573d6000803e3d6000fd5b505050506040513d602081101561299857600080fd5b50516001600160a01b0316146129e257604051600160e51b62461bcd028152600401808060200182810382526037815260200180614cb56037913960400191505060405180910390fd5b600380546001600160a01b0319166001600160a01b03831617905561198b61440a565b6001600160a01b039081166000908152600460205260409020600e01541690565b612a2e612c09565b612a825760408051600160e51b62461bcd02815260206004820181905260248201527f4f776e61626c653a2063616c6c6572206973206e6f7420746865206f776e6572604482015290519081900360640190fd5b600080546040516001600160a01b03909116907f8be0079c531659141344cd1fd0a4f28419497f9722a3daafe3b4186f6b6457e0908390a3600080546001600160a01b0319169055565b6001600160a01b031660009081526004602052604090206007015490565b6000546001600160a01b031690565b6002546001600160a01b03163314612b4557604051600160e51b62461bcd02815260040180806020018281038252602a815260200180614d99602a913960400191505060405180910390fd5b6001600160a01b0382166000908152600460205260409020600e01548290600160c81b900460ff1680612b9a57506001600160a01b0381166000908152600460205260409020600e0154600160d01b900460ff165b612bd857604051600160e51b62461bcd028152600401808060200182810382526044815260200180614d556044913960600191505060405180910390fd5b6001600160a01b03831660009081526004602052604090208054612c02908463ffffffff613f3116565b9055505050565b6000546001600160a01b0316331490565b6001600160a01b03811660009081526004602052604081206005810154612cc05780600e0160009054906101000a90046001600160a01b03166001600160a01b03166334762ca56040518163ffffffff1660e01b815260040160206040518083038186803b158015612c8b57600080fd5b505afa158015612c9f573d6000803e3d6000fd5b505050506040513d6020811015612cb557600080fd5b505191506115489050565b6005015492915050565b60035460408051600160e01b6385c858b1028152905133926001600160a01b0316916385c858b1916004808301926020929190829003018186803b158015612d1157600080fd5b505afa158015612d25573d6000803e3d6000fd5b505050506040513d6020811015612d3b57600080fd5b50516001600160a01b031614612d8557604051600160e51b62461bcd028152600401808060200182810382526037815260200180614cb56037913960400191505060405180910390fd5b6001600160a01b03166000908152600460205260409020600e018054600160d81b60ff021916600160d81b179055565b6001600160a01b03166000908152600460208190526040909120015490565b6001600160a01b0390811660009081526005602090815260408083209490931682529290925290206004015465010000000000900460ff1690565b6001600160a01b0380821660009081526004602081815260408084206003548251600160e11b631b0c55dd02815292519596919587959190921693633618abba9380830193919290829003018186803b158015612e6b57600080fd5b505afa158015612e7f573d6000803e3d6000fd5b505050506040513d6020811015612e9557600080fd5b50516006830154909150612f2f57806001600160a01b031663bb85c0bb856040518263ffffffff1660e01b815260040180826001600160a01b03166001600160a01b0316815260200191505060206040518083038186803b158015612ef957600080fd5b505afa158015612f0d573d6000803e3d6000fd5b505050506040513d6020811015612f2357600080fd5b50519250611548915050565b506006015492915050565b6001600160a01b038082166000908152600560209081526040808320938616835292815282822060049091529181208254928291612f78828261459e565b9350612f8a848663ffffffff61401f16565b925050509250925092565b6002546001600160a01b03163314612fe157604051600160e51b62461bcd02815260040180806020018281038252602a815260200180614d99602a913960400191505060405180910390fd5b6001600160a01b038083166000908152600560209081526040808320938716835292905220600281015461301b908363ffffffff61401f16565b600290910155505050565b6002546001600160a01b0316331461307257604051600160e51b62461bcd02815260040180806020018281038252602a815260200180614d99602a913960400191505060405180910390fd5b6001600160a01b03808316600090815260056020908152604080832093871683529290522080548211156130f05760408051600160e51b62461bcd02815260206004820152601d60248201527f54686520626f72726f772062616c616e636520697320746f6f206c6f77000000604482015290519081900360640190fd5b8054612c02908363ffffffff61401f16565b60035460408051600160e01b6385c858b1028152905133926001600160a01b0316916385c858b1916004808301926020929190829003018186803b15801561314957600080fd5b505afa15801561315d573d6000803e3d6000fd5b505050506040513d602081101561317357600080fd5b50516001600160a01b0316146131bd57604051600160e51b62461bcd028152600401808060200182810382526037815260200180614cb56037913960400191505060405180910390fd5b6001600160a01b03811660009081526004602081905260408083208151600160e11b6372efab53028152928301525173__CoreLibrary___________________________9263e5df56a69260248082019391829003018186803b15801561322357600080fd5b505af4158015613237573d6000803e3d6000fd5b5050505050565b60035460408051600160e01b6385c858b1028152905133926001600160a01b0316916385c858b1916004808301926020929190829003018186803b15801561328557600080fd5b505afa158015613299573d6000803e3d6000fd5b505050506040513d60208110156132af57600080fd5b50516001600160a01b0316146132f957604051600160e51b62461bcd028152600401808060200182810382526037815260200180614cb56037913960400191505060405180910390fd5b6001600160a01b039091166000908152600460205260409020600b0155565b6002546001600160a01b0316331461336457604051600160e51b62461bcd02815260040180806020018281038252602a815260200180614d99602a913960400191505060405180910390fd5b6001600160a01b038316600090815260046020526040902061273090838363ffffffff61407f16565b6001600160a01b031660009081526004602052604090206008015490565b60035460408051600160e01b6385c858b1028152905133926001600160a01b0316916385c858b1916004808301926020929190829003018186803b1580156133f257600080fd5b505afa158015613406573d6000803e3d6000fd5b505050506040513d602081101561341c57600080fd5b50516001600160a01b03161461346657604051600160e51b62461bcd028152600401808060200182810382526037815260200180614cb56037913960400191505060405180910390fd5b6001600160a01b0381166000908152600460205260409020600181015415801590613495575060008160080154115b6134d357604051600160e51b62461bcd028152600401808060200182810382526024815260200180614cec6024913960400191505060405180910390fd5b600e018054600160e01b60ff021916600160e01b17905550565b6001600160a01b03166000908152600460205260409020600b015490565b6001600160a01b031660009081526004602052604090206001015490565b6001600160a01b038116600090815260046020526040812061173b90614285565b6001600160a01b031660009081526004602052604090205490565b6001600160a01b031660009081526004602052604090206002015490565b6003546001600160a01b031681565b6002546001600160a01b031633146135de57604051600160e51b62461bcd02815260040180806020018281038252602a815260200180614d99602a913960400191505060405180910390fd5b60015481906001600160a01b03868116911614613615576136106001600160a01b03861685838663ffffffff613fc216565b613237565b8234101561365757604051600160e51b62461bcd028152600401808060200182810382526035815260200180614b9a6035913960400191505060405180910390fd5b6040516001600160a01b0382169084156108fc029085906000818181858888f19350505050158015611b5f573d6000803e3d6000fd5b6002546001600160a01b031633146136d957604051600160e51b62461bcd02815260040180806020018281038252602a815260200180614d99602a913960400191505060405180910390fd5b6001600160a01b0382166000908152600460205260409020611673908263ffffffff61422a16565b6001600160a01b038116600090815260046020526040812061372281614672565b9392505050565b60035460408051600160e01b6385c858b1028152905133926001600160a01b0316916385c858b1916004808301926020929190829003018186803b15801561377057600080fd5b505afa158015613784573d6000803e3d6000fd5b505050506040513d602081101561379a57600080fd5b50516001600160a01b0316146137e457604051600160e51b62461bcd028152600401808060200182810382526037815260200180614cb56037913960400191505060405180910390fd5b6001600160a01b03909116600090815260046020526040902060090155565b60035460408051600160e01b6385c858b1028152905133926001600160a01b0316916385c858b1916004808301926020929190829003018186803b15801561384a57600080fd5b505afa15801561385e573d6000803e3d6000fd5b505050506040513d602081101561387457600080fd5b50516001600160a01b0316146138be57604051600160e51b62461bcd028152600401808060200182810382526037815260200180614cb56037913960400191505060405180910390fd5b6001600160a01b03166000908152600460205260409020600e018054600160d81b60ff0219169055565b6002546001600160a01b0316331461393457604051600160e51b62461bcd02815260040180806020018281038252602a815260200180614d99602a913960400191505060405180910390fd5b6001600160a01b038083166000908152600560209081526040808320938716835292905220600281015461301b908363ffffffff613f3116565b6001600160a01b0381166000908152600460205260408120613722613992846139a0565b82549063ffffffff61401f16565b6001600160a01b038116600090815260046020526040812061173b906146a0565b60035460408051600160e01b6385c858b1028152905133926001600160a01b0316916385c858b1916004808301926020929190829003018186803b158015613a0857600080fd5b505afa158015613a1c573d6000803e3d6000fd5b505050506040513d6020811015613a3257600080fd5b50516001600160a01b031614613a7c57604051600160e51b62461bcd028152600401808060200182810382526037815260200180614cb56037913960400191505060405180910390fd5b6001600160a01b03811660009081526004602081905260408083208151600160e51b63041e0b2d028152928301525173__CoreLibrary___________________________926383c165a09260248082019391829003018186803b15801561322357600080fd5b60035460408051600160e01b6385c858b1028152905133926001600160a01b0316916385c858b1916004808301926020929190829003018186803b158015613b2957600080fd5b505afa158015613b3d573d6000803e3d6000fd5b505050506040513d6020811015613b5357600080fd5b50516001600160a01b031614613b9d57604051600160e51b62461bcd028152600401808060200182810382526037815260200180614cb56037913960400191505060405180910390fd5b6001600160a01b03821660009081526004602081905260408083208151600160e11b637b1dd5df0281529283015283151560248301525173__CoreLibrary___________________________9263f63babbe9260448082019391829003018186803b158015613c0b57600080fd5b505af4158015611b5f573d6000803e3d6000fd5b6002546001600160a01b03163314613c6b57604051600160e51b62461bcd02815260040180806020018281038252602a815260200180614d99602a913960400191505060405180910390fd5b6001600160a01b03908116600090815260056020908152604080832094909316825292909252812060030155565b6001600160a01b03166000908152600460205260409020600a015490565b613cbf612c09565b613d135760408051600160e51b62461bcd02815260206004820181905260248201527f4f776e61626c653a2063616c6c6572206973206e6f7420746865206f776e6572604482015290519081900360640190fd5b61198b816146bd565b6001600160a01b0380821660009081526005602090815260408083209386168352929052206001015492915050565b6002546001600160a01b03163314613d9757604051600160e51b62461bcd02815260040180806020018281038252602a815260200180614d99602a913960400191505060405180910390fd5b6001600160a01b0391821660009081526005602090815260408083209590941682529390935291206004018054911515650100000000000265ff000000000019909216919091179055565b6002546001600160a01b03163314613e2e57604051600160e51b62461bcd02815260040180806020018281038252602a815260200180614d99602a913960400191505060405180910390fd5b6001546001600160a01b03848116911614613e6257613e5d6001600160a01b038416838363ffffffff61476016565b612730565b6040516001600160a01b0383169082156108fc029083906000818181858888f19350505050158015611b62573d6000803e3d6000fd5b6001600160a01b0380821660009081526005602090815260408083209386168352929052206002015492915050565b6000613eee613ed984600001546147b5565b613ee2846147b5565b9063ffffffff6147cb16565b90506000613f0a613efd614807565b839063ffffffff613f3116565b9050613f2384600101548261481790919063ffffffff16565b846001018190555050505050565b6000828201838110156137225760408051600160e51b62461bcd02815260206004820152601b60248201527f536166654d6174683a206164646974696f6e206f766572666c6f770000000000604482015290519081900360640190fd5b600e01805478ffffffffff00000000000000000000000000000000000000001916600160a01b4264ffffffffff1602179055565b604080516001600160a01b0385811660248301528416604482015260648082018490528251808303909101815260849091019091526020810180516001600160e01b0316600160e01b6323b872dd02179052611b6290859061484f565b6000828211156140795760408051600160e51b62461bcd02815260206004820152601e60248201527f536166654d6174683a207375627472616374696f6e206f766572666c6f770000604482015290519081900360640190fd5b50900390565b81836003015410156140db5760408051600160e51b62461bcd02815260206004820152601a60248201527f496e76616c696420616d6f756e7420746f206465637265617365000000000000604482015290519081900360640190fd5b60038301546140f0818463ffffffff61401f16565b60038501819055614108575060006007840155612730565b600061412383614117866147b5565b9063ffffffff61481716565b905060006141388660070154614117856147b5565b90508181101561417c57604051600160e51b62461bcd028152600401808060200182810382526024815260200180614d106024913960400191505060405180910390fd5b61419c61418c87600301546147b5565b613ee2838563ffffffff61401f16565b6007870155505050505050565b60038301546141be818463ffffffff613f3116565b600385015560006141d283614117866147b5565b905060006141e78660070154614117856147b5565b905061419c6141f987600301546147b5565b613ee2848463ffffffff613f3116565b600482015461421e908263ffffffff613f3116565b82600401819055505050565b808260040154101561427057604051600160e51b62461bcd028152600401808060200182810382526051815260200180614c646051913960600191505060405180910390fd5b600482015461421e908263ffffffff61401f16565b805460009061429657506000611548565b60006142b383600401548460030154613f3190919063ffffffff16565b835490915061372290829063ffffffff6147cb16565b6000805b60065481101561431657826001600160a01b0316600682815481106142ee57fe5b6000918252602090912001546001600160a01b0316141561430e57600191505b6001016142cd565b508061167357600680546001810182556000919091527ff652222313e28459528d920b65115c16c04f3efc82aaedc97be59f3f377c0d3f0180546001600160a01b0384166001600160a01b03199091161790555050565b600061437882614285565b90508015611673576002820154600e8301546000916143a491600160a01b900464ffffffffff16614a10565b90506143bd83600101548261481790919063ffffffff16565b60018401556005830154600e8401546000916143e691600160a01b900464ffffffffff16614a10565b90506143ff84600801548261481790919063ffffffff16565b600885015550505050565b600360009054906101000a90046001600160a01b03166001600160a01b031663b5722bb56040518163ffffffff1660e01b815260040160206040518083038186803b15801561445857600080fd5b505afa15801561446c573d6000803e3d6000fd5b505050506040513d602081101561448257600080fd5b505160408051600160e01b6317bfdd5702815290516001600160a01b03909216916317bfdd5791600480820192602092909190829003018186803b1580156144c957600080fd5b505afa1580156144dd573d6000803e3d6000fd5b505050506040513d60208110156144f357600080fd5b5051600180546001600160a01b0319166001600160a01b0392831617905560035460408051600160e01b630261bf8b02815290519190921691630261bf8b916004808301926020929190829003018186803b15801561455157600080fd5b505afa158015614565573d6000803e3d6000fd5b505050506040513d602081101561457b57600080fd5b5051600280546001600160a01b0319166001600160a01b03909216919091179055565b81546000906145af5750600061173b565b60006145be84600001546147b5565b60038501549091506000908190156145f257600386015460048701546145eb919064ffffffffff16614a10565b9050614628565b6146258660010154613ee2876008015461411789600501548a600e0160149054906101000a900464ffffffffff16614a10565b90505b61464061463b848363ffffffff61481716565b614a70565b865490925082141561466957855461465f90600163ffffffff613f3116565b935050505061173b565b50949350505050565b6000806137228360010154614117856002015486600e0160149054906101000a900464ffffffffff16614a10565b600061173b82600401548360030154613f3190919063ffffffff16565b6001600160a01b03811661470557604051600160e51b62461bcd028152600401808060200182810382526026815260200180614b506026913960400191505060405180910390fd5b600080546040516001600160a01b03808516939216917f8be0079c531659141344cd1fd0a4f28419497f9722a3daafe3b4186f6b6457e091a3600080546001600160a01b0319166001600160a01b0392909216919091179055565b604080516001600160a01b038416602482015260448082018490528251808303909101815260649091019091526020810180516001600160e01b0316600160e01b63a9059cbb0217905261273090849061484f565b600061173b82633b9aca0063ffffffff614a8616565b600060028204611737836147fb6147ee876b033b2e3c9fd0803ce8000000614a86565b849063ffffffff613f3116565b9063ffffffff614ae216565b6b033b2e3c9fd0803ce800000090565b60006137226b033b2e3c9fd0803ce80000006147fb61483c868663ffffffff614a8616565b6b019d971e4fe8401e7400000090613f31565b614861826001600160a01b0316611543565b6148b55760408051600160e51b62461bcd02815260206004820152601f60248201527f5361666545524332303a2063616c6c20746f206e6f6e2d636f6e747261637400604482015290519081900360640190fd5b60006060836001600160a01b0316836040518082805190602001908083835b602083106148f35780518252601f1990920191602091820191016148d4565b6001836020036101000a0380198251168184511680821785525050505050509050019150506000604051808303816000865af19150503d8060008114614955576040519150601f19603f3d011682016040523d82523d6000602084013e61495a565b606091505b5091509150816149b45760408051600160e51b62461bcd02815260206004820181905260248201527f5361666545524332303a206c6f772d6c6576656c2063616c6c206661696c6564604482015290519081900360640190fd5b805115611b62578080602001905160208110156149d057600080fd5b5051611b6257604051600160e51b62461bcd02815260040180806020018281038252602a815260200180614dc3602a913960400191505060405180910390fd5b600080614a2a4264ffffffffff851663ffffffff61401f16565b90506000614a3e613ed96301e133806147b5565b9050614a67614a4b614807565b614a5b878463ffffffff61481716565b9063ffffffff613f3116565b95945050505050565b600061173b82633b9aca0063ffffffff614ae216565b600082614a955750600061173b565b82820282848281614aa257fe5b041461372257604051600160e51b62461bcd028152600401808060200182810382526021815260200180614d346021913960400191505060405180910390fd5b6000808211614b3b5760408051600160e51b62461bcd02815260206004820152601a60248201527f536166654d6174683a206469766973696f6e206279207a65726f000000000000604482015290519081900360640190fd5b6000828481614b4657fe5b0494935050505056fe4f776e61626c653a206e6577206f776e657220697320746865207a65726f206164647265737352657365727665206973206e6f7420656e61626c656420666f7220626f72726f77696e6754686520616d6f756e7420616e64207468652076616c75652073656e7420746f206465706f73697420646f206e6f74206d617463684f6e6c7920636f6e7472616374732063616e2073656e6420657468657220746f20746865204c656e64696e6720706f6f6c20636f7265557365722069732073656e64696e672045544820616c6f6e67207769746820746865204552433230207472616e736665722e20436865636b207468652076616c756520617474726962757465206f6620746865207472616e73616374696f6e54686520616d6f756e742074686174206973206265696e672073756273747261637465642066726f6d20746865207661726961626c6520746f74616c20626f72726f777320697320696e636f72726563745468652063616c6c6572206d7573742062652061206c656e64696e6720706f6f6c20636f6e666967757261746f7220636f6e74726163745265736572766520686173206e6f74206265656e20696e697469616c697a65642079657454686520616d6f756e747320746f2073756273747261637420646f6e2774206d61746368536166654d6174683a206d756c7469706c69636174696f6e206f766572666c6f7752657365727665206973206e6f7420656e61626c656420666f7220626f72726f77696e67206f7220666f72206265696e67207573656420617320636f6c6c61746572616c5468652063616c6c6572206d7573742062652061206c656e64696e6720706f6f6c20636f6e74726163745361666545524332303a204552433230206f7065726174696f6e20646964206e6f74207375636365656454686520726573657276652069736e277420656e61626c656420666f7220626f72726f77696e67206f7220617320636f6c6c61746572616ca165627a7a72305820a72c8ccfe9d8000c4cf6a4cbbf4f65fe6208d223b7236b51be37b1e9eff10fe80029",
  "source": "pragma solidity ^0.5.0;\n\nimport \"openzeppelin-solidity/contracts/ownership/Ownable.sol\";\nimport \"openzeppelin-solidity/contracts/math/SafeMath.sol\";\nimport \"openzeppelin-solidity/contracts/token/ERC20/SafeERC20.sol\";\nimport \"openzeppelin-solidity/contracts/token/ERC20/ERC20.sol\";\nimport \"openzeppelin-solidity/contracts/utils/Address.sol\";\nimport \"../libraries/CoreLibrary.sol\";\nimport \"../configuration/LendingPoolAddressesProvider.sol\";\nimport \"../interfaces/IPriceOracle.sol\";\nimport \"../interfaces/ILendingRateOracle.sol\";\nimport \"../interfaces/IReserveInterestRateStrategy.sol\";\nimport \"../interfaces/INetworkMetadataProvider.sol\";\nimport \"../libraries/WadRayMath.sol\";\n\n\n/*************************************************************************************\n@title LendingPoolCore contract\n@author Aave\n@notice Contains all the data and the funds deposited into a lending pool\n *************************************************************************************/\n\ncontract LendingPoolCore is Ownable {\n\n    using SafeMath for uint256;\n    using WadRayMath for uint256;\n    using CoreLibrary for CoreLibrary.ReserveData;\n    using SafeERC20 for ERC20;\n    using Address for address payable;\n\n   /**\n   @dev ethereumAddress represents a ERC20 contract address with which the pool identifies ETH\n    */\n    address ethereumAddress;\n\n    address lendingPoolAddress;\n\n\n    LendingPoolAddressesProvider public addressesProvider;\n\n    /**\n    @dev only lending pools can use functions affected by this modifier\n     */\n    modifier onlyLendingPool {\n        require(lendingPoolAddress == msg.sender, \"The caller must be a lending pool contract\");\n        _;\n    }\n\n    /**\n    @dev only lending pools configurator can use functions affected by this modifier\n     */\n    modifier onlyLendingPoolConfigurator {\n        require(\n            addressesProvider.getLendingPoolConfigurator() == msg.sender,\n            \"The caller must be a lending pool configurator contract\"\n        );\n        _;\n    }\n\n\n    /**\n    @dev functions affected by this modifier can only be invoked if a reserve is enabled for borrowing and/or collateral\n     */\n    modifier onlyReserveWithEnabledBorrowingOrCollateral(address _reserve) {\n        require(\n            reserves[_reserve].borrowingEnabled || reserves[_reserve].usageAsCollateralEnabled,\n            \"Reserve is not enabled for borrowing or for being used as collateral\"\n        );\n        _;\n    }\n\n    /**\n    @dev functions affected by this modifier can only be invoked if a reserve is enabled for borrowing\n     */\n    modifier onlyReserveWithEnabledBorrowing(address _reserve) {\n        require(reserves[_reserve].borrowingEnabled, \"Reserve is not enabled for borrowing\");\n        _;\n    }\n\n    mapping(address => CoreLibrary.ReserveData) reserves;\n    mapping(address => mapping(address => CoreLibrary.UserReserveData)) usersReserveData;\n    \n    address[] public reservesList;\n\n    constructor(LendingPoolAddressesProvider _addressesProvider) public {\n        addressesProvider = _addressesProvider;\n        refreshConfigInternal();\n    }\n\n    /**\n    @dev functions to update reserves data\n     */\n\n    /**\n    @notice Updates the reserve Liquidity cumulative interest Ci and the Variable borrows cumulative index Bvc. Please refer to the\n    whitepaper for further information.\n     */\n    function updateReserveCumulativeIndexes(address _reserve) external onlyLendingPool {\n        reserves[_reserve].updateCumulativeIndexes();\n    }\n\n    /**\n    @notice cumulates a fixed amount of liquidity to the reserve, considered as a specific interest accrued in one block. Please refer\n    to the whitepaper for further information.\n    */\n\n    function cumulateLiquidityToReserveLiquidityIndex(address _reserve, uint256 _amount) external onlyLendingPool {\n        reserves[_reserve].cumulateToLiquidityIndex(_amount);\n    }\n\n    /**\n    @notice Updates the reserve current fixed borrow rate Rf, the current variable borrow rate Rv and the current liquidity rate Rl.\n    Please refer to the whitepaper for further information.\n     */\n\n    function updateReserveInterestRates(address _reserve) external onlyLendingPool {\n\n        CoreLibrary.ReserveData storage reserve = reserves[_reserve];\n        (reserve.currentLiquidityRate,\n        reserve.currentFixedBorrowRate,\n        reserve.currentVariableBorrowRate) = IReserveInterestRateStrategy(reserve.interestRateStrategyAddress).\n            calculateInterestRates(\n            _reserve,\n            reserve.getReserveUtilizationRate(),\n            reserve.totalBorrowsFixed,\n            reserve.totalBorrowsVariable,\n            reserve.currentAverageFixedBorrowRate\n            );\n    }\n\n    /**\n    @notice increases the total liquidity Lt of a reserve\n     */\n\n    function increaseReserveTotalLiquidity(address _reserve, uint256 _amount)\n        external\n        onlyLendingPool\n        onlyReserveWithEnabledBorrowingOrCollateral(_reserve)\n    {\n        CoreLibrary.ReserveData storage reserve = reserves[_reserve];\n        reserve.totalLiquidity = reserve.totalLiquidity.add(_amount);\n\n    }\n\n    /**\n    @notice decreases the total liquidity Lt of a reserve\n     */\n\n    function decreaseReserveTotalLiquidity(address _reserve, uint256 _amount) external onlyLendingPool {\n        CoreLibrary.ReserveData storage reserve = reserves[_reserve];\n        reserve.totalLiquidity = reserve.totalLiquidity.sub(_amount);\n    }\n\n    /**\n    @notice increases the total borrow fixed of a reserve Bf and updates the average fixed borrow rate Raf. Please refer to the whitepaper\n    for further information.\n     */\n\n    function increaseReserveTotalBorrowsFixedAndUpdateAverageRate(address _reserve, uint256 _amount, uint256 _rate)\n        external\n        onlyLendingPool\n        onlyReserveWithEnabledBorrowingOrCollateral(_reserve)\n    {\n        reserves[_reserve].increaseTotalBorrowsFixedAndUpdateAverageRate(_amount, _rate);\n    }\n\n\n    /**\n    @notice decreases the total borrow fixed of a reserve Bf and updates the average fixed borrow rate Raf. Please refer to the whitepaper\n    for further information.\n     */\n\n\n    function decreaseReserveTotalBorrowsFixedAndUpdateAverageRate(address _reserve, uint256 _amount, uint256 _rate)\n        external\n        onlyLendingPool\n    {\n        reserves[_reserve].decreaseTotalBorrowsFixedAndUpdateAverageRate(_amount, _rate);\n\n    }\n    /**\n    @notice increases the the total borrow variable of a reserve Bv.\n     */\n\n    function increaseReserveTotalBorrowsVariable(address _reserve, uint256 _amount)\n        external\n        onlyLendingPool\n        onlyReserveWithEnabledBorrowingOrCollateral(_reserve)\n    {\n        reserves[_reserve].increaseTotalBorrowsVariable(_amount);\n    }\n\n        /**\n    @notice decreases the the total borrow variable of a reserve Bv.\n     */\n\n\n    function decreaseReserveTotalBorrowsVariable(address _reserve, uint256 _amount) external onlyLendingPool {\n        reserves[_reserve].decreaseTotalBorrowsVariable(_amount);\n    }\n\n    /***************\n    @dev increases the proper total borrows on a reserve depending on the type of interest rate chosen by the user\n     ***************/\n\n    function updateReserveTotalBorrowsByRateMode(\n        address _reserve,\n        address _user,\n        uint256 _principalBalance,\n        uint256 _balanceIncrease,\n        CoreLibrary.InterestRateMode _newBorrowRateMode,\n        uint256 _fixedRate\n    ) external onlyLendingPool {\n        CoreLibrary.InterestRateMode currentRateMode = getUserCurrentBorrowRateMode(_reserve, _user);\n        CoreLibrary.ReserveData storage reserve = reserves[_reserve];\n\n\n        if (currentRateMode == CoreLibrary.InterestRateMode.FIXED) {\n            // there was no previous borrow or previous borrow was fixed\n            CoreLibrary.UserReserveData storage user = usersReserveData[_user][_reserve];\n            reserve.decreaseTotalBorrowsFixedAndUpdateAverageRate(_principalBalance, user.fixedBorrowRate);\n\n            if (_newBorrowRateMode == CoreLibrary.InterestRateMode.FIXED) {\n                reserve.increaseTotalBorrowsFixedAndUpdateAverageRate(_principalBalance.add(_balanceIncrease), _fixedRate);\n            }  else if (_newBorrowRateMode == CoreLibrary.InterestRateMode.VARIABLE) {\n                //switching the whole amount borrowed to variable\n                reserve.increaseTotalBorrowsVariable(_principalBalance.add(_balanceIncrease));\n            }\n        } else {\n            // previous borrow was variable\n            if (_newBorrowRateMode == CoreLibrary.InterestRateMode.FIXED) {\n                reserve.decreaseTotalBorrowsVariable(_principalBalance);\n                reserve.increaseTotalBorrowsFixedAndUpdateAverageRate(_principalBalance.add(_balanceIncrease), _fixedRate);\n            } else if (_newBorrowRateMode == CoreLibrary.InterestRateMode.VARIABLE) {\n                //switching the whole amount borrowed to variable\n                reserve.increaseTotalBorrowsVariable(_balanceIncrease);\n            }\n        }\n    }\n\n    /**\n    @notice refreshes reserve last updated block number Bl\n     */\n    function setReserveLastUpdate(address _reserve) external onlyLendingPool {\n        reserves[_reserve].setLastUpdate();\n    }\n\n\n    /***************\n    @dev functions to update users reserve data\n     */\n\n    function updateUserLastVariableBorrowCumulativeIndex(address _reserve, address _user) external onlyLendingPool {\n        CoreLibrary.UserReserveData storage user = usersReserveData[_user][_reserve];\n        CoreLibrary.ReserveData storage reserve = reserves[_reserve];\n\n        user.lastVariableBorrowCumulativeIndex = reserve.lastVariableBorrowCumulativeIndex;\n    }\n\n    function increaseUserOriginationFee(address _reserve, address _user, uint256 _amount) external onlyLendingPool {\n        CoreLibrary.UserReserveData storage user = usersReserveData[_user][_reserve];\n        user.originationFee = user.originationFee.add(_amount);\n    }\n\n    function decreaseUserOriginationFee(address _reserve, address _user, uint256 _amount) external onlyLendingPool {\n        CoreLibrary.UserReserveData storage user = usersReserveData[_user][_reserve];\n        user.originationFee = user.originationFee.sub(_amount);\n    }\n\n    function increaseUserPrincipalBorrowBalance(address _reserve, address _user, uint256 _amount)\n        external\n        onlyLendingPool\n        onlyReserveWithEnabledBorrowing(_reserve)\n    {\n        CoreLibrary.UserReserveData storage user = usersReserveData[_user][_reserve];\n        user.principalBorrowBalance = user.principalBorrowBalance.add(_amount);\n    }\n\n    function decreaseUserPrincipalBorrowBalance(address _reserve, address _user, uint256 _amount)\n        external\n        onlyLendingPool\n    {\n        CoreLibrary.UserReserveData storage user = usersReserveData[_user][_reserve];\n        require(user.principalBorrowBalance >= _amount, \"The borrow balance is too low\");\n        user.principalBorrowBalance = user.principalBorrowBalance.sub(_amount);\n    }\n\n    function setUserUseReserveAsCollateral(address _reserve, address _user, bool _useAsCollateral) external onlyLendingPool {\n        CoreLibrary.UserReserveData storage user = usersReserveData[_user][_reserve];\n        user.useAsCollateral = _useAsCollateral;\n    }\n\n    function setUserLastUpdate(address _reserve, address _user) external onlyLendingPool {\n        CoreLibrary.UserReserveData storage user = usersReserveData[_user][_reserve];\n\n        //solium-disable-next-line\n        user.lastUpdateTimestamp = uint40(block.timestamp);\n    }\n\n    /******************\n    @dev updates the fixed borrow rate for the user\n    *******************/\n    function updateUserFixedBorrowRate(address _reserve, address _user) external onlyLendingPool {\n        CoreLibrary.UserReserveData storage user = usersReserveData[_user][_reserve];\n\n        user.fixedBorrowRate = getReserveCurrentFixedBorrowRate(_reserve);\n    }\n\n    function resetUserFixedBorrowRate(address _reserve, address _user) external onlyLendingPool {\n        CoreLibrary.UserReserveData storage user = usersReserveData[_user][_reserve];\n        user.fixedBorrowRate = 0;\n    }\n\n    /*********************\n    @dev reserve accessors\n     *********************/\n\n    function getReserveInterestRateStrategyAddress(address _reserve) public view returns (address) {\n        CoreLibrary.ReserveData storage reserve = reserves[_reserve];\n        return reserve.interestRateStrategyAddress;\n    }\n\n    function getReserveATokenAddress(address _reserve) public view returns (address) {\n        CoreLibrary.ReserveData storage reserve = reserves[_reserve];\n        return reserve.aTokenAddress;\n    }\n\n    function getReserveAvailableLiquidity(address _reserve) public view returns (uint256) {\n        CoreLibrary.ReserveData storage reserve = reserves[_reserve];\n        return reserve.totalLiquidity.sub(getReserveTotalBorrows(_reserve));\n    }\n\n    function getReserveTotalLiquidity(address _reserve) external view returns (uint256) {\n        CoreLibrary.ReserveData storage reserve = reserves[_reserve];\n        return reserve.totalLiquidity;\n    }\n\n    function getReserveNormalizedIncome(address _reserve) external view returns (uint256) {\n        CoreLibrary.ReserveData storage reserve = reserves[_reserve];\n        return reserve.getNormalizedIncome();\n    }\n\n    function getReserveTotalBorrows(address _reserve) public view returns (uint256) {\n        return reserves[_reserve].getTotalBorrows();\n    }\n\n    function getReserveTotalBorrowsFixed(address _reserve) external view returns (uint256) {\n        CoreLibrary.ReserveData storage reserve = reserves[_reserve];\n        return reserve.totalBorrowsFixed;\n    }\n\n    function getReserveTotalBorrowsVariable(address _reserve) external view returns (uint256) {\n        CoreLibrary.ReserveData storage reserve = reserves[_reserve];\n        return reserve.totalBorrowsVariable;\n    }\n\n    function getReserveLiquidationThreshold(address _reserve) external view returns (uint256) {\n        CoreLibrary.ReserveData storage reserve = reserves[_reserve];\n        return reserve.liquidationThreshold;\n    }\n\n    function getReserveLiquidationDiscount(address _reserve) external view returns (uint256) {\n        CoreLibrary.ReserveData storage reserve = reserves[_reserve];\n        return reserve.liquidationDiscount;\n    }\n\n    function getReserveCurrentVariableBorrowRate(address _reserve) external view returns (uint256) {\n        CoreLibrary.ReserveData storage reserve = reserves[_reserve];\n\n        if(reserve.currentVariableBorrowRate == 0) {\n            return IReserveInterestRateStrategy(reserve.interestRateStrategyAddress)\n                .getBaseVariableBorrowRate();\n        }\n        return reserve.currentVariableBorrowRate;\n    }\n\n    function getReserveCurrentFixedBorrowRate(address _reserve) public view returns (uint256) {\n        CoreLibrary.ReserveData storage reserve = reserves[_reserve];\n        ILendingRateOracle oracle = ILendingRateOracle(addressesProvider.getLendingRateOracle());\n\n        if (reserve.currentFixedBorrowRate == 0) {\n            //no fixed rate borrows yet\n            return oracle.getMarketBorrowRate(_reserve);\n        }\n\n        return reserve.currentFixedBorrowRate;\n    }\n\n    function getReserveCurrentAverageFixedBorrowRate(address _reserve) external view returns (uint256) {\n        CoreLibrary.ReserveData storage reserve = reserves[_reserve];\n        return reserve.currentAverageFixedBorrowRate;\n    }\n\n    function getReserveCurrentLiquidityRate(address _reserve) external view returns (uint256) {\n        CoreLibrary.ReserveData storage reserve = reserves[_reserve];\n        return reserve.currentLiquidityRate;\n    }\n\n    function getReserveLiquidityCumulativeIndex(address _reserve) external view returns (uint256) {\n        CoreLibrary.ReserveData storage reserve = reserves[_reserve];\n        return reserve.lastLiquidityCumulativeIndex;\n    }\n\n    function getReserveVariableBorrowsCumulativeIndex(address _reserve) external view returns (uint256) {\n        CoreLibrary.ReserveData storage reserve = reserves[_reserve];\n        return reserve.lastVariableBorrowCumulativeIndex;\n    }\n\n    /**\n    * @dev this function aggregates the configuration parameters of the reserve.\n    *      It's used in the LendingPoolDataProvider specifically to save gas, and avoid\n    *      multiple external contract calls to fetch the same data.\n     */\n\n    function getReserveConfiguration(address _reserve)\n        external\n        view\n        returns (uint256 decimals,\n        uint256 baseLTVasCollateral,\n        uint256 liquidationThreshold,\n        bool usageAsCollateralEnabled,\n        bool fixedBorrowRateEnabled,\n        bool borrowingEnabled) {\n        CoreLibrary.ReserveData storage reserve = reserves[_reserve];\n        decimals = reserve.decimals;\n        baseLTVasCollateral = reserve.baseLTVasCollateral;\n        liquidationThreshold = reserve.liquidationThreshold;\n        usageAsCollateralEnabled = reserve.usageAsCollateralEnabled;\n        fixedBorrowRateEnabled = reserve.isFixedBorrowRateEnabled;\n        borrowingEnabled = reserve.borrowingEnabled;\n    }\n\n    function isReserveBorrowingEnabled(address _reserve) external view returns (bool) {\n        CoreLibrary.ReserveData storage reserve = reserves[_reserve];\n        return reserve.borrowingEnabled;\n    }\n\n    function isReserveUsageAsCollateralEnabled(address _reserve) external view returns (bool) {\n        CoreLibrary.ReserveData storage reserve = reserves[_reserve];\n        return reserve.usageAsCollateralEnabled;\n    }\n\n    function getReserveIsFixedBorrowRateEnabled(address _reserve) external view returns (bool) {\n        CoreLibrary.ReserveData storage reserve = reserves[_reserve];\n        return reserve.isFixedBorrowRateEnabled;\n    }\n\n    function getReserveIsActive(address _reserve) external view returns(bool) {\n        CoreLibrary.ReserveData storage reserve = reserves[_reserve];\n        return reserve.isActive;\n    }\n\n\n    function getReserveLastUpdate(address _reserve) external view returns (uint40 timestamp) {\n        CoreLibrary.ReserveData storage reserve = reserves[_reserve];\n        timestamp = reserve.lastUpdateTimestamp;\n    }\n\n    /******************\n    @dev user accessors\n     ******************/\n\n    function isUserUseReserveAsCollateralEnabled(address _reserve, address _user) external view returns (bool) {\n        CoreLibrary.UserReserveData storage user = usersReserveData[_user][_reserve];\n        return user.useAsCollateral;\n    }\n    function getUserOriginationFee(address _reserve, address _user) external view returns (uint256) {\n        CoreLibrary.UserReserveData storage user = usersReserveData[_user][_reserve];\n        return user.originationFee;\n    }\n\n    function getUserCurrentBorrowRateMode(address _reserve, address _user)\n        public\n        view\n        returns (CoreLibrary.InterestRateMode)\n    {\n        CoreLibrary.UserReserveData storage user = usersReserveData[_user][_reserve];\n        return user.fixedBorrowRate > 0 ? CoreLibrary.InterestRateMode.FIXED : CoreLibrary.InterestRateMode.VARIABLE;\n    }\n\n    function getUserCurrentFixedBorrowRate(address _reserve, address _user) external view returns (uint256) {\n        CoreLibrary.UserReserveData storage user = usersReserveData[_user][_reserve];\n        return user.fixedBorrowRate;\n    }\n\n    function getUserBorrowBalances(\n        address _reserve,\n        address _user)\n        external view returns (\n            uint256 principalBorrowBalance,\n            uint256 compoundedBorrowBalance,\n            uint256 compoundedAmount) {\n\n        CoreLibrary.UserReserveData storage user = usersReserveData[_user][_reserve];\n        CoreLibrary.ReserveData storage reserve = reserves[_reserve];\n\n        principalBorrowBalance = user.principalBorrowBalance;\n        compoundedBorrowBalance = CoreLibrary.getCompoundedBorrowBalance(\n                user,\n                reserve\n            );\n\n        compoundedAmount = compoundedBorrowBalance.sub(principalBorrowBalance);\n    }\n\n    function getUserVariableBorrowCumulativeIndex(address _reserve, address _user) external view returns (uint256) {\n        CoreLibrary.UserReserveData storage user = usersReserveData[_user][_reserve];\n        return user.lastVariableBorrowCumulativeIndex;\n    }\n\n    function getUserLastUpdate(address _reserve, address _user)\n        external\n        view\n        returns (uint256 timestamp)\n    {\n        CoreLibrary.UserReserveData storage user = usersReserveData[_user][_reserve];\n        timestamp = user.lastUpdateTimestamp;\n    }\n\n    /**\n    @dev utility functions\n     */\n\n    function getReserveUtilizationRate(address _reserve) external view returns (uint256) {\n        return reserves[_reserve].getReserveUtilizationRate();\n    }\n\n    function getReserves() external view returns (address[] memory) {\n        return reservesList;\n    }\n\n    /**\n    @dev Core configuration functions\n     */\n\n    function setAddressesProvider(address _addressesProvider ) external onlyLendingPoolConfigurator {\n\n        addressesProvider = LendingPoolAddressesProvider(_addressesProvider);\n        refreshConfigInternal();\n    }\n\n    function refreshConfiguration() external onlyLendingPoolConfigurator {\n        refreshConfigInternal();\n    }\n\n    function initReserve(address _reserve, address _aTokenAddress, uint256 _decimals, address _interestRateStrategyAddress)\n        external\n        onlyLendingPoolConfigurator\n    {\n        reserves[_reserve].init(_aTokenAddress, _decimals, _interestRateStrategyAddress);\n        addReserveToListInternal(_reserve);\n\n    }\n\n    function setReserveInterestRateStrategyAddress(address _reserve, address _rateStrategyAddress) external onlyLendingPoolConfigurator {\n        reserves[_reserve].interestRateStrategyAddress = _rateStrategyAddress;\n    }\n\n    function enableBorrowingOnReserve(\n        address _reserve,\n        bool _fixedBorrowRateEnabled\n    ) external onlyLendingPoolConfigurator {\n        reserves[_reserve].enableBorrowing(_fixedBorrowRateEnabled);\n    }\n\n    function disableBorrowingOnReserve(address _reserve) external onlyLendingPoolConfigurator {\n        reserves[_reserve].disableBorrowing();\n    }\n\n    function enableReserveAsCollateral(address _reserve, uint256 _baseLTVasCollateral, uint256 _liquidationThreshold)\n        external\n        onlyLendingPoolConfigurator\n    {\n        reserves[_reserve].enableAsCollateral(_baseLTVasCollateral, _liquidationThreshold);\n    }\n\n    function disableReserveAsCollateral(address _reserve) external onlyLendingPoolConfigurator {\n        reserves[_reserve].disableAsCollateral();\n    }\n\n    function enableReserveFixedBorrowRate(address _reserve) external onlyLendingPoolConfigurator {\n        CoreLibrary.ReserveData storage reserve = reserves[_reserve];\n        reserve.isFixedBorrowRateEnabled = true;\n    }\n\n    function disableReserveFixedBorrowRate(address _reserve) external onlyLendingPoolConfigurator {\n        CoreLibrary.ReserveData storage reserve = reserves[_reserve];\n        reserve.isFixedBorrowRateEnabled = false;\n    }\n\n    function activateReserve(address _reserve) external onlyLendingPoolConfigurator {\n        CoreLibrary.ReserveData storage reserve = reserves[_reserve];\n\n        require(\n            reserve.lastLiquidityCumulativeIndex > 0 &&\n            reserve.lastVariableBorrowCumulativeIndex > 0,\n            \"Reserve has not been initialized yet\"\n        );\n        reserve.isActive = true;\n    }\n\n    function deactivateReserve(address _reserve) external onlyLendingPoolConfigurator {\n        CoreLibrary.ReserveData storage reserve = reserves[_reserve];\n        reserve.isActive = false;\n    }\n\n\n    /***************\n    @dev functions to update available collaterals\n    @dev the interest rate and the ltv are expressed in percentage\n     */\n\n    function setReserveBaseLTVasCollateral(address _reserve, uint256 _ltv)\n        external\n        onlyLendingPoolConfigurator {\n        CoreLibrary.ReserveData storage reserve = reserves[_reserve];\n        reserve.baseLTVasCollateral = _ltv;\n    }\n\n    function setReserveLiquidationThreshold(address _reserve, uint256 _threshold)\n        external\n        onlyLendingPoolConfigurator\n    {\n        CoreLibrary.ReserveData storage reserve = reserves[_reserve];\n        reserve.liquidationThreshold = _threshold;\n    }\n\n    function setReserveLiquidationDiscount(address _reserve, uint256 _discount)\n        external\n        onlyLendingPoolConfigurator\n    {\n        CoreLibrary.ReserveData storage reserve = reserves[_reserve];\n        reserve.liquidationDiscount = _discount;\n    }\n\n    /**\n    @notice ETH/token transfer functions\n     */\n    function() external payable {\n        //only contracts can send ETH to the core\n        require(msg.sender.isContract(), \"Only contracts can send ether to the Lending pool core\");\n\n    }\n\n    function transferToUser(address _reserve, address payable _user, uint256 _amount) external onlyLendingPool {\n        if (_reserve != ethereumAddress){\n            ERC20(_reserve).safeTransfer(_user, _amount);\n        }\n        else {\n            _user.transfer(_amount);\n        }\n    }\n\n    function transferToFeeCollectionAddress(address _token, address _user, uint256 _amount, address destination)\n        external\n        payable\n        onlyLendingPool\n    {\n        address payable feeAddress = address(uint160(destination)); //cast the address to payable\n\n        if (_token != ethereumAddress) {\n            ERC20(_token).safeTransferFrom(_user, feeAddress, _amount);\n        } else {\n            require(msg.value >= _amount, \"The amount and the value sent to deposit do not match\");\n            feeAddress.transfer(_amount);\n        }\n    }\n\n    function transferToReserve(address _reserve, address payable _user, uint256 _amount) external payable onlyLendingPool {\n        CoreLibrary.ReserveData storage reserve = reserves[_reserve];\n\n        require(\n            reserve.usageAsCollateralEnabled || reserve.borrowingEnabled,\n            \"The reserve isn't enabled for borrowing or as collateral\"\n        );\n\n        if (_reserve != ethereumAddress){\n            require(msg.value == 0, \"User is sending ETH along with the ERC20 transfer. Check the value attribute of the transaction\");\n            ERC20(_reserve).safeTransferFrom(_user, address(this), _amount);\n\n        }\n        else {\n            require(msg.value >= _amount, \"The amount and the value sent to deposit do not match\");\n\n            if(msg.value > _amount) { //send back excess ETH\n                uint256 excessAmount = msg.value.sub(_amount);\n                _user.transfer(excessAmount);\n            }\n        }\n    }\n\n    /**\n    @notice internal functions\n     */\n\n\n    function refreshConfigInternal() internal {\n\n        ethereumAddress = INetworkMetadataProvider(addressesProvider.getNetworkMetadataProvider()).getEthereumAddress();\n        lendingPoolAddress = addressesProvider.getLendingPool();\n    }\n\n    function addReserveToListInternal(address _reserve) internal {\n        bool reserveAlreadyAdded = false;\n        for (uint256 i = 0; i < reservesList.length; i++)\n            if (reservesList[i] == _reserve) {\n                reserveAlreadyAdded = true;\n            }\n        if (!reserveAlreadyAdded) reservesList.push(_reserve);\n    }\n\n}\n",
  "sourcePath": "/src/contracts/lendingpool/LendingPoolCore.sol",
  "compiler": {
    "name": "solc",
    "version": "0.5.6+commit.b259423e.Emscripten.clang"
  },
  "schemaVersion": "3.0.15",
  "updatedAt": "2019-11-02T17:58:20.580Z",
  "devdoc": {
    "author": "Aave",
    "methods": {
      "getReserveConfiguration(address)": {
        "details": "this function aggregates the configuration parameters of the reserve.     It's used in the LendingPoolDataProvider specifically to save gas, and avoid     multiple external contract calls to fetch the same data."
      },
      "getReserveInterestRateStrategyAddress(address)": {
        "details": "reserve accessors********************"
      },
      "getReserveUtilizationRate(address)": {
        "details": "utility functions"
      },
      "isOwner()": {
        "details": "Returns true if the caller is the current owner."
      },
      "isUserUseReserveAsCollateralEnabled(address,address)": {
        "details": "user accessors*****************"
      },
      "owner()": {
        "details": "Returns the address of the current owner."
      },
      "renounceOwnership()": {
        "details": "Leaves the contract without owner. It will not be possible to call `onlyOwner` functions anymore. Can only be called by the current owner.     * > Note: Renouncing ownership will leave the contract without an owner, thereby removing any functionality that is only available to the owner."
      },
      "setAddressesProvider(address)": {
        "details": "Core configuration functions"
      },
      "setReserveBaseLTVasCollateral(address,uint256)": {
        "details": "functions to update available collateralsthe interest rate and the ltv are expressed in percentage"
      },
      "transferOwnership(address)": {
        "details": "Transfers ownership of the contract to a new account (`newOwner`). Can only be called by the current owner."
      },
      "updateReserveTotalBorrowsByRateMode(address,address,uint256,uint256,uint8,uint256)": {
        "details": "increases the proper total borrows on a reserve depending on the type of interest rate chosen by the user**************"
      },
      "updateUserFixedBorrowRate(address,address)": {
        "details": "updates the fixed borrow rate for the user******************"
      },
      "updateUserLastVariableBorrowCumulativeIndex(address,address)": {
        "details": "functions to update users reserve data"
      }
    },
    "title": "LendingPoolCore contract"
  },
  "userdoc": {
    "methods": {
      "cumulateLiquidityToReserveLiquidityIndex(address,uint256)": {
        "notice": "cumulates a fixed amount of liquidity to the reserve, considered as a specific interest accrued in one block. Please refer to the whitepaper for further information."
      },
      "decreaseReserveTotalBorrowsFixedAndUpdateAverageRate(address,uint256,uint256)": {
        "notice": "decreases the total borrow fixed of a reserve Bf and updates the average fixed borrow rate Raf. Please refer to the whitepaper for further information."
      },
      "decreaseReserveTotalBorrowsVariable(address,uint256)": {
        "notice": "decreases the the total borrow variable of a reserve Bv."
      },
      "decreaseReserveTotalLiquidity(address,uint256)": {
        "notice": "decreases the total liquidity Lt of a reserve"
      },
      "getReserveInterestRateStrategyAddress(address)": {
        "notice": "*******************"
      },
      "increaseReserveTotalBorrowsFixedAndUpdateAverageRate(address,uint256,uint256)": {
        "notice": "increases the total borrow fixed of a reserve Bf and updates the average fixed borrow rate Raf. Please refer to the whitepaper for further information."
      },
      "increaseReserveTotalBorrowsVariable(address,uint256)": {
        "notice": "increases the the total borrow variable of a reserve Bv."
      },
      "increaseReserveTotalLiquidity(address,uint256)": {
        "notice": "increases the total liquidity Lt of a reserve"
      },
      "isUserUseReserveAsCollateralEnabled(address,address)": {
        "notice": "****************"
      },
      "setReserveBaseLTVasCollateral(address,uint256)": {
        "notice": "*************"
      },
      "setReserveLastUpdate(address)": {
        "notice": "refreshes reserve last updated block number Bl"
      },
      "updateReserveCumulativeIndexes(address)": {
        "notice": "Updates the reserve Liquidity cumulative interest Ci and the Variable borrows cumulative index Bvc. Please refer to the whitepaper for further information."
      },
      "updateReserveInterestRates(address)": {
        "notice": "Updates the reserve current fixed borrow rate Rf, the current variable borrow rate Rv and the current liquidity rate Rl. Please refer to the whitepaper for further information."
      },
      "updateReserveTotalBorrowsByRateMode(address,address,uint256,uint256,uint8,uint256)": {
        "notice": "*************"
      },
      "updateUserFixedBorrowRate(address,address)": {
        "notice": "****************"
      },
      "updateUserLastVariableBorrowCumulativeIndex(address,address)": {
        "notice": "*************"
      }
    },
    "notice": "***********************************************************************************Contains all the data and the funds deposited into a lending pool************************************************************************************"
  }
}