{
  "contractName": "LendingPoolLiquidationManager",
  "abi": [
    {
      "constant": true,
      "inputs": [],
      "name": "addressesProvider",
      "outputs": [
        {
          "name": "",
          "type": "address"
        }
      ],
      "payable": false,
      "stateMutability": "view",
      "type": "function"
    },
    {
      "anonymous": false,
      "inputs": [],
      "name": "LiquidationCompleted",
      "type": "event"
    },
    {
      "constant": false,
      "inputs": [
        {
          "name": "_collateral",
          "type": "address"
        },
        {
          "name": "_reserve",
          "type": "address"
        },
        {
          "name": "_user",
          "type": "address"
        },
        {
          "name": "_purchaseAmount",
          "type": "uint256"
        },
        {
          "name": "_receiveAToken",
          "type": "bool"
        }
      ],
      "name": "liquidationCall",
      "outputs": [
        {
          "name": "",
          "type": "uint256"
        },
        {
          "name": "",
          "type": "string"
        }
      ],
      "payable": true,
      "stateMutability": "payable",
      "type": "function"
    }
  ],
  "bytecode": "0x6080604052600160005561169b806100186000396000f3fe6080604052600436106100285760003560e01c8062a718a91461002d578063c72c4d10146100f0575b600080fd5b610071600480360360a081101561004357600080fd5b506001600160a01b038135811691602081013582169160408201351690606081013590608001351515610121565b6040518083815260200180602001828103825283818151815260200191508051906020019080838360005b838110156100b457818101518382015260200161009c565b50505050905090810190601f1680156100e15780820380516001836020036101000a031916815260200191505b50935050505060405180910390f35b3480156100fc57600080fd5b50610105611135565b604080516001600160a01b039092168252519081900360200190f35b6000606061012d611513565b60035460408051600160e01b632c6d0e9b0281526001600160a01b03898116600483015291519190921691632c6d0e9b9160248083019260c0929190829003018186803b15801561017d57600080fd5b505afa158015610191573d6000803e3d6000fd5b505050506040513d60c08110156101a757600080fd5b5060a00151815260035460408051600160e31b6307c897dd02815290516001600160a01b0390921691633e44bee891600480820192602092909190829003018186803b1580156101f657600080fd5b505afa15801561020a573d6000803e3d6000fd5b505050506040513d602081101561022057600080fd5b505181511061024e57600460405180606001604052806028815260200161161e60289139925092505061112b565b60035460408051600160e11b630c526de50281526001600160a01b038b811660048301528981166024830152915191909216916318a4dbca916044808301926020929190829003018186803b1580156102a657600080fd5b505afa1580156102ba573d6000803e3d6000fd5b505050506040513d60208110156102d057600080fd5b50516020820181905261031c57505060408051808201909152601f81527f496e76616c696420636f6c6c61746572616c20746f206c69717569646174650060208201526001915061112b565b60025460408051600160e11b630c7cddd70281526001600160a01b038b81166004830152915191909216916318f9bbae916024808301926020929190829003018186803b15801561036c57600080fd5b505afa158015610380573d6000803e3d6000fd5b505050506040513d602081101561039657600080fd5b505180610424575060025460408051600160e01b639e3c4f3b0281526001600160a01b038b81166004830152898116602483015291519190921691639e3c4f3b916044808301926020929190829003018186803b1580156103f657600080fd5b505afa15801561040a573d6000803e3d6000fd5b505050506040513d602081101561042057600080fd5b5051155b151561014082018190526104575760026040518060600160405280602b815260200161159f602b9139925092505061112b565b60025460408051600160e01b639fb8afcd0281526001600160a01b038a81166004830152898116602483015291519190921691639fb8afcd916044808301926060929190829003018186803b1580156104af57600080fd5b505afa1580156104c3573d6000803e3d6000fd5b505050506040513d60608110156104d957600080fd5b50602081015160409182015160608401529082018190526105195760036040518060600160405280602a8152602001611646602a9139925092505061112b565b61054260646105366032846040015161114490919063ffffffff16565b9063ffffffff6111a916565b608082018190528511610555578461055b565b80608001515b8160a001818152505060008061057b8a8a8560a001518660200151611216565b915091508260a001518110156105935760a083018190525b8561064b5760025460408051600160e01b63e24030190281526001600160a01b038d811660048301529151600093929092169163e240301991602480820192602092909190829003018186803b1580156105ec57600080fd5b505afa158015610600573d6000803e3d6000fd5b505050506040513d602081101561061657600080fd5b505190508281106106495760056040518060600160405280603381526020016115eb60339139955095505050505061112b565b505b60025460408051600160e11b63246fe0b70281526001600160a01b038c81166004830152915191909216916348dfc16e91602480830192600092919082900301818387803b15801561069c57600080fd5b505af11580156106b0573d6000803e3d6000fd5b505060025460408051600160e01b631ca19f190281526001600160a01b038e811660048301528d81166024830152915160009550919092169250631ca19f1991604480820192602092909190829003018186803b15801561071057600080fd5b505afa158015610724573d6000803e3d6000fd5b505050506040513d602081101561073a57600080fd5b5051600254606086015160408051600160e41b6308e65a6b0281526001600160a01b038f8116600483015260248201939093529051939450911691638e65a6b09160448082019260009290919082900301818387803b15801561079c57600080fd5b505af11580156107b0573d6000803e3d6000fd5b50600092506107bd915050565b8160018111156107c957fe5b14156108ff5760025460408051600160e01b6344e636b70281526001600160a01b038d811660048301528c81166024830152915160009392909216916344e636b791604480820192602092909190829003018186803b15801561082b57600080fd5b505afa15801561083f573d6000803e3d6000fd5b505050506040513d602081101561085557600080fd5b5051600254606087015160a08801519293506001600160a01b039091169163b6e1f702918e9161088a9163ffffffff6114b316565b846040518463ffffffff1660e01b815260040180846001600160a01b03166001600160a01b031681526020018381526020018281526020019350505050600060405180830381600087803b1580156108e157600080fd5b505af11580156108f5573d6000803e3d6000fd5b5050505050610997565b600254606085015160a08601516001600160a01b039092169163cc6ae763918d9161092f9163ffffffff6114b316565b6040518363ffffffff1660e01b815260040180836001600160a01b03166001600160a01b0316815260200182815260200192505050600060405180830381600087803b15801561097e57600080fd5b505af1158015610992573d6000803e3d6000fd5b505050505b60025460408051600160e01b6342bbd6530281526001600160a01b038d81166004830152915191909216916342bbd65391602480830192600092919082900301818387803b1580156109e857600080fd5b505af11580156109fc573d6000803e3d6000fd5b505060025460408051600160e01b632717cbfb0281526001600160a01b038f811660048301529151919092169350632717cbfb9250602480830192600092919082900301818387803b158015610a5157600080fd5b505af1158015610a65573d6000803e3d6000fd5b5050600254606087015160a08801516001600160a01b03909216935063a37b195792508d918d91610a9c919063ffffffff6114b316565b6040805163ffffffff861660e01b81526001600160a01b03948516600482015292909316602483015260448201529051606480830192600092919082900301818387803b158015610aec57600080fd5b505af1158015610b00573d6000803e3d6000fd5b505060025460408051600160e01b63405300df0281526001600160a01b038f811660048301528e81166024830152915191909216935063405300df9250604480830192600092919082900301818387803b158015610b5d57600080fd5b505af1158015610b71573d6000803e3d6000fd5b50505050600260009054906101000a90046001600160a01b03166001600160a01b03166348dfc16e8c6040518263ffffffff1660e01b815260040180826001600160a01b03166001600160a01b03168152602001915050600060405180830381600087803b158015610be257600080fd5b505af1158015610bf6573d6000803e3d6000fd5b505050506000600260009054906101000a90046001600160a01b03166001600160a01b03166334b3beee8d6040518263ffffffff1660e01b815260040180826001600160a01b03166001600160a01b0316815260200191505060206040518083038186803b158015610c6757600080fd5b505afa158015610c7b573d6000803e3d6000fd5b505050506040513d6020811015610c9157600080fd5b505160408051600160e41b630b32d4610281526004810187905290519192506000916001600160a01b0384169163b32d4610916024808301926020929190829003018186803b158015610ce357600080fd5b505afa158015610cf7573d6000803e3d6000fd5b505050506040513d6020811015610d0d57600080fd5b505190508815610d8f5760408051600160e01b63f866c3190281526001600160a01b038d811660048301523360248301526044820184905291519184169163f866c3199160648082019260009290919082900301818387803b158015610d7257600080fd5b505af1158015610d86573d6000803e3d6000fd5b50505050610fc1565b816001600160a01b0316633edb7cb88c836040518363ffffffff1660e01b815260040180836001600160a01b03166001600160a01b0316815260200182815260200192505050600060405180830381600087803b158015610def57600080fd5b505af1158015610e03573d6000803e3d6000fd5b50505050600260009054906101000a90046001600160a01b03166001600160a01b031663352ed9d48e876040518363ffffffff1660e01b815260040180836001600160a01b03166001600160a01b0316815260200182815260200192505050600060405180830381600087803b158015610e7c57600080fd5b505af1158015610e90573d6000803e3d6000fd5b50505050600260009054906101000a90046001600160a01b03166001600160a01b03166342bbd6538e6040518263ffffffff1660e01b815260040180826001600160a01b03166001600160a01b03168152602001915050600060405180830381600087803b158015610f0157600080fd5b505af1158015610f15573d6000803e3d6000fd5b50505050600260009054906101000a90046001600160a01b03166001600160a01b031663fa93b2a58e33886040518463ffffffff1660e01b815260040180846001600160a01b03166001600160a01b03168152602001836001600160a01b03166001600160a01b031681526020018281526020019350505050600060405180830381600087803b158015610fa857600080fd5b505af1158015610fbc573d6000803e3d6000fd5b505050505b600260009054906101000a90046001600160a01b03166001600160a01b0316632717cbfb8e6040518263ffffffff1660e01b815260040180826001600160a01b03166001600160a01b03168152602001915050600060405180830381600087803b15801561102e57600080fd5b505af1158015611042573d6000803e3d6000fd5b50505050600260009054906101000a90046001600160a01b03166001600160a01b03166328fcf4d3348e338a60a001516040518563ffffffff1660e01b815260040180846001600160a01b03166001600160a01b03168152602001836001600160a01b03166001600160a01b0316815260200182815260200193505050506000604051808303818588803b1580156110d957600080fd5b505af11580156110ed573d6000803e3d6000fd5b50600093506110fb92505050565b604051806040016040528060098152602001600160b81b684e6f206572726f727302815250975097505050505050505b9550959350505050565b6001546001600160a01b031681565b600082611153575060006111a3565b8282028284828161116057fe5b04146111a057604051600160e51b62461bcd0281526004018080602001828103825260218152602001806115ca6021913960400191505060405180910390fd5b90505b92915050565b60008082116112025760408051600160e51b62461bcd02815260206004820152601a60248201527f536166654d6174683a206469766973696f6e206279207a65726f000000000000604482015290519081900360640190fd5b600082848161120d57fe5b04949350505050565b60015460408051600160e31b631f94a2750281529051600092839283926001600160a01b039092169163fca513a891600480820192602092909190829003018186803b15801561126557600080fd5b505afa158015611279573d6000803e3d6000fd5b505050506040513d602081101561128f57600080fd5b5051905061129b61156f565b816001600160a01b031663b3596f07896040518263ffffffff1660e01b815260040180826001600160a01b03166001600160a01b0316815260200191505060206040518083038186803b1580156112f157600080fd5b505afa158015611305573d6000803e3d6000fd5b505050506040513d602081101561131b57600080fd5b50516040808301919091528051600160e01b63b3596f070281526001600160a01b03898116600483015291519184169163b3596f0791602480820192602092909190829003018186803b15801561137157600080fd5b505afa158015611385573d6000803e3d6000fd5b505050506040513d602081101561139b57600080fd5b5051606082015260025460408051600160e31b6316ef632b0281526001600160a01b038b811660048301529151919092169163b77b1958916024808301926020929190829003018186803b1580156113f257600080fd5b505afa158015611406573d6000803e3d6000fd5b505050506040513d602081101561141c57600080fd5b50516020820181905260408201516060830151611459926064926105369261144d919084908d63ffffffff61114416565b9063ffffffff61114416565b6080820181905285101561149d578493506114968160200151610536606461144d85606001516105368a886040015161114490919063ffffffff16565b92506114a8565b806080015193508592505b505094509492505050565b60008282111561150d5760408051600160e51b62461bcd02815260206004820152601e60248201527f536166654d6174683a207375627472616374696f6e206f766572666c6f770000604482015290519081900360640190fd5b50900390565b604051806101600160405280600081526020016000815260200160008152602001600081526020016000815260200160008152602001600081526020016000815260200160008152602001600081526020016000151581525090565b6040518060a001604052806000815260200160008152602001600081526020016000815260200160008152509056fe54686520636f6c6c61746572616c2063686f73656e2063616e6e6f74206265206c69757175696461746564536166654d6174683a206d756c7469706c69636174696f6e206f766572666c6f7754686572652069736e277420656e6f756768206c697175696469747920617661696c61626c6520746f206c69717569646174654865616c746820666163746f72206973206e6f742062656c6f7720746865207468726573686f6c645573657220646964206e6f7420626f72726f7720746865207370656369666965642063757272656e6379a165627a7a72305820b0cde2a8c5ca5c6e961e0746d50c5ba7c1e542d783505feb1987287744fd05350029",
  "source": "pragma solidity ^0.5.0;\n\n\nimport \"openzeppelin-solidity/contracts/math/SafeMath.sol\";\nimport \"openzeppelin-solidity/contracts/utils/ReentrancyGuard.sol\";\nimport \"openzeppelin-solidity/contracts/utils/Address.sol\";\nimport \"openzeppelin-solidity/contracts/token/ERC20/IERC20.sol\";\n\nimport \"../configuration/LendingPoolAddressesProvider.sol\";\nimport \"../configuration/LendingPoolParametersProvider.sol\";\nimport \"../configuration/NetworkMetadataProvider.sol\";\nimport \"../tokenization/AToken.sol\";\nimport \"../libraries/CoreLibrary.sol\";\nimport \"../libraries/WadRayMath.sol\";\nimport \"../interfaces/IFeeProvider.sol\";\nimport \"../flashloan/interfaces/IFlashLoanReceiver.sol\";\nimport \"./LendingPoolCore.sol\";\nimport \"./LendingPoolDataProvider.sol\";\n\n\n\n/*************************************************************************************\n@title LiquidationManager contract\n@author Aave\n@notice Implements the actions of the LendingPool, and exposes accessory methods to access the core information\n *************************************************************************************/\n\n\ncontract LendingPoolLiquidationManager is ReentrancyGuard {\n\n    using SafeMath for uint256;\n    using WadRayMath for uint256;\n    using Address for address payable;\n\n    LendingPoolAddressesProvider public addressesProvider;\n    LendingPoolCore core;\n    LendingPoolDataProvider dataProvider;\n    LendingPoolParametersProvider parametersProvider;\n\n\n    uint256 constant LIQUIDATION_CLOSE_FACTOR_PERCENT = 50;\n    enum LiquidationErrors {\n        NO_ERROR,\n        NO_COLLATERAL_AVAILABLE,\n        COLLATERAL_CANNOT_BE_LIQUIDATED,\n        CURRRENCY_NOT_BORROWED,\n        HEALTH_FACTOR_ABOVE_THRESHOLD,\n        NOT_ENOUGH_LIQUIDITY\n    }\n\n    event LiquidationCompleted();\n\n    struct LiquidationCallLocalVars{\n        uint256 healthFactor;\n        uint256 userCollateralBalance;\n        uint256 userCompoundedBorrowBalance;\n        uint256 borrowBalanceIncrease;\n        uint256 maxPrincipalAmountToLiquidate;\n        uint256 actualAmountToLiquidate;\n        uint256 liquidationRatio;\n        uint256 collateralPrice;\n        uint256 principalCurrencyPrice;\n        uint256 maxAmountCollateralToLiquidate;\n        bool isCollateralEnabled;\n\n    }\n\n   /**\n    * @notice implements loan liquidation\n    * @dev _receiveAToken allows the liquidators to receive the aTokens, instead of the underlying asset.\n    */\n    function liquidationCall(address _collateral, address _reserve, address _user, uint256 _purchaseAmount, bool _receiveAToken)\n       external\n        payable\n        returns(uint256, string memory)\n    {\n        LiquidationCallLocalVars memory vars;\n\n        (,,,,,vars.healthFactor) = dataProvider.calculateUserGlobalData(_user);\n\n        if(vars.healthFactor >= dataProvider.getHealthFactorLiquidationThreshold()){\n            return (uint256(LiquidationErrors.HEALTH_FACTOR_ABOVE_THRESHOLD), \"Health factor is not below the threshold\");\n        }\n\n        vars.userCollateralBalance = dataProvider.getUserUnderlyingAssetBalance(_collateral, _user);\n\n        //if _user hasn't deposited this specific collateral, nothing can be liquidated\n        if(vars.userCollateralBalance == 0) {\n            return (uint256(LiquidationErrors.NO_COLLATERAL_AVAILABLE), \"Invalid collateral to liquidate\");\n        }\n\n        vars.isCollateralEnabled = core.isReserveUsageAsCollateralEnabled(_collateral) ||\n            !core.isUserUseReserveAsCollateralEnabled(_collateral, _user);\n\n        //if _collateral isn't enabled as collateral by _user, it cannot be liquidated\n        if(!vars.isCollateralEnabled) {\n            return (uint256(LiquidationErrors.COLLATERAL_CANNOT_BE_LIQUIDATED), \"The collateral chosen cannot be liuquidated\");\n        }\n\n        //if the user hasn't borrowed the specific currency defined by _reserve, it cannot be liquidated\n        (,vars.userCompoundedBorrowBalance,vars.borrowBalanceIncrease) = core.getUserBorrowBalances(_reserve, _user);\n\n        if(vars.userCompoundedBorrowBalance == 0){\n            return (uint256(LiquidationErrors.CURRRENCY_NOT_BORROWED), \"User did not borrow the specified currency\");\n        }\n\n        //all clear - calculate the max principal amount that can be liquidated\n        vars.maxPrincipalAmountToLiquidate = vars.userCompoundedBorrowBalance.mul(LIQUIDATION_CLOSE_FACTOR_PERCENT).div(100);\n\n        vars.actualAmountToLiquidate = _purchaseAmount > vars.maxPrincipalAmountToLiquidate\n            ?\n            vars.maxPrincipalAmountToLiquidate\n            :\n            _purchaseAmount;\n\n        (uint256 maxCollateralToLiquidate,\n        uint256 principalAmountNeeded) = calculateAvailableCollateralToLiquidate(_collateral, _reserve, vars.actualAmountToLiquidate, vars.userCollateralBalance);\n\n        //if principalAmountNeeded < vars.ActualAmountToLiquidate, there isn't enough\n        //of _collateral to cover the actual amount that is being liquidated, hence we liquidate\n        //a smaller amount\n\n        if(principalAmountNeeded < vars.actualAmountToLiquidate){\n            vars.actualAmountToLiquidate = principalAmountNeeded;\n        }\n\n        //if liquidator reclaims the underlying asset, we make sure there is enough available collateral in the reserve\n        if(!_receiveAToken){\n            uint256 currentAvailableCollateral = core.getReserveAvailableLiquidity(_collateral);\n            if(currentAvailableCollateral >= maxCollateralToLiquidate){\n                return (uint256(LiquidationErrors.NOT_ENOUGH_LIQUIDITY), \"There isn't enough liquidity available to liquidate\");\n            }\n        }\n\n        //update principal reserve data\n        core.updateReserveCumulativeIndexes(_reserve);\n\n        CoreLibrary.InterestRateMode borrowRateMode = core.getUserCurrentBorrowRateMode(_reserve,_user);\n\n        core.increaseReserveTotalLiquidity(_reserve, vars.borrowBalanceIncrease);\n\n        if (borrowRateMode == CoreLibrary.InterestRateMode.FIXED) {\n            uint256 currentFixedRate = core.getUserCurrentFixedBorrowRate(_reserve, _user);\n            core.decreaseReserveTotalBorrowsFixedAndUpdateAverageRate(_reserve, vars.actualAmountToLiquidate.sub(vars.borrowBalanceIncrease), currentFixedRate);\n        } else {\n            core.decreaseReserveTotalBorrowsVariable(_reserve, vars.actualAmountToLiquidate.sub(vars.borrowBalanceIncrease));\n        }\n\n        core.updateReserveInterestRates(_reserve);\n        core.setReserveLastUpdate(_reserve);\n        //step 3: update user borrow data\n        core.decreaseUserPrincipalBorrowBalance(_reserve, _user, vars.actualAmountToLiquidate.sub(vars.borrowBalanceIncrease));\n        core.setUserLastUpdate(_reserve,_user);\n\n        //update collateral reserve\n        core.updateReserveCumulativeIndexes(_collateral);\n        AToken collateralAtoken = AToken(core.getReserveATokenAddress(_collateral));\n\n        //calculating aToken equivalent amount from vars.\n        uint256 aTokenCollateralToLiquidate = collateralAtoken.underlyingAmountToATokenAmount(maxCollateralToLiquidate);\n\n        //if liquidator reclaims the aToken, he receives the equivalent atoken amount\n        if(_receiveAToken) {\n            collateralAtoken.transferOnLiquidation(_user, msg.sender, aTokenCollateralToLiquidate);\n        }\n        else { //otherwise receives the underlying asset\n            //burn the equivalent amount of atoken\n            collateralAtoken.burnOnLiquidation(_user, aTokenCollateralToLiquidate);\n            core.decreaseReserveTotalLiquidity(_collateral, maxCollateralToLiquidate);\n            core.updateReserveInterestRates(_collateral);\n            core.transferToUser(_collateral, msg.sender, maxCollateralToLiquidate);\n         }\n\n        core.setReserveLastUpdate(_collateral);\n\n        //transfers the principal currency to the pool\n\n        core.transferToReserve.value(msg.value)(_reserve, msg.sender, vars.actualAmountToLiquidate);\n\n        return (uint256(LiquidationErrors.NO_ERROR), \"No errors\");\n    }\n\n\n\n    struct AvailableCollateralToLiquidateLocalVars{\n        uint256 userCompoundedBorrowBalance;\n        uint256 liquidationDiscount;\n        uint256 collateralPrice;\n        uint256 principalCurrencyPrice;\n        uint256 maxAmountCollateralToLiquidate;\n    }\n\n    /**\n    * @notice calculates how much of a specific collateral can be liquidated, given\n    * a certain amount of principal currency.\n    * @dev this function needs to be called after all the checks to validate the liquidation\n    * have been performed, otherwise it might fail.\n     */\n    function calculateAvailableCollateralToLiquidate(\n        address _collateral,\n        address _principal,\n        uint256 _purchaseAmount,\n        uint256 _userCollateralBalance) internal view returns(uint256 collateralAmount, uint256 principalAmountNeeded) {\n\n        collateralAmount = 0;\n        principalAmountNeeded = 0;\n        IPriceOracle oracle = IPriceOracle(addressesProvider.getPriceOracle());\n\n        AvailableCollateralToLiquidateLocalVars memory vars;\n\n        vars.collateralPrice = oracle.getAssetPrice(_collateral);\n        vars.principalCurrencyPrice = oracle.getAssetPrice(_principal);\n        vars.liquidationDiscount = core.getReserveLiquidationDiscount(_collateral);\n\n        //this is the maximum possible amount of the selected collateral that can be liquidated, given the\n        //max amount of principal currency that is available for liquidation.\n        vars.maxAmountCollateralToLiquidate = vars.principalCurrencyPrice.mul(_purchaseAmount)\n            .div(vars.collateralPrice)\n            .mul(vars.liquidationDiscount)\n            .div(100);\n\n        if(vars.maxAmountCollateralToLiquidate > _userCollateralBalance) {\n            collateralAmount = _userCollateralBalance;\n            principalAmountNeeded = vars.collateralPrice\n                .mul(collateralAmount)\n                .div(vars.principalCurrencyPrice)\n                .mul(100)\n                .div(vars.liquidationDiscount);\n        }\n        else{\n            collateralAmount = vars.maxAmountCollateralToLiquidate;\n            principalAmountNeeded = _purchaseAmount;\n        }\n\n        return (collateralAmount, principalAmountNeeded);\n    }\n}",
  "sourcePath": "/src/contracts/lendingpool/LendingPoolLiquidationManager.sol",
  "compiler": {
    "name": "solc",
    "version": "0.5.6+commit.b259423e.Emscripten.clang"
  },
  "schemaVersion": "3.0.15",
  "updatedAt": "2019-11-02T17:58:17.470Z",
  "devdoc": {
    "author": "Aave",
    "methods": {
      "liquidationCall(address,address,address,uint256,bool)": {
        "details": "_receiveAToken allows the liquidators to receive the aTokens, instead of the underlying asset."
      }
    },
    "title": "LiquidationManager contract"
  },
  "userdoc": {
    "methods": {
      "liquidationCall(address,address,address,uint256,bool)": {
        "notice": "implements loan liquidation"
      }
    },
    "notice": "***********************************************************************************Implements the actions of the LendingPool, and exposes accessory methods to access the core information************************************************************************************"
  }
}