{
  "contractName": "LendingPoolAddressesProvider",
  "abi": [
    {
      "constant": true,
      "inputs": [
        {
          "name": "_key",
          "type": "bytes32"
        }
      ],
      "name": "getAddress",
      "outputs": [
        {
          "name": "",
          "type": "address"
        }
      ],
      "payable": false,
      "stateMutability": "view",
      "type": "function"
    },
    {
      "anonymous": false,
      "inputs": [
        {
          "indexed": true,
          "name": "newAddress",
          "type": "address"
        }
      ],
      "name": "LendingPoolUpdated",
      "type": "event"
    },
    {
      "anonymous": false,
      "inputs": [
        {
          "indexed": true,
          "name": "newAddress",
          "type": "address"
        }
      ],
      "name": "LendingPoolCoreUpdated",
      "type": "event"
    },
    {
      "anonymous": false,
      "inputs": [
        {
          "indexed": true,
          "name": "newAddress",
          "type": "address"
        }
      ],
      "name": "LendingPoolParametersProviderUpdated",
      "type": "event"
    },
    {
      "anonymous": false,
      "inputs": [
        {
          "indexed": true,
          "name": "newAddress",
          "type": "address"
        }
      ],
      "name": "LendingPoolManagerUpdated",
      "type": "event"
    },
    {
      "anonymous": false,
      "inputs": [
        {
          "indexed": true,
          "name": "newAddress",
          "type": "address"
        }
      ],
      "name": "LendingPoolConfiguratorUpdated",
      "type": "event"
    },
    {
      "anonymous": false,
      "inputs": [
        {
          "indexed": true,
          "name": "newAddress",
          "type": "address"
        }
      ],
      "name": "LendingPoolLiquidationManagerUpdated",
      "type": "event"
    },
    {
      "anonymous": false,
      "inputs": [
        {
          "indexed": true,
          "name": "newAddress",
          "type": "address"
        }
      ],
      "name": "LendingPoolDataProviderUpdated",
      "type": "event"
    },
    {
      "anonymous": false,
      "inputs": [
        {
          "indexed": true,
          "name": "newAddress",
          "type": "address"
        }
      ],
      "name": "LendingPoolNetworkMetadataProviderUpdated",
      "type": "event"
    },
    {
      "anonymous": false,
      "inputs": [
        {
          "indexed": true,
          "name": "newAddress",
          "type": "address"
        }
      ],
      "name": "PriceOracleUpdated",
      "type": "event"
    },
    {
      "anonymous": false,
      "inputs": [
        {
          "indexed": true,
          "name": "newAddress",
          "type": "address"
        }
      ],
      "name": "LendingRateOracleUpdated",
      "type": "event"
    },
    {
      "anonymous": false,
      "inputs": [
        {
          "indexed": true,
          "name": "newAddress",
          "type": "address"
        }
      ],
      "name": "FeeProviderUpdated",
      "type": "event"
    },
    {
      "anonymous": false,
      "inputs": [
        {
          "indexed": true,
          "name": "newAddress",
          "type": "address"
        }
      ],
      "name": "InterestRrateStrategyUpdated",
      "type": "event"
    },
    {
      "constant": true,
      "inputs": [],
      "name": "getLendingPool",
      "outputs": [
        {
          "name": "",
          "type": "address"
        }
      ],
      "payable": false,
      "stateMutability": "view",
      "type": "function"
    },
    {
      "constant": false,
      "inputs": [
        {
          "name": "_pool",
          "type": "address"
        }
      ],
      "name": "setLendingPool",
      "outputs": [],
      "payable": false,
      "stateMutability": "nonpayable",
      "type": "function"
    },
    {
      "constant": true,
      "inputs": [],
      "name": "getInterestRateStrategy",
      "outputs": [
        {
          "name": "",
          "type": "address"
        }
      ],
      "payable": false,
      "stateMutability": "view",
      "type": "function"
    },
    {
      "constant": false,
      "inputs": [
        {
          "name": "_strategy",
          "type": "address"
        }
      ],
      "name": "setInterestRateStrategy",
      "outputs": [],
      "payable": false,
      "stateMutability": "nonpayable",
      "type": "function"
    },
    {
      "constant": true,
      "inputs": [],
      "name": "getLendingPoolCore",
      "outputs": [
        {
          "name": "",
          "type": "address"
        }
      ],
      "payable": false,
      "stateMutability": "view",
      "type": "function"
    },
    {
      "constant": false,
      "inputs": [
        {
          "name": "_lendingPoolCore",
          "type": "address"
        }
      ],
      "name": "setLendingPoolCore",
      "outputs": [],
      "payable": false,
      "stateMutability": "nonpayable",
      "type": "function"
    },
    {
      "constant": true,
      "inputs": [],
      "name": "getLendingPoolConfigurator",
      "outputs": [
        {
          "name": "",
          "type": "address"
        }
      ],
      "payable": false,
      "stateMutability": "view",
      "type": "function"
    },
    {
      "constant": false,
      "inputs": [
        {
          "name": "_configurator",
          "type": "address"
        }
      ],
      "name": "setLendingPoolConfigurator",
      "outputs": [],
      "payable": false,
      "stateMutability": "nonpayable",
      "type": "function"
    },
    {
      "constant": true,
      "inputs": [],
      "name": "getLendingPoolManager",
      "outputs": [
        {
          "name": "",
          "type": "address"
        }
      ],
      "payable": false,
      "stateMutability": "view",
      "type": "function"
    },
    {
      "constant": false,
      "inputs": [
        {
          "name": "_lendingPoolManager",
          "type": "address"
        }
      ],
      "name": "setLendingPoolManager",
      "outputs": [],
      "payable": false,
      "stateMutability": "nonpayable",
      "type": "function"
    },
    {
      "constant": true,
      "inputs": [],
      "name": "getLendingPoolDataProvider",
      "outputs": [
        {
          "name": "",
          "type": "address"
        }
      ],
      "payable": false,
      "stateMutability": "view",
      "type": "function"
    },
    {
      "constant": false,
      "inputs": [
        {
          "name": "_provider",
          "type": "address"
        }
      ],
      "name": "setLendingPoolDataProvider",
      "outputs": [],
      "payable": false,
      "stateMutability": "nonpayable",
      "type": "function"
    },
    {
      "constant": true,
      "inputs": [],
      "name": "getNetworkMetadataProvider",
      "outputs": [
        {
          "name": "",
          "type": "address"
        }
      ],
      "payable": false,
      "stateMutability": "view",
      "type": "function"
    },
    {
      "constant": false,
      "inputs": [
        {
          "name": "_networkMetadataProvider",
          "type": "address"
        }
      ],
      "name": "setNetworkMetadataProvider",
      "outputs": [],
      "payable": false,
      "stateMutability": "nonpayable",
      "type": "function"
    },
    {
      "constant": true,
      "inputs": [],
      "name": "getLendingPoolParametersProvider",
      "outputs": [
        {
          "name": "",
          "type": "address"
        }
      ],
      "payable": false,
      "stateMutability": "view",
      "type": "function"
    },
    {
      "constant": false,
      "inputs": [
        {
          "name": "_parametersProvider",
          "type": "address"
        }
      ],
      "name": "setLendingPoolParametersProvider",
      "outputs": [],
      "payable": false,
      "stateMutability": "nonpayable",
      "type": "function"
    },
    {
      "constant": true,
      "inputs": [],
      "name": "getPriceOracle",
      "outputs": [
        {
          "name": "",
          "type": "address"
        }
      ],
      "payable": false,
      "stateMutability": "view",
      "type": "function"
    },
    {
      "constant": false,
      "inputs": [
        {
          "name": "_priceOracle",
          "type": "address"
        }
      ],
      "name": "setPriceOracle",
      "outputs": [],
      "payable": false,
      "stateMutability": "nonpayable",
      "type": "function"
    },
    {
      "constant": true,
      "inputs": [],
      "name": "getLendingRateOracle",
      "outputs": [
        {
          "name": "",
          "type": "address"
        }
      ],
      "payable": false,
      "stateMutability": "view",
      "type": "function"
    },
    {
      "constant": false,
      "inputs": [
        {
          "name": "_lendingRateOracle",
          "type": "address"
        }
      ],
      "name": "setLendingRateOracle",
      "outputs": [],
      "payable": false,
      "stateMutability": "nonpayable",
      "type": "function"
    },
    {
      "constant": true,
      "inputs": [],
      "name": "getFeeProvider",
      "outputs": [
        {
          "name": "",
          "type": "address"
        }
      ],
      "payable": false,
      "stateMutability": "view",
      "type": "function"
    },
    {
      "constant": false,
      "inputs": [
        {
          "name": "_feeProvider",
          "type": "address"
        }
      ],
      "name": "setFeeProvider",
      "outputs": [],
      "payable": false,
      "stateMutability": "nonpayable",
      "type": "function"
    },
    {
      "constant": true,
      "inputs": [],
      "name": "getLendingPoolLiquidationManager",
      "outputs": [
        {
          "name": "",
          "type": "address"
        }
      ],
      "payable": false,
      "stateMutability": "view",
      "type": "function"
    },
    {
      "constant": false,
      "inputs": [
        {
          "name": "_manager",
          "type": "address"
        }
      ],
      "name": "setLendingPoolLiquidationManager",
      "outputs": [],
      "payable": false,
      "stateMutability": "nonpayable",
      "type": "function"
    }
  ],
  "bytecode": "0x608060405234801561001057600080fd5b50610a6c806100206000396000f3fe608060405234801561001057600080fd5b50600436106101735760003560e01c80635834eb9a116100de578063b5722bb511610097578063ed6ff76011610071578063ed6ff760146103bb578063f529a5d0146103c3578063fbeefc3c146103cb578063fca513a8146103d357610173565b8063b5722bb514610367578063c64bdf5a1461036f578063ed1ce3251461039557610173565b80635834eb9a146102bf5780637f65c2ff146102c7578063820d1274146102ed57806385c858b11461031357806387707c221461031b578063acaf79ac1461034157610173565b80632f58b80d116101305780632f58b80d1461023557806333128d591461023d5780633618abba1461024557806340fdcadc1461024d57806344ce375b14610273578063530e784f1461029957610173565b80630261bf8b14610178578063026e76da1461019c57806304061d8e146101c4578063113aa8b1146101cc57806321f8a721146101f25780632a5ad1591461020f575b600080fd5b6101806103db565b604080516001600160a01b039092168252519081900360200190f35b6101c2600480360360208110156101b257600080fd5b50356001600160a01b03166103fd565b005b61018061045e565b6101c2600480360360208110156101e257600080fd5b50356001600160a01b0316610489565b6101806004803603602081101561020857600080fd5b50356104dc565b6101c26004803603602081101561022557600080fd5b50356001600160a01b03166104f7565b610180610558565b610180610576565b6101806105a1565b6101c26004803603602081101561026357600080fd5b50356001600160a01b03166105cc565b6101c26004803603602081101561028957600080fd5b50356001600160a01b031661062d565b6101c2600480360360208110156102af57600080fd5b50356001600160a01b031661068e565b6101806106e1565b6101c2600480360360208110156102dd57600080fd5b50356001600160a01b031661070c565b6101c26004803603602081101561030357600080fd5b50356001600160a01b031661076d565b6101806107ce565b6101c26004803603602081101561033157600080fd5b50356001600160a01b03166107f9565b6101c26004803603602081101561035757600080fd5b50356001600160a01b0316610851565b6101806108b2565b6101c26004803603602081101561038557600080fd5b50356001600160a01b03166108dd565b6101c2600480360360208110156103ab57600080fd5b50356001600160a01b0316610930565b610180610984565b6101806109ad565b6101806109d8565b6101806109f5565b60006103f8600160a21b6b13115391125391d7d413d3d3026104dc565b905090565b6104277f504152414d45544552535f50524f56494445520000000000000000000000000082610a12565b6040516001600160a01b038216907fce16ea9b2fd7cadddd0f7359971028f50b5ddba33dfae1a9bdea956fabb1e28090600090a250565b60006103f87f504152414d45544552535f50524f5649444552000000000000000000000000006104dc565b6104a5600160a21b6b13115391125391d7d413d3d30282610a12565b6040516001600160a01b038216907fc4e6c6cdf28d0edbd8bcf071d724d33cc2e7a30be7d06443925656e9cb492aa490600090a250565b6000908152602081905260409020546001600160a01b031690565b6105217f494e5445524553545f524154455f53545241544547590000000000000000000082610a12565b6040516001600160a01b038216907fd25a3cb0b081c9728496d44769e25abdeec68adff4cef1b5e7748b8918c8e23990600090a250565b60006103f8600160991b6c2220aa20afa82927ab24a222a9026104dc565b60006103f87f4c454e44494e475f504f4f4c5f4d414e414745520000000000000000000000006104dc565b60006103f87f4c454e44494e475f524154455f4f5241434c45000000000000000000000000006104dc565b6105f67f4c454e44494e475f504f4f4c5f4d414e4147455200000000000000000000000082610a12565b6040516001600160a01b038216907fd5280c51185a38d36f7a0f5e56cac6248312bb70d0974782fa5a595127e0e08e90600090a250565b6106577f4c49515549444154494f4e5f4d414e414745520000000000000000000000000082610a12565b6040516001600160a01b038216907f1a76cb769b814bc038223da86932b099b20aae03473683e6d98f5c3554e2606490600090a250565b6106aa600160a01b6b50524943455f4f5241434c450282610a12565b6040516001600160a01b038216907fefe8ab924ca486283a79dc604baa67add51afb82af1db8ac386ebbba643cdffd90600090a250565b60006103f87f4c49515549444154494f4e5f4d414e41474552000000000000000000000000006104dc565b6107367f4e4554574f524b5f4d455441444154415f50524f56494445520000000000000082610a12565b6040516001600160a01b038216907fad2e24f28868b4296c2b1dac9efe6e376dd3395af5e7ecf00715b5bcdb3db51290600090a250565b6107977f4c454e44494e475f524154455f4f5241434c450000000000000000000000000082610a12565b6040516001600160a01b038216907f5c29179aba6942020a8a2d38f65de02fb6b7f784e7f049ed3a3cab97621859b590600090a250565b60006103f87f4c454e44494e475f504f4f4c5f434f4e464947555241544f52000000000000006104dc565b61081a600160781b704c454e44494e475f504f4f4c5f434f52450282610a12565b6040516001600160a01b038216907f71c226bb2879778ca1298196bf7cc1256baee9d05b496c31ee627d35a471b5b790600090a250565b61087b7f4c454e44494e475f504f4f4c5f434f4e464947555241544f520000000000000082610a12565b6040516001600160a01b038216907fdfabe479bad36782fb1e77fbfddd4e382671713527e4786cfc93a022ae76372990600090a250565b60006103f87f4e4554574f524b5f4d455441444154415f50524f5649444552000000000000006104dc565b6108f9600160a11b6b2322a2afa82927ab24a222a90282610a12565b6040516001600160a01b038216907f18e1a55b8eff9c93921eecfa1462d6a8cbb80b3988db3eb14c039e43fdb2266190600090a250565b61094d600160991b6c2220aa20afa82927ab24a222a90282610a12565b6040516001600160a01b038216907f07890d7d10db37434d76ee4f2928fb2dc66227c3b3391206aced4f7bcb59cdb090600090a250565b6000806109a7600160781b704c454e44494e475f504f4f4c5f434f5245026104dc565b91505090565b60006103f87f494e5445524553545f524154455f5354524154454759000000000000000000006104dc565b60006103f8600160a11b6b2322a2afa82927ab24a222a9026104dc565b60006103f8600160a01b6b50524943455f4f5241434c45026104dc565b60009182526020829052604090912080546001600160a01b0319166001600160a01b0390921691909117905556fea165627a7a723058207bb65a0f83816c9ab2876629be3bd35a8b3293d5b3567827b8e1040b3ba85eb00029",
  "source": "pragma solidity ^0.5.0;\n\nimport \"./AddressStorage.sol\";\nimport \"../interfaces/ILendingPoolAddressesProvider.sol\";\n\ncontract LendingPoolAddressesProvider is ILendingPoolAddressesProvider, AddressStorage {\n\n    //events\n    event LendingPoolUpdated(address indexed newAddress);\n    event LendingPoolCoreUpdated(address indexed newAddress);\n    event LendingPoolParametersProviderUpdated(address indexed newAddress);\n    event LendingPoolManagerUpdated(address indexed newAddress);\n    event LendingPoolConfiguratorUpdated(address indexed newAddress);\n    event LendingPoolLiquidationManagerUpdated(address indexed newAddress);\n    event LendingPoolDataProviderUpdated(address indexed newAddress);\n    event LendingPoolNetworkMetadataProviderUpdated(address indexed newAddress);\n    event PriceOracleUpdated(address indexed newAddress);\n    event LendingRateOracleUpdated(address indexed newAddress);\n    event FeeProviderUpdated(address indexed newAddress);\n    event InterestRrateStrategyUpdated(address indexed newAddress);\n\n\n    bytes32 private constant LENDING_POOL = \"LENDING_POOL\";\n    bytes32 private constant LENDING_POOL_CORE = \"LENDING_POOL_CORE\";\n    bytes32 private constant LENDING_POOL_CONFIGURATOR = \"LENDING_POOL_CONFIGURATOR\";\n    bytes32 private constant LENDING_POOL_PARAMETERS_PROVIDER = \"PARAMETERS_PROVIDER\";\n    bytes32 private constant LENDING_POOL_MANAGER = \"LENDING_POOL_MANAGER\";\n    bytes32 private constant LENDING_POOL_LIQUIDATION_MANAGER = \"LIQUIDATION_MANAGER\";\n    bytes32 private constant DATA_PROVIDER = \"DATA_PROVIDER\";\n    bytes32 private constant NETWORK_METADATA_PROVIDER = \"NETWORK_METADATA_PROVIDER\";\n    bytes32 private constant PRICE_ORACLE = \"PRICE_ORACLE\";\n    bytes32 private constant LENDING_RATE_ORACLE = \"LENDING_RATE_ORACLE\";\n    bytes32 private constant FEE_PROVIDER = \"FEE_PROVIDER\";\n    bytes32 private constant INTEREST_RATE_STRATEGY = \"INTEREST_RATE_STRATEGY\";\n    bytes32 private constant WALLET_BALANCE_PROVIDER = \"WALLET_BALANCE_PROVIDER\";\n\n    function getLendingPool() public view returns (address) {\n        return getAddress(LENDING_POOL);\n    }\n\n    // TODO: add access control rules under DAO\n    function setLendingPool(address _pool) public {\n        _setAddress(LENDING_POOL, _pool);\n        emit LendingPoolUpdated(_pool);\n    }\n\n    function getInterestRateStrategy() public view returns (address) {\n        return getAddress(INTEREST_RATE_STRATEGY);\n    }\n\n    // TODO: add access control rules under DAO\n    function setInterestRateStrategy(address _strategy) public {\n        _setAddress(INTEREST_RATE_STRATEGY, _strategy);\n        emit InterestRrateStrategyUpdated(_strategy);\n    }\n\n    function getLendingPoolCore() public view returns (address payable) {\n        address payable core = address(uint160(getAddress(LENDING_POOL_CORE)));\n        return core;\n    }\n\n    // TODO: add access control rules under DAO\n    function setLendingPoolCore(address _lendingPoolCore) public {\n        _setAddress(LENDING_POOL_CORE, _lendingPoolCore);\n        emit LendingPoolCoreUpdated(_lendingPoolCore);\n    }\n\n    function getLendingPoolConfigurator() public view returns (address) {\n        return getAddress(LENDING_POOL_CONFIGURATOR);\n    }\n\n    // TODO: add access control rules under DAO\n    function setLendingPoolConfigurator(address _configurator) public {\n        _setAddress(LENDING_POOL_CONFIGURATOR, _configurator);\n        emit LendingPoolConfiguratorUpdated(_configurator);\n    }\n\n    function getLendingPoolManager() public view returns (address) {\n        return getAddress(LENDING_POOL_MANAGER);\n    }\n\n    // TODO: add access control rules under DAO\n    function setLendingPoolManager(address _lendingPoolManager) public {\n        _setAddress(LENDING_POOL_MANAGER, _lendingPoolManager);\n        emit LendingPoolManagerUpdated(_lendingPoolManager);\n    }\n\n    function getLendingPoolDataProvider() public view returns (address) {\n        return getAddress(DATA_PROVIDER);\n    }\n\n    // TODO: add access control rules under DAO\n    function setLendingPoolDataProvider(address _provider) public {\n        _setAddress(DATA_PROVIDER, _provider);\n        emit LendingPoolDataProviderUpdated(_provider);\n    }\n\n    function getNetworkMetadataProvider() public view returns (address) {\n        return getAddress(NETWORK_METADATA_PROVIDER);\n    }\n\n    // TODO: add access control rules under DAO\n    function setNetworkMetadataProvider(address _networkMetadataProvider) public {\n        _setAddress(NETWORK_METADATA_PROVIDER, _networkMetadataProvider);\n        emit LendingPoolNetworkMetadataProviderUpdated(_networkMetadataProvider);\n    }\n\n    function getLendingPoolParametersProvider() public view returns (address) {\n        return getAddress(LENDING_POOL_PARAMETERS_PROVIDER);\n    }\n\n    // TODO: add access control rules under DAO\n    function setLendingPoolParametersProvider(address _parametersProvider) public {\n        _setAddress(LENDING_POOL_PARAMETERS_PROVIDER, _parametersProvider);\n        emit LendingPoolParametersProviderUpdated(_parametersProvider);\n    }\n\n\n    function getPriceOracle() public view returns (address) {\n        return getAddress(PRICE_ORACLE);\n    }\n\n    // TODO: add access control rules under DAO\n    function setPriceOracle(address _priceOracle) public {\n        _setAddress(PRICE_ORACLE, _priceOracle);\n        emit PriceOracleUpdated(_priceOracle);\n    }\n\n    function getLendingRateOracle() public view returns (address) {\n        return getAddress(LENDING_RATE_ORACLE);\n    }\n\n    // TODO: add access control rules under DAO\n    function setLendingRateOracle(address _lendingRateOracle) public {\n        _setAddress(LENDING_RATE_ORACLE, _lendingRateOracle);\n        emit LendingRateOracleUpdated(_lendingRateOracle);\n    }\n\n    function getFeeProvider() public view returns (address) {\n        return getAddress(FEE_PROVIDER);\n    }\n\n    // TODO: add access control rules under DAO\n    function setFeeProvider(address _feeProvider) public {\n        _setAddress(FEE_PROVIDER, _feeProvider);\n        emit FeeProviderUpdated(_feeProvider);\n    }\n\n    function getLendingPoolLiquidationManager() public view returns (address) {\n        return getAddress(LENDING_POOL_LIQUIDATION_MANAGER);\n    }\n\n    // TODO: add access control rules under DAO\n    function setLendingPoolLiquidationManager(address _manager) public {\n        _setAddress(LENDING_POOL_LIQUIDATION_MANAGER, _manager);\n        emit LendingPoolLiquidationManagerUpdated(_manager);\n    }\n}\n",
  "sourcePath": "/src/contracts/configuration/LendingPoolAddressesProvider.sol",
  "compiler": {
    "name": "solc",
    "version": "0.5.6+commit.b259423e.Emscripten.clang"
  },
  "schemaVersion": "3.0.15",
  "updatedAt": "2019-11-02T17:58:20.597Z",
  "devdoc": {
    "methods": {}
  },
  "userdoc": {
    "methods": {}
  }
}