{
  "contractName": "LendingPoolParametersProvider",
  "abi": [
    {
      "constant": false,
      "inputs": [],
      "name": "renounceOwnership",
      "outputs": [],
      "payable": false,
      "stateMutability": "nonpayable",
      "type": "function"
    },
    {
      "constant": true,
      "inputs": [],
      "name": "owner",
      "outputs": [
        {
          "name": "",
          "type": "address"
        }
      ],
      "payable": false,
      "stateMutability": "view",
      "type": "function"
    },
    {
      "constant": true,
      "inputs": [],
      "name": "isOwner",
      "outputs": [
        {
          "name": "",
          "type": "bool"
        }
      ],
      "payable": false,
      "stateMutability": "view",
      "type": "function"
    },
    {
      "constant": true,
      "inputs": [
        {
          "name": "_key",
          "type": "bytes32"
        }
      ],
      "name": "getUint",
      "outputs": [
        {
          "name": "",
          "type": "uint256"
        }
      ],
      "payable": false,
      "stateMutability": "view",
      "type": "function"
    },
    {
      "constant": false,
      "inputs": [
        {
          "name": "newOwner",
          "type": "address"
        }
      ],
      "name": "transferOwnership",
      "outputs": [],
      "payable": false,
      "stateMutability": "nonpayable",
      "type": "function"
    },
    {
      "anonymous": false,
      "inputs": [
        {
          "indexed": true,
          "name": "previousOwner",
          "type": "address"
        },
        {
          "indexed": true,
          "name": "newOwner",
          "type": "address"
        }
      ],
      "name": "OwnershipTransferred",
      "type": "event"
    },
    {
      "constant": true,
      "inputs": [],
      "name": "getMaxFixedRateBorrowSizePercent",
      "outputs": [
        {
          "name": "",
          "type": "uint256"
        }
      ],
      "payable": false,
      "stateMutability": "view",
      "type": "function"
    },
    {
      "constant": false,
      "inputs": [
        {
          "name": "_borrowSizePercent",
          "type": "uint256"
        }
      ],
      "name": "setMaxFixedRateBorrowSizePercent",
      "outputs": [],
      "payable": false,
      "stateMutability": "nonpayable",
      "type": "function"
    },
    {
      "constant": true,
      "inputs": [],
      "name": "getRebalanceDownRateDelta",
      "outputs": [
        {
          "name": "",
          "type": "uint256"
        }
      ],
      "payable": false,
      "stateMutability": "view",
      "type": "function"
    },
    {
      "constant": false,
      "inputs": [
        {
          "name": "_delta",
          "type": "uint256"
        }
      ],
      "name": "setRebalanceDownRateDelta",
      "outputs": [],
      "payable": false,
      "stateMutability": "nonpayable",
      "type": "function"
    }
  ],
  "bytecode": "0x60806040819052600180546001600160a01b0319163317908190556001600160a01b0316906000907f8be0079c531659141344cd1fd0a4f28419497f9722a3daafe3b4186f6b6457e0908290a36105088061005b6000396000f3fe608060405234801561001057600080fd5b50600436106100935760003560e01c8063b383cc2211610066578063b383cc22146100fc578063bd02d0f514610119578063be671bb814610136578063dd2d8c7914610153578063f2fde38b1461015b57610093565b806346f4f8d114610098578063715018a6146100b25780638da5cb5b146100bc5780638f32d59b146100e0575b600080fd5b6100a0610181565b60408051918252519081900360200190f35b6100ba6101b1565b005b6100c4610245565b604080516001600160a01b039092168252519081900360200190f35b6100e8610254565b604080519115158252519081900360200190f35b6100ba6004803603602081101561011257600080fd5b5035610265565b6100a06004803603602081101561012f57600080fd5b50356102dc565b6100ba6004803603602081101561014c57600080fd5b50356102ee565b6100a0610362565b6100ba6004803603602081101561017157600080fd5b50356001600160a01b031661038d565b60006101ac7f524542414c414e43455f444f574e5f524154455f44454c5441000000000000006102dc565b905090565b6101b9610254565b6101fb5760408051600160e51b62461bcd02815260206004820181905260248201526000805160206104bd833981519152604482015290519081900360640190fd5b6001546040516000916001600160a01b0316907f8be0079c531659141344cd1fd0a4f28419497f9722a3daafe3b4186f6b6457e0908390a3600180546001600160a01b0319169055565b6001546001600160a01b031690565b6001546001600160a01b0316331490565b61026d610254565b6102af5760408051600160e51b62461bcd02815260206004820181905260248201526000805160206104bd833981519152604482015290519081900360640190fd5b6102d97f524542414c414e43455f444f574e5f524154455f44454c544100000000000000826103e0565b50565b60009081526020819052604090205490565b6102f6610254565b6103385760408051600160e51b62461bcd02815260206004820181905260248201526000805160206104bd833981519152604482015290519081900360640190fd5b6102d97f4d41585f524154455f424f52524f575f53495a455f50455243454e5400000000826103e0565b60006101ac7f4d41585f524154455f424f52524f575f53495a455f50455243454e54000000006102dc565b610395610254565b6103d75760408051600160e51b62461bcd02815260206004820181905260248201526000805160206104bd833981519152604482015290519081900360640190fd5b6102d9816103f2565b60009182526020829052604090912055565b6001600160a01b03811661043a57604051600160e51b62461bcd0281526004018080602001828103825260268152602001806104976026913960400191505060405180910390fd5b6001546040516001600160a01b038084169216907f8be0079c531659141344cd1fd0a4f28419497f9722a3daafe3b4186f6b6457e090600090a3600180546001600160a01b0319166001600160a01b039290921691909117905556fe4f776e61626c653a206e6577206f776e657220697320746865207a65726f20616464726573734f776e61626c653a2063616c6c6572206973206e6f7420746865206f776e6572a165627a7a72305820fefbd341dc1b671514078d86bdfbec2d2c1c88309e5a09a273a409fd230f77230029",
  "source": "pragma solidity ^0.5.0;\n\n\nimport \"openzeppelin-solidity/contracts/ownership/Ownable.sol\";\nimport \"./UintStorage.sol\";\n\n/**\n@title LendingPoolParametersProvider\n@author Aave\n@notice stores the configuration parameters of the Lending Pool contract\n\n */\ncontract LendingPoolParametersProvider is UintStorage, Ownable {\n    bytes32 private constant MAX_FIXED_RATE_BORROW_SIZE_PERCENT = \"MAX_RATE_BORROW_SIZE_PERCENT\";\n    bytes32 private constant REBALANCE_DOWN_RATE_DELTA = \"REBALANCE_DOWN_RATE_DELTA\";\n\n    /**\n    @dev returns the maximum fixed rate borrow size, in percentage of the available liquidity.\n     */\n    function getMaxFixedRateBorrowSizePercent() external view returns (uint256)  {\n        return getUint(MAX_FIXED_RATE_BORROW_SIZE_PERCENT);\n    }\n\n    // TODO: add access control rules under DAO\n    function setMaxFixedRateBorrowSizePercent(uint256 _borrowSizePercent) external onlyOwner {\n        return _setUint(MAX_FIXED_RATE_BORROW_SIZE_PERCENT, _borrowSizePercent);\n    }\n\n    /**\n    @dev returns the delta between the current fixed rate and the user fixed rate at\n         which the borrow position of the user will be rebalanced (scaled down)\n     */\n    function getRebalanceDownRateDelta() external view returns (uint256) {\n        return getUint(REBALANCE_DOWN_RATE_DELTA);\n    }\n\n    // TODO: add access control rules under DAO\n    function setRebalanceDownRateDelta(uint256 _delta) external onlyOwner {\n        return _setUint(REBALANCE_DOWN_RATE_DELTA, _delta);\n    }\n\n}\n",
  "sourcePath": "/src/contracts/configuration/LendingPoolParametersProvider.sol",
  "compiler": {
    "name": "solc",
    "version": "0.5.6+commit.b259423e.Emscripten.clang"
  },
  "schemaVersion": "3.0.15",
  "updatedAt": "2019-11-02T17:58:07.480Z",
  "devdoc": {
    "author": "Aave",
    "methods": {
      "getMaxFixedRateBorrowSizePercent()": {
        "details": "returns the maximum fixed rate borrow size, in percentage of the available liquidity."
      },
      "getRebalanceDownRateDelta()": {
        "details": "returns the delta between the current fixed rate and the user fixed rate at which the borrow position of the user will be rebalanced (scaled down)"
      },
      "isOwner()": {
        "details": "Returns true if the caller is the current owner."
      },
      "owner()": {
        "details": "Returns the address of the current owner."
      },
      "renounceOwnership()": {
        "details": "Leaves the contract without owner. It will not be possible to call `onlyOwner` functions anymore. Can only be called by the current owner.     * > Note: Renouncing ownership will leave the contract without an owner, thereby removing any functionality that is only available to the owner."
      },
      "transferOwnership(address)": {
        "details": "Transfers ownership of the contract to a new account (`newOwner`). Can only be called by the current owner."
      }
    },
    "title": "LendingPoolParametersProvider"
  },
  "userdoc": {
    "methods": {},
    "notice": "stores the configuration parameters of the Lending Pool contract"
  }
}