{
  "contractName": "LendingPoolConfigurator",
  "abi": [
    {
      "anonymous": false,
      "inputs": [
        {
          "indexed": true,
          "internalType": "address",
          "name": "_reserve",
          "type": "address"
        }
      ],
      "name": "BorrowingDisabledOnReserve",
      "type": "event"
    },
    {
      "anonymous": false,
      "inputs": [
        {
          "indexed": false,
          "internalType": "address",
          "name": "_reserve",
          "type": "address"
        },
        {
          "indexed": false,
          "internalType": "bool",
          "name": "_stableRateEnabled",
          "type": "bool"
        }
      ],
      "name": "BorrowingEnabledOnReserve",
      "type": "event"
    },
    {
      "anonymous": false,
      "inputs": [
        {
          "indexed": true,
          "internalType": "address",
          "name": "_reserve",
          "type": "address"
        }
      ],
      "name": "ReserveActivated",
      "type": "event"
    },
    {
      "anonymous": false,
      "inputs": [
        {
          "indexed": false,
          "internalType": "address",
          "name": "_reserve",
          "type": "address"
        },
        {
          "indexed": false,
          "internalType": "uint256",
          "name": "_ltv",
          "type": "uint256"
        }
      ],
      "name": "ReserveBaseLtvChanged",
      "type": "event"
    },
    {
      "anonymous": false,
      "inputs": [
        {
          "indexed": true,
          "internalType": "address",
          "name": "_reserve",
          "type": "address"
        }
      ],
      "name": "ReserveDeactivated",
      "type": "event"
    },
    {
      "anonymous": false,
      "inputs": [
        {
          "indexed": false,
          "internalType": "address",
          "name": "_reserve",
          "type": "address"
        },
        {
          "indexed": false,
          "internalType": "uint256",
          "name": "_decimals",
          "type": "uint256"
        }
      ],
      "name": "ReserveDecimalsChanged",
      "type": "event"
    },
    {
      "anonymous": false,
      "inputs": [
        {
          "indexed": true,
          "internalType": "address",
          "name": "_reserve",
          "type": "address"
        }
      ],
      "name": "ReserveDisabledAsCollateral",
      "type": "event"
    },
    {
      "anonymous": false,
      "inputs": [
        {
          "indexed": true,
          "internalType": "address",
          "name": "_reserve",
          "type": "address"
        },
        {
          "indexed": false,
          "internalType": "uint256",
          "name": "_ltv",
          "type": "uint256"
        },
        {
          "indexed": false,
          "internalType": "uint256",
          "name": "_liquidationThreshold",
          "type": "uint256"
        },
        {
          "indexed": false,
          "internalType": "uint256",
          "name": "_liquidationBonus",
          "type": "uint256"
        }
      ],
      "name": "ReserveEnabledAsCollateral",
      "type": "event"
    },
    {
      "anonymous": false,
      "inputs": [
        {
          "indexed": true,
          "internalType": "address",
          "name": "_reserve",
          "type": "address"
        }
      ],
      "name": "ReserveFreezed",
      "type": "event"
    },
    {
      "anonymous": false,
      "inputs": [
        {
          "indexed": true,
          "internalType": "address",
          "name": "_reserve",
          "type": "address"
        },
        {
          "indexed": true,
          "internalType": "address",
          "name": "_aToken",
          "type": "address"
        },
        {
          "indexed": false,
          "internalType": "address",
          "name": "_interestRateStrategyAddress",
          "type": "address"
        }
      ],
      "name": "ReserveInitialized",
      "type": "event"
    },
    {
      "anonymous": false,
      "inputs": [
        {
          "indexed": false,
          "internalType": "address",
          "name": "_reserve",
          "type": "address"
        },
        {
          "indexed": false,
          "internalType": "address",
          "name": "_strategy",
          "type": "address"
        }
      ],
      "name": "ReserveInterestRateStrategyChanged",
      "type": "event"
    },
    {
      "anonymous": false,
      "inputs": [
        {
          "indexed": false,
          "internalType": "address",
          "name": "_reserve",
          "type": "address"
        },
        {
          "indexed": false,
          "internalType": "uint256",
          "name": "_bonus",
          "type": "uint256"
        }
      ],
      "name": "ReserveLiquidationBonusChanged",
      "type": "event"
    },
    {
      "anonymous": false,
      "inputs": [
        {
          "indexed": false,
          "internalType": "address",
          "name": "_reserve",
          "type": "address"
        },
        {
          "indexed": false,
          "internalType": "uint256",
          "name": "_threshold",
          "type": "uint256"
        }
      ],
      "name": "ReserveLiquidationThresholdChanged",
      "type": "event"
    },
    {
      "anonymous": false,
      "inputs": [
        {
          "indexed": true,
          "internalType": "address",
          "name": "_reserve",
          "type": "address"
        }
      ],
      "name": "ReserveRemoved",
      "type": "event"
    },
    {
      "anonymous": false,
      "inputs": [
        {
          "indexed": true,
          "internalType": "address",
          "name": "_reserve",
          "type": "address"
        }
      ],
      "name": "ReserveUnfreezed",
      "type": "event"
    },
    {
      "anonymous": false,
      "inputs": [
        {
          "indexed": true,
          "internalType": "address",
          "name": "_reserve",
          "type": "address"
        }
      ],
      "name": "StableRateDisabledOnReserve",
      "type": "event"
    },
    {
      "anonymous": false,
      "inputs": [
        {
          "indexed": true,
          "internalType": "address",
          "name": "_reserve",
          "type": "address"
        }
      ],
      "name": "StableRateEnabledOnReserve",
      "type": "event"
    },
    {
      "constant": true,
      "inputs": [],
      "name": "CONFIGURATOR_REVISION",
      "outputs": [
        {
          "internalType": "uint256",
          "name": "",
          "type": "uint256"
        }
      ],
      "payable": false,
      "stateMutability": "view",
      "type": "function"
    },
    {
      "constant": true,
      "inputs": [],
      "name": "poolAddressesProvider",
      "outputs": [
        {
          "internalType": "contract LendingPoolAddressesProvider",
          "name": "",
          "type": "address"
        }
      ],
      "payable": false,
      "stateMutability": "view",
      "type": "function"
    },
    {
      "constant": false,
      "inputs": [
        {
          "internalType": "contract LendingPoolAddressesProvider",
          "name": "_poolAddressesProvider",
          "type": "address"
        }
      ],
      "name": "initialize",
      "outputs": [],
      "payable": false,
      "stateMutability": "nonpayable",
      "type": "function"
    },
    {
      "constant": false,
      "inputs": [
        {
          "internalType": "address",
          "name": "_reserve",
          "type": "address"
        },
        {
          "internalType": "uint8",
          "name": "_underlyingAssetDecimals",
          "type": "uint8"
        },
        {
          "internalType": "address",
          "name": "_interestRateStrategyAddress",
          "type": "address"
        }
      ],
      "name": "initReserve",
      "outputs": [],
      "payable": false,
      "stateMutability": "nonpayable",
      "type": "function"
    },
    {
      "constant": false,
      "inputs": [
        {
          "internalType": "address",
          "name": "_reserve",
          "type": "address"
        },
        {
          "internalType": "string",
          "name": "_aTokenName",
          "type": "string"
        },
        {
          "internalType": "string",
          "name": "_aTokenSymbol",
          "type": "string"
        },
        {
          "internalType": "uint8",
          "name": "_underlyingAssetDecimals",
          "type": "uint8"
        },
        {
          "internalType": "address",
          "name": "_interestRateStrategyAddress",
          "type": "address"
        }
      ],
      "name": "initReserveWithData",
      "outputs": [],
      "payable": false,
      "stateMutability": "nonpayable",
      "type": "function"
    },
    {
      "constant": false,
      "inputs": [
        {
          "internalType": "address",
          "name": "_reserveToRemove",
          "type": "address"
        }
      ],
      "name": "removeLastAddedReserve",
      "outputs": [],
      "payable": false,
      "stateMutability": "nonpayable",
      "type": "function"
    },
    {
      "constant": false,
      "inputs": [
        {
          "internalType": "address",
          "name": "_reserve",
          "type": "address"
        },
        {
          "internalType": "bool",
          "name": "_stableBorrowRateEnabled",
          "type": "bool"
        }
      ],
      "name": "enableBorrowingOnReserve",
      "outputs": [],
      "payable": false,
      "stateMutability": "nonpayable",
      "type": "function"
    },
    {
      "constant": false,
      "inputs": [
        {
          "internalType": "address",
          "name": "_reserve",
          "type": "address"
        }
      ],
      "name": "disableBorrowingOnReserve",
      "outputs": [],
      "payable": false,
      "stateMutability": "nonpayable",
      "type": "function"
    },
    {
      "constant": false,
      "inputs": [
        {
          "internalType": "address",
          "name": "_reserve",
          "type": "address"
        },
        {
          "internalType": "uint256",
          "name": "_baseLTVasCollateral",
          "type": "uint256"
        },
        {
          "internalType": "uint256",
          "name": "_liquidationThreshold",
          "type": "uint256"
        },
        {
          "internalType": "uint256",
          "name": "_liquidationBonus",
          "type": "uint256"
        }
      ],
      "name": "enableReserveAsCollateral",
      "outputs": [],
      "payable": false,
      "stateMutability": "nonpayable",
      "type": "function"
    },
    {
      "constant": false,
      "inputs": [
        {
          "internalType": "address",
          "name": "_reserve",
          "type": "address"
        }
      ],
      "name": "disableReserveAsCollateral",
      "outputs": [],
      "payable": false,
      "stateMutability": "nonpayable",
      "type": "function"
    },
    {
      "constant": false,
      "inputs": [
        {
          "internalType": "address",
          "name": "_reserve",
          "type": "address"
        }
      ],
      "name": "enableReserveStableBorrowRate",
      "outputs": [],
      "payable": false,
      "stateMutability": "nonpayable",
      "type": "function"
    },
    {
      "constant": false,
      "inputs": [
        {
          "internalType": "address",
          "name": "_reserve",
          "type": "address"
        }
      ],
      "name": "disableReserveStableBorrowRate",
      "outputs": [],
      "payable": false,
      "stateMutability": "nonpayable",
      "type": "function"
    },
    {
      "constant": false,
      "inputs": [
        {
          "internalType": "address",
          "name": "_reserve",
          "type": "address"
        }
      ],
      "name": "activateReserve",
      "outputs": [],
      "payable": false,
      "stateMutability": "nonpayable",
      "type": "function"
    },
    {
      "constant": false,
      "inputs": [
        {
          "internalType": "address",
          "name": "_reserve",
          "type": "address"
        }
      ],
      "name": "deactivateReserve",
      "outputs": [],
      "payable": false,
      "stateMutability": "nonpayable",
      "type": "function"
    },
    {
      "constant": false,
      "inputs": [
        {
          "internalType": "address",
          "name": "_reserve",
          "type": "address"
        }
      ],
      "name": "freezeReserve",
      "outputs": [],
      "payable": false,
      "stateMutability": "nonpayable",
      "type": "function"
    },
    {
      "constant": false,
      "inputs": [
        {
          "internalType": "address",
          "name": "_reserve",
          "type": "address"
        }
      ],
      "name": "unfreezeReserve",
      "outputs": [],
      "payable": false,
      "stateMutability": "nonpayable",
      "type": "function"
    },
    {
      "constant": false,
      "inputs": [
        {
          "internalType": "address",
          "name": "_reserve",
          "type": "address"
        },
        {
          "internalType": "uint256",
          "name": "_ltv",
          "type": "uint256"
        }
      ],
      "name": "setReserveBaseLTVasCollateral",
      "outputs": [],
      "payable": false,
      "stateMutability": "nonpayable",
      "type": "function"
    },
    {
      "constant": false,
      "inputs": [
        {
          "internalType": "address",
          "name": "_reserve",
          "type": "address"
        },
        {
          "internalType": "uint256",
          "name": "_threshold",
          "type": "uint256"
        }
      ],
      "name": "setReserveLiquidationThreshold",
      "outputs": [],
      "payable": false,
      "stateMutability": "nonpayable",
      "type": "function"
    },
    {
      "constant": false,
      "inputs": [
        {
          "internalType": "address",
          "name": "_reserve",
          "type": "address"
        },
        {
          "internalType": "uint256",
          "name": "_bonus",
          "type": "uint256"
        }
      ],
      "name": "setReserveLiquidationBonus",
      "outputs": [],
      "payable": false,
      "stateMutability": "nonpayable",
      "type": "function"
    },
    {
      "constant": false,
      "inputs": [
        {
          "internalType": "address",
          "name": "_reserve",
          "type": "address"
        },
        {
          "internalType": "uint256",
          "name": "_decimals",
          "type": "uint256"
        }
      ],
      "name": "setReserveDecimals",
      "outputs": [],
      "payable": false,
      "stateMutability": "nonpayable",
      "type": "function"
    },
    {
      "constant": false,
      "inputs": [
        {
          "internalType": "address",
          "name": "_reserve",
          "type": "address"
        },
        {
          "internalType": "address",
          "name": "_rateStrategyAddress",
          "type": "address"
        }
      ],
      "name": "setReserveInterestRateStrategyAddress",
      "outputs": [],
      "payable": false,
      "stateMutability": "nonpayable",
      "type": "function"
    },
    {
      "constant": false,
      "inputs": [],
      "name": "refreshLendingPoolCoreConfiguration",
      "outputs": [],
      "payable": false,
      "stateMutability": "nonpayable",
      "type": "function"
    }
  ],
  "bytecode": "0x60806040526000805534801561001457600080fd5b50615355806100246000396000f3fe60806040523480156200001157600080fd5b5060043610620001605760003560e01c8063a8dc0f4511620000c9578063d466016f1162000087578063d466016f1462000550578063dae4c4e7146200057f578063e12dcc6c14620005a8578063e8ae2f5b14620005b2578063eede87c114620005db578063ef1f9373146200060c5762000160565b8063a8dc0f451462000483578063b75d6f3414620004ac578063b8c0f74514620004d5578063c4d66de814620004fe578063d06e2ec114620005275762000160565b806366bbd928116200012357806366bbd928146200037f57806370fb84f414620003ae5780637aca76eb14620003dd5780637af635a6146200040657806380e17d871462000422578063a5bc826c14620004485762000160565b8063071033e414620001655780631d2118f914620001a35780633443a14b14620001d457806336805a6214620002035780633e72a4541462000356575b600080fd5b620001a1600480360360608110156200017d57600080fd5b506001600160a01b03813581169160ff602082013516916040909101351662000635565b005b620001a160048036036040811015620001bb57600080fd5b506001600160a01b038135811691602001351662000a6a565b620001a160048036036040811015620001ec57600080fd5b506001600160a01b03813516906020013562000c52565b620001a1600480360360a08110156200021b57600080fd5b6001600160a01b038235169190810190604081016020820135600160201b8111156200024657600080fd5b8201836020820111156200025957600080fd5b803590602001918460018302840111600160201b831117156200027b57600080fd5b91908080601f0160208091040260200160405190810160405280939291908181526020018383808284376000920191909152509295949360208101935035915050600160201b811115620002ce57600080fd5b820183602082011115620002e157600080fd5b803590602001918460018302840111600160201b831117156200030357600080fd5b91908080601f0160208091040260200160405190810160405280939291908181526020018383808284376000920191909152509295505050813560ff16925050602001356001600160a01b031662000e38565b620001a1600480360360208110156200036e57600080fd5b50356001600160a01b03166200117e565b620001a1600480360360408110156200039757600080fd5b506001600160a01b03813516906020013562001410565b620001a160048036036040811015620003c657600080fd5b506001600160a01b038135169060200135620015f6565b620001a160048036036020811015620003f557600080fd5b50356001600160a01b0316620017dc565b62000410620019aa565b60408051918252519081900360200190f35b6200042c620019af565b604080516001600160a01b039092168252519081900360200190f35b620001a1600480360360808110156200046057600080fd5b506001600160a01b038135169060208101359060408101359060600135620019be565b620001a1600480360360208110156200049b57600080fd5b50356001600160a01b031662001bbc565b620001a160048036036020811015620004c457600080fd5b50356001600160a01b031662001d8a565b620001a160048036036020811015620004ed57600080fd5b50356001600160a01b031662001f58565b620001a1600480360360208110156200051657600080fd5b50356001600160a01b031662002126565b620001a1600480360360208110156200053f57600080fd5b50356001600160a01b0316620021e8565b620001a1600480360360408110156200056857600080fd5b506001600160a01b038135169060200135620023b6565b620001a1600480360360208110156200059757600080fd5b50356001600160a01b03166200259c565b620001a16200276a565b620001a160048036036020811015620005ca57600080fd5b50356001600160a01b0316620028fa565b620001a160048036036040811015620005f357600080fd5b506001600160a01b038135169060200135151562002ac8565b620001a1600480360360208110156200062457600080fd5b50356001600160a01b031662002cb0565b603454604080516333128d5960e01b8152905133926001600160a01b0316916333128d59916004808301926020929190829003018186803b1580156200067a57600080fd5b505afa1580156200068f573d6000803e3d6000fd5b505050506040513d6020811015620006a657600080fd5b50516001600160a01b031614620006ef5760405162461bcd60e51b8152600401808060200182810382526029815260200180620052a06029913960400191505060405180910390fd5b60008390506060816001600160a01b03166306fdde036040518163ffffffff1660e01b815260040160006040518083038186803b1580156200073057600080fd5b505afa15801562000745573d6000803e3d6000fd5b505050506040513d6000823e601f3d908101601f1916820160405260208110156200076f57600080fd5b8101908080516040519392919084600160201b8211156200078f57600080fd5b908301906020820185811115620007a557600080fd5b8251600160201b811182820188101715620007bf57600080fd5b82525081516020918201929091019080838360005b83811015620007ee578181015183820152602001620007d4565b50505050905090810190601f1680156200081c5780820380516001836020036101000a031916815260200191505b50604052505050604051602001808075020b0bb329024b73a32b932b9ba103132b0b934b733960551b81525060160182805190602001908083835b60208310620008785780518252601f19909201916020918201910162000857565b6001836020036101000a03801982511681845116808217855250505050505090500191505060405160208183030381529060405290506060826001600160a01b03166395d89b416040518163ffffffff1660e01b815260040160006040518083038186803b158015620008ea57600080fd5b505afa158015620008ff573d6000803e3d6000fd5b505050506040513d6000823e601f3d908101601f1916820160405260208110156200092957600080fd5b8101908080516040519392919084600160201b8211156200094957600080fd5b9083019060208201858111156200095f57600080fd5b8251600160201b8111828201881017156200097957600080fd5b82525081516020918201929091019080838360005b83811015620009a85781810151838201526020016200098e565b50505050905090810190601f168015620009d65780820380516001836020036101000a031916815260200191505b506040525050506040516020018080606160f81b81525060010182805190602001908083835b6020831062000a1d5780518252601f199092019160209182019101620009fc565b6001836020036101000a038019825116818451168082178552505050505050905001915050604051602081830303815290604052905062000a62868383888862000e38565b505050505050565b603454604080516333128d5960e01b8152905133926001600160a01b0316916333128d59916004808301926020929190829003018186803b15801562000aaf57600080fd5b505afa15801562000ac4573d6000803e3d6000fd5b505050506040513d602081101562000adb57600080fd5b50516001600160a01b03161462000b245760405162461bcd60e51b8152600401808060200182810382526029815260200180620052a06029913960400191505060405180910390fd5b6034546040805163076b7fbb60e51b815290516000926001600160a01b03169163ed6ff760916004808301926020929190829003018186803b15801562000b6a57600080fd5b505afa15801562000b7f573d6000803e3d6000fd5b505050506040513d602081101562000b9657600080fd5b505160408051631d2118f960e01b81526001600160a01b0386811660048301528581166024830152915192935090831691631d2118f99160448082019260009290919082900301818387803b15801562000bef57600080fd5b505af115801562000c04573d6000803e3d6000fd5b5050604080516001600160a01b0380881682528616602082015281517f5644b64ebb0ce18c4032248ca52f58355469092ff072866c3dcd8640e817d6a59450908190039091019150a1505050565b603454604080516333128d5960e01b8152905133926001600160a01b0316916333128d59916004808301926020929190829003018186803b15801562000c9757600080fd5b505afa15801562000cac573d6000803e3d6000fd5b505050506040513d602081101562000cc357600080fd5b50516001600160a01b03161462000d0c5760405162461bcd60e51b8152600401808060200182810382526029815260200180620052a06029913960400191505060405180910390fd5b6034546040805163076b7fbb60e51b815290516000926001600160a01b03169163ed6ff760916004808301926020929190829003018186803b15801562000d5257600080fd5b505afa15801562000d67573d6000803e3d6000fd5b505050506040513d602081101562000d7e57600080fd5b505160408051633443a14b60e01b81526001600160a01b03868116600483015260248201869052915192935090831691633443a14b9160448082019260009290919082900301818387803b15801562000dd657600080fd5b505af115801562000deb573d6000803e3d6000fd5b5050604080516001600160a01b03871681526020810186905281517f437dd3b61b7c7eee7fc70515c8846482dfca92e2e1e02af5d638c5d4878d67149450908190039091019150a1505050565b603454604080516333128d5960e01b8152905133926001600160a01b0316916333128d59916004808301926020929190829003018186803b15801562000e7d57600080fd5b505afa15801562000e92573d6000803e3d6000fd5b505050506040513d602081101562000ea957600080fd5b50516001600160a01b03161462000ef25760405162461bcd60e51b8152600401808060200182810382526029815260200180620052a06029913960400191505060405180910390fd5b6034546040805163076b7fbb60e51b815290516000926001600160a01b03169163ed6ff760916004808301926020929190829003018186803b15801562000f3857600080fd5b505afa15801562000f4d573d6000803e3d6000fd5b505050506040513d602081101562000f6457600080fd5b50516034546040519192506000916001600160a01b0390911690889086908990899062000f919062002e89565b6001600160a01b038087168252851660208083019190915260ff8516604083015260a06060830181815285519184019190915284519091608084019160c085019187019080838360005b8381101562000ff557818101518382015260200162000fdb565b50505050905090810190601f168015620010235780820380516001836020036101000a031916815260200191505b50838103825284518152845160209182019186019080838360005b83811015620010585781810151838201526020016200103e565b50505050905090810190601f168015620010865780820380516001836020036101000a031916815260200191505b50975050505050505050604051809103906000f080158015620010ad573d6000803e3d6000fd5b5060408051630114cc2960e61b81526001600160a01b038a81166004830152808416602483015260ff8816604483015286811660648301529151929350908416916345330a409160848082019260009290919082900301818387803b1580156200111657600080fd5b505af11580156200112b573d6000803e3d6000fd5b5050604080516001600160a01b03878116825291518286169450918b1692507f1d9fcd0dc935b4778d5af97f55c4d7b2553257382f1ef25c412114c8eeebd88e919081900360200190a350505050505050565b603454604080516333128d5960e01b8152905133926001600160a01b0316916333128d59916004808301926020929190829003018186803b158015620011c357600080fd5b505afa158015620011d8573d6000803e3d6000fd5b505050506040513d6020811015620011ef57600080fd5b50516001600160a01b031614620012385760405162461bcd60e51b8152600401808060200182810382526029815260200180620052a06029913960400191505060405180910390fd5b6034546040805163076b7fbb60e51b815290516000926001600160a01b03169163ed6ff760916004808301926020929190829003018186803b1580156200127e57600080fd5b505afa15801562001293573d6000803e3d6000fd5b505050506040513d6020811015620012aa57600080fd5b505160408051630c33cfd960e41b81526001600160a01b03858116600483015291519293509083169163c33cfd9091602480820192602092909190829003018186803b158015620012fa57600080fd5b505afa1580156200130f573d6000803e3d6000fd5b505050506040513d60208110156200132657600080fd5b505115620013665760405162461bcd60e51b815260040180806020018281038252602a815260200180620052f7602a913960400191505060405180910390fd5b806001600160a01b0316633e72a454836040518263ffffffff1660e01b815260040180826001600160a01b03166001600160a01b03168152602001915050600060405180830381600087803b158015620013bf57600080fd5b505af1158015620013d4573d6000803e3d6000fd5b50506040516001600160a01b03851692507f6f60cf8bd0f218cabe1ea3150bd07b0b758c35c4cfdf7138017a283e65564d5e9150600090a25050565b603454604080516333128d5960e01b8152905133926001600160a01b0316916333128d59916004808301926020929190829003018186803b1580156200145557600080fd5b505afa1580156200146a573d6000803e3d6000fd5b505050506040513d60208110156200148157600080fd5b50516001600160a01b031614620014ca5760405162461bcd60e51b8152600401808060200182810382526029815260200180620052a06029913960400191505060405180910390fd5b6034546040805163076b7fbb60e51b815290516000926001600160a01b03169163ed6ff760916004808301926020929190829003018186803b1580156200151057600080fd5b505afa15801562001525573d6000803e3d6000fd5b505050506040513d60208110156200153c57600080fd5b505160408051630cd77b2560e31b81526001600160a01b038681166004830152602482018690529151929350908316916366bbd9289160448082019260009290919082900301818387803b1580156200159457600080fd5b505af1158015620015a9573d6000803e3d6000fd5b5050604080516001600160a01b03871681526020810186905281517f2e73b7f1df792712003e6859f940c1e8711c3f1329474771fee71d2ec11631299450908190039091019150a1505050565b603454604080516333128d5960e01b8152905133926001600160a01b0316916333128d59916004808301926020929190829003018186803b1580156200163b57600080fd5b505afa15801562001650573d6000803e3d6000fd5b505050506040513d60208110156200166757600080fd5b50516001600160a01b031614620016b05760405162461bcd60e51b8152600401808060200182810382526029815260200180620052a06029913960400191505060405180910390fd5b6034546040805163076b7fbb60e51b815290516000926001600160a01b03169163ed6ff760916004808301926020929190829003018186803b158015620016f657600080fd5b505afa1580156200170b573d6000803e3d6000fd5b505050506040513d60208110156200172257600080fd5b505160408051631c3ee13d60e21b81526001600160a01b038681166004830152602482018690529151929350908316916370fb84f49160448082019260009290919082900301818387803b1580156200177a57600080fd5b505af11580156200178f573d6000803e3d6000fd5b5050604080516001600160a01b03871681526020810186905281517fe3ba662f7011e701056a43e8cf832242322eeff01453e7a72d01ec2af36d9aec9450908190039091019150a1505050565b603454604080516333128d5960e01b8152905133926001600160a01b0316916333128d59916004808301926020929190829003018186803b1580156200182157600080fd5b505afa15801562001836573d6000803e3d6000fd5b505050506040513d60208110156200184d57600080fd5b50516001600160a01b031614620018965760405162461bcd60e51b8152600401808060200182810382526029815260200180620052a06029913960400191505060405180910390fd5b6034546040805163076b7fbb60e51b815290516000926001600160a01b03169163ed6ff760916004808301926020929190829003018186803b158015620018dc57600080fd5b505afa158015620018f1573d6000803e3d6000fd5b505050506040513d60208110156200190857600080fd5b505160408051637aca76eb60e01b81526001600160a01b038581166004830152915192935090831691637aca76eb9160248082019260009290919082900301818387803b1580156200195957600080fd5b505af11580156200196e573d6000803e3d6000fd5b50506040516001600160a01b03851692507fda5cdb66c77023db6abe5226a4d4a40c3b8e768012f4ff4e446f62f60127fc569150600090a25050565b600381565b6034546001600160a01b031681565b603454604080516333128d5960e01b8152905133926001600160a01b0316916333128d59916004808301926020929190829003018186803b15801562001a0357600080fd5b505afa15801562001a18573d6000803e3d6000fd5b505050506040513d602081101562001a2f57600080fd5b50516001600160a01b03161462001a785760405162461bcd60e51b8152600401808060200182810382526029815260200180620052a06029913960400191505060405180910390fd5b6034546040805163076b7fbb60e51b815290516000926001600160a01b03169163ed6ff760916004808301926020929190829003018186803b15801562001abe57600080fd5b505afa15801562001ad3573d6000803e3d6000fd5b505050506040513d602081101562001aea57600080fd5b50516040805163296f209b60e21b81526001600160a01b03888116600483015260248201889052604482018790526064820186905291519293509083169163a5bc826c9160848082019260009290919082900301818387803b15801562001b5057600080fd5b505af115801562001b65573d6000803e3d6000fd5b5050604080518781526020810187905280820186905290516001600160a01b03891693507fdfe62f53e7707d64f99bca15d2bdf3facc4074bc047e7dec2ea130300e99274492509081900360600190a25050505050565b603454604080516333128d5960e01b8152905133926001600160a01b0316916333128d59916004808301926020929190829003018186803b15801562001c0157600080fd5b505afa15801562001c16573d6000803e3d6000fd5b505050506040513d602081101562001c2d57600080fd5b50516001600160a01b03161462001c765760405162461bcd60e51b8152600401808060200182810382526029815260200180620052a06029913960400191505060405180910390fd5b6034546040805163076b7fbb60e51b815290516000926001600160a01b03169163ed6ff760916004808301926020929190829003018186803b15801562001cbc57600080fd5b505afa15801562001cd1573d6000803e3d6000fd5b505050506040513d602081101562001ce857600080fd5b50516040805163a8dc0f4560e01b81526001600160a01b03858116600483015291519293509083169163a8dc0f459160248082019260009290919082900301818387803b15801562001d3957600080fd5b505af115801562001d4e573d6000803e3d6000fd5b50506040516001600160a01b03851692507fe9a7e5fd4fc8ea18e602350324bf48e8f05d12434af0ce0be05743e6a5fdcb9e9150600090a25050565b603454604080516333128d5960e01b8152905133926001600160a01b0316916333128d59916004808301926020929190829003018186803b15801562001dcf57600080fd5b505afa15801562001de4573d6000803e3d6000fd5b505050506040513d602081101562001dfb57600080fd5b50516001600160a01b03161462001e445760405162461bcd60e51b8152600401808060200182810382526029815260200180620052a06029913960400191505060405180910390fd5b6034546040805163076b7fbb60e51b815290516000926001600160a01b03169163ed6ff760916004808301926020929190829003018186803b15801562001e8a57600080fd5b505afa15801562001e9f573d6000803e3d6000fd5b505050506040513d602081101562001eb657600080fd5b505160408051632dd75bcd60e21b81526001600160a01b03858116600483015291519293509083169163b75d6f349160248082019260009290919082900301818387803b15801562001f0757600080fd5b505af115801562001f1c573d6000803e3d6000fd5b50506040516001600160a01b03851692507f35b80cd8ea3440e9a8454f116fa658b858da1b64c86c48451f4559cefcdfb56c9150600090a25050565b603454604080516333128d5960e01b8152905133926001600160a01b0316916333128d59916004808301926020929190829003018186803b15801562001f9d57600080fd5b505afa15801562001fb2573d6000803e3d6000fd5b505050506040513d602081101562001fc957600080fd5b50516001600160a01b031614620020125760405162461bcd60e51b8152600401808060200182810382526029815260200180620052a06029913960400191505060405180910390fd5b6034546040805163076b7fbb60e51b815290516000926001600160a01b03169163ed6ff760916004808301926020929190829003018186803b1580156200205857600080fd5b505afa1580156200206d573d6000803e3d6000fd5b505050506040513d60208110156200208457600080fd5b50516040805163b8c0f74560e01b81526001600160a01b03858116600483015291519293509083169163b8c0f7459160248082019260009290919082900301818387803b158015620020d557600080fd5b505af1158015620020ea573d6000803e3d6000fd5b50506040516001600160a01b03851692507f8bbf35441ac2c607ddecadd3d8ee58636d32f217fad201fb2655581502dd84e39150600090a25050565b60006200213262002e7e565b60015490915060ff16806200214c57506200214c62002e83565b8062002159575060005481115b620021965760405162461bcd60e51b815260040180806020018281038252602e815260200180620052c9602e913960400191505060405180910390fd5b60015460ff16158015620021b6576001805460ff19168117905560008290555b603480546001600160a01b0319166001600160a01b0385161790558015620021e3576001805460ff191690555b505050565b603454604080516333128d5960e01b8152905133926001600160a01b0316916333128d59916004808301926020929190829003018186803b1580156200222d57600080fd5b505afa15801562002242573d6000803e3d6000fd5b505050506040513d60208110156200225957600080fd5b50516001600160a01b031614620022a25760405162461bcd60e51b8152600401808060200182810382526029815260200180620052a06029913960400191505060405180910390fd5b6034546040805163076b7fbb60e51b815290516000926001600160a01b03169163ed6ff760916004808301926020929190829003018186803b158015620022e857600080fd5b505afa158015620022fd573d6000803e3d6000fd5b505050506040513d60208110156200231457600080fd5b50516040805163d06e2ec160e01b81526001600160a01b03858116600483015291519293509083169163d06e2ec19160248082019260009290919082900301818387803b1580156200236557600080fd5b505af11580156200237a573d6000803e3d6000fd5b50506040516001600160a01b03851692507f19dbf059e4d3a0cb998d4328b7b991bbe312827eeb053d8ff63edf33158e01db9150600090a25050565b603454604080516333128d5960e01b8152905133926001600160a01b0316916333128d59916004808301926020929190829003018186803b158015620023fb57600080fd5b505afa15801562002410573d6000803e3d6000fd5b505050506040513d60208110156200242757600080fd5b50516001600160a01b031614620024705760405162461bcd60e51b8152600401808060200182810382526029815260200180620052a06029913960400191505060405180910390fd5b6034546040805163076b7fbb60e51b815290516000926001600160a01b03169163ed6ff760916004808301926020929190829003018186803b158015620024b657600080fd5b505afa158015620024cb573d6000803e3d6000fd5b505050506040513d6020811015620024e257600080fd5b50516040805163d466016f60e01b81526001600160a01b0386811660048301526024820186905291519293509083169163d466016f9160448082019260009290919082900301818387803b1580156200253a57600080fd5b505af11580156200254f573d6000803e3d6000fd5b5050604080516001600160a01b03871681526020810186905281517fda47540c7f7fd5a68c3285f3bb708f322424f948f41df6f51622fa24b39686649450908190039091019150a1505050565b603454604080516333128d5960e01b8152905133926001600160a01b0316916333128d59916004808301926020929190829003018186803b158015620025e157600080fd5b505afa158015620025f6573d6000803e3d6000fd5b505050506040513d60208110156200260d57600080fd5b50516001600160a01b031614620026565760405162461bcd60e51b8152600401808060200182810382526029815260200180620052a06029913960400191505060405180910390fd5b6034546040805163076b7fbb60e51b815290516000926001600160a01b03169163ed6ff760916004808301926020929190829003018186803b1580156200269c57600080fd5b505afa158015620026b1573d6000803e3d6000fd5b505050506040513d6020811015620026c857600080fd5b50516040805163dae4c4e760e01b81526001600160a01b03858116600483015291519293509083169163dae4c4e79160248082019260009290919082900301818387803b1580156200271957600080fd5b505af11580156200272e573d6000803e3d6000fd5b50506040516001600160a01b03851692507f8dee2b2f3e98319ae6347eda521788f73f4086c9be9a594942b370b137fb8cb19150600090a25050565b603454604080516333128d5960e01b8152905133926001600160a01b0316916333128d59916004808301926020929190829003018186803b158015620027af57600080fd5b505afa158015620027c4573d6000803e3d6000fd5b505050506040513d6020811015620027db57600080fd5b50516001600160a01b031614620028245760405162461bcd60e51b8152600401808060200182810382526029815260200180620052a06029913960400191505060405180910390fd5b6034546040805163076b7fbb60e51b815290516000926001600160a01b03169163ed6ff760916004808301926020929190829003018186803b1580156200286a57600080fd5b505afa1580156200287f573d6000803e3d6000fd5b505050506040513d60208110156200289657600080fd5b505160408051636468108360e01b815290519192506001600160a01b0383169163646810839160048082019260009290919082900301818387803b158015620028de57600080fd5b505af1158015620028f3573d6000803e3d6000fd5b5050505050565b603454604080516333128d5960e01b8152905133926001600160a01b0316916333128d59916004808301926020929190829003018186803b1580156200293f57600080fd5b505afa15801562002954573d6000803e3d6000fd5b505050506040513d60208110156200296b57600080fd5b50516001600160a01b031614620029b45760405162461bcd60e51b8152600401808060200182810382526029815260200180620052a06029913960400191505060405180910390fd5b6034546040805163076b7fbb60e51b815290516000926001600160a01b03169163ed6ff760916004808301926020929190829003018186803b158015620029fa57600080fd5b505afa15801562002a0f573d6000803e3d6000fd5b505050506040513d602081101562002a2657600080fd5b50516040805163e8ae2f5b60e01b81526001600160a01b03858116600483015291519293509083169163e8ae2f5b9160248082019260009290919082900301818387803b15801562002a7757600080fd5b505af115801562002a8c573d6000803e3d6000fd5b50506040516001600160a01b03851692507f9cc75e4cafc9a556a369bc53468649075680eb554d225d5918f199453824796d9150600090a25050565b603454604080516333128d5960e01b8152905133926001600160a01b0316916333128d59916004808301926020929190829003018186803b15801562002b0d57600080fd5b505afa15801562002b22573d6000803e3d6000fd5b505050506040513d602081101562002b3957600080fd5b50516001600160a01b03161462002b825760405162461bcd60e51b8152600401808060200182810382526029815260200180620052a06029913960400191505060405180910390fd5b6034546040805163076b7fbb60e51b815290516000926001600160a01b03169163ed6ff760916004808301926020929190829003018186803b15801562002bc857600080fd5b505afa15801562002bdd573d6000803e3d6000fd5b505050506040513d602081101562002bf457600080fd5b50516040805163eede87c160e01b81526001600160a01b038681166004830152851515602483015291519293509083169163eede87c19160448082019260009290919082900301818387803b15801562002c4d57600080fd5b505af115801562002c62573d6000803e3d6000fd5b5050604080516001600160a01b0387168152851515602082015281517fab2f7f9e5ca2772fafa94f355c1842a80ae6b9e41f83083098d81f67d7a0b5089450908190039091019150a1505050565b603454604080516333128d5960e01b8152905133926001600160a01b0316916333128d59916004808301926020929190829003018186803b15801562002cf557600080fd5b505afa15801562002d0a573d6000803e3d6000fd5b505050506040513d602081101562002d2157600080fd5b50516001600160a01b03161462002d6a5760405162461bcd60e51b8152600401808060200182810382526029815260200180620052a06029913960400191505060405180910390fd5b6034546040805163076b7fbb60e51b815290516000926001600160a01b03169163ed6ff760916004808301926020929190829003018186803b15801562002db057600080fd5b505afa15801562002dc5573d6000803e3d6000fd5b505050506040513d602081101562002ddc57600080fd5b50516040805163ef1f937360e01b81526001600160a01b03858116600483015291519293509083169163ef1f93739160248082019260009290919082900301818387803b15801562002e2d57600080fd5b505af115801562002e42573d6000803e3d6000fd5b50506040516001600160a01b03851692507f995959c2ceab6ce20e8cd89c904e449fd3e21918a0f420c9ec9340595585526b9150600090a25050565b600390565b303b1590565b6124088062002e988339019056fe60806040523480156200001157600080fd5b506040516200240838038062002408833981810160405260a08110156200003757600080fd5b8151602083015160408085015160608601805192519496939591949391820192846401000000008211156200006b57600080fd5b9083019060208201858111156200008157600080fd5b82516401000000008111828201881017156200009c57600080fd5b82525081516020918201929091019080838360005b83811015620000cb578181015183820152602001620000b1565b50505050905090810190601f168015620000f95780820380516001836020036101000a031916815260200191505b50604052602001805160405193929190846401000000008211156200011d57600080fd5b9083019060208201858111156200013357600080fd5b82516401000000008111828201881017156200014e57600080fd5b82525081516020918201929091019080838360005b838110156200017d57818101518382015260200162000163565b50505050905090810190601f168015620001ab5780820380516001836020036101000a031916815260200191505b506040525050508181848260039080519060200190620001cd929190620003da565b508151620001e3906004906020850190620003da565b506005805460ff191660ff929092169190911790555050600a80546001600160a01b0319166001600160a01b0387811691909117918290556040805163076b7fbb60e51b81529051929091169163ed6ff76091600480820192602092909190829003018186803b1580156200025757600080fd5b505afa1580156200026c573d6000803e3d6000fd5b505050506040513d60208110156200028357600080fd5b5051600b80546001600160a01b0319166001600160a01b03928316179055600a5460408051630261bf8b60e01b815290519190921691630261bf8b916004808301926020929190829003018186803b158015620002df57600080fd5b505afa158015620002f4573d6000803e3d6000fd5b505050506040513d60208110156200030b57600080fd5b5051600c80546001600160a01b0319166001600160a01b03928316179055600a5460408051632f58b80d60e01b815290519190921691632f58b80d916004808301926020929190829003018186803b1580156200036757600080fd5b505afa1580156200037c573d6000803e3d6000fd5b505050506040513d60208110156200039357600080fd5b5051600d80546001600160a01b0319166001600160a01b0392831617905560058054610100600160a81b031916610100969092169590950217909355506200047f92505050565b828054600181600116156101000203166002900490600052602060002090601f016020900481019282601f106200041d57805160ff19168380011785556200044d565b828001600101855582156200044d579182015b828111156200044d57825182559160200191906001019062000430565b506200045b9291506200045f565b5090565b6200047c91905b808211156200045b576000815560010162000466565b90565b611f79806200048f6000396000f3fe608060405234801561001057600080fd5b50600436106101735760003560e01c80635eae177c116100de578063a9059cbb11610097578063db006a7511610071578063db006a75146104f3578063dd62ed3e14610510578063ee9907a41461053e578063f866c3191461056457610173565b8063a9059cbb14610499578063c634dfaa146104c5578063d0fc81d2146104eb57610173565b80635eae177c146103df57806370a082311461040b57806389d1a0fc1461043157806394362e8b1461043957806395d89b4114610465578063a457c2d71461046d57610173565b806323b872dd1161013057806323b872dd146102c3578063313ce567146102f9578063325a9b131461031757806339509351146103455780633edb7cb814610371578063445e80101461039d57610173565b806306fdde0314610178578063095ea7b3146101f55780630e49072d1461023557806312c87c2d1461025d57806318160ddd146102835780631d51e7cf1461029d575b600080fd5b61018061059a565b6040805160208082528351818301528351919283929083019185019080838360005b838110156101ba5781810151838201526020016101a2565b50505050905090810190601f1680156101e75780820380516001836020036101000a031916815260200191505b509250505060405180910390f35b6102216004803603604081101561020b57600080fd5b506001600160a01b038135169060200135610631565b604080519115158252519081900360200190f35b61025b6004803603602081101561024b57600080fd5b50356001600160a01b0316610648565b005b61025b6004803603602081101561027357600080fd5b50356001600160a01b0316610655565b61028b6106f4565b60408051918252519081900360200190f35b61028b600480360360208110156102b357600080fd5b50356001600160a01b03166107b6565b610221600480360360608110156102d957600080fd5b506001600160a01b038135811691602081013590911690604001356107d5565b61030161082c565b6040805160ff9092168252519081900360200190f35b61025b6004803603604081101561032d57600080fd5b506001600160a01b0381358116916020013516610835565b6102216004803603604081101561035b57600080fd5b506001600160a01b03813516906020013561089b565b61025b6004803603604081101561038757600080fd5b506001600160a01b0381351690602001356108d7565b6103c3600480360360208110156103b357600080fd5b50356001600160a01b03166109cc565b604080516001600160a01b039092168252519081900360200190f35b610221600480360360408110156103f557600080fd5b506001600160a01b0381351690602001356109ea565b61028b6004803603602081101561042157600080fd5b50356001600160a01b0316610a85565b6103c3610b38565b61025b6004803603604081101561044f57600080fd5b506001600160a01b038135169060200135610b4c565b610180610c21565b6102216004803603604081101561048357600080fd5b506001600160a01b038135169060200135610c82565b610221600480360360408110156104af57600080fd5b506001600160a01b038135169060200135610cbe565b61028b600480360360208110156104db57600080fd5b50356001600160a01b0316610ccb565b61028b610cd6565b61025b6004803603602081101561050957600080fd5b5035610cdc565b61028b6004803603604081101561052657600080fd5b506001600160a01b0381358116916020013516610f16565b61028b6004803603602081101561055457600080fd5b50356001600160a01b0316610f41565b61025b6004803603606081101561057a57600080fd5b506001600160a01b03813581169160208101359091169060400135610f5c565b60038054604080516020601f60026000196101006001881615020190951694909404938401819004810282018101909252828152606093909290918301828280156106265780601f106105fb57610100808354040283529160200191610626565b820191906000526020600020905b81548152906001019060200180831161060957829003601f168201915b505050505090505b90565b600061063e338484610fb5565b5060015b92915050565b61065233826110a1565b50565b6001600160a01b03811633141561069d5760405162461bcd60e51b8152600401808060200182810382526025815260200180611d8d6025913960400191505060405180910390fd5b3360008181526009602052604080822080546001600160a01b0319166001600160a01b03861690811790915590519092917fc2d6a42a9d5273283f73009a07aacfb043f2f91173a8d9d33b504afe898db08b91a350565b6000806106ff611290565b90508061071057600091505061062e565b600b546005546040805163d15e005360e01b81526001600160a01b036101009093048316600482015290516107b0936107ab93169163d15e0053916024808301926020929190829003018186803b15801561076a57600080fd5b505afa15801561077e573d6000803e3d6000fd5b505050506040513d602081101561079457600080fd5b505161079f84611296565b9063ffffffff6112ac16565b6112f7565b91505090565b6001600160a01b0381166000908152600860205260409020545b919050565b60006107e2848484611310565b6001600160a01b03841660009081526001602090815260408083203380855292529091205461082291869161081d908663ffffffff61137f16565b610fb5565b5060019392505050565b60055460ff1690565b6001600160a01b0382811660009081526009602052604090205416331461088d5760405162461bcd60e51b815260040180806020018281038252603a815260200180611f0b603a913960400191505060405180910390fd5b61089782826110a1565b5050565b3360008181526001602090815260408083206001600160a01b0387168452909152812054909161063e91859061081d908663ffffffff6113dc16565b600c546001600160a01b031633146109205760405162461bcd60e51b8152600401808060200182810382526032815260200180611ed96032913960400191505060405180910390fd5b600080600061092e85611436565b93509350935050610940858386611527565b61094a858561165e565b600061095c848663ffffffff61137f16565b61096c5761096986611737565b90505b856001600160a01b03167f90e5d3d68ec162d9c7de393037a3ede04dd44f68e051bf2ace4a73c299dbc4db8685846109a457856109a7565b60005b60408051938452602084019290925282820152519081900360600190a2505050505050565b6001600160a01b039081166000908152600760205260409020541690565b600d54600554604080516376e9d61560e01b81526101009092046001600160a01b039081166004840152858116602484015260448301859052905160009391909116916376e9d615916064808301926020929190829003018186803b158015610a5257600080fd5b505afa158015610a66573d6000803e3d6000fd5b505050506040513d6020811015610a7c57600080fd5b50519392505050565b600080610a91836117e9565b6001600160a01b03841660009081526008602052604090205490915081158015610ab9575080155b15610ac9576000925050506107d0565b6001600160a01b0384811660009081526007602052604090205416610b1a57610b1181610b0586610b00868463ffffffff6113dc16565b611804565b9063ffffffff61137f16565b925050506107d0565b610b11610b2b82610b058785611804565b839063ffffffff6113dc16565b60055461010090046001600160a01b031681565b600c546001600160a01b03163314610b955760405162461bcd60e51b8152600401808060200182810382526032815260200180611ed96032913960400191505060405180910390fd5b600080610ba184611436565b935093505050610bc584610bbe85856113dc90919063ffffffff16565b6000611527565b610bcf84846118b9565b604080518481526020810184905280820183905290516001600160a01b038616917fbe7799898ca2d813ff902b487c1b434ab45b47edd8f38b77ad5e99aae8341b7a919081900360600190a250505050565b60048054604080516020601f60026000196101006001881615020190951694909404938401819004810282018101909252828152606093909290918301828280156106265780601f106105fb57610100808354040283529160200191610626565b3360008181526001602090815260408083206001600160a01b0387168452909152812054909161063e91859061081d908663ffffffff61137f16565b600061063e338484611310565b6000610642826117e9565b60001981565b60008111610d31576040805162461bcd60e51b815260206004820181905260248201527f416d6f756e7420746f2072656465656d206e6565647320746f206265203e2030604482015290519081900360640190fd5b6000806000610d3f33611436565b91955093509150849050600019811415610d565750825b83811115610d955760405162461bcd60e51b8152600401808060200182810382526032815260200180611d396032913960400191505060405180910390fd5b610d9f33826109ea565b610df0576040805162461bcd60e51b815260206004820152601b60248201527f5472616e736665722063616e6e6f7420626520616c6c6f7765642e0000000000604482015290519081900360640190fd5b610dfb338483611527565b610e05338261165e565b6000610e17858363ffffffff61137f16565b610e2757610e2433611737565b90505b600c546005546001600160a01b0391821691639895e3d8916101009004163385610e578a8263ffffffff61137f16565b6040518563ffffffff1660e01b815260040180856001600160a01b03166001600160a01b03168152602001846001600160a01b03166001600160a01b03168152602001838152602001828152602001945050505050600060405180830381600087803b158015610ec657600080fd5b505af1158015610eda573d6000803e3d6000fd5b50505050336001600160a01b03167fbd5034ffbd47e4e72a94baa2cdb74c6fad73cb3bcdc13036b72ec8306f5a76468386846109a457866109a7565b6001600160a01b03918216600090815260016020908152604080832093909416825291909152205490565b6001600160a01b031660009081526006602052604090205490565b600c546001600160a01b03163314610fa55760405162461bcd60e51b8152600401808060200182810382526032815260200180611ed96032913960400191505060405180910390fd5b610fb08383836119a9565b505050565b6001600160a01b038316610ffa5760405162461bcd60e51b8152600401808060200182810382526024815260200180611eb56024913960400191505060405180910390fd5b6001600160a01b03821661103f5760405162461bcd60e51b8152600401808060200182810382526022815260200180611d6b6022913960400191505060405180910390fd5b6001600160a01b03808416600081815260016020908152604080832094871680845294825291829020859055815185815291517f8c5be1e5ebec7d5bd14f71427d1e84f3dd0314c0f7b2291e5b200ac8c7c3b9259281900390910190a3505050565b6001600160a01b0380831660009081526007602052604090205481169082168114156110fe5760405162461bcd60e51b815260040180806020018281038252602a815260200180611dd3602a913960400191505060405180910390fd5b60008060008061110d87611436565b9350935093509350600083116111545760405162461bcd60e51b8152600401808060200182810382526042815260200180611dfd6042913960600191505060405180910390fd5b6001600160a01b0385161561116f5761116f87600086611527565b866001600160a01b0316866001600160a01b031614156111fb576001600160a01b038716600081815260076020908152604080832080546001600160a01b03191690558051878152918201869052818101859052519192917f5e3cad45b1fe24159d1cb39788d82d0f69cc15770aa96fba1d3d1a73487355949181900360600190a35050505050610897565b6001600160a01b03878116600090815260076020526040812080546001600160a01b031916928916929092179091556112379088908590611527565b604080518481526020810184905280820183905290516001600160a01b0380891692908a16917f5e3cad45b1fe24159d1cb39788d82d0f69cc15770aa96fba1d3d1a73487355949181900360600190a350505050505050565b60025490565b600061064282633b9aca0063ffffffff611ad816565b60006112f06b033b2e3c9fd0803ce80000006112e46112d1868663ffffffff611ad816565b6b019d971e4fe8401e74000000906113dc565b9063ffffffff611b3116565b9392505050565b6000631dcd65006112f0633b9aca006112e483866113dc565b828161131c82826109ea565b61136d576040805162461bcd60e51b815260206004820152601b60248201527f5472616e736665722063616e6e6f7420626520616c6c6f7765642e0000000000604482015290519081900360640190fd5b6113788585856119a9565b5050505050565b6000828211156113d6576040805162461bcd60e51b815260206004820152601e60248201527f536166654d6174683a207375627472616374696f6e206f766572666c6f770000604482015290519081900360640190fd5b50900390565b6000828201838110156112f0576040805162461bcd60e51b815260206004820152601b60248201527f536166654d6174683a206164646974696f6e206f766572666c6f770000000000604482015290519081900360640190fd5b6000806000806000611447866117e9565b9050600061145882610b0589610a85565b905061146487826118b9565b600b546005546040805163d15e005360e01b81526101009092046001600160a01b0390811660048401529051600093919091169163d15e0053916024808301926020929190829003018186803b1580156114bd57600080fd5b505afa1580156114d1573d6000803e3d6000fd5b505050506040513d60208110156114e757600080fd5b50516001600160a01b0389166000908152600660205260409020819055905082611517818463ffffffff6113dc16565b9099909850919650945092505050565b6001600160a01b03808416600090815260076020526040902054168061154d5750610fb0565b60008061155983611436565b6001600160a01b038716600090815260086020526040902054919550935061158f9250869150610b05908863ffffffff6113dc16565b6001600160a01b03808516600090815260086020908152604080832094909455600790529190912054168015611602576001600160a01b0381166000908152600860205260409020546115e8908463ffffffff6113dc16565b6001600160a01b0382166000908152600860205260409020555b60408051848152602081018490528082018890526060810187905290516001600160a01b038616917f70ff8cf632603e2bfd1afb7e4061acce53d95356b1be9726b99fa22ba733b01f919081900360800190a250505050505050565b6001600160a01b0382166116a35760405162461bcd60e51b8152600401808060200182810382526021815260200180611e6f6021913960400191505060405180910390fd5b6002546116b6908263ffffffff61137f16565b6002556001600160a01b0382166000908152602081905260409020546116e2908263ffffffff61137f16565b6001600160a01b038316600081815260208181526040808320949094558351858152935191937fddf252ad1be2c89b69c2b068fc378daa952ba7f163c4a11628f55a4df523b3ef929081900390910190a35050565b6001600160a01b038116600081815260076020908152604080832080546001600160a01b03191690558051838152918201839052818101839052519192839290917f5e3cad45b1fe24159d1cb39788d82d0f69cc15770aa96fba1d3d1a7348735594919081900360600190a36001600160a01b0382166000908152600860205260409020546117e157506001600160a01b03811660009081526006602052604081205560016107d0565b5060006107d0565b6001600160a01b031660009081526020819052604090205490565b6001600160a01b03808316600090815260066020908152604080832054600b54600554835163d15e005360e01b815261010090910487166004820152925194956112f0956107ab9593946118ad94939092169263d15e00539260248082019391829003018186803b15801561187857600080fd5b505afa15801561188c573d6000803e3d6000fd5b505050506040513d60208110156118a257600080fd5b505161079f87611296565b9063ffffffff611b9b16565b6001600160a01b038216611914576040805162461bcd60e51b815260206004820152601f60248201527f45524332303a206d696e7420746f20746865207a65726f206164647265737300604482015290519081900360640190fd5b600254611927908263ffffffff6113dc16565b6002556001600160a01b038216600090815260208190526040902054611953908263ffffffff6113dc16565b6001600160a01b0383166000818152602081815260408083209490945583518581529351929391927fddf252ad1be2c89b69c2b068fc378daa952ba7f163c4a11628f55a4df523b3ef9281900390910190a35050565b600081116119e85760405162461bcd60e51b8152600401808060200182810382526030815260200180611e3f6030913960400191505060405180910390fd5b60008060006119f686611436565b93509350935050600080611a0987611436565b935093505050611a1a888588611527565b611a2e87610bbe848963ffffffff6113dc16565b611a39888888611bd3565b6000611a4b868863ffffffff61137f16565b611a5b57611a5889611737565b90505b876001600160a01b0316896001600160a01b03167f89a178eaa27e0cd201bd795ca8ff716ac0df9618494510ca79771cfc66ffcde889888786611a9e5789611aa1565b60005b60408051948552602085019390935283830191909152606083015260808201879052519081900360a00190a3505050505050505050565b600082611ae757506000610642565b82820282848281611af457fe5b04146112f05760405162461bcd60e51b8152600401808060200182810382526021815260200180611db26021913960400191505060405180910390fd5b6000808211611b87576040805162461bcd60e51b815260206004820152601a60248201527f536166654d6174683a206469766973696f6e206279207a65726f000000000000604482015290519081900360640190fd5b6000828481611b9257fe5b04949350505050565b600060028204611bcb836112e4611bbe876b033b2e3c9fd0803ce8000000611ad8565b849063ffffffff6113dc16565b949350505050565b6001600160a01b038316611c185760405162461bcd60e51b8152600401808060200182810382526025815260200180611e906025913960400191505060405180910390fd5b6001600160a01b038216611c5d5760405162461bcd60e51b8152600401808060200182810382526023815260200180611d166023913960400191505060405180910390fd5b6001600160a01b038316600090815260208190526040902054611c86908263ffffffff61137f16565b6001600160a01b038085166000908152602081905260408082209390935590841681522054611cbb908263ffffffff6113dc16565b6001600160a01b038084166000818152602081815260409182902094909455805185815290519193928716927fddf252ad1be2c89b69c2b068fc378daa952ba7f163c4a11628f55a4df523b3ef92918290030190a350505056fe45524332303a207472616e7366657220746f20746865207a65726f2061646472657373557365722063616e6e6f742072656465656d206d6f7265207468616e2074686520617661696c61626c652062616c616e636545524332303a20617070726f766520746f20746865207a65726f2061646472657373557365722063616e6e6f74206769766520616c6c6f77616e636520746f2068696d73656c66536166654d6174683a206d756c7469706c69636174696f6e206f766572666c6f77496e74657265737420697320616c7265616479207265646972656374656420746f207468652075736572496e7465726573742073747265616d2063616e206f6e6c79206265207265646972656374656420696620746865726520697320612076616c69642062616c616e63655472616e7366657272656420616d6f756e74206e6565647320746f2062652067726561746572207468616e207a65726f45524332303a206275726e2066726f6d20746865207a65726f206164647265737345524332303a207472616e736665722066726f6d20746865207a65726f206164647265737345524332303a20617070726f76652066726f6d20746865207a65726f20616464726573735468652063616c6c6572206f6620746869732066756e6374696f6e206d7573742062652061206c656e64696e6720706f6f6c43616c6c6572206973206e6f7420616c6c6f77656420746f2072656469726563742074686520696e746572657374206f66207468652075736572a265627a7a723158207029b8e2a8a6dcf81be1753ab59bc1690f3f41e58fae43086d4df87ae569744a64736f6c634300050e00325468652063616c6c6572206d7573742062652061206c656e64696e6720706f6f6c206d616e61676572436f6e747261637420696e7374616e63652068617320616c7265616479206265656e20696e697469616c697a6564546865206c6971756964697479206f66207468652072657365727665206e6565647320746f2062652030a265627a7a723158204d1ce711fae011c6ec420d2fa7c3b24e8848bb2b27ac9badf545b5cfb599753864736f6c634300050e0032",
  "source": "pragma solidity ^0.5.0;\n\nimport \"openzeppelin-solidity/contracts/math/SafeMath.sol\";\nimport \"openzeppelin-solidity/contracts/token/ERC20/ERC20Detailed.sol\";\nimport \"../libraries/openzeppelin-upgradeability/VersionedInitializable.sol\";\nimport \"../configuration/LendingPoolAddressesProvider.sol\";\nimport \"./LendingPoolCore.sol\";\nimport \"../tokenization/AToken.sol\";\n\n/**\n* @title LendingPoolConfigurator contract\n* @author Aave\n* @notice Executes configuration methods on the LendingPoolCore contract. Allows to enable/disable reserves,\n* and set different protocol parameters.\n**/\n\ncontract LendingPoolConfigurator is VersionedInitializable {\n    using SafeMath for uint256;\n\n    /**\n    * @dev emitted when a reserve is initialized.\n    * @param _reserve the address of the reserve\n    * @param _aToken the address of the overlying aToken contract\n    * @param _interestRateStrategyAddress the address of the interest rate strategy for the reserve\n    **/\n    event ReserveInitialized(\n        address indexed _reserve,\n        address indexed _aToken,\n        address _interestRateStrategyAddress\n    );\n\n    /**\n    * @dev emitted when a reserve is removed.\n    * @param _reserve the address of the reserve\n    **/\n    event ReserveRemoved(\n        address indexed _reserve\n    );\n\n    /**\n    * @dev emitted when borrowing is enabled on a reserve\n    * @param _reserve the address of the reserve\n    * @param _stableRateEnabled true if stable rate borrowing is enabled, false otherwise\n    **/\n    event BorrowingEnabledOnReserve(address _reserve, bool _stableRateEnabled);\n\n    /**\n    * @dev emitted when borrowing is disabled on a reserve\n    * @param _reserve the address of the reserve\n    **/\n    event BorrowingDisabledOnReserve(address indexed _reserve);\n\n    /**\n    * @dev emitted when a reserve is enabled as collateral.\n    * @param _reserve the address of the reserve\n    * @param _ltv the loan to value of the asset when used as collateral\n    * @param _liquidationThreshold the threshold at which loans using this asset as collateral will be considered undercollateralized\n    * @param _liquidationBonus the bonus liquidators receive to liquidate this asset\n    **/\n    event ReserveEnabledAsCollateral(\n        address indexed _reserve,\n        uint256 _ltv,\n        uint256 _liquidationThreshold,\n        uint256 _liquidationBonus\n    );\n\n    /**\n    * @dev emitted when a reserve is disabled as collateral\n    * @param _reserve the address of the reserve\n    **/\n    event ReserveDisabledAsCollateral(address indexed _reserve);\n\n    /**\n    * @dev emitted when stable rate borrowing is enabled on a reserve\n    * @param _reserve the address of the reserve\n    **/\n    event StableRateEnabledOnReserve(address indexed _reserve);\n\n    /**\n    * @dev emitted when stable rate borrowing is disabled on a reserve\n    * @param _reserve the address of the reserve\n    **/\n    event StableRateDisabledOnReserve(address indexed _reserve);\n\n    /**\n    * @dev emitted when a reserve is activated\n    * @param _reserve the address of the reserve\n    **/\n    event ReserveActivated(address indexed _reserve);\n\n    /**\n    * @dev emitted when a reserve is deactivated\n    * @param _reserve the address of the reserve\n    **/\n    event ReserveDeactivated(address indexed _reserve);\n\n    /**\n    * @dev emitted when a reserve is freezed\n    * @param _reserve the address of the reserve\n    **/\n    event ReserveFreezed(address indexed _reserve);\n\n    /**\n    * @dev emitted when a reserve is unfreezed\n    * @param _reserve the address of the reserve\n    **/\n    event ReserveUnfreezed(address indexed _reserve);\n\n    /**\n    * @dev emitted when a reserve loan to value is updated\n    * @param _reserve the address of the reserve\n    * @param _ltv the new value for the loan to value\n    **/\n    event ReserveBaseLtvChanged(address _reserve, uint256 _ltv);\n\n    /**\n    * @dev emitted when a reserve liquidation threshold is updated\n    * @param _reserve the address of the reserve\n    * @param _threshold the new value for the liquidation threshold\n    **/\n    event ReserveLiquidationThresholdChanged(address _reserve, uint256 _threshold);\n\n    /**\n    * @dev emitted when a reserve liquidation bonus is updated\n    * @param _reserve the address of the reserve\n    * @param _bonus the new value for the liquidation bonus\n    **/\n    event ReserveLiquidationBonusChanged(address _reserve, uint256 _bonus);\n\n    /**\n    * @dev emitted when the reserve decimals are updated\n    * @param _reserve the address of the reserve\n    * @param _decimals the new decimals\n    **/\n    event ReserveDecimalsChanged(address _reserve, uint256 _decimals);\n\n\n    /**\n    * @dev emitted when a reserve interest strategy contract is updated\n    * @param _reserve the address of the reserve\n    * @param _strategy the new address of the interest strategy contract\n    **/\n    event ReserveInterestRateStrategyChanged(address _reserve, address _strategy);\n\n    LendingPoolAddressesProvider public poolAddressesProvider;\n    /**\n    * @dev only the lending pool manager can call functions affected by this modifier\n    **/\n    modifier onlyLendingPoolManager {\n        require(\n            poolAddressesProvider.getLendingPoolManager() == msg.sender,\n            \"The caller must be a lending pool manager\"\n        );\n        _;\n    }\n\n    uint256 public constant CONFIGURATOR_REVISION = 0x3;\n\n    function getRevision() internal pure returns (uint256) {\n        return CONFIGURATOR_REVISION;\n    }\n\n    function initialize(LendingPoolAddressesProvider _poolAddressesProvider) public initializer {\n        poolAddressesProvider = _poolAddressesProvider;\n    }\n\n    /**\n    * @dev initializes a reserve\n    * @param _reserve the address of the reserve to be initialized\n    * @param _underlyingAssetDecimals the decimals of the reserve underlying asset\n    * @param _interestRateStrategyAddress the address of the interest rate strategy contract for this reserve\n    **/\n    function initReserve(\n        address _reserve,\n        uint8 _underlyingAssetDecimals,\n        address _interestRateStrategyAddress\n    ) external onlyLendingPoolManager {\n        ERC20Detailed asset = ERC20Detailed(_reserve);\n\n        string memory aTokenName = string(abi.encodePacked(\"Aave Interest bearing \", asset.name()));\n        string memory aTokenSymbol = string(abi.encodePacked(\"a\", asset.symbol()));\n\n        initReserveWithData(\n            _reserve,\n            aTokenName,\n            aTokenSymbol,\n            _underlyingAssetDecimals,\n            _interestRateStrategyAddress\n        );\n\n    }\n\n    /**\n    * @dev initializes a reserve using aTokenData provided externally (useful if the underlying ERC20 contract doesn't expose name or decimals)\n    * @param _reserve the address of the reserve to be initialized\n    * @param _aTokenName the name of the aToken contract\n    * @param _aTokenSymbol the symbol of the aToken contract\n    * @param _underlyingAssetDecimals the decimals of the reserve underlying asset\n    * @param _interestRateStrategyAddress the address of the interest rate strategy contract for this reserve\n    **/\n    function initReserveWithData(\n        address _reserve,\n        string memory _aTokenName,\n        string memory _aTokenSymbol,\n        uint8 _underlyingAssetDecimals,\n        address _interestRateStrategyAddress\n    ) public onlyLendingPoolManager {\n        LendingPoolCore core = LendingPoolCore(poolAddressesProvider.getLendingPoolCore());\n\n        AToken aTokenInstance = new AToken(\n            poolAddressesProvider,\n            _reserve,\n            _underlyingAssetDecimals,\n            _aTokenName,\n            _aTokenSymbol\n        );\n        core.initReserve(\n            _reserve,\n            address(aTokenInstance),\n            _underlyingAssetDecimals,\n            _interestRateStrategyAddress\n        );\n\n        emit ReserveInitialized(\n            _reserve,\n            address(aTokenInstance),\n            _interestRateStrategyAddress\n        );\n    }\n\n    /**\n    * @dev removes the last added reserve in the list of the reserves\n    * @param _reserveToRemove the address of the reserve\n    **/\n    function removeLastAddedReserve( address _reserveToRemove) external onlyLendingPoolManager {\n        LendingPoolCore core = LendingPoolCore(poolAddressesProvider.getLendingPoolCore());\n        core.removeLastAddedReserve(_reserveToRemove);\n        emit ReserveRemoved(_reserveToRemove);\n    }\n\n    /**\n    * @dev enables borrowing on a reserve\n    * @param _reserve the address of the reserve\n    * @param _stableBorrowRateEnabled true if stable borrow rate needs to be enabled by default on this reserve\n    **/\n    function enableBorrowingOnReserve(address _reserve, bool _stableBorrowRateEnabled)\n        external\n        onlyLendingPoolManager\n    {\n        LendingPoolCore core = LendingPoolCore(poolAddressesProvider.getLendingPoolCore());\n        core.enableBorrowingOnReserve(_reserve, _stableBorrowRateEnabled);\n        emit BorrowingEnabledOnReserve(_reserve, _stableBorrowRateEnabled);\n    }\n\n    /**\n    * @dev disables borrowing on a reserve\n    * @param _reserve the address of the reserve\n    **/\n    function disableBorrowingOnReserve(address _reserve) external onlyLendingPoolManager {\n        LendingPoolCore core = LendingPoolCore(poolAddressesProvider.getLendingPoolCore());\n        core.disableBorrowingOnReserve(_reserve);\n\n        emit BorrowingDisabledOnReserve(_reserve);\n    }\n\n    /**\n    * @dev enables a reserve to be used as collateral\n    * @param _reserve the address of the reserve\n    * @param _baseLTVasCollateral the loan to value of the asset when used as collateral\n    * @param _liquidationThreshold the threshold at which loans using this asset as collateral will be considered undercollateralized\n    * @param _liquidationBonus the bonus liquidators receive to liquidate this asset\n    **/\n    function enableReserveAsCollateral(\n        address _reserve,\n        uint256 _baseLTVasCollateral,\n        uint256 _liquidationThreshold,\n        uint256 _liquidationBonus\n    ) external onlyLendingPoolManager {\n        LendingPoolCore core = LendingPoolCore(poolAddressesProvider.getLendingPoolCore());\n        core.enableReserveAsCollateral(\n            _reserve,\n            _baseLTVasCollateral,\n            _liquidationThreshold,\n            _liquidationBonus\n        );\n        emit ReserveEnabledAsCollateral(\n            _reserve,\n            _baseLTVasCollateral,\n            _liquidationThreshold,\n            _liquidationBonus\n        );\n    }\n\n    /**\n    * @dev disables a reserve as collateral\n    * @param _reserve the address of the reserve\n    **/\n    function disableReserveAsCollateral(address _reserve) external onlyLendingPoolManager {\n        LendingPoolCore core = LendingPoolCore(poolAddressesProvider.getLendingPoolCore());\n        core.disableReserveAsCollateral(_reserve);\n\n        emit ReserveDisabledAsCollateral(_reserve);\n    }\n\n    /**\n    * @dev enable stable rate borrowing on a reserve\n    * @param _reserve the address of the reserve\n    **/\n    function enableReserveStableBorrowRate(address _reserve) external onlyLendingPoolManager {\n        LendingPoolCore core = LendingPoolCore(poolAddressesProvider.getLendingPoolCore());\n        core.enableReserveStableBorrowRate(_reserve);\n\n        emit StableRateEnabledOnReserve(_reserve);\n    }\n\n    /**\n    * @dev disable stable rate borrowing on a reserve\n    * @param _reserve the address of the reserve\n    **/\n    function disableReserveStableBorrowRate(address _reserve) external onlyLendingPoolManager {\n        LendingPoolCore core = LendingPoolCore(poolAddressesProvider.getLendingPoolCore());\n        core.disableReserveStableBorrowRate(_reserve);\n\n        emit StableRateDisabledOnReserve(_reserve);\n    }\n\n    /**\n    * @dev activates a reserve\n    * @param _reserve the address of the reserve\n    **/\n    function activateReserve(address _reserve) external onlyLendingPoolManager {\n        LendingPoolCore core = LendingPoolCore(poolAddressesProvider.getLendingPoolCore());\n        core.activateReserve(_reserve);\n\n        emit ReserveActivated(_reserve);\n    }\n\n    /**\n    * @dev deactivates a reserve\n    * @param _reserve the address of the reserve\n    **/\n    function deactivateReserve(address _reserve) external onlyLendingPoolManager {\n        LendingPoolCore core = LendingPoolCore(poolAddressesProvider.getLendingPoolCore());\n        require(core.getReserveTotalLiquidity(_reserve) == 0, \"The liquidity of the reserve needs to be 0\");\n        core.deactivateReserve(_reserve);\n\n        emit ReserveDeactivated(_reserve);\n    }\n\n    /**\n    * @dev freezes a reserve. A freezed reserve doesn't accept any new deposit, borrow or rate swap, but can accept repayments, liquidations, rate rebalances and redeems\n    * @param _reserve the address of the reserve\n    **/\n    function freezeReserve(address _reserve) external onlyLendingPoolManager {\n        LendingPoolCore core = LendingPoolCore(poolAddressesProvider.getLendingPoolCore());\n        core.freezeReserve(_reserve);\n\n        emit ReserveFreezed(_reserve);\n    }\n\n    /**\n    * @dev unfreezes a reserve\n    * @param _reserve the address of the reserve\n    **/\n    function unfreezeReserve(address _reserve) external onlyLendingPoolManager {\n        LendingPoolCore core = LendingPoolCore(poolAddressesProvider.getLendingPoolCore());\n        core.unfreezeReserve(_reserve);\n\n        emit ReserveUnfreezed(_reserve);\n    }\n\n    /**\n    * @dev emitted when a reserve loan to value is updated\n    * @param _reserve the address of the reserve\n    * @param _ltv the new value for the loan to value\n    **/\n    function setReserveBaseLTVasCollateral(address _reserve, uint256 _ltv)\n        external\n        onlyLendingPoolManager\n    {\n        LendingPoolCore core = LendingPoolCore(poolAddressesProvider.getLendingPoolCore());\n        core.setReserveBaseLTVasCollateral(_reserve, _ltv);\n        emit ReserveBaseLtvChanged(_reserve, _ltv);\n    }\n\n    /**\n    * @dev updates the liquidation threshold of a reserve.\n    * @param _reserve the address of the reserve\n    * @param _threshold the new value for the liquidation threshold\n    **/\n    function setReserveLiquidationThreshold(address _reserve, uint256 _threshold)\n        external\n        onlyLendingPoolManager\n    {\n        LendingPoolCore core = LendingPoolCore(poolAddressesProvider.getLendingPoolCore());\n        core.setReserveLiquidationThreshold(_reserve, _threshold);\n        emit ReserveLiquidationThresholdChanged(_reserve, _threshold);\n    }\n\n    /**\n    * @dev updates the liquidation bonus of a reserve\n    * @param _reserve the address of the reserve\n    * @param _bonus the new value for the liquidation bonus\n    **/\n    function setReserveLiquidationBonus(address _reserve, uint256 _bonus)\n        external\n        onlyLendingPoolManager\n    {\n        LendingPoolCore core = LendingPoolCore(poolAddressesProvider.getLendingPoolCore());\n        core.setReserveLiquidationBonus(_reserve, _bonus);\n        emit ReserveLiquidationBonusChanged(_reserve, _bonus);\n    }\n\n    /**\n    * @dev updates the reserve decimals\n    * @param _reserve the address of the reserve\n    * @param _decimals the new number of decimals\n    **/\n    function setReserveDecimals(address _reserve, uint256 _decimals)\n        external\n        onlyLendingPoolManager\n    {\n        LendingPoolCore core = LendingPoolCore(poolAddressesProvider.getLendingPoolCore());\n        core.setReserveDecimals(_reserve, _decimals);\n        emit ReserveDecimalsChanged(_reserve, _decimals);\n    }\n\n    /**\n    * @dev sets the interest rate strategy of a reserve\n    * @param _reserve the address of the reserve\n    * @param _rateStrategyAddress the new address of the interest strategy contract\n    **/\n    function setReserveInterestRateStrategyAddress(address _reserve, address _rateStrategyAddress)\n        external\n        onlyLendingPoolManager\n    {\n        LendingPoolCore core = LendingPoolCore(poolAddressesProvider.getLendingPoolCore());\n        core.setReserveInterestRateStrategyAddress(_reserve, _rateStrategyAddress);\n        emit ReserveInterestRateStrategyChanged(_reserve, _rateStrategyAddress);\n    }\n\n    /**\n    * @dev refreshes the lending pool core configuration to update the cached address\n    **/\n    function refreshLendingPoolCoreConfiguration() external onlyLendingPoolManager {\n        LendingPoolCore core = LendingPoolCore(poolAddressesProvider.getLendingPoolCore());\n        core.refreshConfiguration();\n    }\n}\n",
  "sourcePath": "/src/contracts/lendingpool/LendingPoolConfigurator.sol",
  "compiler": {
    "name": "solc",
    "version": "0.5.14+commit.01f1aaa4.Emscripten.clang"
  },
  "schemaVersion": "3.0.11",
  "updatedAt": "2020-01-09T12:41:06.676Z",
  "devdoc": {
    "author": "Aave",
    "methods": {
      "activateReserve(address)": {
        "details": "activates a reserve",
        "params": {
          "_reserve": "the address of the reserve*"
        }
      },
      "deactivateReserve(address)": {
        "details": "deactivates a reserve",
        "params": {
          "_reserve": "the address of the reserve*"
        }
      },
      "disableBorrowingOnReserve(address)": {
        "details": "disables borrowing on a reserve",
        "params": {
          "_reserve": "the address of the reserve*"
        }
      },
      "disableReserveAsCollateral(address)": {
        "details": "disables a reserve as collateral",
        "params": {
          "_reserve": "the address of the reserve*"
        }
      },
      "disableReserveStableBorrowRate(address)": {
        "details": "disable stable rate borrowing on a reserve",
        "params": {
          "_reserve": "the address of the reserve*"
        }
      },
      "enableBorrowingOnReserve(address,bool)": {
        "details": "enables borrowing on a reserve",
        "params": {
          "_reserve": "the address of the reserve",
          "_stableBorrowRateEnabled": "true if stable borrow rate needs to be enabled by default on this reserve*"
        }
      },
      "enableReserveAsCollateral(address,uint256,uint256,uint256)": {
        "details": "enables a reserve to be used as collateral",
        "params": {
          "_baseLTVasCollateral": "the loan to value of the asset when used as collateral",
          "_liquidationBonus": "the bonus liquidators receive to liquidate this asset*",
          "_liquidationThreshold": "the threshold at which loans using this asset as collateral will be considered undercollateralized",
          "_reserve": "the address of the reserve"
        }
      },
      "enableReserveStableBorrowRate(address)": {
        "details": "enable stable rate borrowing on a reserve",
        "params": {
          "_reserve": "the address of the reserve*"
        }
      },
      "freezeReserve(address)": {
        "details": "freezes a reserve. A freezed reserve doesn't accept any new deposit, borrow or rate swap, but can accept repayments, liquidations, rate rebalances and redeems",
        "params": {
          "_reserve": "the address of the reserve*"
        }
      },
      "initReserve(address,uint8,address)": {
        "details": "initializes a reserve",
        "params": {
          "_interestRateStrategyAddress": "the address of the interest rate strategy contract for this reserve*",
          "_reserve": "the address of the reserve to be initialized",
          "_underlyingAssetDecimals": "the decimals of the reserve underlying asset"
        }
      },
      "initReserveWithData(address,string,string,uint8,address)": {
        "details": "initializes a reserve using aTokenData provided externally (useful if the underlying ERC20 contract doesn't expose name or decimals)",
        "params": {
          "_aTokenName": "the name of the aToken contract",
          "_aTokenSymbol": "the symbol of the aToken contract",
          "_interestRateStrategyAddress": "the address of the interest rate strategy contract for this reserve*",
          "_reserve": "the address of the reserve to be initialized",
          "_underlyingAssetDecimals": "the decimals of the reserve underlying asset"
        }
      },
      "refreshLendingPoolCoreConfiguration()": {
        "details": "refreshes the lending pool core configuration to update the cached address*"
      },
      "removeLastAddedReserve(address)": {
        "details": "removes the last added reserve in the list of the reserves",
        "params": {
          "_reserveToRemove": "the address of the reserve*"
        }
      },
      "setReserveBaseLTVasCollateral(address,uint256)": {
        "details": "emitted when a reserve loan to value is updated",
        "params": {
          "_ltv": "the new value for the loan to value*",
          "_reserve": "the address of the reserve"
        }
      },
      "setReserveDecimals(address,uint256)": {
        "details": "updates the reserve decimals",
        "params": {
          "_decimals": "the new number of decimals*",
          "_reserve": "the address of the reserve"
        }
      },
      "setReserveInterestRateStrategyAddress(address,address)": {
        "details": "sets the interest rate strategy of a reserve",
        "params": {
          "_rateStrategyAddress": "the new address of the interest strategy contract*",
          "_reserve": "the address of the reserve"
        }
      },
      "setReserveLiquidationBonus(address,uint256)": {
        "details": "updates the liquidation bonus of a reserve",
        "params": {
          "_bonus": "the new value for the liquidation bonus*",
          "_reserve": "the address of the reserve"
        }
      },
      "setReserveLiquidationThreshold(address,uint256)": {
        "details": "updates the liquidation threshold of a reserve.",
        "params": {
          "_reserve": "the address of the reserve",
          "_threshold": "the new value for the liquidation threshold*"
        }
      },
      "unfreezeReserve(address)": {
        "details": "unfreezes a reserve",
        "params": {
          "_reserve": "the address of the reserve*"
        }
      }
    },
    "title": "LendingPoolConfigurator contract"
  },
  "userdoc": {
    "methods": {},
    "notice": "Executes configuration methods on the LendingPoolCore contract. Allows to enable/disable reserves, and set different protocol parameters.*"
  }
}