{
  "contractName": "LendingPoolConfigurator",
  "abi": [
    {
      "constant": false,
      "inputs": [],
      "name": "renounceOwnership",
      "outputs": [],
      "payable": false,
      "stateMutability": "nonpayable",
      "type": "function"
    },
    {
      "constant": true,
      "inputs": [],
      "name": "poolAddressesProvider",
      "outputs": [
        {
          "name": "",
          "type": "address"
        }
      ],
      "payable": false,
      "stateMutability": "view",
      "type": "function"
    },
    {
      "constant": true,
      "inputs": [],
      "name": "owner",
      "outputs": [
        {
          "name": "",
          "type": "address"
        }
      ],
      "payable": false,
      "stateMutability": "view",
      "type": "function"
    },
    {
      "constant": true,
      "inputs": [],
      "name": "isOwner",
      "outputs": [
        {
          "name": "",
          "type": "bool"
        }
      ],
      "payable": false,
      "stateMutability": "view",
      "type": "function"
    },
    {
      "constant": false,
      "inputs": [
        {
          "name": "newOwner",
          "type": "address"
        }
      ],
      "name": "transferOwnership",
      "outputs": [],
      "payable": false,
      "stateMutability": "nonpayable",
      "type": "function"
    },
    {
      "inputs": [
        {
          "name": "_poolAddressesProvider",
          "type": "address"
        }
      ],
      "payable": false,
      "stateMutability": "nonpayable",
      "type": "constructor"
    },
    {
      "anonymous": false,
      "inputs": [
        {
          "indexed": true,
          "name": "_reserve",
          "type": "address"
        },
        {
          "indexed": true,
          "name": "_aToken",
          "type": "address"
        },
        {
          "indexed": false,
          "name": "_initialExchangeRate",
          "type": "uint256"
        },
        {
          "indexed": false,
          "name": "_interestRateStrategyAddress",
          "type": "address"
        }
      ],
      "name": "ReserveInitialized",
      "type": "event"
    },
    {
      "anonymous": false,
      "inputs": [
        {
          "indexed": false,
          "name": "_reserve",
          "type": "address"
        },
        {
          "indexed": false,
          "name": "_fixedRateEnabled",
          "type": "bool"
        }
      ],
      "name": "BorrowingEnabledOnReserve",
      "type": "event"
    },
    {
      "anonymous": false,
      "inputs": [
        {
          "indexed": true,
          "name": "_reserve",
          "type": "address"
        }
      ],
      "name": "BorrowingDisabledOnReserve",
      "type": "event"
    },
    {
      "anonymous": false,
      "inputs": [
        {
          "indexed": true,
          "name": "_reserve",
          "type": "address"
        },
        {
          "indexed": false,
          "name": "_ltv",
          "type": "uint256"
        },
        {
          "indexed": false,
          "name": "_liquidationThreshold",
          "type": "uint256"
        }
      ],
      "name": "ReserveEnabledAsCollateral",
      "type": "event"
    },
    {
      "anonymous": false,
      "inputs": [
        {
          "indexed": true,
          "name": "_reserve",
          "type": "address"
        }
      ],
      "name": "ReserveDisabledAsCollateral",
      "type": "event"
    },
    {
      "anonymous": false,
      "inputs": [
        {
          "indexed": true,
          "name": "_reserve",
          "type": "address"
        }
      ],
      "name": "FixedRateEnabledOnReserve",
      "type": "event"
    },
    {
      "anonymous": false,
      "inputs": [
        {
          "indexed": true,
          "name": "_reserve",
          "type": "address"
        }
      ],
      "name": "FixedRateDisabledOnReserve",
      "type": "event"
    },
    {
      "anonymous": false,
      "inputs": [
        {
          "indexed": true,
          "name": "_reserve",
          "type": "address"
        }
      ],
      "name": "ReserveActivated",
      "type": "event"
    },
    {
      "anonymous": false,
      "inputs": [
        {
          "indexed": true,
          "name": "_reserve",
          "type": "address"
        }
      ],
      "name": "ReserveDeactivated",
      "type": "event"
    },
    {
      "anonymous": false,
      "inputs": [
        {
          "indexed": true,
          "name": "previousOwner",
          "type": "address"
        },
        {
          "indexed": true,
          "name": "newOwner",
          "type": "address"
        }
      ],
      "name": "OwnershipTransferred",
      "type": "event"
    },
    {
      "constant": false,
      "inputs": [
        {
          "name": "_reserve",
          "type": "address"
        },
        {
          "name": "_aTokenInitialExchangeRate",
          "type": "uint256"
        },
        {
          "name": "_underlyingAssetDecimals",
          "type": "uint256"
        },
        {
          "name": "_interestRateStrategyAddress",
          "type": "address"
        }
      ],
      "name": "initReserve",
      "outputs": [],
      "payable": false,
      "stateMutability": "nonpayable",
      "type": "function"
    },
    {
      "constant": false,
      "inputs": [
        {
          "name": "_reserve",
          "type": "address"
        },
        {
          "name": "aTokenName",
          "type": "string"
        },
        {
          "name": "aTokenSymbol",
          "type": "string"
        },
        {
          "name": "_aTokenInitialExchangeRate",
          "type": "uint256"
        },
        {
          "name": "_underlyingAssetDecimals",
          "type": "uint256"
        },
        {
          "name": "_interestRateStrategyAddress",
          "type": "address"
        }
      ],
      "name": "initReserveWithData",
      "outputs": [],
      "payable": false,
      "stateMutability": "nonpayable",
      "type": "function"
    },
    {
      "constant": false,
      "inputs": [
        {
          "name": "_reserve",
          "type": "address"
        },
        {
          "name": "_fixedBorrowRateEnabled",
          "type": "bool"
        }
      ],
      "name": "enableBorrowingOnReserve",
      "outputs": [],
      "payable": false,
      "stateMutability": "nonpayable",
      "type": "function"
    },
    {
      "constant": false,
      "inputs": [
        {
          "name": "_reserve",
          "type": "address"
        }
      ],
      "name": "disableBorrowingOnReserve",
      "outputs": [],
      "payable": false,
      "stateMutability": "nonpayable",
      "type": "function"
    },
    {
      "constant": false,
      "inputs": [
        {
          "name": "_reserve",
          "type": "address"
        },
        {
          "name": "_baseLTVasCollateral",
          "type": "uint256"
        },
        {
          "name": "_liquidationThreshold",
          "type": "uint256"
        }
      ],
      "name": "enableReserveAsCollateral",
      "outputs": [],
      "payable": false,
      "stateMutability": "nonpayable",
      "type": "function"
    },
    {
      "constant": false,
      "inputs": [
        {
          "name": "_reserve",
          "type": "address"
        }
      ],
      "name": "disableReserveAsCollateral",
      "outputs": [],
      "payable": false,
      "stateMutability": "nonpayable",
      "type": "function"
    },
    {
      "constant": false,
      "inputs": [
        {
          "name": "_reserve",
          "type": "address"
        }
      ],
      "name": "enableReserveFixedBorrowRate",
      "outputs": [],
      "payable": false,
      "stateMutability": "nonpayable",
      "type": "function"
    },
    {
      "constant": false,
      "inputs": [
        {
          "name": "_reserve",
          "type": "address"
        }
      ],
      "name": "disableReserveFixedBorrowRate",
      "outputs": [],
      "payable": false,
      "stateMutability": "nonpayable",
      "type": "function"
    },
    {
      "constant": false,
      "inputs": [
        {
          "name": "_reserve",
          "type": "address"
        }
      ],
      "name": "activateReserve",
      "outputs": [],
      "payable": false,
      "stateMutability": "nonpayable",
      "type": "function"
    },
    {
      "constant": false,
      "inputs": [
        {
          "name": "_reserve",
          "type": "address"
        }
      ],
      "name": "deactivateReserve",
      "outputs": [],
      "payable": false,
      "stateMutability": "nonpayable",
      "type": "function"
    },
    {
      "constant": false,
      "inputs": [
        {
          "name": "_reserve",
          "type": "address"
        },
        {
          "name": "_ltv",
          "type": "uint256"
        }
      ],
      "name": "setReserveBaseLTVasCollateral",
      "outputs": [],
      "payable": false,
      "stateMutability": "nonpayable",
      "type": "function"
    },
    {
      "constant": false,
      "inputs": [
        {
          "name": "_reserve",
          "type": "address"
        },
        {
          "name": "_threshold",
          "type": "uint256"
        }
      ],
      "name": "setReserveLiquidationThreshold",
      "outputs": [],
      "payable": false,
      "stateMutability": "nonpayable",
      "type": "function"
    },
    {
      "constant": false,
      "inputs": [
        {
          "name": "_reserve",
          "type": "address"
        },
        {
          "name": "_threshold",
          "type": "uint256"
        }
      ],
      "name": "setReserveLiquidationDiscount",
      "outputs": [],
      "payable": false,
      "stateMutability": "nonpayable",
      "type": "function"
    },
    {
      "constant": false,
      "inputs": [
        {
          "name": "_reserve",
          "type": "address"
        },
        {
          "name": "_rateStrategyAddress",
          "type": "address"
        }
      ],
      "name": "setReserveInterestRateStrategyAddress",
      "outputs": [],
      "payable": false,
      "stateMutability": "nonpayable",
      "type": "function"
    },
    {
      "constant": false,
      "inputs": [
        {
          "name": "_provider",
          "type": "address"
        }
      ],
      "name": "setLendingPoolCoreAddressesProvider",
      "outputs": [],
      "payable": false,
      "stateMutability": "nonpayable",
      "type": "function"
    },
    {
      "constant": false,
      "inputs": [],
      "name": "refreshLendingPoolCoreConfiguration",
      "outputs": [],
      "payable": false,
      "stateMutability": "nonpayable",
      "type": "function"
    }
  ],
  "bytecode": "0x608060405234801561001057600080fd5b5060405160208061429d8339810180604052602081101561003057600080fd5b5051600080546001600160a01b03191633178082556040516001600160a01b039190911691907f8be0079c531659141344cd1fd0a4f28419497f9722a3daafe3b4186f6b6457e0908290a3600180546001600160a01b0319166001600160a01b03929092169190911790556141f3806100aa6000396000f3fe60806040523480156200001157600080fd5b5060043610620001545760003560e01c8063a17166f111620000c9578063d466016f1162000087578063d466016f14620004d7578063d7e075811462000506578063e12dcc6c146200052f578063e8ae2f5b1462000539578063eede87c11462000562578063f2fde38b14620005935762000154565b8063a17166f114620002d7578063a8dc0f45146200042d578063a9ef33e91462000456578063b46a4b34146200047f578063b75d6f3414620004ae5762000154565b8063715018a61162000117578063715018a6146200025657806380e17d8714620002605780638da5cb5b14620002865780638f32d59b14620002905780639789b68a14620002ae5762000154565b80631d2118f9146200015957806329a17868146200018c5780633443a14b14620001c15780633e72a45414620001f05780635f674c871462000219575b600080fd5b6200018a600480360360408110156200017157600080fd5b506001600160a01b0381358116916020013516620005bc565b005b6200018a60048036036060811015620001a457600080fd5b506001600160a01b0381351690602081013590604001356200076b565b6200018a60048036036040811015620001d957600080fd5b506001600160a01b03813516906020013562000967565b6200018a600480360360208110156200020857600080fd5b50356001600160a01b031662000af7565b6200018a600480360360808110156200023157600080fd5b506001600160a01b038135811691602081013591604082013591606001351662000cd1565b6200018a62001043565b6200026a620010ec565b604080516001600160a01b039092168252519081900360200190f35b6200026a620010fb565b6200029a6200110a565b604080519115158252519081900360200190f35b6200018a60048036036020811015620002c657600080fd5b50356001600160a01b03166200111b565b6200018a600480360360c0811015620002ef57600080fd5b6001600160a01b038235169190810190604081016020820135600160201b8111156200031a57600080fd5b8201836020820111156200032d57600080fd5b803590602001918460018302840111600160201b831117156200034f57600080fd5b91908080601f0160208091040260200160405190810160405280939291908181526020018383808284376000920191909152509295949360208101935035915050600160201b811115620003a257600080fd5b820183602082011115620003b557600080fd5b803590602001918460018302840111600160201b83111715620003d757600080fd5b91908080601f01602080910402602001604051908101604052809392919081815260200183838082843760009201919091525092955050823593505050602081013590604001356001600160a01b0316620012f5565b6200018a600480360360208110156200044557600080fd5b50356001600160a01b031662001674565b6200018a600480360360208110156200046e57600080fd5b50356001600160a01b03166200184e565b6200018a600480360360408110156200049757600080fd5b506001600160a01b038135169060200135620019f4565b6200018a60048036036020811015620004c657600080fd5b50356001600160a01b031662001b84565b6200018a60048036036040811015620004ef57600080fd5b506001600160a01b03813516906020013562001d5e565b6200018a600480360360208110156200051e57600080fd5b50356001600160a01b031662001eee565b6200018a620020c8565b6200018a600480360360208110156200055157600080fd5b50356001600160a01b031662002264565b6200018a600480360360408110156200057a57600080fd5b506001600160a01b03813516906020013515156200243e565b6200018a60048036036020811015620005ab57600080fd5b50356001600160a01b031662002632565b60015460408051600160e01b6333128d59028152905133926001600160a01b0316916333128d59916004808301926020929190829003018186803b1580156200060457600080fd5b505afa15801562000619573d6000803e3d6000fd5b505050506040513d60208110156200063057600080fd5b50516001600160a01b0316146200067c57604051600160e51b62461bcd0281526004018080602001828103825260298152602001806200419f6029913960400191505060405180910390fd5b60015460408051600160e51b63076b7fbb02815290516000926001600160a01b03169163ed6ff760916004808301926020929190829003018186803b158015620006c557600080fd5b505afa158015620006da573d6000803e3d6000fd5b505050506040513d6020811015620006f157600080fd5b505160408051600160e01b631d2118f90281526001600160a01b0386811660048301528581166024830152915192935090831691631d2118f99160448082019260009290919082900301818387803b1580156200074d57600080fd5b505af115801562000762573d6000803e3d6000fd5b50505050505050565b60015460408051600160e01b6333128d59028152905133926001600160a01b0316916333128d59916004808301926020929190829003018186803b158015620007b357600080fd5b505afa158015620007c8573d6000803e3d6000fd5b505050506040513d6020811015620007df57600080fd5b50516001600160a01b0316146200082b57604051600160e51b62461bcd0281526004018080602001828103825260298152602001806200419f6029913960400191505060405180910390fd5b60015460408051600160e51b63076b7fbb02815290516000926001600160a01b03169163ed6ff760916004808301926020929190829003018186803b1580156200087457600080fd5b505afa15801562000889573d6000803e3d6000fd5b505050506040513d6020811015620008a057600080fd5b505160408051600160e31b6305342f0d0281526001600160a01b03878116600483015260248201879052604482018690529151929350908316916329a178689160648082019260009290919082900301818387803b1580156200090257600080fd5b505af115801562000917573d6000803e3d6000fd5b5050604080518681526020810186905281516001600160a01b03891694507f0b2f4ddd80e34a38c71a6c5f953a99dc8b45c79b8c563d301c2bb2267b9dbc3493509081900390910190a250505050565b60015460408051600160e01b6333128d59028152905133926001600160a01b0316916333128d59916004808301926020929190829003018186803b158015620009af57600080fd5b505afa158015620009c4573d6000803e3d6000fd5b505050506040513d6020811015620009db57600080fd5b50516001600160a01b03161462000a2757604051600160e51b62461bcd0281526004018080602001828103825260298152602001806200419f6029913960400191505060405180910390fd5b60015460408051600160e51b63076b7fbb02815290516000926001600160a01b03169163ed6ff760916004808301926020929190829003018186803b15801562000a7057600080fd5b505afa15801562000a85573d6000803e3d6000fd5b505050506040513d602081101562000a9c57600080fd5b505160408051600160e01b633443a14b0281526001600160a01b03868116600483015260248201869052915192935090831691633443a14b9160448082019260009290919082900301818387803b1580156200074d57600080fd5b60015460408051600160e01b6333128d59028152905133926001600160a01b0316916333128d59916004808301926020929190829003018186803b15801562000b3f57600080fd5b505afa15801562000b54573d6000803e3d6000fd5b505050506040513d602081101562000b6b57600080fd5b50516001600160a01b03161462000bb757604051600160e51b62461bcd0281526004018080602001828103825260298152602001806200419f6029913960400191505060405180910390fd5b60015460408051600160e51b63076b7fbb02815290516000926001600160a01b03169163ed6ff760916004808301926020929190829003018186803b15801562000c0057600080fd5b505afa15801562000c15573d6000803e3d6000fd5b505050506040513d602081101562000c2c57600080fd5b505160408051600160e21b630f9ca9150281526001600160a01b038581166004830152915192935090831691633e72a4549160248082019260009290919082900301818387803b15801562000c8057600080fd5b505af115801562000c95573d6000803e3d6000fd5b50506040516001600160a01b03851692507f6f60cf8bd0f218cabe1ea3150bd07b0b758c35c4cfdf7138017a283e65564d5e9150600090a25050565b60015460408051600160e01b6333128d59028152905133926001600160a01b0316916333128d59916004808301926020929190829003018186803b15801562000d1957600080fd5b505afa15801562000d2e573d6000803e3d6000fd5b505050506040513d602081101562000d4557600080fd5b50516001600160a01b03161462000d9157604051600160e51b62461bcd0281526004018080602001828103825260298152602001806200419f6029913960400191505060405180910390fd5b60008490506060816001600160a01b03166306fdde036040518163ffffffff1660e01b815260040160006040518083038186803b15801562000dd257600080fd5b505afa15801562000de7573d6000803e3d6000fd5b505050506040513d6000823e601f3d908101601f19168201604052602081101562000e1157600080fd5b810190808051600160201b81111562000e2957600080fd5b8201602081018481111562000e3d57600080fd5b8151600160201b81118282018710171562000e5757600080fd5b505092919050505060405160200180807f4161766520496e7465726573742062656172696e67200000000000000000000081525060160182805190602001908083835b6020831062000ebb5780518252601f19909201916020918201910162000e9a565b6001836020036101000a03801982511681845116808217855250505050505090500191505060405160208183030381529060405290506060826001600160a01b03166395d89b416040518163ffffffff1660e01b815260040160006040518083038186803b15801562000f2d57600080fd5b505afa15801562000f42573d6000803e3d6000fd5b505050506040513d6000823e601f3d908101601f19168201604052602081101562000f6c57600080fd5b810190808051600160201b81111562000f8457600080fd5b8201602081018481111562000f9857600080fd5b8151600160201b81118282018710171562000fb257600080fd5b50509291905050506040516020018080600160f81b60610281525060010182805190602001908083835b6020831062000ffd5780518252601f19909201916020918201910162000fdc565b6001836020036101000a038019825116818451168082178552505050505050905001915050604051602081830303815290604052905062000762878383898989620012f5565b6200104d6200110a565b620010a25760408051600160e51b62461bcd02815260206004820181905260248201527f4f776e61626c653a2063616c6c6572206973206e6f7420746865206f776e6572604482015290519081900360640190fd5b600080546040516001600160a01b03909116907f8be0079c531659141344cd1fd0a4f28419497f9722a3daafe3b4186f6b6457e0908390a3600080546001600160a01b0319169055565b6001546001600160a01b031681565b6000546001600160a01b031690565b6000546001600160a01b0316331490565b60015460408051600160e01b6333128d59028152905133926001600160a01b0316916333128d59916004808301926020929190829003018186803b1580156200116357600080fd5b505afa15801562001178573d6000803e3d6000fd5b505050506040513d60208110156200118f57600080fd5b50516001600160a01b031614620011db57604051600160e51b62461bcd0281526004018080602001828103825260298152602001806200419f6029913960400191505060405180910390fd5b60015460408051600160e51b63076b7fbb02815290516000926001600160a01b03169163ed6ff760916004808301926020929190829003018186803b1580156200122457600080fd5b505afa15801562001239573d6000803e3d6000fd5b505050506040513d60208110156200125057600080fd5b505160408051600160e11b634bc4db450281526001600160a01b038581166004830152915192935090831691639789b68a9160248082019260009290919082900301818387803b158015620012a457600080fd5b505af1158015620012b9573d6000803e3d6000fd5b50506040516001600160a01b03851692507f3785f652b18f48a8a4c505037390f85f5b89bfe105384b964138f8a947ae89c69150600090a25050565b60015460408051600160e01b6333128d59028152905133926001600160a01b0316916333128d59916004808301926020929190829003018186803b1580156200133d57600080fd5b505afa15801562001352573d6000803e3d6000fd5b505050506040513d60208110156200136957600080fd5b50516001600160a01b031614620013b557604051600160e51b62461bcd0281526004018080602001828103825260298152602001806200419f6029913960400191505060405180910390fd5b60015460408051600160e51b63076b7fbb02815290516000926001600160a01b03169163ed6ff760916004808301926020929190829003018186803b158015620013fe57600080fd5b505afa15801562001413573d6000803e3d6000fd5b505050506040513d60208110156200142a57600080fd5b50516001546040519192506000916001600160a01b0390911690899086908a908a906012908b906200145c9062002744565b80886001600160a01b03166001600160a01b03168152602001876001600160a01b03166001600160a01b0316815260200186815260200180602001806020018560ff168152602001848152602001838103835287818151815260200191508051906020019080838360005b83811015620014e1578181015183820152602001620014c7565b50505050905090810190601f1680156200150f5780820380516001836020036101000a031916815260200191505b50838103825286518152865160209182019188019080838360005b83811015620015445781810151838201526020016200152a565b50505050905090810190601f168015620015725780820380516001836020036101000a031916815260200191505b509950505050505050505050604051809103906000f0801580156200159b573d6000803e3d6000fd5b5060408051600160e61b630114cc290281526001600160a01b038b8116600483015280841660248301526044820188905286811660648301529151929350908416916345330a409160848082019260009290919082900301818387803b1580156200160557600080fd5b505af11580156200161a573d6000803e3d6000fd5b5050604080518881526001600160a01b03878116602083015282518187169550908d1693507f9c6373c8d8364b6e1acd1bcb5895e6aee73dc8128782869914d27d7e54a93898929181900390910190a35050505050505050565b60015460408051600160e01b6333128d59028152905133926001600160a01b0316916333128d59916004808301926020929190829003018186803b158015620016bc57600080fd5b505afa158015620016d1573d6000803e3d6000fd5b505050506040513d6020811015620016e857600080fd5b50516001600160a01b0316146200173457604051600160e51b62461bcd0281526004018080602001828103825260298152602001806200419f6029913960400191505060405180910390fd5b60015460408051600160e51b63076b7fbb02815290516000926001600160a01b03169163ed6ff760916004808301926020929190829003018186803b1580156200177d57600080fd5b505afa15801562001792573d6000803e3d6000fd5b505050506040513d6020811015620017a957600080fd5b505160408051600160e01b63a8dc0f450281526001600160a01b03858116600483015291519293509083169163a8dc0f459160248082019260009290919082900301818387803b158015620017fd57600080fd5b505af115801562001812573d6000803e3d6000fd5b50506040516001600160a01b03851692507fe9a7e5fd4fc8ea18e602350324bf48e8f05d12434af0ce0be05743e6a5fdcb9e9150600090a25050565b60015460408051600160e01b6333128d59028152905133926001600160a01b0316916333128d59916004808301926020929190829003018186803b1580156200189657600080fd5b505afa158015620018ab573d6000803e3d6000fd5b505050506040513d6020811015620018c257600080fd5b50516001600160a01b0316146200190e57604051600160e51b62461bcd0281526004018080602001828103825260298152602001806200419f6029913960400191505060405180910390fd5b60015460408051600160e51b63076b7fbb02815290516000926001600160a01b03169163ed6ff760916004808301926020929190829003018186803b1580156200195757600080fd5b505afa1580156200196c573d6000803e3d6000fd5b505050506040513d60208110156200198357600080fd5b505160408051600160e11b6333914cbd0281526001600160a01b038581166004830152915192935090831691636722997a9160248082019260009290919082900301818387803b158015620019d757600080fd5b505af1158015620019ec573d6000803e3d6000fd5b505050505050565b60015460408051600160e01b6333128d59028152905133926001600160a01b0316916333128d59916004808301926020929190829003018186803b15801562001a3c57600080fd5b505afa15801562001a51573d6000803e3d6000fd5b505050506040513d602081101562001a6857600080fd5b50516001600160a01b03161462001ab457604051600160e51b62461bcd0281526004018080602001828103825260298152602001806200419f6029913960400191505060405180910390fd5b60015460408051600160e51b63076b7fbb02815290516000926001600160a01b03169163ed6ff760916004808301926020929190829003018186803b15801562001afd57600080fd5b505afa15801562001b12573d6000803e3d6000fd5b505050506040513d602081101562001b2957600080fd5b505160408051600160e21b632d1a92cd0281526001600160a01b0386811660048301526024820186905291519293509083169163b46a4b349160448082019260009290919082900301818387803b1580156200074d57600080fd5b60015460408051600160e01b6333128d59028152905133926001600160a01b0316916333128d59916004808301926020929190829003018186803b15801562001bcc57600080fd5b505afa15801562001be1573d6000803e3d6000fd5b505050506040513d602081101562001bf857600080fd5b50516001600160a01b03161462001c4457604051600160e51b62461bcd0281526004018080602001828103825260298152602001806200419f6029913960400191505060405180910390fd5b60015460408051600160e51b63076b7fbb02815290516000926001600160a01b03169163ed6ff760916004808301926020929190829003018186803b15801562001c8d57600080fd5b505afa15801562001ca2573d6000803e3d6000fd5b505050506040513d602081101562001cb957600080fd5b505160408051600160e21b632dd75bcd0281526001600160a01b03858116600483015291519293509083169163b75d6f349160248082019260009290919082900301818387803b15801562001d0d57600080fd5b505af115801562001d22573d6000803e3d6000fd5b50506040516001600160a01b03851692507f35b80cd8ea3440e9a8454f116fa658b858da1b64c86c48451f4559cefcdfb56c9150600090a25050565b60015460408051600160e01b6333128d59028152905133926001600160a01b0316916333128d59916004808301926020929190829003018186803b15801562001da657600080fd5b505afa15801562001dbb573d6000803e3d6000fd5b505050506040513d602081101562001dd257600080fd5b50516001600160a01b03161462001e1e57604051600160e51b62461bcd0281526004018080602001828103825260298152602001806200419f6029913960400191505060405180910390fd5b60015460408051600160e51b63076b7fbb02815290516000926001600160a01b03169163ed6ff760916004808301926020929190829003018186803b15801562001e6757600080fd5b505afa15801562001e7c573d6000803e3d6000fd5b505050506040513d602081101562001e9357600080fd5b505160408051600160e01b63d466016f0281526001600160a01b0386811660048301526024820186905291519293509083169163d466016f9160448082019260009290919082900301818387803b1580156200074d57600080fd5b60015460408051600160e01b6333128d59028152905133926001600160a01b0316916333128d59916004808301926020929190829003018186803b15801562001f3657600080fd5b505afa15801562001f4b573d6000803e3d6000fd5b505050506040513d602081101562001f6257600080fd5b50516001600160a01b03161462001fae57604051600160e51b62461bcd0281526004018080602001828103825260298152602001806200419f6029913960400191505060405180910390fd5b60015460408051600160e51b63076b7fbb02815290516000926001600160a01b03169163ed6ff760916004808301926020929190829003018186803b15801562001ff757600080fd5b505afa1580156200200c573d6000803e3d6000fd5b505050506040513d60208110156200202357600080fd5b505160408051600160e01b63d7e075810281526001600160a01b03858116600483015291519293509083169163d7e075819160248082019260009290919082900301818387803b1580156200207757600080fd5b505af11580156200208c573d6000803e3d6000fd5b50506040516001600160a01b03851692507fd4fb373808cfe3d293bd3d3826c216194001d776dff64c75ae047dfda7f564de9150600090a25050565b60015460408051600160e01b6333128d59028152905133926001600160a01b0316916333128d59916004808301926020929190829003018186803b1580156200211057600080fd5b505afa15801562002125573d6000803e3d6000fd5b505050506040513d60208110156200213c57600080fd5b50516001600160a01b0316146200218857604051600160e51b62461bcd0281526004018080602001828103825260298152602001806200419f6029913960400191505060405180910390fd5b60015460408051600160e51b63076b7fbb02815290516000926001600160a01b03169163ed6ff760916004808301926020929190829003018186803b158015620021d157600080fd5b505afa158015620021e6573d6000803e3d6000fd5b505050506040513d6020811015620021fd57600080fd5b505160408051600160e01b636468108302815290519192506001600160a01b0383169163646810839160048082019260009290919082900301818387803b1580156200224857600080fd5b505af11580156200225d573d6000803e3d6000fd5b5050505050565b60015460408051600160e01b6333128d59028152905133926001600160a01b0316916333128d59916004808301926020929190829003018186803b158015620022ac57600080fd5b505afa158015620022c1573d6000803e3d6000fd5b505050506040513d6020811015620022d857600080fd5b50516001600160a01b0316146200232457604051600160e51b62461bcd0281526004018080602001828103825260298152602001806200419f6029913960400191505060405180910390fd5b60015460408051600160e51b63076b7fbb02815290516000926001600160a01b03169163ed6ff760916004808301926020929190829003018186803b1580156200236d57600080fd5b505afa15801562002382573d6000803e3d6000fd5b505050506040513d60208110156200239957600080fd5b505160408051600160e01b63e8ae2f5b0281526001600160a01b03858116600483015291519293509083169163e8ae2f5b9160248082019260009290919082900301818387803b158015620023ed57600080fd5b505af115801562002402573d6000803e3d6000fd5b50506040516001600160a01b03851692507f9cc75e4cafc9a556a369bc53468649075680eb554d225d5918f199453824796d9150600090a25050565b60015460408051600160e01b6333128d59028152905133926001600160a01b0316916333128d59916004808301926020929190829003018186803b1580156200248657600080fd5b505afa1580156200249b573d6000803e3d6000fd5b505050506040513d6020811015620024b257600080fd5b50516001600160a01b031614620024fe57604051600160e51b62461bcd0281526004018080602001828103825260298152602001806200419f6029913960400191505060405180910390fd5b60015460408051600160e51b63076b7fbb02815290516000926001600160a01b03169163ed6ff760916004808301926020929190829003018186803b1580156200254757600080fd5b505afa1580156200255c573d6000803e3d6000fd5b505050506040513d60208110156200257357600080fd5b505160408051600160e01b63eede87c10281526001600160a01b038681166004830152851515602483015291519293509083169163eede87c19160448082019260009290919082900301818387803b158015620025cf57600080fd5b505af1158015620025e4573d6000803e3d6000fd5b5050604080516001600160a01b0387168152851515602082015281517fab2f7f9e5ca2772fafa94f355c1842a80ae6b9e41f83083098d81f67d7a0b5089450908190039091019150a1505050565b6200263c6200110a565b620026915760408051600160e51b62461bcd02815260206004820181905260248201527f4f776e61626c653a2063616c6c6572206973206e6f7420746865206f776e6572604482015290519081900360640190fd5b6200269c816200269f565b50565b6001600160a01b038116620026e957604051600160e51b62461bcd028152600401808060200182810382526026815260200180620041796026913960400191505060405180910390fd5b600080546040516001600160a01b03808516939216917f8be0079c531659141344cd1fd0a4f28419497f9722a3daafe3b4186f6b6457e091a3600080546001600160a01b0319166001600160a01b0392909216919091179055565b611a2680620027538339019056fe60806040523480156200001157600080fd5b5060405162001a2638038062001a26833981018060405260e08110156200003757600080fd5b81516020830151604084015160608501805193959294919391830192916401000000008111156200006757600080fd5b820160208101848111156200007b57600080fd5b81516401000000008111828201871017156200009657600080fd5b50509291906020018051640100000000811115620000b357600080fd5b82016020810184811115620000c757600080fd5b8151640100000000811182820187101715620000e257600080fd5b505060208083015160409093015186519295509293508591859185916200011091600391908601906200022f565b508151620001269060049060208501906200022f565b506005805460ff191660ff929092169190911790555050600880546001600160a01b0319166001600160a01b038981169190911791829055604080517fed6ff7600000000000000000000000000000000000000000000000000000000081529051929091169163ed6ff76091600480820192602092909190829003018186803b158015620001b357600080fd5b505afa158015620001c8573d6000803e3d6000fd5b505050506040513d6020811015620001df57600080fd5b5051600980546001600160a01b0319166001600160a01b0392831617905560079190915560058054610100600160a81b031916610100979092169690960217909455505060065550620002d49050565b828054600181600116156101000203166002900490600052602060002090601f016020900481019282601f106200027257805160ff1916838001178555620002a2565b82800160010185558215620002a2579182015b82811115620002a257825182559160200191906001019062000285565b50620002b0929150620002b4565b5090565b620002d191905b80821115620002b05760008155600101620002bb565b90565b61174280620002e46000396000f3fe608060405234801561001057600080fd5b506004361061014d5760003560e01c806370a08231116100c3578063a9059cbb1161007c578063a9059cbb14610400578063b32d46101461042c578063db006a7514610449578063dd62ed3e14610466578063e6aa216c14610494578063f866c3191461049c5761014d565b806370a082311461034e57806389d1a0fc1461037457806394362e8b1461039857806395d89b41146103c45780639a32c207146103cc578063a457c2d7146103d45761014d565b8063313ce56711610115578063313ce5671461027c578063395093511461029a5780633af9e669146102c65780633edb7cb8146102ec5780635eae177c1461031a5780636d019f35146103465761014d565b806306fdde0314610152578063095ea7b3146101cf5780630ece1a5f1461020f57806318160ddd1461023e57806323b872dd14610246575b600080fd5b61015a6104d2565b6040805160208082528351818301528351919283929083019185019080838360005b8381101561019457818101518382015260200161017c565b50505050905090810190601f1680156101c15780820380516001836020036101000a031916815260200191505b509250505060405180910390f35b6101fb600480360360408110156101e557600080fd5b506001600160a01b038135169060200135610568565b604080519115158252519081900360200190f35b61022c6004803603602081101561022557600080fd5b503561057f565b60408051918252519081900360200190f35b61022c6105f6565b6101fb6004803603606081101561025c57600080fd5b506001600160a01b038135811691602081013590911690604001356105fc565b610284610653565b6040805160ff9092168252519081900360200190f35b6101fb600480360360408110156102b057600080fd5b506001600160a01b03813516906020013561065c565b61022c600480360360208110156102dc57600080fd5b50356001600160a01b0316610698565b6103186004803603604081101561030257600080fd5b506001600160a01b0381351690602001356106ab565b005b6101fb6004803603604081101561033057600080fd5b506001600160a01b0381351690602001356107d7565b61022c6108fd565b61022c6004803603602081101561036457600080fd5b50356001600160a01b0316610903565b61037c61091e565b604080516001600160a01b039092168252519081900360200190f35b610318600480360360408110156103ae57600080fd5b506001600160a01b038135169060200135610932565b61015a610a64565b61022c610ac5565b6101fb600480360360408110156103ea57600080fd5b506001600160a01b038135169060200135610acb565b6101fb6004803603604081101561041657600080fd5b506001600160a01b038135169060200135610b07565b61022c6004803603602081101561044257600080fd5b5035610b14565b6103186004803603602081101561045f57600080fd5b5035610b47565b61022c6004803603604081101561047c57600080fd5b506001600160a01b0381358116916020013516610d0a565b61022c610d35565b610318600480360360608110156104b257600080fd5b506001600160a01b03813581169160208101359091169060400135610dd7565b60038054604080516020601f600260001961010060018816150201909516949094049384018190048102820181019092528281526060939092909183018282801561055e5780601f106105335761010080835404028352916020019161055e565b820191906000526020600020905b81548152906001019060200180831161054157829003601f168201915b5050505050905090565b6000610575338484610f20565b5060015b92915050565b60008161058e575060006105f1565b6000610598610653565b60ff16600a0a90506105ed6105e8826105dc600654600a0a6105d06105bb610d35565b6105c48a611012565b9063ffffffff61102816565b9063ffffffff61106016565b9063ffffffff6110c316565b611130565b9150505b919050565b60025490565b6000610609848484611146565b6001600160a01b038416600090815260016020908152604080832033808552925290912054610649918691610644908663ffffffff61122e16565b610f20565b5060019392505050565b60055460ff1690565b3360008181526001602090815260408083206001600160a01b03871684529091528120549091610575918590610644908663ffffffff61128e16565b60006105796106a683610903565b61057f565b600860009054906101000a90046001600160a01b03166001600160a01b0316630261bf8b6040518163ffffffff1660e01b815260040160206040518083038186803b1580156106f957600080fd5b505afa15801561070d573d6000803e3d6000fd5b505050506040513d602081101561072357600080fd5b50516001600160a01b0316331461076e57604051600160e51b62461bcd0281526004018080602001828103825260368152602001806116776036913960400191505060405180910390fd5b61077882826112eb565b816001600160a01b03167f90e5d3d68ec162d9c7de393037a3ede04dd44f68e051bf2ace4a73c299dbc4db826107ad8461057f565b6107b686610903565b60408051938452602084019290925282820152519081900360600190a25050565b600080600860009054906101000a90046001600160a01b03166001600160a01b0316632f58b80d6040518163ffffffff1660e01b815260040160206040518083038186803b15801561082857600080fd5b505afa15801561083c573d6000803e3d6000fd5b505050506040513d602081101561085257600080fd5b5051905060006108618461057f565b60055460408051600160e01b6376e9d6150281526101009092046001600160a01b03908116600484015288811660248401526044830184905290519293508416916376e9d61591606480820192602092909190829003018186803b1580156108c857600080fd5b505afa1580156108dc573d6000803e3d6000fd5b505050506040513d60208110156108f257600080fd5b505195945050505050565b60075481565b6001600160a01b031660009081526020819052604090205490565b60055461010090046001600160a01b031681565b600860009054906101000a90046001600160a01b03166001600160a01b0316630261bf8b6040518163ffffffff1660e01b815260040160206040518083038186803b15801561098057600080fd5b505afa158015610994573d6000803e3d6000fd5b505050506040513d60208110156109aa57600080fd5b50516001600160a01b031633146109f557604051600160e51b62461bcd0281526004018080602001828103825260368152602001806116776036913960400191505060405180910390fd5b6000610a0082610b14565b9050610a0c83826113c7565b826001600160a01b03167fbe7799898ca2d813ff902b487c1b434ab45b47edd8f38b77ad5e99aae8341b7a8284610a4287610903565b60408051938452602084019290925282820152519081900360600190a2505050565b60048054604080516020601f600260001961010060018816150201909516949094049384018190048102820181019092528281526060939092909183018282801561055e5780601f106105335761010080835404028352916020019161055e565b60065481565b3360008181526001602090815260408083206001600160a01b03871684529091528120549091610575918590610644908663ffffffff61122e16565b6000610575338484611146565b600081610b23575060006105f1565b6105796105e8600654600a0a6105dc610b3a610d35565b869063ffffffff61106016565b3381610b5382826107d7565b610ba75760408051600160e51b62461bcd02815260206004820152601b60248201527f5472616e736665722063616e6e6f7420626520616c6c6f7765642e0000000000604482015290519081900360640190fd5b6000610bb28461057f565b9050610bbe33856114ba565b60085460408051600160e01b630261bf8b02815290516000926001600160a01b031691630261bf8b916004808301926020929190829003018186803b158015610c0657600080fd5b505afa158015610c1a573d6000803e3d6000fd5b505050506040513d6020811015610c3057600080fd5b505160055460408051600160e01b63935642cf0281526101009092046001600160a01b03908116600484015233602484015260448301869052905192935083169163935642cf9160648082019260009290919082900301818387803b158015610c9857600080fd5b505af1158015610cac573d6000803e3d6000fd5b50505050336001600160a01b03167fbd5034ffbd47e4e72a94baa2cdb74c6fad73cb3bcdc13036b72ec8306f5a76468684610ce633610903565b60408051938452602084019290925282820152519081900360600190a25050505050565b6001600160a01b03918216600090815260016020908152604080832093909416825291909152205490565b60095460055460408051600160e01b63d15e00530281526001600160a01b036101009093048316600482015290516000938493169163d15e0053916024808301926020929190829003018186803b158015610d8f57600080fd5b505afa158015610da3573d6000803e3d6000fd5b505050506040513d6020811015610db957600080fd5b5051600754909150610dd1908263ffffffff61102816565b91505090565b600860009054906101000a90046001600160a01b03166001600160a01b0316630261bf8b6040518163ffffffff1660e01b815260040160206040518083038186803b158015610e2557600080fd5b505afa158015610e39573d6000803e3d6000fd5b505050506040513d6020811015610e4f57600080fd5b50516001600160a01b03163314610e9a57604051600160e51b62461bcd0281526004018080602001828103825260368152602001806116776036913960400191505060405180910390fd5b610ea58383836114c8565b816001600160a01b0316836001600160a01b03167f2c335084544f8f7476a1c2e460962cd7e50d03d52a940d3d09e6f25894c75df383610ee48561057f565b610eed88610903565b610ef688610903565b604080519485526020850193909352838301919091526060830152519081900360800190a3505050565b6001600160a01b038316610f6857604051600160e51b62461bcd0281526004018080602001828103825260248152602001806116f36024913960400191505060405180910390fd5b6001600160a01b038216610fb057604051600160e51b62461bcd0281526004018080602001828103825260228152602001806116346022913960400191505060405180910390fd5b6001600160a01b03808416600081815260016020908152604080832094871680845294825291829020859055815185815291517f8c5be1e5ebec7d5bd14f71427d1e84f3dd0314c0f7b2291e5b200ac8c7c3b9259281900390910190a3505050565b600061057982633b9aca0063ffffffff61106016565b600060028204611058836105dc61104b876b033b2e3c9fd0803ce8000000611060565b849063ffffffff61128e16565b949350505050565b60008261106f57506000610579565b8282028284828161107c57fe5b04146110bc57604051600160e51b62461bcd0281526004018080602001828103825260218152602001806116566021913960400191505060405180910390fd5b9392505050565b600080821161111c5760408051600160e51b62461bcd02815260206004820152601a60248201527f536166654d6174683a206469766973696f6e206279207a65726f000000000000604482015290519081900360640190fd5b600082848161112757fe5b04949350505050565b600061057982633b9aca0063ffffffff6110c316565b828161115282826107d7565b6111a65760408051600160e51b62461bcd02815260206004820152601b60248201527f5472616e736665722063616e6e6f7420626520616c6c6f7765642e0000000000604482015290519081900360640190fd5b6111b18585856114c8565b836001600160a01b0316856001600160a01b03167fbf553f39591e51c9524a30865d4a5590424976ba75d2046a6c7ce15d6321b624856111f08761057f565b6111f98a610903565b6112028a610903565b604080519485526020850193909352838301919091526060830152519081900360800190a35050505050565b6000828211156112885760408051600160e51b62461bcd02815260206004820152601e60248201527f536166654d6174683a207375627472616374696f6e206f766572666c6f770000604482015290519081900360640190fd5b50900390565b6000828201838110156110bc5760408051600160e51b62461bcd02815260206004820152601b60248201527f536166654d6174683a206164646974696f6e206f766572666c6f770000000000604482015290519081900360640190fd5b6001600160a01b03821661133357604051600160e51b62461bcd0281526004018080602001828103825260218152602001806116ad6021913960400191505060405180910390fd5b600254611346908263ffffffff61122e16565b6002556001600160a01b038216600090815260208190526040902054611372908263ffffffff61122e16565b6001600160a01b038316600081815260208181526040808320949094558351858152935191937fddf252ad1be2c89b69c2b068fc378daa952ba7f163c4a11628f55a4df523b3ef929081900390910190a35050565b6001600160a01b0382166114255760408051600160e51b62461bcd02815260206004820152601f60248201527f45524332303a206d696e7420746f20746865207a65726f206164647265737300604482015290519081900360640190fd5b600254611438908263ffffffff61128e16565b6002556001600160a01b038216600090815260208190526040902054611464908263ffffffff61128e16565b6001600160a01b0383166000818152602081815260408083209490945583518581529351929391927fddf252ad1be2c89b69c2b068fc378daa952ba7f163c4a11628f55a4df523b3ef9281900390910190a35050565b6114c482826112eb565b5050565b6001600160a01b03831661151057604051600160e51b62461bcd0281526004018080602001828103825260258152602001806116ce6025913960400191505060405180910390fd5b6001600160a01b03821661155857604051600160e51b62461bcd0281526004018080602001828103825260238152602001806116116023913960400191505060405180910390fd5b6001600160a01b038316600090815260208190526040902054611581908263ffffffff61122e16565b6001600160a01b0380851660009081526020819052604080822093909355908416815220546115b6908263ffffffff61128e16565b6001600160a01b038084166000818152602081815260409182902094909455805185815290519193928716927fddf252ad1be2c89b69c2b068fc378daa952ba7f163c4a11628f55a4df523b3ef92918290030190a350505056fe45524332303a207472616e7366657220746f20746865207a65726f206164647265737345524332303a20617070726f766520746f20746865207a65726f2061646472657373536166654d6174683a206d756c7469706c69636174696f6e206f766572666c6f775468652063616c6c6572206f6620746869732066756e6374696f6e2063616e206f6e6c792062652061206c656e64696e6720706f6f6c45524332303a206275726e2066726f6d20746865207a65726f206164647265737345524332303a207472616e736665722066726f6d20746865207a65726f206164647265737345524332303a20617070726f76652066726f6d20746865207a65726f2061646472657373a165627a7a723058207fef76f69ace3bc4f45e545c159fe5492be679329803c4168d6856a74ad29b5600294f776e61626c653a206e6577206f776e657220697320746865207a65726f20616464726573735468652063616c6c6572206d7573742062652061206c656e64696e6720706f6f6c206d616e61676572a165627a7a72305820a5194ccfbb4cb3da0d28c9c9b682521f95ab0b9ba5aeac51321f4e526ce9abd80029",
  "source": "pragma solidity ^0.5.0;\n\nimport \"openzeppelin-solidity/contracts/ownership/Ownable.sol\";\nimport \"openzeppelin-solidity/contracts/math/SafeMath.sol\";\nimport \"openzeppelin-solidity/contracts/token/ERC20/ERC20Detailed.sol\";\nimport \"../libraries/CoreLibrary.sol\";\nimport \"../configuration/LendingPoolAddressesProvider.sol\";\nimport \"./LendingPoolCore.sol\";\nimport \"../interfaces/IFeeProvider.sol\";\nimport \"../tokenization/AToken.sol\";\n\n\n\n/*************************************************************************************\n@title LendingPoolConfigurator contract\n@author Aave\n@notice Executes configuration methods on the LendingPoolCore contract. Allows to enable/disable reserves,\nand set different protocol parameters.\n *************************************************************************************/\n\ncontract LendingPoolConfigurator is Ownable {\n\n    using SafeMath for uint256;\n\n    event ReserveInitialized(\n    address indexed _reserve,\n    address indexed _aToken,\n    uint256 _initialExchangeRate,\n    address _interestRateStrategyAddress);\n\n    event BorrowingEnabledOnReserve(\n        address _reserve,\n        bool _fixedRateEnabled\n    );\n\n    /**\n    @dev events\n     */\n    event BorrowingDisabledOnReserve(address indexed _reserve);\n    event ReserveEnabledAsCollateral(address indexed _reserve, uint256 _ltv, uint256 _liquidationThreshold);\n    event ReserveDisabledAsCollateral(address indexed _reserve);\n    event FixedRateEnabledOnReserve(address indexed _reserve);\n    event FixedRateDisabledOnReserve(address indexed _reserve);\n    event ReserveActivated(address indexed _reserve);\n    event ReserveDeactivated(address indexed _reserve);\n\n    LendingPoolAddressesProvider public poolAddressesProvider;\n    /**\n    @dev only lending pools can use functions affected by this modifier\n     */\n    modifier onlyLendingPoolManager {\n        require(\n            poolAddressesProvider.getLendingPoolManager() == msg.sender,\n            \"The caller must be a lending pool manager\"\n        );\n        _;\n    }\n\n    constructor(LendingPoolAddressesProvider _poolAddressesProvider)\n        public\n    {\n        poolAddressesProvider = _poolAddressesProvider;\n    }\n\n    /******************************************\n    @dev pool core managment functions\n     ******************************************/\n\n    function initReserve(\n        address _reserve,\n        uint256 _aTokenInitialExchangeRate,\n        uint256 _underlyingAssetDecimals,\n        address _interestRateStrategyAddress)\n        external\n        onlyLendingPoolManager\n    {\n        ERC20Detailed asset = ERC20Detailed(_reserve);\n\n        string memory aTokenName = string(abi.encodePacked(\"Aave Interest bearing \", asset.name()));\n        string memory aTokenSymbol = string(abi.encodePacked(\"a\", asset.symbol()));\n\n        initReserveWithData(\n            _reserve,\n            aTokenName,\n            aTokenSymbol,\n            _aTokenInitialExchangeRate,\n            _underlyingAssetDecimals,\n            _interestRateStrategyAddress);\n\n    }\n\n\n    /**\n    @notice initialises the reserve and instantiates the specific aToken with the specified initial exchange rate.\n     */\n    function initReserveWithData(\n        address _reserve,\n        string memory aTokenName,\n        string memory aTokenSymbol,\n        uint256 _aTokenInitialExchangeRate,\n        uint256 _underlyingAssetDecimals,\n        address _interestRateStrategyAddress)\n        public\n        onlyLendingPoolManager\n    {\n        LendingPoolCore core = LendingPoolCore(poolAddressesProvider.getLendingPoolCore());\n\n        AToken aTokenInstance = new AToken(\n            poolAddressesProvider,\n            _reserve,\n            _underlyingAssetDecimals,\n            aTokenName,\n            aTokenSymbol,\n            18,\n            _aTokenInitialExchangeRate\n        );\n        core.initReserve(_reserve, address(aTokenInstance), _underlyingAssetDecimals, _interestRateStrategyAddress);\n\n        emit ReserveInitialized(_reserve, address(aTokenInstance), _aTokenInitialExchangeRate, _interestRateStrategyAddress);\n    }\n\n\n    /**\n    @notice functions to enable/disable borrowing on reserve.\n     */\n    function enableBorrowingOnReserve(\n        address _reserve,\n        bool _fixedBorrowRateEnabled\n    ) external onlyLendingPoolManager {\n        LendingPoolCore core = LendingPoolCore(poolAddressesProvider.getLendingPoolCore());\n        core.enableBorrowingOnReserve(_reserve, _fixedBorrowRateEnabled);\n        emit BorrowingEnabledOnReserve(_reserve, _fixedBorrowRateEnabled);\n    }\n\n    function disableBorrowingOnReserve(address _reserve) external onlyLendingPoolManager {\n        LendingPoolCore core = LendingPoolCore(poolAddressesProvider.getLendingPoolCore());\n        core.disableBorrowingOnReserve(_reserve);\n\n        emit BorrowingDisabledOnReserve(_reserve);\n    }\n\n    /**\n    @notice functions to enable/disable usage of the reserve as collateral.\n     */\n\n\n    function enableReserveAsCollateral(address _reserve, uint256 _baseLTVasCollateral, uint256 _liquidationThreshold)\n        external\n        onlyLendingPoolManager\n    {\n        LendingPoolCore core = LendingPoolCore(poolAddressesProvider.getLendingPoolCore());\n        core.enableReserveAsCollateral(_reserve, _baseLTVasCollateral, _liquidationThreshold);\n        emit ReserveEnabledAsCollateral(_reserve, _baseLTVasCollateral, _liquidationThreshold);\n    }\n\n    function disableReserveAsCollateral(address _reserve) external onlyLendingPoolManager {\n        LendingPoolCore core = LendingPoolCore(poolAddressesProvider.getLendingPoolCore());\n        core.disableReserveAsCollateral(_reserve);\n\n        emit ReserveDisabledAsCollateral(_reserve);\n    }\n\n    /**\n    @notice functions to enable/disable fixed borrow rate mode on a reserve.\n     */\n\n\n    function enableReserveFixedBorrowRate(address _reserve) external onlyLendingPoolManager {\n        LendingPoolCore core = LendingPoolCore(poolAddressesProvider.getLendingPoolCore());\n        core.enableReserveFixedBorrowRate(_reserve);\n\n        emit FixedRateEnabledOnReserve(_reserve);\n    }\n\n    function disableReserveFixedBorrowRate(address _reserve) external onlyLendingPoolManager {\n        LendingPoolCore core = LendingPoolCore(poolAddressesProvider.getLendingPoolCore());\n        core.disableReserveFixedBorrowRate(_reserve);\n\n        emit FixedRateDisabledOnReserve(_reserve);\n    }\n\n    function activateReserve(address _reserve) external onlyLendingPoolManager {\n        LendingPoolCore core = LendingPoolCore(poolAddressesProvider.getLendingPoolCore());\n        core.activateReserve(_reserve);\n\n        emit ReserveActivated(_reserve);\n    }\n\n    function deactivateReserve(address _reserve) external onlyLendingPoolManager {\n        LendingPoolCore core = LendingPoolCore(poolAddressesProvider.getLendingPoolCore());\n        core.deactivateReserve(_reserve);\n\n        emit ReserveDeactivated(_reserve);\n    }\n\n\n    /***************\n    @dev functions to update available collaterals\n    @dev the interest rate and the ltv are expressed in percentage\n     ***************/\n\n    function setReserveBaseLTVasCollateral(address _reserve, uint256 _ltv) external onlyLendingPoolManager {\n        LendingPoolCore core = LendingPoolCore(poolAddressesProvider.getLendingPoolCore());\n        core.setReserveBaseLTVasCollateral(_reserve, _ltv);\n    }\n\n    function setReserveLiquidationThreshold(address _reserve, uint256 _threshold)\n        external\n        onlyLendingPoolManager\n    {\n        LendingPoolCore core = LendingPoolCore(poolAddressesProvider.getLendingPoolCore());\n        core.setReserveLiquidationThreshold(_reserve, _threshold);\n    }\n\n    function setReserveLiquidationDiscount(address _reserve, uint256 _threshold)\n        external\n        onlyLendingPoolManager\n    {\n        LendingPoolCore core = LendingPoolCore(poolAddressesProvider.getLendingPoolCore());\n        core.setReserveLiquidationDiscount(_reserve, _threshold);\n    }\n\n\n    function setReserveInterestRateStrategyAddress( address _reserve, address _rateStrategyAddress) external onlyLendingPoolManager {\n        LendingPoolCore core = LendingPoolCore(poolAddressesProvider.getLendingPoolCore());\n        core.setReserveInterestRateStrategyAddress(_reserve, _rateStrategyAddress);\n    }\n\n    function setLendingPoolCoreAddressesProvider(address _provider) external onlyLendingPoolManager {\n        LendingPoolCore core = LendingPoolCore(poolAddressesProvider.getLendingPoolCore());\n        core.setAddressesProvider(_provider);\n    }\n\n    function refreshLendingPoolCoreConfiguration() external onlyLendingPoolManager {\n        LendingPoolCore core = LendingPoolCore(poolAddressesProvider.getLendingPoolCore());\n        core.refreshConfiguration();\n    }\n}\n",
  "sourcePath": "/src/contracts/lendingpool/LendingPoolConfigurator.sol",
  "compiler": {
    "name": "solc",
    "version": "0.5.6+commit.b259423e.Emscripten.clang"
  },
  "schemaVersion": "3.0.15",
  "updatedAt": "2019-11-02T17:58:20.607Z",
  "devdoc": {
    "author": "Aave",
    "methods": {
      "initReserve(address,uint256,uint256,address)": {
        "details": "pool core managment functions*****************************************"
      },
      "isOwner()": {
        "details": "Returns true if the caller is the current owner."
      },
      "owner()": {
        "details": "Returns the address of the current owner."
      },
      "renounceOwnership()": {
        "details": "Leaves the contract without owner. It will not be possible to call `onlyOwner` functions anymore. Can only be called by the current owner.     * > Note: Renouncing ownership will leave the contract without an owner, thereby removing any functionality that is only available to the owner."
      },
      "setReserveBaseLTVasCollateral(address,uint256)": {
        "details": "functions to update available collateralsthe interest rate and the ltv are expressed in percentage**************"
      },
      "transferOwnership(address)": {
        "details": "Transfers ownership of the contract to a new account (`newOwner`). Can only be called by the current owner."
      }
    },
    "title": "LendingPoolConfigurator contract"
  },
  "userdoc": {
    "methods": {
      "enableBorrowingOnReserve(address,bool)": {
        "notice": "functions to enable/disable borrowing on reserve."
      },
      "enableReserveAsCollateral(address,uint256,uint256)": {
        "notice": "functions to enable/disable usage of the reserve as collateral."
      },
      "enableReserveFixedBorrowRate(address)": {
        "notice": "functions to enable/disable fixed borrow rate mode on a reserve."
      },
      "initReserve(address,uint256,uint256,address)": {
        "notice": "****************************************"
      },
      "initReserveWithData(address,string,string,uint256,uint256,address)": {
        "notice": "initialises the reserve and instantiates the specific aToken with the specified initial exchange rate."
      },
      "setReserveBaseLTVasCollateral(address,uint256)": {
        "notice": "*************"
      }
    },
    "notice": "***********************************************************************************Executes configuration methods on the LendingPoolCore contract. Allows to enable/disable reserves, and set different protocol parameters.************************************************************************************"
  }
}