{
  "contractName": "MockFlashLoanReceiver",
  "abi": [
    {
      "inputs": [
        {
          "name": "_provider",
          "type": "address"
        }
      ],
      "payable": false,
      "stateMutability": "nonpayable",
      "type": "constructor"
    },
    {
      "payable": true,
      "stateMutability": "payable",
      "type": "fallback"
    },
    {
      "anonymous": false,
      "inputs": [
        {
          "indexed": false,
          "name": "_reserve",
          "type": "address"
        },
        {
          "indexed": false,
          "name": "_amount",
          "type": "uint256"
        },
        {
          "indexed": false,
          "name": "_fee",
          "type": "uint256"
        }
      ],
      "name": "ExecutedWithFail",
      "type": "event"
    },
    {
      "anonymous": false,
      "inputs": [
        {
          "indexed": false,
          "name": "_reserve",
          "type": "address"
        },
        {
          "indexed": false,
          "name": "_amount",
          "type": "uint256"
        },
        {
          "indexed": false,
          "name": "_fee",
          "type": "uint256"
        }
      ],
      "name": "ExecutedWithSuccess",
      "type": "event"
    },
    {
      "constant": false,
      "inputs": [
        {
          "name": "_fail",
          "type": "bool"
        }
      ],
      "name": "setFailExecutionTransfer",
      "outputs": [],
      "payable": false,
      "stateMutability": "nonpayable",
      "type": "function"
    },
    {
      "constant": false,
      "inputs": [
        {
          "name": "_reserve",
          "type": "address"
        },
        {
          "name": "_amount",
          "type": "uint256"
        },
        {
          "name": "_fee",
          "type": "uint256"
        }
      ],
      "name": "executeOperation",
      "outputs": [
        {
          "name": "returnedAmount",
          "type": "uint256"
        }
      ],
      "payable": false,
      "stateMutability": "nonpayable",
      "type": "function"
    }
  ],
  "bytecode": "0x608060405260008054600160a01b60ff021916905534801561002057600080fd5b50604051602080610a5c8339810180604052602081101561004057600080fd5b5051600080546001600160a01b039092166001600160a01b03199092169190911790556109ea806100726000396000f3fe6080604052600436106100295760003560e01c8063388f70f11461002b5780638b514f8c14610057575b005b34801561003757600080fd5b506100296004803603602081101561004e57600080fd5b503515156100a8565b34801561006357600080fd5b506100966004803603606081101561007a57600080fd5b506001600160a01b0381351690602081013590604001356100d7565b60408051918252519081900360200190f35b60008054911515600160a01b0274ff000000000000000000000000000000000000000019909216919091179055565b6000836100e4308261039f565b84111561013b5760408051600160e51b62461bcd02815260206004820181905260248201527f496e76616c69642062616c616e636520666f722074686520636f6e7472616374604482015290519081900360640190fd5b600054600160a01b900460ff16156101ae57604080516001600160a01b03871681526020810186905280820185905290517f816f6a6bc084e1996be1a831afa1af30763d0501b6b43b9e1922a11f347366d79181900360600190a16101a6848463ffffffff61053a16565b915050610398565b60008060009054906101000a90046001600160a01b03166001600160a01b031663b5722bb56040518163ffffffff1660e01b815260040160206040518083038186803b1580156101fd57600080fd5b505afa158015610211573d6000803e3d6000fd5b505050506040513d602081101561022757600080fd5b505160408051600160e01b6317bfdd5702815290519192506001600160a01b038316916317bfdd5791600480820192602092909190829003018186803b15801561027057600080fd5b505afa158015610284573d6000803e3d6000fd5b505050506040513d602081101561029a57600080fd5b50516001600160a01b0387811691161461032157816001600160a01b031663a0712d68856040518263ffffffff1660e01b815260040180828152602001915050602060405180830381600087803b1580156102f457600080fd5b505af1158015610308573d6000803e3d6000fd5b505050506040513d602081101561031e57600080fd5b50505b61033a86610335878763ffffffff61053a16565b610597565b604080516001600160a01b03881681526020810187905280820186905290517f7d94e9d0c906b8d7b2b52a581b9e9ba728aa6f8cd8532bd87243d193f47401be9181900360600190a1610393858563ffffffff61053a16565b925050505b9392505050565b60008060009054906101000a90046001600160a01b03166001600160a01b031663b5722bb56040518163ffffffff1660e01b815260040160206040518083038186803b1580156103ee57600080fd5b505afa158015610402573d6000803e3d6000fd5b505050506040513d602081101561041857600080fd5b505160408051600160e01b6317bfdd5702815290516001600160a01b03909216916317bfdd5791600480820192602092909190829003018186803b15801561045f57600080fd5b505afa158015610473573d6000803e3d6000fd5b505050506040513d602081101561048957600080fd5b50516001600160a01b03838116911614156104af57506001600160a01b03821631610534565b816001600160a01b03166370a08231846040518263ffffffff1660e01b815260040180826001600160a01b03166001600160a01b0316815260200191505060206040518083038186803b15801561050557600080fd5b505afa158015610519573d6000803e3d6000fd5b505050506040513d602081101561052f57600080fd5b505190505b92915050565b6000828201838110156103985760408051600160e51b62461bcd02815260206004820152601b60248201527f536166654d6174683a206164646974696f6e206f766572666c6f770000000000604482015290519081900360640190fd5b60008060009054906101000a90046001600160a01b03166001600160a01b031663ed6ff7606040518163ffffffff1660e01b815260040160206040518083038186803b1580156105e657600080fd5b505afa1580156105fa573d6000803e3d6000fd5b505050506040513d602081101561061057600080fd5b5051905061061f818484610624565b505050565b6000809054906101000a90046001600160a01b03166001600160a01b031663b5722bb56040518163ffffffff1660e01b815260040160206040518083038186803b15801561067157600080fd5b505afa158015610685573d6000803e3d6000fd5b505050506040513d602081101561069b57600080fd5b505160408051600160e01b6317bfdd5702815290516001600160a01b03909216916317bfdd5791600480820192602092909190829003018186803b1580156106e257600080fd5b505afa1580156106f6573d6000803e3d6000fd5b505050506040513d602081101561070c57600080fd5b50516001600160a01b038381169116141561075d576040516001600160a01b0384169082156108fc029083906000818181858888f19350505050158015610757573d6000803e3d6000fd5b5061061f565b61061f6001600160a01b038316848363ffffffff61077716565b604080516001600160a01b038416602482015260448082018490528251808303909101815260649091019091526020810180516001600160e01b0316600160e01b63a9059cbb0217905261061f9084906107d9826001600160a01b031661098e565b61082d5760408051600160e51b62461bcd02815260206004820152601f60248201527f5361666545524332303a2063616c6c20746f206e6f6e2d636f6e747261637400604482015290519081900360640190fd5b60006060836001600160a01b0316836040518082805190602001908083835b6020831061086b5780518252601f19909201916020918201910161084c565b6001836020036101000a0380198251168184511680821785525050505050509050019150506000604051808303816000865af19150503d80600081146108cd576040519150601f19603f3d011682016040523d82523d6000602084013e6108d2565b606091505b50915091508161092c5760408051600160e51b62461bcd02815260206004820181905260248201527f5361666545524332303a206c6f772d6c6576656c2063616c6c206661696c6564604482015290519081900360640190fd5b8051156109885780806020019051602081101561094857600080fd5b505161098857604051600160e51b62461bcd02815260040180806020018281038252602a815260200180610995602a913960400191505060405180910390fd5b50505050565b3b15159056fe5361666545524332303a204552433230206f7065726174696f6e20646964206e6f742073756363656564a165627a7a72305820f894c66b3a39e93166e73e596bca0c338308c0f5c7bf8512ed1a9749a1cd9d470029",
  "source": "pragma solidity ^0.5.0;\n\nimport \"openzeppelin-solidity/contracts/math/SafeMath.sol\";\nimport \"../../flashloan/base/FlashLoanReceiverBase.sol\";\nimport \"../tokens/MintableERC20.sol\";\n\ncontract MockFlashLoanReceiver is FlashLoanReceiverBase {\n\n    using SafeMath for uint256;\n    event ExecutedWithFail(address _reserve, uint256 _amount, uint256 _fee);\n    event ExecutedWithSuccess(address _reserve, uint256 _amount, uint256 _fee);\n\n\n    bool failExecution = false;\n\n    constructor(ILendingPoolAddressesProvider _provider) FlashLoanReceiverBase(_provider)  public {\n    }\n\n    function setFailExecutionTransfer(bool _fail) public {\n        failExecution = _fail;\n    }\n\n    function executeOperation(\n        address _reserve,\n        uint256 _amount,\n        uint256 _fee) external returns(uint256 returnedAmount) {\n        //mint to this contract the specific amount\n        MintableERC20 token = MintableERC20(_reserve);\n\n\n        //check the contract has the specified balance\n        require(_amount <= getBalanceInternal(address(this), _reserve), \"Invalid balance for the contract\");\n\n        if(failExecution) {\n            emit ExecutedWithFail(_reserve, _amount, _fee);\n            //returns amount + fee, but does not transfer back funds\n            return _amount.add(_fee);\n        }\n\n        //execution does not fail - mint tokens and return them to the _destination\n        //note: if the reserve is eth, the mock contract must receive at least _fee ETH before calling executeOperation\n        INetworkMetadataProvider dataProvider = INetworkMetadataProvider(addressesProvider.getNetworkMetadataProvider());\n\n        if(_reserve != dataProvider.getEthereumAddress()) {\n            token.mint(_fee);\n        }\n        //returning amount + fee to the destination\n        transferFundsBackToPoolInternal(_reserve, _amount.add(_fee));\n        emit ExecutedWithSuccess(_reserve, _amount, _fee);\n        return _amount.add(_fee);\n\n    }\n}",
  "sourcePath": "/src/contracts/mocks/FlashLoan/MockFlashLoanReceiver.sol",
  "compiler": {
    "name": "solc",
    "version": "0.5.6+commit.b259423e.Emscripten.clang"
  },
  "schemaVersion": "3.0.15",
  "updatedAt": "2019-11-02T17:58:20.632Z",
  "devdoc": {
    "methods": {}
  },
  "userdoc": {
    "methods": {}
  }
}