{
  "contractName": "NetworkMetadataProvider",
  "abi": [
    {
      "constant": true,
      "inputs": [
        {
          "name": "_key",
          "type": "bytes32"
        }
      ],
      "name": "getAddress",
      "outputs": [
        {
          "name": "",
          "type": "address"
        }
      ],
      "payable": false,
      "stateMutability": "view",
      "type": "function"
    },
    {
      "constant": true,
      "inputs": [
        {
          "name": "_key",
          "type": "bytes32"
        }
      ],
      "name": "getUint",
      "outputs": [
        {
          "name": "",
          "type": "uint256"
        }
      ],
      "payable": false,
      "stateMutability": "view",
      "type": "function"
    },
    {
      "constant": true,
      "inputs": [],
      "name": "getBlocksPerYear",
      "outputs": [
        {
          "name": "",
          "type": "uint256"
        }
      ],
      "payable": false,
      "stateMutability": "view",
      "type": "function"
    },
    {
      "constant": false,
      "inputs": [
        {
          "name": "_blocksPerYear",
          "type": "uint256"
        }
      ],
      "name": "setBlocksPerYear",
      "outputs": [],
      "payable": false,
      "stateMutability": "nonpayable",
      "type": "function"
    },
    {
      "constant": true,
      "inputs": [],
      "name": "getEthereumAddress",
      "outputs": [
        {
          "name": "",
          "type": "address"
        }
      ],
      "payable": false,
      "stateMutability": "view",
      "type": "function"
    },
    {
      "constant": false,
      "inputs": [
        {
          "name": "_ethereumAddress",
          "type": "address"
        }
      ],
      "name": "setEthereumAddress",
      "outputs": [],
      "payable": false,
      "stateMutability": "nonpayable",
      "type": "function"
    }
  ],
  "bytecode": "0x608060405234801561001057600080fd5b50610241806100206000396000f3fe608060405234801561001057600080fd5b50600436106100625760003560e01c806317bfdd571461006757806321f8a7211461008b5780635c85fe81146100a8578063741de148146100d0578063bd02d0f5146100ea578063e5fa2b7014610107575b600080fd5b61006f610124565b604080516001600160a01b039092168252519081900360200190f35b61006f600480360360208110156100a157600080fd5b503561014a565b6100ce600480360360208110156100be57600080fd5b50356001600160a01b0316610165565b005b6100d8610188565b60408051918252519081900360200190f35b6100d86004803603602081101561010057600080fd5b50356101a4565b6100ce6004803603602081101561011d57600080fd5b50356101b6565b6000610145600160801b6f455448455245554d5f414444524553530261014a565b905090565b6000908152600160205260409020546001600160a01b031690565b610185600160801b6f455448455245554d5f4144445245535302826101d5565b50565b6000610145600160891b6e212627a1a5a9afa822a92faca2a0a9025b60009081526020819052604090205490565b610185600160891b6e212627a1a5a9afa822a92faca2a0a90282610203565b60009182526001602052604090912080546001600160a01b0319166001600160a01b03909216919091179055565b6000918252602082905260409091205556fea165627a7a72305820c6fabee4a9967ec4cc6ab538e8e09c409a3ca7eda7030782da1bf7c70315f82d0029",
  "source": "pragma solidity ^0.5.0;\n\nimport \"../interfaces/INetworkMetadataProvider.sol\";\nimport \"./UintStorage.sol\";\nimport \"./AddressStorage.sol\";\n\ncontract NetworkMetadataProvider is INetworkMetadataProvider, UintStorage, AddressStorage {\n    bytes32 private constant BLOCKS_PER_YEAR = \"BLOCKS_PER_YEAR\";\n    bytes32 private constant ETHEREUM_ADDRESS = \"ETHEREUM_ADDRESS\";\n\n    function getBlocksPerYear() external view returns (uint256) {\n        return getUint(BLOCKS_PER_YEAR);\n    }\n\n    // TODO: add access control rules under DAO\n    function setBlocksPerYear(uint256 _blocksPerYear) external {\n        return _setUint(BLOCKS_PER_YEAR, _blocksPerYear);\n    }\n\n    function getEthereumAddress() external view returns (address) {\n        return getAddress(ETHEREUM_ADDRESS);\n    }\n\n    // TODO: add access control rules under DAO\n    function setEthereumAddress(address _ethereumAddress) external {\n        return _setAddress(ETHEREUM_ADDRESS, _ethereumAddress);\n    }\n\n}\n",
  "sourcePath": "/src/contracts/configuration/NetworkMetadataProvider.sol",
  "compiler": {
    "name": "solc",
    "version": "0.5.6+commit.b259423e.Emscripten.clang"
  },
  "schemaVersion": "3.0.15",
  "updatedAt": "2019-11-02T17:58:20.628Z",
  "devdoc": {
    "methods": {}
  },
  "userdoc": {
    "methods": {}
  }
}