{
  "contractName": "PriceOracle",
  "abi": [
    {
      "constant": true,
      "inputs": [
        {
          "name": "_asset",
          "type": "address"
        }
      ],
      "name": "getAssetPrice",
      "outputs": [
        {
          "name": "",
          "type": "uint256"
        }
      ],
      "payable": false,
      "stateMutability": "view",
      "type": "function"
    },
    {
      "constant": false,
      "inputs": [
        {
          "name": "_asset",
          "type": "address"
        },
        {
          "name": "_price",
          "type": "uint256"
        }
      ],
      "name": "setAssetPrice",
      "outputs": [],
      "payable": false,
      "stateMutability": "nonpayable",
      "type": "function"
    },
    {
      "constant": true,
      "inputs": [],
      "name": "getEthUsdPrice",
      "outputs": [
        {
          "name": "",
          "type": "uint256"
        }
      ],
      "payable": false,
      "stateMutability": "view",
      "type": "function"
    },
    {
      "constant": false,
      "inputs": [
        {
          "name": "_price",
          "type": "uint256"
        }
      ],
      "name": "setEthUsdPrice",
      "outputs": [],
      "payable": false,
      "stateMutability": "nonpayable",
      "type": "function"
    }
  ],
  "bytecode": "0x608060405234801561001057600080fd5b5061014a806100206000396000f3fe608060405234801561001057600080fd5b506004361061004c5760003560e01c806351323f7214610051578063a0a8045e1461007f578063b3596f0714610099578063b951883a146100bf575b600080fd5b61007d6004803603604081101561006757600080fd5b506001600160a01b0381351690602001356100dc565b005b6100876100f8565b60408051918252519081900360200190f35b610087600480360360208110156100af57600080fd5b50356001600160a01b03166100fe565b61007d600480360360208110156100d557600080fd5b5035610119565b6001600160a01b03909116600090815260208190526040902055565b60015490565b6001600160a01b031660009081526020819052604090205490565b60015556fea165627a7a72305820f390372e896ef3e141734aca149fab62a028f6dec1e6b0f112f11c2e74f11d7a0029",
  "source": "pragma solidity ^0.5.0;\n\nimport \"../../interfaces/IPriceOracle.sol\";\n\n\ncontract PriceOracle is IPriceOracle {\n\n    mapping(address => uint) prices;\n    uint ethPriceUsd;\n\n    function getAssetPrice(address _asset) external view returns(uint) {\n        return prices[_asset];\n    }\n\n    function setAssetPrice(address _asset, uint _price) external {\n        prices[_asset] = _price;\n    }\n\n    function getEthUsdPrice() external view returns(uint) {\n        return ethPriceUsd;\n    }\n\n    function setEthUsdPrice(uint _price) external {\n        ethPriceUsd = _price;\n    }\n}",
  "sourcePath": "/src/contracts/mocks/Oracle/PriceOracle.sol",
  "compiler": {
    "name": "solc",
    "version": "0.5.6+commit.b259423e.Emscripten.clang"
  },
  "schemaVersion": "3.0.15",
  "updatedAt": "2019-11-02T17:58:20.601Z",
  "devdoc": {
    "methods": {}
  },
  "userdoc": {
    "methods": {}
  }
}