{
  "contractName": "UintStorage",
  "abi": [
    {
      "constant": true,
      "inputs": [
        {
          "internalType": "bytes32",
          "name": "_key",
          "type": "bytes32"
        }
      ],
      "name": "getUint",
      "outputs": [
        {
          "internalType": "uint256",
          "name": "",
          "type": "uint256"
        }
      ],
      "payable": false,
      "stateMutability": "view",
      "type": "function"
    }
  ],
  "bytecode": "0x6080604052348015600f57600080fd5b5060a08061001e6000396000f3fe6080604052348015600f57600080fd5b506004361060285760003560e01c8063bd02d0f514602d575b600080fd5b604760048036036020811015604157600080fd5b50356059565b60408051918252519081900360200190f35b6000908152602081905260409020549056fea265627a7a7231582026bca078225c4b9d0c077fde168780f1a82a394b432c236e8519ace3b5067dc264736f6c634300050e0032",
  "source": "pragma solidity ^0.5.0;\n\ncontract UintStorage {\n    mapping(bytes32 => uint256) private uints;\n\n    function getUint(bytes32 _key) public view returns (uint256) {\n        return uints[_key];\n    }\n\n    function _setUint(bytes32 _key, uint256 _value) internal {\n        uints[_key] = _value;\n    }\n\n}\n",
  "sourcePath": "/src/contracts/configuration/UintStorage.sol",
  "compiler": {
    "name": "solc",
    "version": "0.5.14+commit.01f1aaa4.Emscripten.clang"
  },
  "schemaVersion": "3.0.11",
  "updatedAt": "2020-01-09T12:41:06.640Z",
  "devdoc": {
    "methods": {}
  },
  "userdoc": {
    "methods": {}
  }
}